{
	"contracts/pasanaku.sol": {
		"Pasanaku": {
			"abi": [
				{
					"anonymous": false,
					"inputs": [
						{
							"indexed": true,
							"internalType": "bytes32",
							"name": "salaId",
							"type": "bytes32"
						},
						{
							"indexed": false,
							"internalType": "address",
							"name": "beneficiario",
							"type": "address"
						}
					],
					"name": "BeneficiarioSeleccionado",
					"type": "event"
				},
				{
					"anonymous": false,
					"inputs": [
						{
							"indexed": true,
							"internalType": "bytes32",
							"name": "salaId",
							"type": "bytes32"
						},
						{
							"indexed": false,
							"internalType": "string",
							"name": "mensaje",
							"type": "string"
						}
					],
					"name": "SalaCerrada",
					"type": "event"
				},
				{
					"inputs": [
						{
							"internalType": "bytes32",
							"name": "salaId",
							"type": "bytes32"
						}
					],
					"name": "buscarSala",
					"outputs": [
						{
							"internalType": "uint256",
							"name": "",
							"type": "uint256"
						},
						{
							"internalType": "uint256",
							"name": "",
							"type": "uint256"
						},
						{
							"internalType": "uint256",
							"name": "",
							"type": "uint256"
						}
					],
					"stateMutability": "view",
					"type": "function"
				},
				{
					"inputs": [
						{
							"internalType": "bytes32",
							"name": "salaId",
							"type": "bytes32"
						},
						{
							"internalType": "address",
							"name": "participanteDireccion",
							"type": "address"
						},
						{
							"internalType": "uint256",
							"name": "monto",
							"type": "uint256"
						}
					],
					"name": "contribuir",
					"outputs": [],
					"stateMutability": "payable",
					"type": "function"
				},
				{
					"inputs": [
						{
							"internalType": "address",
							"name": "_anfitrion",
							"type": "address"
						},
						{
							"internalType": "uint256",
							"name": "_cantidadParticipantes",
							"type": "uint256"
						},
						{
							"internalType": "uint256",
							"name": "_montoAportarPorRonda",
							"type": "uint256"
						},
						{
							"internalType": "string",
							"name": "_tipoDeReparticion",
							"type": "string"
						},
						{
							"internalType": "uint256",
							"name": "_diasParaEnviarAporte",
							"type": "uint256"
						}
					],
					"name": "crearSala",
					"outputs": [
						{
							"internalType": "bytes32",
							"name": "",
							"type": "bytes32"
						}
					],
					"stateMutability": "nonpayable",
					"type": "function"
				},
				{
					"inputs": [
						{
							"internalType": "bytes32",
							"name": "salaId",
							"type": "bytes32"
						}
					],
					"name": "enviarMontoTotal",
					"outputs": [],
					"stateMutability": "nonpayable",
					"type": "function"
				},
				{
					"inputs": [
						{
							"internalType": "bytes32",
							"name": "salaId",
							"type": "bytes32"
						}
					],
					"name": "obtenerDetallesSala",
					"outputs": [
						{
							"internalType": "address",
							"name": "",
							"type": "address"
						},
						{
							"internalType": "uint256",
							"name": "",
							"type": "uint256"
						},
						{
							"internalType": "uint256",
							"name": "",
							"type": "uint256"
						},
						{
							"internalType": "uint256",
							"name": "",
							"type": "uint256"
						},
						{
							"internalType": "uint256",
							"name": "",
							"type": "uint256"
						},
						{
							"internalType": "string",
							"name": "",
							"type": "string"
						},
						{
							"internalType": "uint256",
							"name": "",
							"type": "uint256"
						},
						{
							"internalType": "uint256",
							"name": "",
							"type": "uint256"
						},
						{
							"internalType": "bool",
							"name": "",
							"type": "bool"
						}
					],
					"stateMutability": "view",
					"type": "function"
				},
				{
					"inputs": [
						{
							"internalType": "bytes32",
							"name": "salaId",
							"type": "bytes32"
						},
						{
							"internalType": "address",
							"name": "anfitrionDireccion",
							"type": "address"
						}
					],
					"name": "realizarSorteo",
					"outputs": [],
					"stateMutability": "nonpayable",
					"type": "function"
				},
				{
					"inputs": [
						{
							"internalType": "bytes32",
							"name": "",
							"type": "bytes32"
						}
					],
					"name": "salas",
					"outputs": [
						{
							"internalType": "address",
							"name": "anfitrion",
							"type": "address"
						},
						{
							"internalType": "uint256",
							"name": "cantidadParticipantes",
							"type": "uint256"
						},
						{
							"internalType": "uint256",
							"name": "montoAportarPorRonda",
							"type": "uint256"
						},
						{
							"internalType": "uint256",
							"name": "montoTotalARedibirPorRonda",
							"type": "uint256"
						},
						{
							"internalType": "uint256",
							"name": "numeroDeRondas",
							"type": "uint256"
						},
						{
							"internalType": "uint256",
							"name": "rondaActual",
							"type": "uint256"
						},
						{
							"internalType": "string",
							"name": "tipoDeReparticion",
							"type": "string"
						},
						{
							"internalType": "uint256",
							"name": "diasParaEnviarAporte",
							"type": "uint256"
						},
						{
							"internalType": "uint256",
							"name": "pozoTotal",
							"type": "uint256"
						},
						{
							"internalType": "bool",
							"name": "salaActiva",
							"type": "bool"
						}
					],
					"stateMutability": "view",
					"type": "function"
				},
				{
					"inputs": [
						{
							"internalType": "bytes32",
							"name": "salaId",
							"type": "bytes32"
						},
						{
							"internalType": "address",
							"name": "participanteDireccion",
							"type": "address"
						}
					],
					"name": "unirseASala",
					"outputs": [],
					"stateMutability": "nonpayable",
					"type": "function"
				}
			],
			"devdoc": {
				"kind": "dev",
				"methods": {},
				"version": 1
			},
			"evm": {
				"assembly": "    /* \"contracts/pasanaku.sol\":60:8125  contract Pasanaku {... */\n  mstore(0x40, 0x80)\n  callvalue\n  dup1\n  iszero\n  tag_1\n  jumpi\n  0x00\n  dup1\n  revert\ntag_1:\n  pop\n  dataSize(sub_0)\n  dup1\n  dataOffset(sub_0)\n  0x00\n  codecopy\n  0x00\n  return\nstop\n\nsub_0: assembly {\n        /* \"contracts/pasanaku.sol\":60:8125  contract Pasanaku {... */\n      mstore(0x40, 0x80)\n      jumpi(tag_1, lt(calldatasize, 0x04))\n      shr(0xe0, calldataload(0x00))\n      dup1\n      0xb3d5a928\n      gt\n      tag_10\n      jumpi\n      dup1\n      0xb3d5a928\n      eq\n      tag_6\n      jumpi\n      dup1\n      0xc37cea5f\n      eq\n      tag_7\n      jumpi\n      dup1\n      0xc4aa4183\n      eq\n      tag_8\n      jumpi\n      dup1\n      0xf89e7257\n      eq\n      tag_9\n      jumpi\n      jump(tag_1)\n    tag_10:\n      dup1\n      0x59266711\n      eq\n      tag_2\n      jumpi\n      dup1\n      0x8d22ed65\n      eq\n      tag_3\n      jumpi\n      dup1\n      0x90b7a18b\n      eq\n      tag_4\n      jumpi\n      dup1\n      0x92c6e203\n      eq\n      tag_5\n      jumpi\n    tag_1:\n      0x00\n      dup1\n      revert\n        /* \"contracts/pasanaku.sol\":5623:6882  function enviarMontoTotal(bytes32 salaId) public {... */\n    tag_2:\n      callvalue\n      dup1\n      iszero\n      tag_11\n      jumpi\n      0x00\n      dup1\n      revert\n    tag_11:\n      pop\n      tag_12\n      0x04\n      dup1\n      calldatasize\n      sub\n      dup2\n      add\n      swap1\n      tag_13\n      swap2\n      swap1\n      tag_14\n      jump\t// in\n    tag_13:\n      tag_15\n      jump\t// in\n    tag_12:\n      stop\n        /* \"contracts/pasanaku.sol\":881:2696  function crearSala(... */\n    tag_3:\n      callvalue\n      dup1\n      iszero\n      tag_16\n      jumpi\n      0x00\n      dup1\n      revert\n    tag_16:\n      pop\n      tag_17\n      0x04\n      dup1\n      calldatasize\n      sub\n      dup2\n      add\n      swap1\n      tag_18\n      swap2\n      swap1\n      tag_19\n      jump\t// in\n    tag_18:\n      tag_20\n      jump\t// in\n    tag_17:\n      mload(0x40)\n      tag_21\n      swap2\n      swap1\n      tag_22\n      jump\t// in\n    tag_21:\n      mload(0x40)\n      dup1\n      swap2\n      sub\n      swap1\n      return\n        /* \"contracts/pasanaku.sol\":651:688  mapping(bytes32 => Sala) public salas */\n    tag_4:\n      callvalue\n      dup1\n      iszero\n      tag_23\n      jumpi\n      0x00\n      dup1\n      revert\n    tag_23:\n      pop\n      tag_24\n      0x04\n      dup1\n      calldatasize\n      sub\n      dup2\n      add\n      swap1\n      tag_25\n      swap2\n      swap1\n      tag_14\n      jump\t// in\n    tag_25:\n      tag_26\n      jump\t// in\n    tag_24:\n      mload(0x40)\n      tag_27\n      swap11\n      swap10\n      swap9\n      swap8\n      swap7\n      swap6\n      swap5\n      swap4\n      swap3\n      swap2\n      swap1\n      tag_28\n      jump\t// in\n    tag_27:\n      mload(0x40)\n      dup1\n      swap2\n      sub\n      swap1\n      return\n        /* \"contracts/pasanaku.sol\":3718:4603  function contribuir(bytes32 salaId, address participanteDireccion, uint monto) public payable {... */\n    tag_5:\n      tag_29\n      0x04\n      dup1\n      calldatasize\n      sub\n      dup2\n      add\n      swap1\n      tag_30\n      swap2\n      swap1\n      tag_31\n      jump\t// in\n    tag_30:\n      tag_32\n      jump\t// in\n    tag_29:\n      stop\n        /* \"contracts/pasanaku.sol\":2742:3677  function unirseASala(bytes32 salaId, address participanteDireccion) public {... */\n    tag_6:\n      callvalue\n      dup1\n      iszero\n      tag_33\n      jumpi\n      0x00\n      dup1\n      revert\n    tag_33:\n      pop\n      tag_34\n      0x04\n      dup1\n      calldatasize\n      sub\n      dup2\n      add\n      swap1\n      tag_35\n      swap2\n      swap1\n      tag_36\n      jump\t// in\n    tag_35:\n      tag_37\n      jump\t// in\n    tag_34:\n      stop\n        /* \"contracts/pasanaku.sol\":4685:5569  function realizarSorteo(bytes32 salaId, address anfitrionDireccion) public {... */\n    tag_7:\n      callvalue\n      dup1\n      iszero\n      tag_38\n      jumpi\n      0x00\n      dup1\n      revert\n    tag_38:\n      pop\n      tag_39\n      0x04\n      dup1\n      calldatasize\n      sub\n      dup2\n      add\n      swap1\n      tag_40\n      swap2\n      swap1\n      tag_36\n      jump\t// in\n    tag_40:\n      tag_41\n      jump\t// in\n    tag_39:\n      stop\n        /* \"contracts/pasanaku.sol\":7711:8122  function buscarSala(bytes32 salaId) public view returns (... */\n    tag_8:\n      callvalue\n      dup1\n      iszero\n      tag_42\n      jumpi\n      0x00\n      dup1\n      revert\n    tag_42:\n      pop\n      tag_43\n      0x04\n      dup1\n      calldatasize\n      sub\n      dup2\n      add\n      swap1\n      tag_44\n      swap2\n      swap1\n      tag_14\n      jump\t// in\n    tag_44:\n      tag_45\n      jump\t// in\n    tag_43:\n      mload(0x40)\n      tag_46\n      swap4\n      swap3\n      swap2\n      swap1\n      tag_47\n      jump\t// in\n    tag_46:\n      mload(0x40)\n      dup1\n      swap2\n      sub\n      swap1\n      return\n        /* \"contracts/pasanaku.sol\":6990:7638  function obtenerDetallesSala(bytes32 salaId) public view returns (... */\n    tag_9:\n      callvalue\n      dup1\n      iszero\n      tag_48\n      jumpi\n      0x00\n      dup1\n      revert\n    tag_48:\n      pop\n      tag_49\n      0x04\n      dup1\n      calldatasize\n      sub\n      dup2\n      add\n      swap1\n      tag_50\n      swap2\n      swap1\n      tag_14\n      jump\t// in\n    tag_50:\n      tag_51\n      jump\t// in\n    tag_49:\n      mload(0x40)\n      tag_52\n      swap10\n      swap9\n      swap8\n      swap7\n      swap6\n      swap5\n      swap4\n      swap3\n      swap2\n      swap1\n      tag_53\n      jump\t// in\n    tag_52:\n      mload(0x40)\n      dup1\n      swap2\n      sub\n      swap1\n      return\n        /* \"contracts/pasanaku.sol\":5623:6882  function enviarMontoTotal(bytes32 salaId) public {... */\n    tag_15:\n        /* \"contracts/pasanaku.sol\":5683:5700  Sala storage sala */\n      0x00\n        /* \"contracts/pasanaku.sol\":5703:5708  salas */\n      dup1\n        /* \"contracts/pasanaku.sol\":5703:5716  salas[salaId] */\n      0x00\n        /* \"contracts/pasanaku.sol\":5709:5715  salaId */\n      dup4\n        /* \"contracts/pasanaku.sol\":5703:5716  salas[salaId] */\n      dup2\n      mstore\n      0x20\n      add\n      swap1\n      dup2\n      mstore\n      0x20\n      add\n      0x00\n      keccak256\n        /* \"contracts/pasanaku.sol\":5683:5716  Sala storage sala = salas[salaId] */\n      swap1\n      pop\n        /* \"contracts/pasanaku.sol\":5753:5757  sala */\n      dup1\n        /* \"contracts/pasanaku.sol\":5753:5784  sala.montoTotalARedibirPorRonda */\n      0x03\n      add\n      sload\n        /* \"contracts/pasanaku.sol\":5735:5739  sala */\n      dup2\n        /* \"contracts/pasanaku.sol\":5735:5749  sala.pozoTotal */\n      0x08\n      add\n      sload\n        /* \"contracts/pasanaku.sol\":5735:5784  sala.pozoTotal >= sala.montoTotalARedibirPorRonda */\n      lt\n      iszero\n        /* \"contracts/pasanaku.sol\":5727:5822  require(sala.pozoTotal >= sala.montoTotalARedibirPorRonda, \"No se ha alcanzado el monto total\") */\n      tag_55\n      jumpi\n      mload(0x40)\n      0x08c379a000000000000000000000000000000000000000000000000000000000\n      dup2\n      mstore\n      0x04\n      add\n      tag_56\n      swap1\n      tag_57\n      jump\t// in\n    tag_56:\n      mload(0x40)\n      dup1\n      swap2\n      sub\n      swap1\n      revert\n    tag_55:\n        /* \"contracts/pasanaku.sol\":5835:5863  address payable destinatario */\n      0x00\n        /* \"contracts/pasanaku.sol\":5879:5885  uint i */\n      dup1\n        /* \"contracts/pasanaku.sol\":5888:5889  0 */\n      0x00\n        /* \"contracts/pasanaku.sol\":5879:5889  uint i = 0 */\n      swap1\n      pop\n        /* \"contracts/pasanaku.sol\":5874:6266  for (uint i = 0; i < sala.participantes.length; i++) {... */\n    tag_58:\n        /* \"contracts/pasanaku.sol\":5895:5899  sala */\n      dup3\n        /* \"contracts/pasanaku.sol\":5895:5913  sala.participantes */\n      0x0a\n      add\n        /* \"contracts/pasanaku.sol\":5895:5920  sala.participantes.length */\n      dup1\n      sload\n      swap1\n      pop\n        /* \"contracts/pasanaku.sol\":5891:5892  i */\n      dup2\n        /* \"contracts/pasanaku.sol\":5891:5920  i < sala.participantes.length */\n      lt\n        /* \"contracts/pasanaku.sol\":5874:6266  for (uint i = 0; i < sala.participantes.length; i++) {... */\n      iszero\n      tag_59\n      jumpi\n        /* \"contracts/pasanaku.sol\":5946:5950  sala */\n      dup3\n        /* \"contracts/pasanaku.sol\":5946:5964  sala.participantes */\n      0x0a\n      add\n        /* \"contracts/pasanaku.sol\":5965:5966  i */\n      dup2\n        /* \"contracts/pasanaku.sol\":5946:5967  sala.participantes[i] */\n      dup2\n      sload\n      dup2\n      lt\n      tag_61\n      jumpi\n      tag_62\n      tag_63\n      jump\t// in\n    tag_62:\n    tag_61:\n      swap1\n      0x00\n      mstore\n      keccak256(0x00, 0x20)\n      swap1\n      0x03\n      mul\n      add\n        /* \"contracts/pasanaku.sol\":5946:5977  sala.participantes[i].esSuTurno */\n      0x02\n      add\n      0x01\n      swap1\n      sload\n      swap1\n      0x0100\n      exp\n      swap1\n      div\n      0xff\n      and\n        /* \"contracts/pasanaku.sol\":5946:6020  sala.participantes[i].esSuTurno && !sala.participantes[i].haRecibidoFondos */\n      dup1\n      iszero\n      tag_65\n      jumpi\n      pop\n        /* \"contracts/pasanaku.sol\":5982:5986  sala */\n      dup3\n        /* \"contracts/pasanaku.sol\":5982:6000  sala.participantes */\n      0x0a\n      add\n        /* \"contracts/pasanaku.sol\":6001:6002  i */\n      dup2\n        /* \"contracts/pasanaku.sol\":5982:6003  sala.participantes[i] */\n      dup2\n      sload\n      dup2\n      lt\n      tag_66\n      jumpi\n      tag_67\n      tag_63\n      jump\t// in\n    tag_67:\n    tag_66:\n      swap1\n      0x00\n      mstore\n      keccak256(0x00, 0x20)\n      swap1\n      0x03\n      mul\n      add\n        /* \"contracts/pasanaku.sol\":5982:6020  sala.participantes[i].haRecibidoFondos */\n      0x02\n      add\n      0x00\n      swap1\n      sload\n      swap1\n      0x0100\n      exp\n      swap1\n      div\n      0xff\n      and\n        /* \"contracts/pasanaku.sol\":5981:6020  !sala.participantes[i].haRecibidoFondos */\n      iszero\n        /* \"contracts/pasanaku.sol\":5946:6020  sala.participantes[i].esSuTurno && !sala.participantes[i].haRecibidoFondos */\n    tag_65:\n        /* \"contracts/pasanaku.sol\":5942:6255  if (sala.participantes[i].esSuTurno && !sala.participantes[i].haRecibidoFondos) {... */\n      iszero\n      tag_69\n      jumpi\n        /* \"contracts/pasanaku.sol\":6064:6068  sala */\n      dup3\n        /* \"contracts/pasanaku.sol\":6064:6082  sala.participantes */\n      0x0a\n      add\n        /* \"contracts/pasanaku.sol\":6083:6084  i */\n      dup2\n        /* \"contracts/pasanaku.sol\":6064:6085  sala.participantes[i] */\n      dup2\n      sload\n      dup2\n      lt\n      tag_70\n      jumpi\n      tag_71\n      tag_63\n      jump\t// in\n    tag_71:\n    tag_70:\n      swap1\n      0x00\n      mstore\n      keccak256(0x00, 0x20)\n      swap1\n      0x03\n      mul\n      add\n        /* \"contracts/pasanaku.sol\":6064:6092  sala.participantes[i].wallet */\n      0x00\n      add\n      0x00\n      swap1\n      sload\n      swap1\n      0x0100\n      exp\n      swap1\n      div\n      0xffffffffffffffffffffffffffffffffffffffff\n      and\n        /* \"contracts/pasanaku.sol\":6041:6093  destinatario = payable(sala.participantes[i].wallet) */\n      swap2\n      pop\n        /* \"contracts/pasanaku.sol\":6153:6157  true */\n      0x01\n        /* \"contracts/pasanaku.sol\":6112:6116  sala */\n      dup4\n        /* \"contracts/pasanaku.sol\":6112:6130  sala.participantes */\n      0x0a\n      add\n        /* \"contracts/pasanaku.sol\":6131:6132  i */\n      dup3\n        /* \"contracts/pasanaku.sol\":6112:6133  sala.participantes[i] */\n      dup2\n      sload\n      dup2\n      lt\n      tag_73\n      jumpi\n      tag_74\n      tag_63\n      jump\t// in\n    tag_74:\n    tag_73:\n      swap1\n      0x00\n      mstore\n      keccak256(0x00, 0x20)\n      swap1\n      0x03\n      mul\n      add\n        /* \"contracts/pasanaku.sol\":6112:6150  sala.participantes[i].haRecibidoFondos */\n      0x02\n      add\n      0x00\n        /* \"contracts/pasanaku.sol\":6112:6157  sala.participantes[i].haRecibidoFondos = true */\n      0x0100\n      exp\n      dup2\n      sload\n      dup2\n      0xff\n      mul\n      not\n      and\n      swap1\n      dup4\n      iszero\n      iszero\n      mul\n      or\n      swap1\n      sstore\n      pop\n        /* \"contracts/pasanaku.sol\":6210:6215  false */\n      0x00\n        /* \"contracts/pasanaku.sol\":6176:6180  sala */\n      dup4\n        /* \"contracts/pasanaku.sol\":6176:6194  sala.participantes */\n      0x0a\n      add\n        /* \"contracts/pasanaku.sol\":6195:6196  i */\n      dup3\n        /* \"contracts/pasanaku.sol\":6176:6197  sala.participantes[i] */\n      dup2\n      sload\n      dup2\n      lt\n      tag_76\n      jumpi\n      tag_77\n      tag_63\n      jump\t// in\n    tag_77:\n    tag_76:\n      swap1\n      0x00\n      mstore\n      keccak256(0x00, 0x20)\n      swap1\n      0x03\n      mul\n      add\n        /* \"contracts/pasanaku.sol\":6176:6207  sala.participantes[i].esSuTurno */\n      0x02\n      add\n      0x01\n        /* \"contracts/pasanaku.sol\":6176:6215  sala.participantes[i].esSuTurno = false */\n      0x0100\n      exp\n      dup2\n      sload\n      dup2\n      0xff\n      mul\n      not\n      and\n      swap1\n      dup4\n      iszero\n      iszero\n      mul\n      or\n      swap1\n      sstore\n      pop\n        /* \"contracts/pasanaku.sol\":6234:6239  break */\n      jump(tag_59)\n        /* \"contracts/pasanaku.sol\":5942:6255  if (sala.participantes[i].esSuTurno && !sala.participantes[i].haRecibidoFondos) {... */\n    tag_69:\n        /* \"contracts/pasanaku.sol\":5922:5925  i++ */\n      dup1\n      dup1\n      0x01\n      add\n      swap2\n      pop\n      pop\n        /* \"contracts/pasanaku.sol\":5874:6266  for (uint i = 0; i < sala.participantes.length; i++) {... */\n      jump(tag_58)\n    tag_59:\n      pop\n        /* \"contracts/pasanaku.sol\":6278:6290  destinatario */\n      dup1\n        /* \"contracts/pasanaku.sol\":6278:6299  destinatario.transfer */\n      0xffffffffffffffffffffffffffffffffffffffff\n      and\n        /* \"contracts/pasanaku.sol\":6278:6315  destinatario.transfer(sala.pozoTotal) */\n      0x08fc\n        /* \"contracts/pasanaku.sol\":6300:6304  sala */\n      dup4\n        /* \"contracts/pasanaku.sol\":6300:6314  sala.pozoTotal */\n      0x08\n      add\n      sload\n        /* \"contracts/pasanaku.sol\":6278:6315  destinatario.transfer(sala.pozoTotal) */\n      swap1\n      dup2\n      iszero\n      mul\n      swap1\n      mload(0x40)\n      0x00\n      mload(0x40)\n      dup1\n      dup4\n      sub\n      dup2\n      dup6\n      dup9\n      dup9\n      call\n      swap4\n      pop\n      pop\n      pop\n      pop\n      iszero\n      dup1\n      iszero\n      tag_80\n      jumpi\n      returndatasize\n      0x00\n      dup1\n      returndatacopy\n      revert(0x00, returndatasize)\n    tag_80:\n      pop\n        /* \"contracts/pasanaku.sol\":6343:6344  0 */\n      0x00\n        /* \"contracts/pasanaku.sol\":6326:6330  sala */\n      dup3\n        /* \"contracts/pasanaku.sol\":6326:6340  sala.pozoTotal */\n      0x08\n      add\n        /* \"contracts/pasanaku.sol\":6326:6344  sala.pozoTotal = 0 */\n      dup2\n      swap1\n      sstore\n      pop\n        /* \"contracts/pasanaku.sol\":6357:6380  bool todosBeneficiarios */\n      0x00\n        /* \"contracts/pasanaku.sol\":6383:6387  true */\n      0x01\n        /* \"contracts/pasanaku.sol\":6357:6387  bool todosBeneficiarios = true */\n      swap1\n      pop\n        /* \"contracts/pasanaku.sol\":6403:6409  uint i */\n      0x00\n        /* \"contracts/pasanaku.sol\":6398:6605  for (uint i = 0; i < sala.participantes.length; i++) {... */\n    tag_81:\n        /* \"contracts/pasanaku.sol\":6419:6423  sala */\n      dup4\n        /* \"contracts/pasanaku.sol\":6419:6437  sala.participantes */\n      0x0a\n      add\n        /* \"contracts/pasanaku.sol\":6419:6444  sala.participantes.length */\n      dup1\n      sload\n      swap1\n      pop\n        /* \"contracts/pasanaku.sol\":6415:6416  i */\n      dup2\n        /* \"contracts/pasanaku.sol\":6415:6444  i < sala.participantes.length */\n      lt\n        /* \"contracts/pasanaku.sol\":6398:6605  for (uint i = 0; i < sala.participantes.length; i++) {... */\n      iszero\n      tag_82\n      jumpi\n        /* \"contracts/pasanaku.sol\":6471:6475  sala */\n      dup4\n        /* \"contracts/pasanaku.sol\":6471:6489  sala.participantes */\n      0x0a\n      add\n        /* \"contracts/pasanaku.sol\":6490:6491  i */\n      dup2\n        /* \"contracts/pasanaku.sol\":6471:6492  sala.participantes[i] */\n      dup2\n      sload\n      dup2\n      lt\n      tag_84\n      jumpi\n      tag_85\n      tag_63\n      jump\t// in\n    tag_85:\n    tag_84:\n      swap1\n      0x00\n      mstore\n      keccak256(0x00, 0x20)\n      swap1\n      0x03\n      mul\n      add\n        /* \"contracts/pasanaku.sol\":6471:6507  sala.participantes[i].esBeneficiario */\n      0x02\n      add\n      0x02\n      swap1\n      sload\n      swap1\n      0x0100\n      exp\n      swap1\n      div\n      0xff\n      and\n        /* \"contracts/pasanaku.sol\":6466:6594  if (!sala.participantes[i].esBeneficiario) {... */\n      tag_87\n      jumpi\n        /* \"contracts/pasanaku.sol\":6549:6554  false */\n      0x00\n        /* \"contracts/pasanaku.sol\":6528:6554  todosBeneficiarios = false */\n      swap2\n      pop\n        /* \"contracts/pasanaku.sol\":6573:6578  break */\n      jump(tag_82)\n        /* \"contracts/pasanaku.sol\":6466:6594  if (!sala.participantes[i].esBeneficiario) {... */\n    tag_87:\n        /* \"contracts/pasanaku.sol\":6446:6449  i++ */\n      dup1\n      dup1\n      0x01\n      add\n      swap2\n      pop\n      pop\n        /* \"contracts/pasanaku.sol\":6398:6605  for (uint i = 0; i < sala.participantes.length; i++) {... */\n      jump(tag_81)\n    tag_82:\n      pop\n        /* \"contracts/pasanaku.sol\":6621:6639  todosBeneficiarios */\n      dup1\n        /* \"contracts/pasanaku.sol\":6621:6682  todosBeneficiarios || sala.rondaActual == sala.numeroDeRondas */\n      dup1\n      tag_88\n      jumpi\n      pop\n        /* \"contracts/pasanaku.sol\":6663:6667  sala */\n      dup3\n        /* \"contracts/pasanaku.sol\":6663:6682  sala.numeroDeRondas */\n      0x04\n      add\n      sload\n        /* \"contracts/pasanaku.sol\":6643:6647  sala */\n      dup4\n        /* \"contracts/pasanaku.sol\":6643:6659  sala.rondaActual */\n      0x05\n      add\n      sload\n        /* \"contracts/pasanaku.sol\":6643:6682  sala.rondaActual == sala.numeroDeRondas */\n      eq\n        /* \"contracts/pasanaku.sol\":6621:6682  todosBeneficiarios || sala.rondaActual == sala.numeroDeRondas */\n    tag_88:\n        /* \"contracts/pasanaku.sol\":6617:6875  if (todosBeneficiarios || sala.rondaActual == sala.numeroDeRondas) {... */\n      iszero\n      tag_89\n      jumpi\n        /* \"contracts/pasanaku.sol\":6717:6722  false */\n      0x00\n        /* \"contracts/pasanaku.sol\":6699:6703  sala */\n      dup4\n        /* \"contracts/pasanaku.sol\":6699:6714  sala.salaActiva */\n      0x09\n      add\n      0x00\n        /* \"contracts/pasanaku.sol\":6699:6722  sala.salaActiva = false */\n      0x0100\n      exp\n      dup2\n      sload\n      dup2\n      0xff\n      mul\n      not\n      and\n      swap1\n      dup4\n      iszero\n      iszero\n      mul\n      or\n      swap1\n      sstore\n      pop\n        /* \"contracts/pasanaku.sol\":6754:6760  salaId */\n      dup4\n        /* \"contracts/pasanaku.sol\":6742:6812  SalaCerrada(salaId, \"El juego ha terminado. La sala ha sido cerrada.\") */\n      0x0fc72a1a775163051323182742f7b56d5d827481f60d4a9e6792b1e88585a8f0\n      mload(0x40)\n      tag_90\n      swap1\n      tag_91\n      jump\t// in\n    tag_90:\n      mload(0x40)\n      dup1\n      swap2\n      sub\n      swap1\n      log2\n        /* \"contracts/pasanaku.sol\":6617:6875  if (todosBeneficiarios || sala.rondaActual == sala.numeroDeRondas) {... */\n      jump(tag_92)\n    tag_89:\n        /* \"contracts/pasanaku.sol\":6845:6849  sala */\n      dup3\n        /* \"contracts/pasanaku.sol\":6845:6861  sala.rondaActual */\n      0x05\n      add\n      0x00\n        /* \"contracts/pasanaku.sol\":6845:6863  sala.rondaActual++ */\n      dup2\n      sload\n      dup1\n      swap3\n      swap2\n      swap1\n      tag_93\n      swap1\n      tag_94\n      jump\t// in\n    tag_93:\n      swap2\n      swap1\n      pop\n      sstore\n      pop\n        /* \"contracts/pasanaku.sol\":6617:6875  if (todosBeneficiarios || sala.rondaActual == sala.numeroDeRondas) {... */\n    tag_92:\n        /* \"contracts/pasanaku.sol\":5672:6882  {... */\n      pop\n      pop\n      pop\n        /* \"contracts/pasanaku.sol\":5623:6882  function enviarMontoTotal(bytes32 salaId) public {... */\n      pop\n      jump\t// out\n        /* \"contracts/pasanaku.sol\":881:2696  function crearSala(... */\n    tag_20:\n        /* \"contracts/pasanaku.sol\":1107:1114  bytes32 */\n      0x00\n        /* \"contracts/pasanaku.sol\":1160:1161  1 */\n      0x01\n        /* \"contracts/pasanaku.sol\":1135:1157  _cantidadParticipantes */\n      dup6\n        /* \"contracts/pasanaku.sol\":1135:1161  _cantidadParticipantes > 1 */\n      gt\n        /* \"contracts/pasanaku.sol\":1127:1201  require(_cantidadParticipantes > 1, \"Debe haber al menos 2 participantes\") */\n      tag_96\n      jumpi\n      mload(0x40)\n      0x08c379a000000000000000000000000000000000000000000000000000000000\n      dup2\n      mstore\n      0x04\n      add\n      tag_97\n      swap1\n      tag_98\n      jump\t// in\n    tag_97:\n      mload(0x40)\n      dup1\n      swap2\n      sub\n      swap1\n      revert\n    tag_96:\n        /* \"contracts/pasanaku.sol\":1244:1245  0 */\n      0x00\n        /* \"contracts/pasanaku.sol\":1220:1241  _montoAportarPorRonda */\n      dup5\n        /* \"contracts/pasanaku.sol\":1220:1245  _montoAportarPorRonda > 0 */\n      gt\n        /* \"contracts/pasanaku.sol\":1212:1296  require(_montoAportarPorRonda > 0, \"El monto de la contribucion debe ser mayor a 0\") */\n      tag_99\n      jumpi\n      mload(0x40)\n      0x08c379a000000000000000000000000000000000000000000000000000000000\n      dup2\n      mstore\n      0x04\n      add\n      tag_100\n      swap1\n      tag_101\n      jump\t// in\n    tag_100:\n      mload(0x40)\n      dup1\n      swap2\n      sub\n      swap1\n      revert\n    tag_99:\n        /* \"contracts/pasanaku.sol\":1390:1416  abi.encodePacked(\"ruleta\") */\n      add(0x20, mload(0x40))\n      tag_102\n      swap1\n      tag_103\n      jump\t// in\n    tag_102:\n      mload(0x40)\n      0x20\n      dup2\n      dup4\n      sub\n      sub\n      dup2\n      mstore\n      swap1\n      0x40\n      mstore\n        /* \"contracts/pasanaku.sol\":1380:1417  keccak256(abi.encodePacked(\"ruleta\")) */\n      dup1\n      mload\n      swap1\n      0x20\n      add\n      keccak256\n        /* \"contracts/pasanaku.sol\":1356:1374  _tipoDeReparticion */\n      dup4\n        /* \"contracts/pasanaku.sol\":1339:1375  abi.encodePacked(_tipoDeReparticion) */\n      add(0x20, mload(0x40))\n      tag_104\n      swap2\n      swap1\n      tag_105\n      jump\t// in\n    tag_104:\n      mload(0x40)\n      0x20\n      dup2\n      dup4\n      sub\n      sub\n      dup2\n      mstore\n      swap1\n      0x40\n      mstore\n        /* \"contracts/pasanaku.sol\":1329:1376  keccak256(abi.encodePacked(_tipoDeReparticion)) */\n      dup1\n      mload\n      swap1\n      0x20\n      add\n      keccak256\n        /* \"contracts/pasanaku.sol\":1329:1417  keccak256(abi.encodePacked(_tipoDeReparticion)) == keccak256(abi.encodePacked(\"ruleta\")) */\n      eq\n        /* \"contracts/pasanaku.sol\":1329:1524  keccak256(abi.encodePacked(_tipoDeReparticion)) == keccak256(abi.encodePacked(\"ruleta\")) ||... */\n      dup1\n      tag_106\n      jumpi\n      pop\n        /* \"contracts/pasanaku.sol\":1495:1523  abi.encodePacked(\"enlistar\") */\n      add(0x20, mload(0x40))\n      tag_107\n      swap1\n      tag_108\n      jump\t// in\n    tag_107:\n      mload(0x40)\n      0x20\n      dup2\n      dup4\n      sub\n      sub\n      dup2\n      mstore\n      swap1\n      0x40\n      mstore\n        /* \"contracts/pasanaku.sol\":1485:1524  keccak256(abi.encodePacked(\"enlistar\")) */\n      dup1\n      mload\n      swap1\n      0x20\n      add\n      keccak256\n        /* \"contracts/pasanaku.sol\":1461:1479  _tipoDeReparticion */\n      dup4\n        /* \"contracts/pasanaku.sol\":1444:1480  abi.encodePacked(_tipoDeReparticion) */\n      add(0x20, mload(0x40))\n      tag_109\n      swap2\n      swap1\n      tag_105\n      jump\t// in\n    tag_109:\n      mload(0x40)\n      0x20\n      dup2\n      dup4\n      sub\n      sub\n      dup2\n      mstore\n      swap1\n      0x40\n      mstore\n        /* \"contracts/pasanaku.sol\":1434:1481  keccak256(abi.encodePacked(_tipoDeReparticion)) */\n      dup1\n      mload\n      swap1\n      0x20\n      add\n      keccak256\n        /* \"contracts/pasanaku.sol\":1434:1524  keccak256(abi.encodePacked(_tipoDeReparticion)) == keccak256(abi.encodePacked(\"enlistar\")) */\n      eq\n        /* \"contracts/pasanaku.sol\":1329:1524  keccak256(abi.encodePacked(_tipoDeReparticion)) == keccak256(abi.encodePacked(\"ruleta\")) ||... */\n    tag_106:\n        /* \"contracts/pasanaku.sol\":1307:1581  require(... */\n      tag_110\n      jumpi\n      mload(0x40)\n      0x08c379a000000000000000000000000000000000000000000000000000000000\n      dup2\n      mstore\n      0x04\n      add\n      tag_111\n      swap1\n      tag_112\n      jump\t// in\n    tag_111:\n      mload(0x40)\n      dup1\n      swap2\n      sub\n      swap1\n      revert\n    tag_110:\n        /* \"contracts/pasanaku.sol\":1594:1608  bytes32 salaId */\n      0x00\n        /* \"contracts/pasanaku.sol\":1638:1648  _anfitrion */\n      dup7\n        /* \"contracts/pasanaku.sol\":1650:1665  block.timestamp */\n      timestamp\n        /* \"contracts/pasanaku.sol\":1621:1666  abi.encodePacked(_anfitrion, block.timestamp) */\n      add(0x20, mload(0x40))\n      tag_113\n      swap3\n      swap2\n      swap1\n      tag_114\n      jump\t// in\n    tag_113:\n      mload(0x40)\n      0x20\n      dup2\n      dup4\n      sub\n      sub\n      dup2\n      mstore\n      swap1\n      0x40\n      mstore\n        /* \"contracts/pasanaku.sol\":1611:1667  keccak256(abi.encodePacked(_anfitrion, block.timestamp)) */\n      dup1\n      mload\n      swap1\n      0x20\n      add\n      keccak256\n        /* \"contracts/pasanaku.sol\":1594:1667  bytes32 salaId = keccak256(abi.encodePacked(_anfitrion, block.timestamp)) */\n      swap1\n      pop\n        /* \"contracts/pasanaku.sol\":1678:1700  Sala storage nuevaSala */\n      0x00\n        /* \"contracts/pasanaku.sol\":1703:1708  salas */\n      dup1\n        /* \"contracts/pasanaku.sol\":1703:1716  salas[salaId] */\n      0x00\n        /* \"contracts/pasanaku.sol\":1709:1715  salaId */\n      dup4\n        /* \"contracts/pasanaku.sol\":1703:1716  salas[salaId] */\n      dup2\n      mstore\n      0x20\n      add\n      swap1\n      dup2\n      mstore\n      0x20\n      add\n      0x00\n      keccak256\n        /* \"contracts/pasanaku.sol\":1678:1716  Sala storage nuevaSala = salas[salaId] */\n      swap1\n      pop\n        /* \"contracts/pasanaku.sol\":1749:1759  _anfitrion */\n      dup8\n        /* \"contracts/pasanaku.sol\":1727:1736  nuevaSala */\n      dup2\n        /* \"contracts/pasanaku.sol\":1727:1746  nuevaSala.anfitrion */\n      0x00\n      add\n      0x00\n        /* \"contracts/pasanaku.sol\":1727:1759  nuevaSala.anfitrion = _anfitrion */\n      0x0100\n      exp\n      dup2\n      sload\n      dup2\n      0xffffffffffffffffffffffffffffffffffffffff\n      mul\n      not\n      and\n      swap1\n      dup4\n      0xffffffffffffffffffffffffffffffffffffffff\n      and\n      mul\n      or\n      swap1\n      sstore\n      pop\n        /* \"contracts/pasanaku.sol\":1804:1826  _cantidadParticipantes */\n      dup7\n        /* \"contracts/pasanaku.sol\":1770:1779  nuevaSala */\n      dup2\n        /* \"contracts/pasanaku.sol\":1770:1801  nuevaSala.cantidadParticipantes */\n      0x01\n      add\n        /* \"contracts/pasanaku.sol\":1770:1826  nuevaSala.cantidadParticipantes = _cantidadParticipantes */\n      dup2\n      swap1\n      sstore\n      pop\n        /* \"contracts/pasanaku.sol\":1870:1891  _montoAportarPorRonda */\n      dup6\n        /* \"contracts/pasanaku.sol\":1837:1846  nuevaSala */\n      dup2\n        /* \"contracts/pasanaku.sol\":1837:1867  nuevaSala.montoAportarPorRonda */\n      0x02\n      add\n        /* \"contracts/pasanaku.sol\":1837:1891  nuevaSala.montoAportarPorRonda = _montoAportarPorRonda */\n      dup2\n      swap1\n      sstore\n      pop\n        /* \"contracts/pasanaku.sol\":1966:1987  _montoAportarPorRonda */\n      dup6\n        /* \"contracts/pasanaku.sol\":1941:1963  _cantidadParticipantes */\n      dup8\n        /* \"contracts/pasanaku.sol\":1941:1987  _cantidadParticipantes * _montoAportarPorRonda */\n      tag_115\n      swap2\n      swap1\n      tag_116\n      jump\t// in\n    tag_115:\n        /* \"contracts/pasanaku.sol\":1902:1911  nuevaSala */\n      dup2\n        /* \"contracts/pasanaku.sol\":1902:1938  nuevaSala.montoTotalARedibirPorRonda */\n      0x03\n      add\n        /* \"contracts/pasanaku.sol\":1902:1987  nuevaSala.montoTotalARedibirPorRonda = _cantidadParticipantes * _montoAportarPorRonda */\n      dup2\n      swap1\n      sstore\n      pop\n        /* \"contracts/pasanaku.sol\":2025:2047  _cantidadParticipantes */\n      dup7\n        /* \"contracts/pasanaku.sol\":1998:2007  nuevaSala */\n      dup2\n        /* \"contracts/pasanaku.sol\":1998:2022  nuevaSala.numeroDeRondas */\n      0x04\n      add\n        /* \"contracts/pasanaku.sol\":1998:2047  nuevaSala.numeroDeRondas = _cantidadParticipantes */\n      dup2\n      swap1\n      sstore\n      pop\n        /* \"contracts/pasanaku.sol\":2082:2083  1 */\n      0x01\n        /* \"contracts/pasanaku.sol\":2058:2067  nuevaSala */\n      dup2\n        /* \"contracts/pasanaku.sol\":2058:2079  nuevaSala.rondaActual */\n      0x05\n      add\n        /* \"contracts/pasanaku.sol\":2058:2083  nuevaSala.rondaActual = 1 */\n      dup2\n      swap1\n      sstore\n      pop\n        /* \"contracts/pasanaku.sol\":2124:2142  _tipoDeReparticion */\n      dup5\n        /* \"contracts/pasanaku.sol\":2094:2103  nuevaSala */\n      dup2\n        /* \"contracts/pasanaku.sol\":2094:2121  nuevaSala.tipoDeReparticion */\n      0x06\n      add\n        /* \"contracts/pasanaku.sol\":2094:2142  nuevaSala.tipoDeReparticion = _tipoDeReparticion */\n      swap1\n      dup2\n      tag_117\n      swap2\n      swap1\n      tag_118\n      jump\t// in\n    tag_117:\n      pop\n        /* \"contracts/pasanaku.sol\":2186:2207  _diasParaEnviarAporte */\n      dup4\n        /* \"contracts/pasanaku.sol\":2153:2162  nuevaSala */\n      dup2\n        /* \"contracts/pasanaku.sol\":2153:2183  nuevaSala.diasParaEnviarAporte */\n      0x07\n      add\n        /* \"contracts/pasanaku.sol\":2153:2207  nuevaSala.diasParaEnviarAporte = _diasParaEnviarAporte */\n      dup2\n      swap1\n      sstore\n      pop\n        /* \"contracts/pasanaku.sol\":2241:2245  true */\n      0x01\n        /* \"contracts/pasanaku.sol\":2218:2227  nuevaSala */\n      dup2\n        /* \"contracts/pasanaku.sol\":2218:2238  nuevaSala.salaActiva */\n      0x09\n      add\n      0x00\n        /* \"contracts/pasanaku.sol\":2218:2245  nuevaSala.salaActiva = true */\n      0x0100\n      exp\n      dup2\n      sload\n      dup2\n      0xff\n      mul\n      not\n      and\n      swap1\n      dup4\n      iszero\n      iszero\n      mul\n      or\n      swap1\n      sstore\n      pop\n        /* \"contracts/pasanaku.sol\":2258:2299  Participante memory anfitrionParticipante */\n      tag_119\n      tag_120\n      jump\t// in\n    tag_119:\n        /* \"contracts/pasanaku.sol\":2341:2351  _anfitrion */\n      dup9\n        /* \"contracts/pasanaku.sol\":2310:2331  anfitrionParticipante */\n      dup2\n        /* \"contracts/pasanaku.sol\":2310:2338  anfitrionParticipante.wallet */\n      0x00\n      add\n        /* \"contracts/pasanaku.sol\":2310:2351  anfitrionParticipante.wallet = _anfitrion */\n      swap1\n      0xffffffffffffffffffffffffffffffffffffffff\n      and\n      swap1\n      dup2\n      0xffffffffffffffffffffffffffffffffffffffff\n      and\n      dup2\n      mstore\n      pop\n      pop\n        /* \"contracts/pasanaku.sol\":2400:2409  nuevaSala */\n      dup2\n        /* \"contracts/pasanaku.sol\":2400:2436  nuevaSala.montoTotalARedibirPorRonda */\n      0x03\n      add\n      sload\n        /* \"contracts/pasanaku.sol\":2362:2383  anfitrionParticipante */\n      dup2\n        /* \"contracts/pasanaku.sol\":2362:2397  anfitrionParticipante.montoARecibir */\n      0x20\n      add\n        /* \"contracts/pasanaku.sol\":2362:2436  anfitrionParticipante.montoARecibir = nuevaSala.montoTotalARedibirPorRonda */\n      dup2\n      dup2\n      mstore\n      pop\n      pop\n        /* \"contracts/pasanaku.sol\":2488:2493  false */\n      0x00\n        /* \"contracts/pasanaku.sol\":2447:2468  anfitrionParticipante */\n      dup2\n        /* \"contracts/pasanaku.sol\":2447:2485  anfitrionParticipante.haRecibidoFondos */\n      0x40\n      add\n        /* \"contracts/pasanaku.sol\":2447:2493  anfitrionParticipante.haRecibidoFondos = false */\n      swap1\n      iszero\n      iszero\n      swap1\n      dup2\n      iszero\n      iszero\n      dup2\n      mstore\n      pop\n      pop\n        /* \"contracts/pasanaku.sol\":2538:2543  false */\n      0x00\n        /* \"contracts/pasanaku.sol\":2504:2525  anfitrionParticipante */\n      dup2\n        /* \"contracts/pasanaku.sol\":2504:2535  anfitrionParticipante.esSuTurno */\n      0x60\n      add\n        /* \"contracts/pasanaku.sol\":2504:2543  anfitrionParticipante.esSuTurno = false */\n      swap1\n      iszero\n      iszero\n      swap1\n      dup2\n      iszero\n      iszero\n      dup2\n      mstore\n      pop\n      pop\n        /* \"contracts/pasanaku.sol\":2593:2598  false */\n      0x00\n        /* \"contracts/pasanaku.sol\":2554:2575  anfitrionParticipante */\n      dup2\n        /* \"contracts/pasanaku.sol\":2554:2590  anfitrionParticipante.esBeneficiario */\n      0x80\n      add\n        /* \"contracts/pasanaku.sol\":2554:2598  anfitrionParticipante.esBeneficiario = false */\n      swap1\n      iszero\n      iszero\n      swap1\n      dup2\n      iszero\n      iszero\n      dup2\n      mstore\n      pop\n      pop\n        /* \"contracts/pasanaku.sol\":2611:2620  nuevaSala */\n      dup2\n        /* \"contracts/pasanaku.sol\":2611:2634  nuevaSala.participantes */\n      0x0a\n      add\n        /* \"contracts/pasanaku.sol\":2640:2661  anfitrionParticipante */\n      dup2\n        /* \"contracts/pasanaku.sol\":2611:2662  nuevaSala.participantes.push(anfitrionParticipante) */\n      swap1\n      dup1\n      0x01\n      dup2\n      sload\n      add\n      dup1\n      dup3\n      sstore\n      dup1\n      swap2\n      pop\n      pop\n      0x01\n      swap1\n      sub\n      swap1\n      0x00\n      mstore\n      keccak256(0x00, 0x20)\n      swap1\n      0x03\n      mul\n      add\n      0x00\n      swap1\n      swap2\n      swap1\n      swap2\n      swap1\n      swap2\n      pop\n      0x00\n      dup3\n      add\n      mload\n      dup2\n      0x00\n      add\n      exp(0x0100, 0x00)\n      dup2\n      sload\n      dup2\n      0xffffffffffffffffffffffffffffffffffffffff\n      mul\n      not\n      and\n      swap1\n      dup4\n      0xffffffffffffffffffffffffffffffffffffffff\n      and\n      mul\n      or\n      swap1\n      sstore\n      pop\n      0x20\n      dup3\n      add\n      mload\n      dup2\n      0x01\n      add\n      sstore\n      0x40\n      dup3\n      add\n      mload\n      dup2\n      0x02\n      add\n      exp(0x0100, 0x00)\n      dup2\n      sload\n      dup2\n      0xff\n      mul\n      not\n      and\n      swap1\n      dup4\n      iszero\n      iszero\n      mul\n      or\n      swap1\n      sstore\n      pop\n      0x60\n      dup3\n      add\n      mload\n      dup2\n      0x02\n      add\n      exp(0x0100, 0x01)\n      dup2\n      sload\n      dup2\n      0xff\n      mul\n      not\n      and\n      swap1\n      dup4\n      iszero\n      iszero\n      mul\n      or\n      swap1\n      sstore\n      pop\n      0x80\n      dup3\n      add\n      mload\n      dup2\n      0x02\n      add\n      exp(0x0100, 0x02)\n      dup2\n      sload\n      dup2\n      0xff\n      mul\n      not\n      and\n      swap1\n      dup4\n      iszero\n      iszero\n      mul\n      or\n      swap1\n      sstore\n      pop\n      pop\n      pop\n        /* \"contracts/pasanaku.sol\":2682:2688  salaId */\n      dup3\n        /* \"contracts/pasanaku.sol\":2675:2688  return salaId */\n      swap4\n      pop\n      pop\n      pop\n      pop\n        /* \"contracts/pasanaku.sol\":881:2696  function crearSala(... */\n      swap6\n      swap5\n      pop\n      pop\n      pop\n      pop\n      pop\n      jump\t// out\n        /* \"contracts/pasanaku.sol\":651:688  mapping(bytes32 => Sala) public salas */\n    tag_26:\n      mstore(0x20, 0x00)\n      dup1\n      0x00\n      mstore\n      keccak256(0x00, 0x40)\n      0x00\n      swap2\n      pop\n      swap1\n      pop\n      dup1\n      0x00\n      add\n      0x00\n      swap1\n      sload\n      swap1\n      0x0100\n      exp\n      swap1\n      div\n      0xffffffffffffffffffffffffffffffffffffffff\n      and\n      swap1\n      dup1\n      0x01\n      add\n      sload\n      swap1\n      dup1\n      0x02\n      add\n      sload\n      swap1\n      dup1\n      0x03\n      add\n      sload\n      swap1\n      dup1\n      0x04\n      add\n      sload\n      swap1\n      dup1\n      0x05\n      add\n      sload\n      swap1\n      dup1\n      0x06\n      add\n      dup1\n      sload\n      tag_122\n      swap1\n      tag_123\n      jump\t// in\n    tag_122:\n      dup1\n      0x1f\n      add\n      0x20\n      dup1\n      swap2\n      div\n      mul\n      0x20\n      add\n      mload(0x40)\n      swap1\n      dup2\n      add\n      0x40\n      mstore\n      dup1\n      swap3\n      swap2\n      swap1\n      dup2\n      dup2\n      mstore\n      0x20\n      add\n      dup3\n      dup1\n      sload\n      tag_124\n      swap1\n      tag_123\n      jump\t// in\n    tag_124:\n      dup1\n      iszero\n      tag_125\n      jumpi\n      dup1\n      0x1f\n      lt\n      tag_126\n      jumpi\n      0x0100\n      dup1\n      dup4\n      sload\n      div\n      mul\n      dup4\n      mstore\n      swap2\n      0x20\n      add\n      swap2\n      jump(tag_125)\n    tag_126:\n      dup3\n      add\n      swap2\n      swap1\n      0x00\n      mstore\n      keccak256(0x00, 0x20)\n      swap1\n    tag_127:\n      dup2\n      sload\n      dup2\n      mstore\n      swap1\n      0x01\n      add\n      swap1\n      0x20\n      add\n      dup1\n      dup4\n      gt\n      tag_127\n      jumpi\n      dup3\n      swap1\n      sub\n      0x1f\n      and\n      dup3\n      add\n      swap2\n    tag_125:\n      pop\n      pop\n      pop\n      pop\n      pop\n      swap1\n      dup1\n      0x07\n      add\n      sload\n      swap1\n      dup1\n      0x08\n      add\n      sload\n      swap1\n      dup1\n      0x09\n      add\n      0x00\n      swap1\n      sload\n      swap1\n      0x0100\n      exp\n      swap1\n      div\n      0xff\n      and\n      swap1\n      pop\n      dup11\n      jump\t// out\n        /* \"contracts/pasanaku.sol\":3718:4603  function contribuir(bytes32 salaId, address participanteDireccion, uint monto) public payable {... */\n    tag_32:\n        /* \"contracts/pasanaku.sol\":3823:3840  Sala storage sala */\n      0x00\n        /* \"contracts/pasanaku.sol\":3843:3848  salas */\n      dup1\n        /* \"contracts/pasanaku.sol\":3843:3856  salas[salaId] */\n      0x00\n        /* \"contracts/pasanaku.sol\":3849:3855  salaId */\n      dup6\n        /* \"contracts/pasanaku.sol\":3843:3856  salas[salaId] */\n      dup2\n      mstore\n      0x20\n      add\n      swap1\n      dup2\n      mstore\n      0x20\n      add\n      0x00\n      keccak256\n        /* \"contracts/pasanaku.sol\":3823:3856  Sala storage sala = salas[salaId] */\n      swap1\n      pop\n        /* \"contracts/pasanaku.sol\":3875:3879  sala */\n      dup1\n        /* \"contracts/pasanaku.sol\":3875:3890  sala.salaActiva */\n      0x09\n      add\n      0x00\n      swap1\n      sload\n      swap1\n      0x0100\n      exp\n      swap1\n      div\n      0xff\n      and\n        /* \"contracts/pasanaku.sol\":3867:3915  require(sala.salaActiva, \"La sala esta cerrada\") */\n      tag_129\n      jumpi\n      mload(0x40)\n      0x08c379a000000000000000000000000000000000000000000000000000000000\n      dup2\n      mstore\n      0x04\n      add\n      tag_130\n      swap1\n      tag_131\n      jump\t// in\n    tag_130:\n      mload(0x40)\n      dup1\n      swap2\n      sub\n      swap1\n      revert\n    tag_129:\n        /* \"contracts/pasanaku.sol\":3963:3967  sala */\n      dup1\n        /* \"contracts/pasanaku.sol\":3963:3989  sala.cantidadParticipantes */\n      0x01\n      add\n      sload\n        /* \"contracts/pasanaku.sol\":3934:3938  sala */\n      dup2\n        /* \"contracts/pasanaku.sol\":3934:3952  sala.participantes */\n      0x0a\n      add\n        /* \"contracts/pasanaku.sol\":3934:3959  sala.participantes.length */\n      dup1\n      sload\n      swap1\n      pop\n        /* \"contracts/pasanaku.sol\":3934:3989  sala.participantes.length == sala.cantidadParticipantes */\n      eq\n        /* \"contracts/pasanaku.sol\":3926:4037  require(sala.participantes.length == sala.cantidadParticipantes, \"No todos los participantes se han unido aun\") */\n      tag_132\n      jumpi\n      mload(0x40)\n      0x08c379a000000000000000000000000000000000000000000000000000000000\n      dup2\n      mstore\n      0x04\n      add\n      tag_133\n      swap1\n      tag_134\n      jump\t// in\n    tag_133:\n      mload(0x40)\n      dup1\n      swap2\n      sub\n      swap1\n      revert\n    tag_132:\n        /* \"contracts/pasanaku.sol\":4065:4069  sala */\n      dup1\n        /* \"contracts/pasanaku.sol\":4065:4090  sala.montoAportarPorRonda */\n      0x02\n      add\n      sload\n        /* \"contracts/pasanaku.sol\":4056:4061  monto */\n      dup3\n        /* \"contracts/pasanaku.sol\":4056:4090  monto == sala.montoAportarPorRonda */\n      eq\n        /* \"contracts/pasanaku.sol\":4048:4126  require(monto == sala.montoAportarPorRonda, \"El monto aportado es incorrecto\") */\n      tag_135\n      jumpi\n      mload(0x40)\n      0x08c379a000000000000000000000000000000000000000000000000000000000\n      dup2\n      mstore\n      0x04\n      add\n      tag_136\n      swap1\n      tag_137\n      jump\t// in\n    tag_136:\n      mload(0x40)\n      dup1\n      swap2\n      sub\n      swap1\n      revert\n    tag_135:\n        /* \"contracts/pasanaku.sol\":4165:4169  sala */\n      dup1\n        /* \"contracts/pasanaku.sol\":4165:4184  sala.numeroDeRondas */\n      0x04\n      add\n      sload\n        /* \"contracts/pasanaku.sol\":4145:4149  sala */\n      dup2\n        /* \"contracts/pasanaku.sol\":4145:4161  sala.rondaActual */\n      0x05\n      add\n      sload\n        /* \"contracts/pasanaku.sol\":4145:4184  sala.rondaActual <= sala.numeroDeRondas */\n      gt\n      iszero\n        /* \"contracts/pasanaku.sol\":4137:4220  require(sala.rondaActual <= sala.numeroDeRondas, \"Todas las rondas han finalizado\") */\n      tag_138\n      jumpi\n      mload(0x40)\n      0x08c379a000000000000000000000000000000000000000000000000000000000\n      dup2\n      mstore\n      0x04\n      add\n      tag_139\n      swap1\n      tag_140\n      jump\t// in\n    tag_139:\n      mload(0x40)\n      dup1\n      swap2\n      sub\n      swap1\n      revert\n    tag_138:\n        /* \"contracts/pasanaku.sol\":4233:4252  bool esParticipante */\n      0x00\n        /* \"contracts/pasanaku.sol\":4276:4282  uint i */\n      dup1\n        /* \"contracts/pasanaku.sol\":4271:4489  for (uint i = 0; i < sala.participantes.length; i++) {... */\n    tag_141:\n        /* \"contracts/pasanaku.sol\":4292:4296  sala */\n      dup3\n        /* \"contracts/pasanaku.sol\":4292:4310  sala.participantes */\n      0x0a\n      add\n        /* \"contracts/pasanaku.sol\":4292:4317  sala.participantes.length */\n      dup1\n      sload\n      swap1\n      pop\n        /* \"contracts/pasanaku.sol\":4288:4289  i */\n      dup2\n        /* \"contracts/pasanaku.sol\":4288:4317  i < sala.participantes.length */\n      lt\n        /* \"contracts/pasanaku.sol\":4271:4489  for (uint i = 0; i < sala.participantes.length; i++) {... */\n      iszero\n      tag_142\n      jumpi\n        /* \"contracts/pasanaku.sol\":4375:4396  participanteDireccion */\n      dup5\n        /* \"contracts/pasanaku.sol\":4343:4396  sala.participantes[i].wallet == participanteDireccion */\n      0xffffffffffffffffffffffffffffffffffffffff\n      and\n        /* \"contracts/pasanaku.sol\":4343:4347  sala */\n      dup4\n        /* \"contracts/pasanaku.sol\":4343:4361  sala.participantes */\n      0x0a\n      add\n        /* \"contracts/pasanaku.sol\":4362:4363  i */\n      dup3\n        /* \"contracts/pasanaku.sol\":4343:4364  sala.participantes[i] */\n      dup2\n      sload\n      dup2\n      lt\n      tag_144\n      jumpi\n      tag_145\n      tag_63\n      jump\t// in\n    tag_145:\n    tag_144:\n      swap1\n      0x00\n      mstore\n      keccak256(0x00, 0x20)\n      swap1\n      0x03\n      mul\n      add\n        /* \"contracts/pasanaku.sol\":4343:4371  sala.participantes[i].wallet */\n      0x00\n      add\n      0x00\n      swap1\n      sload\n      swap1\n      0x0100\n      exp\n      swap1\n      div\n      0xffffffffffffffffffffffffffffffffffffffff\n      and\n        /* \"contracts/pasanaku.sol\":4343:4396  sala.participantes[i].wallet == participanteDireccion */\n      0xffffffffffffffffffffffffffffffffffffffff\n      and\n      sub\n        /* \"contracts/pasanaku.sol\":4339:4478  if (sala.participantes[i].wallet == participanteDireccion) {... */\n      tag_147\n      jumpi\n        /* \"contracts/pasanaku.sol\":4434:4438  true */\n      0x01\n        /* \"contracts/pasanaku.sol\":4417:4438  esParticipante = true */\n      swap2\n      pop\n        /* \"contracts/pasanaku.sol\":4457:4462  break */\n      jump(tag_142)\n        /* \"contracts/pasanaku.sol\":4339:4478  if (sala.participantes[i].wallet == participanteDireccion) {... */\n    tag_147:\n        /* \"contracts/pasanaku.sol\":4319:4322  i++ */\n      dup1\n      dup1\n      0x01\n      add\n      swap2\n      pop\n      pop\n        /* \"contracts/pasanaku.sol\":4271:4489  for (uint i = 0; i < sala.participantes.length; i++) {... */\n      jump(tag_141)\n    tag_142:\n      pop\n        /* \"contracts/pasanaku.sol\":4507:4521  esParticipante */\n      dup1\n        /* \"contracts/pasanaku.sol\":4499:4559  require(esParticipante, \"No eres participante de esta sala\") */\n      tag_148\n      jumpi\n      mload(0x40)\n      0x08c379a000000000000000000000000000000000000000000000000000000000\n      dup2\n      mstore\n      0x04\n      add\n      tag_149\n      swap1\n      tag_150\n      jump\t// in\n    tag_149:\n      mload(0x40)\n      dup1\n      swap2\n      sub\n      swap1\n      revert\n    tag_148:\n        /* \"contracts/pasanaku.sol\":4590:4595  monto */\n      dup3\n        /* \"contracts/pasanaku.sol\":4572:4576  sala */\n      dup3\n        /* \"contracts/pasanaku.sol\":4572:4586  sala.pozoTotal */\n      0x08\n      add\n      0x00\n        /* \"contracts/pasanaku.sol\":4572:4595  sala.pozoTotal += monto */\n      dup3\n      dup3\n      sload\n      tag_151\n      swap2\n      swap1\n      tag_152\n      jump\t// in\n    tag_151:\n      swap3\n      pop\n      pop\n      dup2\n      swap1\n      sstore\n      pop\n        /* \"contracts/pasanaku.sol\":3812:4603  {... */\n      pop\n      pop\n        /* \"contracts/pasanaku.sol\":3718:4603  function contribuir(bytes32 salaId, address participanteDireccion, uint monto) public payable {... */\n      pop\n      pop\n      pop\n      jump\t// out\n        /* \"contracts/pasanaku.sol\":2742:3677  function unirseASala(bytes32 salaId, address participanteDireccion) public {... */\n    tag_37:\n        /* \"contracts/pasanaku.sol\":2828:2845  Sala storage sala */\n      0x00\n        /* \"contracts/pasanaku.sol\":2848:2853  salas */\n      dup1\n        /* \"contracts/pasanaku.sol\":2848:2861  salas[salaId] */\n      0x00\n        /* \"contracts/pasanaku.sol\":2854:2860  salaId */\n      dup5\n        /* \"contracts/pasanaku.sol\":2848:2861  salas[salaId] */\n      dup2\n      mstore\n      0x20\n      add\n      swap1\n      dup2\n      mstore\n      0x20\n      add\n      0x00\n      keccak256\n        /* \"contracts/pasanaku.sol\":2828:2861  Sala storage sala = salas[salaId] */\n      swap1\n      pop\n        /* \"contracts/pasanaku.sol\":2906:2907  0 */\n      0x00\n        /* \"contracts/pasanaku.sol\":2880:2908  sala.anfitrion != address(0) */\n      0xffffffffffffffffffffffffffffffffffffffff\n      and\n        /* \"contracts/pasanaku.sol\":2880:2884  sala */\n      dup2\n        /* \"contracts/pasanaku.sol\":2880:2894  sala.anfitrion */\n      0x00\n      add\n      0x00\n      swap1\n      sload\n      swap1\n      0x0100\n      exp\n      swap1\n      div\n      0xffffffffffffffffffffffffffffffffffffffff\n      and\n        /* \"contracts/pasanaku.sol\":2880:2908  sala.anfitrion != address(0) */\n      0xffffffffffffffffffffffffffffffffffffffff\n      and\n      sub\n        /* \"contracts/pasanaku.sol\":2872:2930  require(sala.anfitrion != address(0), \"La sala no existe\") */\n      tag_154\n      jumpi\n      mload(0x40)\n      0x08c379a000000000000000000000000000000000000000000000000000000000\n      dup2\n      mstore\n      0x04\n      add\n      tag_155\n      swap1\n      tag_156\n      jump\t// in\n    tag_155:\n      mload(0x40)\n      dup1\n      swap2\n      sub\n      swap1\n      revert\n    tag_154:\n        /* \"contracts/pasanaku.sol\":2977:2981  sala */\n      dup1\n        /* \"contracts/pasanaku.sol\":2977:3003  sala.cantidadParticipantes */\n      0x01\n      add\n      sload\n        /* \"contracts/pasanaku.sol\":2949:2953  sala */\n      dup2\n        /* \"contracts/pasanaku.sol\":2949:2967  sala.participantes */\n      0x0a\n      add\n        /* \"contracts/pasanaku.sol\":2949:2974  sala.participantes.length */\n      dup1\n      sload\n      swap1\n      pop\n        /* \"contracts/pasanaku.sol\":2949:3003  sala.participantes.length < sala.cantidadParticipantes */\n      lt\n        /* \"contracts/pasanaku.sol\":2941:3026  require(sala.participantes.length < sala.cantidadParticipantes, \"La sala esta llena\") */\n      tag_157\n      jumpi\n      mload(0x40)\n      0x08c379a000000000000000000000000000000000000000000000000000000000\n      dup2\n      mstore\n      0x04\n      add\n      tag_158\n      swap1\n      tag_159\n      jump\t// in\n    tag_158:\n      mload(0x40)\n      dup1\n      swap2\n      sub\n      swap1\n      revert\n    tag_157:\n        /* \"contracts/pasanaku.sol\":3045:3049  sala */\n      dup1\n        /* \"contracts/pasanaku.sol\":3045:3060  sala.salaActiva */\n      0x09\n      add\n      0x00\n      swap1\n      sload\n      swap1\n      0x0100\n      exp\n      swap1\n      div\n      0xff\n      and\n        /* \"contracts/pasanaku.sol\":3037:3085  require(sala.salaActiva, \"La sala esta cerrada\") */\n      tag_160\n      jumpi\n      mload(0x40)\n      0x08c379a000000000000000000000000000000000000000000000000000000000\n      dup2\n      mstore\n      0x04\n      add\n      tag_161\n      swap1\n      tag_131\n      jump\t// in\n    tag_161:\n      mload(0x40)\n      dup1\n      swap2\n      sub\n      swap1\n      revert\n    tag_160:\n        /* \"contracts/pasanaku.sol\":3103:3109  uint i */\n      0x00\n        /* \"contracts/pasanaku.sol\":3098:3280  for (uint i = 0; i < sala.participantes.length; i++) {... */\n    tag_162:\n        /* \"contracts/pasanaku.sol\":3119:3123  sala */\n      dup2\n        /* \"contracts/pasanaku.sol\":3119:3137  sala.participantes */\n      0x0a\n      add\n        /* \"contracts/pasanaku.sol\":3119:3144  sala.participantes.length */\n      dup1\n      sload\n      swap1\n      pop\n        /* \"contracts/pasanaku.sol\":3115:3116  i */\n      dup2\n        /* \"contracts/pasanaku.sol\":3115:3144  i < sala.participantes.length */\n      lt\n        /* \"contracts/pasanaku.sol\":3098:3280  for (uint i = 0; i < sala.participantes.length; i++) {... */\n      iszero\n      tag_163\n      jumpi\n        /* \"contracts/pasanaku.sol\":3206:3227  participanteDireccion */\n      dup3\n        /* \"contracts/pasanaku.sol\":3174:3227  sala.participantes[i].wallet != participanteDireccion */\n      0xffffffffffffffffffffffffffffffffffffffff\n      and\n        /* \"contracts/pasanaku.sol\":3174:3178  sala */\n      dup3\n        /* \"contracts/pasanaku.sol\":3174:3192  sala.participantes */\n      0x0a\n      add\n        /* \"contracts/pasanaku.sol\":3193:3194  i */\n      dup3\n        /* \"contracts/pasanaku.sol\":3174:3195  sala.participantes[i] */\n      dup2\n      sload\n      dup2\n      lt\n      tag_165\n      jumpi\n      tag_166\n      tag_63\n      jump\t// in\n    tag_166:\n    tag_165:\n      swap1\n      0x00\n      mstore\n      keccak256(0x00, 0x20)\n      swap1\n      0x03\n      mul\n      add\n        /* \"contracts/pasanaku.sol\":3174:3202  sala.participantes[i].wallet */\n      0x00\n      add\n      0x00\n      swap1\n      sload\n      swap1\n      0x0100\n      exp\n      swap1\n      div\n      0xffffffffffffffffffffffffffffffffffffffff\n      and\n        /* \"contracts/pasanaku.sol\":3174:3227  sala.participantes[i].wallet != participanteDireccion */\n      0xffffffffffffffffffffffffffffffffffffffff\n      and\n      sub\n        /* \"contracts/pasanaku.sol\":3166:3268  require(sala.participantes[i].wallet != participanteDireccion, \"Este participante ya esta en la sala\") */\n      tag_168\n      jumpi\n      mload(0x40)\n      0x08c379a000000000000000000000000000000000000000000000000000000000\n      dup2\n      mstore\n      0x04\n      add\n      tag_169\n      swap1\n      tag_170\n      jump\t// in\n    tag_169:\n      mload(0x40)\n      dup1\n      swap2\n      sub\n      swap1\n      revert\n    tag_168:\n        /* \"contracts/pasanaku.sol\":3146:3149  i++ */\n      dup1\n      dup1\n      0x01\n      add\n      swap2\n      pop\n      pop\n        /* \"contracts/pasanaku.sol\":3098:3280  for (uint i = 0; i < sala.participantes.length; i++) {... */\n      jump(tag_162)\n    tag_163:\n      pop\n        /* \"contracts/pasanaku.sol\":3292:3329  Participante memory nuevoParticipante */\n      tag_171\n      tag_120\n      jump\t// in\n    tag_171:\n        /* \"contracts/pasanaku.sol\":3367:3388  participanteDireccion */\n      dup3\n        /* \"contracts/pasanaku.sol\":3340:3357  nuevoParticipante */\n      dup2\n        /* \"contracts/pasanaku.sol\":3340:3364  nuevoParticipante.wallet */\n      0x00\n      add\n        /* \"contracts/pasanaku.sol\":3340:3388  nuevoParticipante.wallet = participanteDireccion */\n      swap1\n      0xffffffffffffffffffffffffffffffffffffffff\n      and\n      swap1\n      dup2\n      0xffffffffffffffffffffffffffffffffffffffff\n      and\n      dup2\n      mstore\n      pop\n      pop\n        /* \"contracts/pasanaku.sol\":3433:3437  sala */\n      dup2\n        /* \"contracts/pasanaku.sol\":3433:3464  sala.montoTotalARedibirPorRonda */\n      0x03\n      add\n      sload\n        /* \"contracts/pasanaku.sol\":3399:3416  nuevoParticipante */\n      dup2\n        /* \"contracts/pasanaku.sol\":3399:3430  nuevoParticipante.montoARecibir */\n      0x20\n      add\n        /* \"contracts/pasanaku.sol\":3399:3464  nuevoParticipante.montoARecibir = sala.montoTotalARedibirPorRonda */\n      dup2\n      dup2\n      mstore\n      pop\n      pop\n        /* \"contracts/pasanaku.sol\":3512:3517  false */\n      0x00\n        /* \"contracts/pasanaku.sol\":3475:3492  nuevoParticipante */\n      dup2\n        /* \"contracts/pasanaku.sol\":3475:3509  nuevoParticipante.haRecibidoFondos */\n      0x40\n      add\n        /* \"contracts/pasanaku.sol\":3475:3517  nuevoParticipante.haRecibidoFondos = false */\n      swap1\n      iszero\n      iszero\n      swap1\n      dup2\n      iszero\n      iszero\n      dup2\n      mstore\n      pop\n      pop\n        /* \"contracts/pasanaku.sol\":3558:3563  false */\n      0x00\n        /* \"contracts/pasanaku.sol\":3528:3545  nuevoParticipante */\n      dup2\n        /* \"contracts/pasanaku.sol\":3528:3555  nuevoParticipante.esSuTurno */\n      0x60\n      add\n        /* \"contracts/pasanaku.sol\":3528:3563  nuevoParticipante.esSuTurno = false */\n      swap1\n      iszero\n      iszero\n      swap1\n      dup2\n      iszero\n      iszero\n      dup2\n      mstore\n      pop\n      pop\n        /* \"contracts/pasanaku.sol\":3609:3614  false */\n      0x00\n        /* \"contracts/pasanaku.sol\":3574:3591  nuevoParticipante */\n      dup2\n        /* \"contracts/pasanaku.sol\":3574:3606  nuevoParticipante.esBeneficiario */\n      0x80\n      add\n        /* \"contracts/pasanaku.sol\":3574:3614  nuevoParticipante.esBeneficiario = false */\n      swap1\n      iszero\n      iszero\n      swap1\n      dup2\n      iszero\n      iszero\n      dup2\n      mstore\n      pop\n      pop\n        /* \"contracts/pasanaku.sol\":3627:3631  sala */\n      dup2\n        /* \"contracts/pasanaku.sol\":3627:3645  sala.participantes */\n      0x0a\n      add\n        /* \"contracts/pasanaku.sol\":3651:3668  nuevoParticipante */\n      dup2\n        /* \"contracts/pasanaku.sol\":3627:3669  sala.participantes.push(nuevoParticipante) */\n      swap1\n      dup1\n      0x01\n      dup2\n      sload\n      add\n      dup1\n      dup3\n      sstore\n      dup1\n      swap2\n      pop\n      pop\n      0x01\n      swap1\n      sub\n      swap1\n      0x00\n      mstore\n      keccak256(0x00, 0x20)\n      swap1\n      0x03\n      mul\n      add\n      0x00\n      swap1\n      swap2\n      swap1\n      swap2\n      swap1\n      swap2\n      pop\n      0x00\n      dup3\n      add\n      mload\n      dup2\n      0x00\n      add\n      exp(0x0100, 0x00)\n      dup2\n      sload\n      dup2\n      0xffffffffffffffffffffffffffffffffffffffff\n      mul\n      not\n      and\n      swap1\n      dup4\n      0xffffffffffffffffffffffffffffffffffffffff\n      and\n      mul\n      or\n      swap1\n      sstore\n      pop\n      0x20\n      dup3\n      add\n      mload\n      dup2\n      0x01\n      add\n      sstore\n      0x40\n      dup3\n      add\n      mload\n      dup2\n      0x02\n      add\n      exp(0x0100, 0x00)\n      dup2\n      sload\n      dup2\n      0xff\n      mul\n      not\n      and\n      swap1\n      dup4\n      iszero\n      iszero\n      mul\n      or\n      swap1\n      sstore\n      pop\n      0x60\n      dup3\n      add\n      mload\n      dup2\n      0x02\n      add\n      exp(0x0100, 0x01)\n      dup2\n      sload\n      dup2\n      0xff\n      mul\n      not\n      and\n      swap1\n      dup4\n      iszero\n      iszero\n      mul\n      or\n      swap1\n      sstore\n      pop\n      0x80\n      dup3\n      add\n      mload\n      dup2\n      0x02\n      add\n      exp(0x0100, 0x02)\n      dup2\n      sload\n      dup2\n      0xff\n      mul\n      not\n      and\n      swap1\n      dup4\n      iszero\n      iszero\n      mul\n      or\n      swap1\n      sstore\n      pop\n      pop\n      pop\n        /* \"contracts/pasanaku.sol\":2817:3677  {... */\n      pop\n      pop\n        /* \"contracts/pasanaku.sol\":2742:3677  function unirseASala(bytes32 salaId, address participanteDireccion) public {... */\n      pop\n      pop\n      jump\t// out\n        /* \"contracts/pasanaku.sol\":4685:5569  function realizarSorteo(bytes32 salaId, address anfitrionDireccion) public {... */\n    tag_41:\n        /* \"contracts/pasanaku.sol\":4771:4788  Sala storage sala */\n      0x00\n        /* \"contracts/pasanaku.sol\":4791:4796  salas */\n      dup1\n        /* \"contracts/pasanaku.sol\":4791:4804  salas[salaId] */\n      0x00\n        /* \"contracts/pasanaku.sol\":4797:4803  salaId */\n      dup5\n        /* \"contracts/pasanaku.sol\":4791:4804  salas[salaId] */\n      dup2\n      mstore\n      0x20\n      add\n      swap1\n      dup2\n      mstore\n      0x20\n      add\n      0x00\n      keccak256\n        /* \"contracts/pasanaku.sol\":4771:4804  Sala storage sala = salas[salaId] */\n      swap1\n      pop\n        /* \"contracts/pasanaku.sol\":4841:4859  anfitrionDireccion */\n      dup2\n        /* \"contracts/pasanaku.sol\":4823:4859  sala.anfitrion == anfitrionDireccion */\n      0xffffffffffffffffffffffffffffffffffffffff\n      and\n        /* \"contracts/pasanaku.sol\":4823:4827  sala */\n      dup2\n        /* \"contracts/pasanaku.sol\":4823:4837  sala.anfitrion */\n      0x00\n      add\n      0x00\n      swap1\n      sload\n      swap1\n      0x0100\n      exp\n      swap1\n      div\n      0xffffffffffffffffffffffffffffffffffffffff\n      and\n        /* \"contracts/pasanaku.sol\":4823:4859  sala.anfitrion == anfitrionDireccion */\n      0xffffffffffffffffffffffffffffffffffffffff\n      and\n      eq\n        /* \"contracts/pasanaku.sol\":4815:4906  require(sala.anfitrion == anfitrionDireccion, \"Solo el anfitrion puede realizar el sorteo\") */\n      tag_174\n      jumpi\n      mload(0x40)\n      0x08c379a000000000000000000000000000000000000000000000000000000000\n      dup2\n      mstore\n      0x04\n      add\n      tag_175\n      swap1\n      tag_176\n      jump\t// in\n    tag_175:\n      mload(0x40)\n      dup1\n      swap2\n      sub\n      swap1\n      revert\n    tag_174:\n        /* \"contracts/pasanaku.sol\":4943:4947  sala */\n      dup1\n        /* \"contracts/pasanaku.sol\":4943:4974  sala.montoTotalARedibirPorRonda */\n      0x03\n      add\n      sload\n        /* \"contracts/pasanaku.sol\":4925:4929  sala */\n      dup2\n        /* \"contracts/pasanaku.sol\":4925:4939  sala.pozoTotal */\n      0x08\n      add\n      sload\n        /* \"contracts/pasanaku.sol\":4925:4974  sala.pozoTotal >= sala.montoTotalARedibirPorRonda */\n      lt\n      iszero\n        /* \"contracts/pasanaku.sol\":4917:5012  require(sala.pozoTotal >= sala.montoTotalARedibirPorRonda, \"No se ha alcanzado el monto total\") */\n      tag_177\n      jumpi\n      mload(0x40)\n      0x08c379a000000000000000000000000000000000000000000000000000000000\n      dup2\n      mstore\n      0x04\n      add\n      tag_178\n      swap1\n      tag_57\n      jump\t// in\n    tag_178:\n      mload(0x40)\n      dup1\n      swap2\n      sub\n      swap1\n      revert\n    tag_177:\n        /* \"contracts/pasanaku.sol\":5025:5045  uint indiceAleatorio */\n      0x00\n        /* \"contracts/pasanaku.sol\":5056:5076  address beneficiario */\n      dup1\n        /* \"contracts/pasanaku.sol\":5089:5365  do {... */\n    tag_179:\n        /* \"contracts/pasanaku.sol\":5196:5200  sala */\n      dup3\n        /* \"contracts/pasanaku.sol\":5196:5214  sala.participantes */\n      0x0a\n      add\n        /* \"contracts/pasanaku.sol\":5196:5221  sala.participantes.length */\n      dup1\n      sload\n      swap1\n      pop\n        /* \"contracts/pasanaku.sol\":5157:5172  block.timestamp */\n      timestamp\n        /* \"contracts/pasanaku.sol\":5174:5190  block.difficulty */\n      prevrandao\n        /* \"contracts/pasanaku.sol\":5140:5191  abi.encodePacked(block.timestamp, block.difficulty) */\n      add(0x20, mload(0x40))\n      tag_182\n      swap3\n      swap2\n      swap1\n      tag_183\n      jump\t// in\n    tag_182:\n      mload(0x40)\n      0x20\n      dup2\n      dup4\n      sub\n      sub\n      dup2\n      mstore\n      swap1\n      0x40\n      mstore\n        /* \"contracts/pasanaku.sol\":5130:5192  keccak256(abi.encodePacked(block.timestamp, block.difficulty)) */\n      dup1\n      mload\n      swap1\n      0x20\n      add\n      keccak256\n        /* \"contracts/pasanaku.sol\":5125:5193  uint(keccak256(abi.encodePacked(block.timestamp, block.difficulty))) */\n      0x00\n      shr\n        /* \"contracts/pasanaku.sol\":5125:5221  uint(keccak256(abi.encodePacked(block.timestamp, block.difficulty))) % sala.participantes.length */\n      tag_184\n      swap2\n      swap1\n      tag_185\n      jump\t// in\n    tag_184:\n        /* \"contracts/pasanaku.sol\":5107:5221  indiceAleatorio = uint(keccak256(abi.encodePacked(block.timestamp, block.difficulty))) % sala.participantes.length */\n      swap2\n      pop\n        /* \"contracts/pasanaku.sol\":5251:5255  sala */\n      dup3\n        /* \"contracts/pasanaku.sol\":5251:5269  sala.participantes */\n      0x0a\n      add\n        /* \"contracts/pasanaku.sol\":5270:5285  indiceAleatorio */\n      dup3\n        /* \"contracts/pasanaku.sol\":5251:5286  sala.participantes[indiceAleatorio] */\n      dup2\n      sload\n      dup2\n      lt\n      tag_186\n      jumpi\n      tag_187\n      tag_63\n      jump\t// in\n    tag_187:\n    tag_186:\n      swap1\n      0x00\n      mstore\n      keccak256(0x00, 0x20)\n      swap1\n      0x03\n      mul\n      add\n        /* \"contracts/pasanaku.sol\":5251:5293  sala.participantes[indiceAleatorio].wallet */\n      0x00\n      add\n      0x00\n      swap1\n      sload\n      swap1\n      0x0100\n      exp\n      swap1\n      div\n      0xffffffffffffffffffffffffffffffffffffffff\n      and\n        /* \"contracts/pasanaku.sol\":5236:5293  beneficiario = sala.participantes[indiceAleatorio].wallet */\n      swap1\n      pop\n        /* \"contracts/pasanaku.sol\":5313:5317  sala */\n      dup3\n        /* \"contracts/pasanaku.sol\":5313:5331  sala.participantes */\n      0x0a\n      add\n        /* \"contracts/pasanaku.sol\":5332:5347  indiceAleatorio */\n      dup3\n        /* \"contracts/pasanaku.sol\":5313:5348  sala.participantes[indiceAleatorio] */\n      dup2\n      sload\n      dup2\n      lt\n      tag_189\n      jumpi\n      tag_190\n      tag_63\n      jump\t// in\n    tag_190:\n    tag_189:\n      swap1\n      0x00\n      mstore\n      keccak256(0x00, 0x20)\n      swap1\n      0x03\n      mul\n      add\n        /* \"contracts/pasanaku.sol\":5313:5363  sala.participantes[indiceAleatorio].esBeneficiario */\n      0x02\n      add\n      0x02\n      swap1\n      sload\n      swap1\n      0x0100\n      exp\n      swap1\n      div\n      0xff\n      and\n        /* \"contracts/pasanaku.sol\":5089:5365  do {... */\n      tag_179\n      jumpi\n        /* \"contracts/pasanaku.sol\":5430:5434  true */\n      0x01\n        /* \"contracts/pasanaku.sol\":5377:5381  sala */\n      dup4\n        /* \"contracts/pasanaku.sol\":5377:5395  sala.participantes */\n      0x0a\n      add\n        /* \"contracts/pasanaku.sol\":5396:5411  indiceAleatorio */\n      dup4\n        /* \"contracts/pasanaku.sol\":5377:5412  sala.participantes[indiceAleatorio] */\n      dup2\n      sload\n      dup2\n      lt\n      tag_192\n      jumpi\n      tag_193\n      tag_63\n      jump\t// in\n    tag_193:\n    tag_192:\n      swap1\n      0x00\n      mstore\n      keccak256(0x00, 0x20)\n      swap1\n      0x03\n      mul\n      add\n        /* \"contracts/pasanaku.sol\":5377:5427  sala.participantes[indiceAleatorio].esBeneficiario */\n      0x02\n      add\n      0x02\n        /* \"contracts/pasanaku.sol\":5377:5434  sala.participantes[indiceAleatorio].esBeneficiario = true */\n      0x0100\n      exp\n      dup2\n      sload\n      dup2\n      0xff\n      mul\n      not\n      and\n      swap1\n      dup4\n      iszero\n      iszero\n      mul\n      or\n      swap1\n      sstore\n      pop\n        /* \"contracts/pasanaku.sol\":5493:5497  true */\n      0x01\n        /* \"contracts/pasanaku.sol\":5445:5449  sala */\n      dup4\n        /* \"contracts/pasanaku.sol\":5445:5463  sala.participantes */\n      0x0a\n      add\n        /* \"contracts/pasanaku.sol\":5464:5479  indiceAleatorio */\n      dup4\n        /* \"contracts/pasanaku.sol\":5445:5480  sala.participantes[indiceAleatorio] */\n      dup2\n      sload\n      dup2\n      lt\n      tag_195\n      jumpi\n      tag_196\n      tag_63\n      jump\t// in\n    tag_196:\n    tag_195:\n      swap1\n      0x00\n      mstore\n      keccak256(0x00, 0x20)\n      swap1\n      0x03\n      mul\n      add\n        /* \"contracts/pasanaku.sol\":5445:5490  sala.participantes[indiceAleatorio].esSuTurno */\n      0x02\n      add\n      0x01\n        /* \"contracts/pasanaku.sol\":5445:5497  sala.participantes[indiceAleatorio].esSuTurno = true */\n      0x0100\n      exp\n      dup2\n      sload\n      dup2\n      0xff\n      mul\n      not\n      and\n      swap1\n      dup4\n      iszero\n      iszero\n      mul\n      or\n      swap1\n      sstore\n      pop\n        /* \"contracts/pasanaku.sol\":5540:5546  salaId */\n      dup5\n        /* \"contracts/pasanaku.sol\":5515:5561  BeneficiarioSeleccionado(salaId, beneficiario) */\n      0xb12f018adaff7c028f285765ab08880de52e3ddb667174ab75d2346d08d5108a\n        /* \"contracts/pasanaku.sol\":5548:5560  beneficiario */\n      dup3\n        /* \"contracts/pasanaku.sol\":5515:5561  BeneficiarioSeleccionado(salaId, beneficiario) */\n      mload(0x40)\n      tag_198\n      swap2\n      swap1\n      tag_199\n      jump\t// in\n    tag_198:\n      mload(0x40)\n      dup1\n      swap2\n      sub\n      swap1\n      log2\n        /* \"contracts/pasanaku.sol\":4760:5569  {... */\n      pop\n      pop\n      pop\n        /* \"contracts/pasanaku.sol\":4685:5569  function realizarSorteo(bytes32 salaId, address anfitrionDireccion) public {... */\n      pop\n      pop\n      jump\t// out\n        /* \"contracts/pasanaku.sol\":7711:8122  function buscarSala(bytes32 salaId) public view returns (... */\n    tag_45:\n        /* \"contracts/pasanaku.sol\":7778:7782  uint */\n      0x00\n        /* \"contracts/pasanaku.sol\":7794:7798  uint */\n      dup1\n        /* \"contracts/pasanaku.sol\":7810:7814  uint */\n      0x00\n        /* \"contracts/pasanaku.sol\":7833:7850  Sala storage sala */\n      dup1\n        /* \"contracts/pasanaku.sol\":7853:7858  salas */\n      0x00\n        /* \"contracts/pasanaku.sol\":7853:7866  salas[salaId] */\n      dup1\n        /* \"contracts/pasanaku.sol\":7859:7865  salaId */\n      dup7\n        /* \"contracts/pasanaku.sol\":7853:7866  salas[salaId] */\n      dup2\n      mstore\n      0x20\n      add\n      swap1\n      dup2\n      mstore\n      0x20\n      add\n      0x00\n      keccak256\n        /* \"contracts/pasanaku.sol\":7833:7866  Sala storage sala = salas[salaId] */\n      swap1\n      pop\n        /* \"contracts/pasanaku.sol\":7911:7912  0 */\n      0x00\n        /* \"contracts/pasanaku.sol\":7885:7913  sala.anfitrion != address(0) */\n      0xffffffffffffffffffffffffffffffffffffffff\n      and\n        /* \"contracts/pasanaku.sol\":7885:7889  sala */\n      dup2\n        /* \"contracts/pasanaku.sol\":7885:7899  sala.anfitrion */\n      0x00\n      add\n      0x00\n      swap1\n      sload\n      swap1\n      0x0100\n      exp\n      swap1\n      div\n      0xffffffffffffffffffffffffffffffffffffffff\n      and\n        /* \"contracts/pasanaku.sol\":7885:7913  sala.anfitrion != address(0) */\n      0xffffffffffffffffffffffffffffffffffffffff\n      and\n      sub\n        /* \"contracts/pasanaku.sol\":7877:7935  require(sala.anfitrion != address(0), \"La sala no existe\") */\n      tag_201\n      jumpi\n      mload(0x40)\n      0x08c379a000000000000000000000000000000000000000000000000000000000\n      dup2\n      mstore\n      0x04\n      add\n      tag_202\n      swap1\n      tag_156\n      jump\t// in\n    tag_202:\n      mload(0x40)\n      dup1\n      swap2\n      sub\n      swap1\n      revert\n    tag_201:\n        /* \"contracts/pasanaku.sol\":7970:7974  sala */\n      dup1\n        /* \"contracts/pasanaku.sol\":7970:7995  sala.montoAportarPorRonda */\n      0x02\n      add\n      sload\n        /* \"contracts/pasanaku.sol\":8019:8023  sala */\n      dup2\n        /* \"contracts/pasanaku.sol\":8019:8045  sala.cantidadParticipantes */\n      0x01\n      add\n      sload\n        /* \"contracts/pasanaku.sol\":8068:8072  sala */\n      dup3\n        /* \"contracts/pasanaku.sol\":8068:8086  sala.participantes */\n      0x0a\n      add\n        /* \"contracts/pasanaku.sol\":8068:8093  sala.participantes.length */\n      dup1\n      sload\n      swap1\n      pop\n        /* \"contracts/pasanaku.sol\":7948:8114  return (... */\n      swap4\n      pop\n      swap4\n      pop\n      swap4\n      pop\n      pop\n        /* \"contracts/pasanaku.sol\":7711:8122  function buscarSala(bytes32 salaId) public view returns (... */\n      swap2\n      swap4\n      swap1\n      swap3\n      pop\n      jump\t// out\n        /* \"contracts/pasanaku.sol\":6990:7638  function obtenerDetallesSala(bytes32 salaId) public view returns (... */\n    tag_51:\n        /* \"contracts/pasanaku.sol\":7066:7073  address */\n      0x00\n        /* \"contracts/pasanaku.sol\":7085:7089  uint */\n      dup1\n        /* \"contracts/pasanaku.sol\":7101:7105  uint */\n      0x00\n        /* \"contracts/pasanaku.sol\":7117:7121  uint */\n      dup1\n        /* \"contracts/pasanaku.sol\":7133:7137  uint */\n      0x00\n        /* \"contracts/pasanaku.sol\":7149:7162  string memory */\n      0x60\n        /* \"contracts/pasanaku.sol\":7174:7178  uint */\n      0x00\n        /* \"contracts/pasanaku.sol\":7190:7194  uint */\n      dup1\n        /* \"contracts/pasanaku.sol\":7207:7211  bool */\n      0x00\n        /* \"contracts/pasanaku.sol\":7232:7249  Sala storage sala */\n      dup1\n        /* \"contracts/pasanaku.sol\":7252:7257  salas */\n      0x00\n        /* \"contracts/pasanaku.sol\":7252:7265  salas[salaId] */\n      dup1\n        /* \"contracts/pasanaku.sol\":7258:7264  salaId */\n      dup13\n        /* \"contracts/pasanaku.sol\":7252:7265  salas[salaId] */\n      dup2\n      mstore\n      0x20\n      add\n      swap1\n      dup2\n      mstore\n      0x20\n      add\n      0x00\n      keccak256\n        /* \"contracts/pasanaku.sol\":7232:7265  Sala storage sala = salas[salaId] */\n      swap1\n      pop\n        /* \"contracts/pasanaku.sol\":7298:7302  sala */\n      dup1\n        /* \"contracts/pasanaku.sol\":7298:7312  sala.anfitrion */\n      0x00\n      add\n      0x00\n      swap1\n      sload\n      swap1\n      0x0100\n      exp\n      swap1\n      div\n      0xffffffffffffffffffffffffffffffffffffffff\n      and\n        /* \"contracts/pasanaku.sol\":7327:7331  sala */\n      dup2\n        /* \"contracts/pasanaku.sol\":7327:7353  sala.cantidadParticipantes */\n      0x01\n      add\n      sload\n        /* \"contracts/pasanaku.sol\":7368:7372  sala */\n      dup3\n        /* \"contracts/pasanaku.sol\":7368:7393  sala.montoAportarPorRonda */\n      0x02\n      add\n      sload\n        /* \"contracts/pasanaku.sol\":7408:7412  sala */\n      dup4\n        /* \"contracts/pasanaku.sol\":7408:7439  sala.montoTotalARedibirPorRonda */\n      0x03\n      add\n      sload\n        /* \"contracts/pasanaku.sol\":7454:7458  sala */\n      dup5\n        /* \"contracts/pasanaku.sol\":7454:7470  sala.rondaActual */\n      0x05\n      add\n      sload\n        /* \"contracts/pasanaku.sol\":7485:7489  sala */\n      dup6\n        /* \"contracts/pasanaku.sol\":7485:7507  sala.tipoDeReparticion */\n      0x06\n      add\n        /* \"contracts/pasanaku.sol\":7522:7526  sala */\n      dup7\n        /* \"contracts/pasanaku.sol\":7522:7547  sala.diasParaEnviarAporte */\n      0x07\n      add\n      sload\n        /* \"contracts/pasanaku.sol\":7562:7566  sala */\n      dup8\n        /* \"contracts/pasanaku.sol\":7562:7580  sala.participantes */\n      0x0a\n      add\n        /* \"contracts/pasanaku.sol\":7562:7587  sala.participantes.length */\n      dup1\n      sload\n      swap1\n      pop\n        /* \"contracts/pasanaku.sol\":7602:7606  sala */\n      dup9\n        /* \"contracts/pasanaku.sol\":7602:7617  sala.salaActiva */\n      0x09\n      add\n      0x00\n      swap1\n      sload\n      swap1\n      0x0100\n      exp\n      swap1\n      div\n      0xff\n      and\n        /* \"contracts/pasanaku.sol\":7276:7630  return (... */\n      dup4\n      dup1\n      sload\n      tag_204\n      swap1\n      tag_123\n      jump\t// in\n    tag_204:\n      dup1\n      0x1f\n      add\n      0x20\n      dup1\n      swap2\n      div\n      mul\n      0x20\n      add\n      mload(0x40)\n      swap1\n      dup2\n      add\n      0x40\n      mstore\n      dup1\n      swap3\n      swap2\n      swap1\n      dup2\n      dup2\n      mstore\n      0x20\n      add\n      dup3\n      dup1\n      sload\n      tag_205\n      swap1\n      tag_123\n      jump\t// in\n    tag_205:\n      dup1\n      iszero\n      tag_206\n      jumpi\n      dup1\n      0x1f\n      lt\n      tag_207\n      jumpi\n      0x0100\n      dup1\n      dup4\n      sload\n      div\n      mul\n      dup4\n      mstore\n      swap2\n      0x20\n      add\n      swap2\n      jump(tag_206)\n    tag_207:\n      dup3\n      add\n      swap2\n      swap1\n      0x00\n      mstore\n      keccak256(0x00, 0x20)\n      swap1\n    tag_208:\n      dup2\n      sload\n      dup2\n      mstore\n      swap1\n      0x01\n      add\n      swap1\n      0x20\n      add\n      dup1\n      dup4\n      gt\n      tag_208\n      jumpi\n      dup3\n      swap1\n      sub\n      0x1f\n      and\n      dup3\n      add\n      swap2\n    tag_206:\n      pop\n      pop\n      pop\n      pop\n      pop\n      swap4\n      pop\n      swap10\n      pop\n      swap10\n      pop\n      swap10\n      pop\n      swap10\n      pop\n      swap10\n      pop\n      swap10\n      pop\n      swap10\n      pop\n      swap10\n      pop\n      swap10\n      pop\n      pop\n        /* \"contracts/pasanaku.sol\":6990:7638  function obtenerDetallesSala(bytes32 salaId) public view returns (... */\n      swap2\n      swap4\n      swap6\n      swap8\n      swap10\n      swap1\n      swap3\n      swap5\n      swap7\n      swap9\n      pop\n      jump\t// out\n    tag_120:\n      mload(0x40)\n      dup1\n      0xa0\n      add\n      0x40\n      mstore\n      dup1\n      and(0xffffffffffffffffffffffffffffffffffffffff, 0x00)\n      dup2\n      mstore\n      0x20\n      add\n      0x00\n      dup2\n      mstore\n      0x20\n      add\n      iszero(iszero(0x00))\n      dup2\n      mstore\n      0x20\n      add\n      iszero(iszero(0x00))\n      dup2\n      mstore\n      0x20\n      add\n      iszero(iszero(0x00))\n      dup2\n      mstore\n      pop\n      swap1\n      jump\t// out\n        /* \"#utility.yul\":7:82   */\n    tag_209:\n        /* \"#utility.yul\":40:46   */\n      0x00\n        /* \"#utility.yul\":73:75   */\n      0x40\n        /* \"#utility.yul\":67:76   */\n      mload\n        /* \"#utility.yul\":57:76   */\n      swap1\n      pop\n        /* \"#utility.yul\":7:82   */\n      swap1\n      jump\t// out\n        /* \"#utility.yul\":88:205   */\n    tag_210:\n        /* \"#utility.yul\":197:198   */\n      0x00\n        /* \"#utility.yul\":194:195   */\n      dup1\n        /* \"#utility.yul\":187:199   */\n      revert\n        /* \"#utility.yul\":211:328   */\n    tag_211:\n        /* \"#utility.yul\":320:321   */\n      0x00\n        /* \"#utility.yul\":317:318   */\n      dup1\n        /* \"#utility.yul\":310:322   */\n      revert\n        /* \"#utility.yul\":334:411   */\n    tag_212:\n        /* \"#utility.yul\":371:378   */\n      0x00\n        /* \"#utility.yul\":400:405   */\n      dup2\n        /* \"#utility.yul\":389:405   */\n      swap1\n      pop\n        /* \"#utility.yul\":334:411   */\n      swap2\n      swap1\n      pop\n      jump\t// out\n        /* \"#utility.yul\":417:539   */\n    tag_213:\n        /* \"#utility.yul\":490:514   */\n      tag_305\n        /* \"#utility.yul\":508:513   */\n      dup2\n        /* \"#utility.yul\":490:514   */\n      tag_212\n      jump\t// in\n    tag_305:\n        /* \"#utility.yul\":483:488   */\n      dup2\n        /* \"#utility.yul\":480:515   */\n      eq\n        /* \"#utility.yul\":470:533   */\n      tag_306\n      jumpi\n        /* \"#utility.yul\":529:530   */\n      0x00\n        /* \"#utility.yul\":526:527   */\n      dup1\n        /* \"#utility.yul\":519:531   */\n      revert\n        /* \"#utility.yul\":470:533   */\n    tag_306:\n        /* \"#utility.yul\":417:539   */\n      pop\n      jump\t// out\n        /* \"#utility.yul\":545:684   */\n    tag_214:\n        /* \"#utility.yul\":591:596   */\n      0x00\n        /* \"#utility.yul\":629:635   */\n      dup2\n        /* \"#utility.yul\":616:636   */\n      calldataload\n        /* \"#utility.yul\":607:636   */\n      swap1\n      pop\n        /* \"#utility.yul\":645:678   */\n      tag_308\n        /* \"#utility.yul\":672:677   */\n      dup2\n        /* \"#utility.yul\":645:678   */\n      tag_213\n      jump\t// in\n    tag_308:\n        /* \"#utility.yul\":545:684   */\n      swap3\n      swap2\n      pop\n      pop\n      jump\t// out\n        /* \"#utility.yul\":690:1019   */\n    tag_14:\n        /* \"#utility.yul\":749:755   */\n      0x00\n        /* \"#utility.yul\":798:800   */\n      0x20\n        /* \"#utility.yul\":786:795   */\n      dup3\n        /* \"#utility.yul\":777:784   */\n      dup5\n        /* \"#utility.yul\":773:796   */\n      sub\n        /* \"#utility.yul\":769:801   */\n      slt\n        /* \"#utility.yul\":766:885   */\n      iszero\n      tag_310\n      jumpi\n        /* \"#utility.yul\":804:883   */\n      tag_311\n      tag_210\n      jump\t// in\n    tag_311:\n        /* \"#utility.yul\":766:885   */\n    tag_310:\n        /* \"#utility.yul\":924:925   */\n      0x00\n        /* \"#utility.yul\":949:1002   */\n      tag_312\n        /* \"#utility.yul\":994:1001   */\n      dup5\n        /* \"#utility.yul\":985:991   */\n      dup3\n        /* \"#utility.yul\":974:983   */\n      dup6\n        /* \"#utility.yul\":970:992   */\n      add\n        /* \"#utility.yul\":949:1002   */\n      tag_214\n      jump\t// in\n    tag_312:\n        /* \"#utility.yul\":939:1002   */\n      swap2\n      pop\n        /* \"#utility.yul\":895:1012   */\n      pop\n        /* \"#utility.yul\":690:1019   */\n      swap3\n      swap2\n      pop\n      pop\n      jump\t// out\n        /* \"#utility.yul\":1025:1151   */\n    tag_215:\n        /* \"#utility.yul\":1062:1069   */\n      0x00\n        /* \"#utility.yul\":1102:1144   */\n      0xffffffffffffffffffffffffffffffffffffffff\n        /* \"#utility.yul\":1095:1100   */\n      dup3\n        /* \"#utility.yul\":1091:1145   */\n      and\n        /* \"#utility.yul\":1080:1145   */\n      swap1\n      pop\n        /* \"#utility.yul\":1025:1151   */\n      swap2\n      swap1\n      pop\n      jump\t// out\n        /* \"#utility.yul\":1157:1253   */\n    tag_216:\n        /* \"#utility.yul\":1194:1201   */\n      0x00\n        /* \"#utility.yul\":1223:1247   */\n      tag_315\n        /* \"#utility.yul\":1241:1246   */\n      dup3\n        /* \"#utility.yul\":1223:1247   */\n      tag_215\n      jump\t// in\n    tag_315:\n        /* \"#utility.yul\":1212:1247   */\n      swap1\n      pop\n        /* \"#utility.yul\":1157:1253   */\n      swap2\n      swap1\n      pop\n      jump\t// out\n        /* \"#utility.yul\":1259:1381   */\n    tag_217:\n        /* \"#utility.yul\":1332:1356   */\n      tag_317\n        /* \"#utility.yul\":1350:1355   */\n      dup2\n        /* \"#utility.yul\":1332:1356   */\n      tag_216\n      jump\t// in\n    tag_317:\n        /* \"#utility.yul\":1325:1330   */\n      dup2\n        /* \"#utility.yul\":1322:1357   */\n      eq\n        /* \"#utility.yul\":1312:1375   */\n      tag_318\n      jumpi\n        /* \"#utility.yul\":1371:1372   */\n      0x00\n        /* \"#utility.yul\":1368:1369   */\n      dup1\n        /* \"#utility.yul\":1361:1373   */\n      revert\n        /* \"#utility.yul\":1312:1375   */\n    tag_318:\n        /* \"#utility.yul\":1259:1381   */\n      pop\n      jump\t// out\n        /* \"#utility.yul\":1387:1526   */\n    tag_218:\n        /* \"#utility.yul\":1433:1438   */\n      0x00\n        /* \"#utility.yul\":1471:1477   */\n      dup2\n        /* \"#utility.yul\":1458:1478   */\n      calldataload\n        /* \"#utility.yul\":1449:1478   */\n      swap1\n      pop\n        /* \"#utility.yul\":1487:1520   */\n      tag_320\n        /* \"#utility.yul\":1514:1519   */\n      dup2\n        /* \"#utility.yul\":1487:1520   */\n      tag_217\n      jump\t// in\n    tag_320:\n        /* \"#utility.yul\":1387:1526   */\n      swap3\n      swap2\n      pop\n      pop\n      jump\t// out\n        /* \"#utility.yul\":1532:1609   */\n    tag_219:\n        /* \"#utility.yul\":1569:1576   */\n      0x00\n        /* \"#utility.yul\":1598:1603   */\n      dup2\n        /* \"#utility.yul\":1587:1603   */\n      swap1\n      pop\n        /* \"#utility.yul\":1532:1609   */\n      swap2\n      swap1\n      pop\n      jump\t// out\n        /* \"#utility.yul\":1615:1737   */\n    tag_220:\n        /* \"#utility.yul\":1688:1712   */\n      tag_323\n        /* \"#utility.yul\":1706:1711   */\n      dup2\n        /* \"#utility.yul\":1688:1712   */\n      tag_219\n      jump\t// in\n    tag_323:\n        /* \"#utility.yul\":1681:1686   */\n      dup2\n        /* \"#utility.yul\":1678:1713   */\n      eq\n        /* \"#utility.yul\":1668:1731   */\n      tag_324\n      jumpi\n        /* \"#utility.yul\":1727:1728   */\n      0x00\n        /* \"#utility.yul\":1724:1725   */\n      dup1\n        /* \"#utility.yul\":1717:1729   */\n      revert\n        /* \"#utility.yul\":1668:1731   */\n    tag_324:\n        /* \"#utility.yul\":1615:1737   */\n      pop\n      jump\t// out\n        /* \"#utility.yul\":1743:1882   */\n    tag_221:\n        /* \"#utility.yul\":1789:1794   */\n      0x00\n        /* \"#utility.yul\":1827:1833   */\n      dup2\n        /* \"#utility.yul\":1814:1834   */\n      calldataload\n        /* \"#utility.yul\":1805:1834   */\n      swap1\n      pop\n        /* \"#utility.yul\":1843:1876   */\n      tag_326\n        /* \"#utility.yul\":1870:1875   */\n      dup2\n        /* \"#utility.yul\":1843:1876   */\n      tag_220\n      jump\t// in\n    tag_326:\n        /* \"#utility.yul\":1743:1882   */\n      swap3\n      swap2\n      pop\n      pop\n      jump\t// out\n        /* \"#utility.yul\":1888:2005   */\n    tag_222:\n        /* \"#utility.yul\":1997:1998   */\n      0x00\n        /* \"#utility.yul\":1994:1995   */\n      dup1\n        /* \"#utility.yul\":1987:1999   */\n      revert\n        /* \"#utility.yul\":2011:2128   */\n    tag_223:\n        /* \"#utility.yul\":2120:2121   */\n      0x00\n        /* \"#utility.yul\":2117:2118   */\n      dup1\n        /* \"#utility.yul\":2110:2122   */\n      revert\n        /* \"#utility.yul\":2134:2236   */\n    tag_224:\n        /* \"#utility.yul\":2175:2181   */\n      0x00\n        /* \"#utility.yul\":2226:2228   */\n      0x1f\n        /* \"#utility.yul\":2222:2229   */\n      not\n        /* \"#utility.yul\":2217:2219   */\n      0x1f\n        /* \"#utility.yul\":2210:2215   */\n      dup4\n        /* \"#utility.yul\":2206:2220   */\n      add\n        /* \"#utility.yul\":2202:2230   */\n      and\n        /* \"#utility.yul\":2192:2230   */\n      swap1\n      pop\n        /* \"#utility.yul\":2134:2236   */\n      swap2\n      swap1\n      pop\n      jump\t// out\n        /* \"#utility.yul\":2242:2422   */\n    tag_225:\n        /* \"#utility.yul\":2290:2367   */\n      0x4e487b7100000000000000000000000000000000000000000000000000000000\n        /* \"#utility.yul\":2287:2288   */\n      0x00\n        /* \"#utility.yul\":2280:2368   */\n      mstore\n        /* \"#utility.yul\":2387:2391   */\n      0x41\n        /* \"#utility.yul\":2384:2385   */\n      0x04\n        /* \"#utility.yul\":2377:2392   */\n      mstore\n        /* \"#utility.yul\":2411:2415   */\n      0x24\n        /* \"#utility.yul\":2408:2409   */\n      0x00\n        /* \"#utility.yul\":2401:2416   */\n      revert\n        /* \"#utility.yul\":2428:2709   */\n    tag_226:\n        /* \"#utility.yul\":2511:2538   */\n      tag_332\n        /* \"#utility.yul\":2533:2537   */\n      dup3\n        /* \"#utility.yul\":2511:2538   */\n      tag_224\n      jump\t// in\n    tag_332:\n        /* \"#utility.yul\":2503:2509   */\n      dup2\n        /* \"#utility.yul\":2499:2539   */\n      add\n        /* \"#utility.yul\":2641:2647   */\n      dup2\n        /* \"#utility.yul\":2629:2639   */\n      dup2\n        /* \"#utility.yul\":2626:2648   */\n      lt\n        /* \"#utility.yul\":2605:2623   */\n      0xffffffffffffffff\n        /* \"#utility.yul\":2593:2603   */\n      dup3\n        /* \"#utility.yul\":2590:2624   */\n      gt\n        /* \"#utility.yul\":2587:2649   */\n      or\n        /* \"#utility.yul\":2584:2672   */\n      iszero\n      tag_333\n      jumpi\n        /* \"#utility.yul\":2652:2670   */\n      tag_334\n      tag_225\n      jump\t// in\n    tag_334:\n        /* \"#utility.yul\":2584:2672   */\n    tag_333:\n        /* \"#utility.yul\":2692:2702   */\n      dup1\n        /* \"#utility.yul\":2688:2690   */\n      0x40\n        /* \"#utility.yul\":2681:2703   */\n      mstore\n        /* \"#utility.yul\":2471:2709   */\n      pop\n        /* \"#utility.yul\":2428:2709   */\n      pop\n      pop\n      jump\t// out\n        /* \"#utility.yul\":2715:2844   */\n    tag_227:\n        /* \"#utility.yul\":2749:2755   */\n      0x00\n        /* \"#utility.yul\":2776:2796   */\n      tag_336\n      tag_209\n      jump\t// in\n    tag_336:\n        /* \"#utility.yul\":2766:2796   */\n      swap1\n      pop\n        /* \"#utility.yul\":2805:2838   */\n      tag_337\n        /* \"#utility.yul\":2833:2837   */\n      dup3\n        /* \"#utility.yul\":2825:2831   */\n      dup3\n        /* \"#utility.yul\":2805:2838   */\n      tag_226\n      jump\t// in\n    tag_337:\n        /* \"#utility.yul\":2715:2844   */\n      swap2\n      swap1\n      pop\n      jump\t// out\n        /* \"#utility.yul\":2850:3158   */\n    tag_228:\n        /* \"#utility.yul\":2912:2916   */\n      0x00\n        /* \"#utility.yul\":3002:3020   */\n      0xffffffffffffffff\n        /* \"#utility.yul\":2994:3000   */\n      dup3\n        /* \"#utility.yul\":2991:3021   */\n      gt\n        /* \"#utility.yul\":2988:3044   */\n      iszero\n      tag_339\n      jumpi\n        /* \"#utility.yul\":3024:3042   */\n      tag_340\n      tag_225\n      jump\t// in\n    tag_340:\n        /* \"#utility.yul\":2988:3044   */\n    tag_339:\n        /* \"#utility.yul\":3062:3091   */\n      tag_341\n        /* \"#utility.yul\":3084:3090   */\n      dup3\n        /* \"#utility.yul\":3062:3091   */\n      tag_224\n      jump\t// in\n    tag_341:\n        /* \"#utility.yul\":3054:3091   */\n      swap1\n      pop\n        /* \"#utility.yul\":3146:3150   */\n      0x20\n        /* \"#utility.yul\":3140:3144   */\n      dup2\n        /* \"#utility.yul\":3136:3151   */\n      add\n        /* \"#utility.yul\":3128:3151   */\n      swap1\n      pop\n        /* \"#utility.yul\":2850:3158   */\n      swap2\n      swap1\n      pop\n      jump\t// out\n        /* \"#utility.yul\":3164:3312   */\n    tag_229:\n        /* \"#utility.yul\":3262:3268   */\n      dup3\n        /* \"#utility.yul\":3257:3260   */\n      dup2\n        /* \"#utility.yul\":3252:3255   */\n      dup4\n        /* \"#utility.yul\":3239:3269   */\n      calldatacopy\n        /* \"#utility.yul\":3303:3304   */\n      0x00\n        /* \"#utility.yul\":3294:3300   */\n      dup4\n        /* \"#utility.yul\":3289:3292   */\n      dup4\n        /* \"#utility.yul\":3285:3301   */\n      add\n        /* \"#utility.yul\":3278:3305   */\n      mstore\n        /* \"#utility.yul\":3164:3312   */\n      pop\n      pop\n      pop\n      jump\t// out\n        /* \"#utility.yul\":3318:3743   */\n    tag_230:\n        /* \"#utility.yul\":3396:3401   */\n      0x00\n        /* \"#utility.yul\":3421:3487   */\n      tag_344\n        /* \"#utility.yul\":3437:3486   */\n      tag_345\n        /* \"#utility.yul\":3479:3485   */\n      dup5\n        /* \"#utility.yul\":3437:3486   */\n      tag_228\n      jump\t// in\n    tag_345:\n        /* \"#utility.yul\":3421:3487   */\n      tag_227\n      jump\t// in\n    tag_344:\n        /* \"#utility.yul\":3412:3487   */\n      swap1\n      pop\n        /* \"#utility.yul\":3510:3516   */\n      dup3\n        /* \"#utility.yul\":3503:3508   */\n      dup2\n        /* \"#utility.yul\":3496:3517   */\n      mstore\n        /* \"#utility.yul\":3548:3552   */\n      0x20\n        /* \"#utility.yul\":3541:3546   */\n      dup2\n        /* \"#utility.yul\":3537:3553   */\n      add\n        /* \"#utility.yul\":3586:3589   */\n      dup5\n        /* \"#utility.yul\":3577:3583   */\n      dup5\n        /* \"#utility.yul\":3572:3575   */\n      dup5\n        /* \"#utility.yul\":3568:3584   */\n      add\n        /* \"#utility.yul\":3565:3590   */\n      gt\n        /* \"#utility.yul\":3562:3674   */\n      iszero\n      tag_346\n      jumpi\n        /* \"#utility.yul\":3593:3672   */\n      tag_347\n      tag_223\n      jump\t// in\n    tag_347:\n        /* \"#utility.yul\":3562:3674   */\n    tag_346:\n        /* \"#utility.yul\":3683:3737   */\n      tag_348\n        /* \"#utility.yul\":3730:3736   */\n      dup5\n        /* \"#utility.yul\":3725:3728   */\n      dup3\n        /* \"#utility.yul\":3720:3723   */\n      dup6\n        /* \"#utility.yul\":3683:3737   */\n      tag_229\n      jump\t// in\n    tag_348:\n        /* \"#utility.yul\":3402:3743   */\n      pop\n        /* \"#utility.yul\":3318:3743   */\n      swap4\n      swap3\n      pop\n      pop\n      pop\n      jump\t// out\n        /* \"#utility.yul\":3763:4103   */\n    tag_231:\n        /* \"#utility.yul\":3819:3824   */\n      0x00\n        /* \"#utility.yul\":3868:3871   */\n      dup3\n        /* \"#utility.yul\":3861:3865   */\n      0x1f\n        /* \"#utility.yul\":3853:3859   */\n      dup4\n        /* \"#utility.yul\":3849:3866   */\n      add\n        /* \"#utility.yul\":3845:3872   */\n      slt\n        /* \"#utility.yul\":3835:3957   */\n      tag_350\n      jumpi\n        /* \"#utility.yul\":3876:3955   */\n      tag_351\n      tag_222\n      jump\t// in\n    tag_351:\n        /* \"#utility.yul\":3835:3957   */\n    tag_350:\n        /* \"#utility.yul\":3993:3999   */\n      dup2\n        /* \"#utility.yul\":3980:4000   */\n      calldataload\n        /* \"#utility.yul\":4018:4097   */\n      tag_352\n        /* \"#utility.yul\":4093:4096   */\n      dup5\n        /* \"#utility.yul\":4085:4091   */\n      dup3\n        /* \"#utility.yul\":4078:4082   */\n      0x20\n        /* \"#utility.yul\":4070:4076   */\n      dup7\n        /* \"#utility.yul\":4066:4083   */\n      add\n        /* \"#utility.yul\":4018:4097   */\n      tag_230\n      jump\t// in\n    tag_352:\n        /* \"#utility.yul\":4009:4097   */\n      swap2\n      pop\n        /* \"#utility.yul\":3825:4103   */\n      pop\n        /* \"#utility.yul\":3763:4103   */\n      swap3\n      swap2\n      pop\n      pop\n      jump\t// out\n        /* \"#utility.yul\":4109:5200   */\n    tag_19:\n        /* \"#utility.yul\":4214:4220   */\n      0x00\n        /* \"#utility.yul\":4222:4228   */\n      dup1\n        /* \"#utility.yul\":4230:4236   */\n      0x00\n        /* \"#utility.yul\":4238:4244   */\n      dup1\n        /* \"#utility.yul\":4246:4252   */\n      0x00\n        /* \"#utility.yul\":4295:4298   */\n      0xa0\n        /* \"#utility.yul\":4283:4292   */\n      dup7\n        /* \"#utility.yul\":4274:4281   */\n      dup9\n        /* \"#utility.yul\":4270:4293   */\n      sub\n        /* \"#utility.yul\":4266:4299   */\n      slt\n        /* \"#utility.yul\":4263:4383   */\n      iszero\n      tag_354\n      jumpi\n        /* \"#utility.yul\":4302:4381   */\n      tag_355\n      tag_210\n      jump\t// in\n    tag_355:\n        /* \"#utility.yul\":4263:4383   */\n    tag_354:\n        /* \"#utility.yul\":4422:4423   */\n      0x00\n        /* \"#utility.yul\":4447:4500   */\n      tag_356\n        /* \"#utility.yul\":4492:4499   */\n      dup9\n        /* \"#utility.yul\":4483:4489   */\n      dup3\n        /* \"#utility.yul\":4472:4481   */\n      dup10\n        /* \"#utility.yul\":4468:4490   */\n      add\n        /* \"#utility.yul\":4447:4500   */\n      tag_218\n      jump\t// in\n    tag_356:\n        /* \"#utility.yul\":4437:4500   */\n      swap6\n      pop\n        /* \"#utility.yul\":4393:4510   */\n      pop\n        /* \"#utility.yul\":4549:4551   */\n      0x20\n        /* \"#utility.yul\":4575:4628   */\n      tag_357\n        /* \"#utility.yul\":4620:4627   */\n      dup9\n        /* \"#utility.yul\":4611:4617   */\n      dup3\n        /* \"#utility.yul\":4600:4609   */\n      dup10\n        /* \"#utility.yul\":4596:4618   */\n      add\n        /* \"#utility.yul\":4575:4628   */\n      tag_221\n      jump\t// in\n    tag_357:\n        /* \"#utility.yul\":4565:4628   */\n      swap5\n      pop\n        /* \"#utility.yul\":4520:4638   */\n      pop\n        /* \"#utility.yul\":4677:4679   */\n      0x40\n        /* \"#utility.yul\":4703:4756   */\n      tag_358\n        /* \"#utility.yul\":4748:4755   */\n      dup9\n        /* \"#utility.yul\":4739:4745   */\n      dup3\n        /* \"#utility.yul\":4728:4737   */\n      dup10\n        /* \"#utility.yul\":4724:4746   */\n      add\n        /* \"#utility.yul\":4703:4756   */\n      tag_221\n      jump\t// in\n    tag_358:\n        /* \"#utility.yul\":4693:4756   */\n      swap4\n      pop\n        /* \"#utility.yul\":4648:4766   */\n      pop\n        /* \"#utility.yul\":4833:4835   */\n      0x60\n        /* \"#utility.yul\":4822:4831   */\n      dup7\n        /* \"#utility.yul\":4818:4836   */\n      add\n        /* \"#utility.yul\":4805:4837   */\n      calldataload\n        /* \"#utility.yul\":4864:4882   */\n      0xffffffffffffffff\n        /* \"#utility.yul\":4856:4862   */\n      dup2\n        /* \"#utility.yul\":4853:4883   */\n      gt\n        /* \"#utility.yul\":4850:4967   */\n      iszero\n      tag_359\n      jumpi\n        /* \"#utility.yul\":4886:4965   */\n      tag_360\n      tag_211\n      jump\t// in\n    tag_360:\n        /* \"#utility.yul\":4850:4967   */\n    tag_359:\n        /* \"#utility.yul\":4991:5054   */\n      tag_361\n        /* \"#utility.yul\":5046:5053   */\n      dup9\n        /* \"#utility.yul\":5037:5043   */\n      dup3\n        /* \"#utility.yul\":5026:5035   */\n      dup10\n        /* \"#utility.yul\":5022:5044   */\n      add\n        /* \"#utility.yul\":4991:5054   */\n      tag_231\n      jump\t// in\n    tag_361:\n        /* \"#utility.yul\":4981:5054   */\n      swap3\n      pop\n        /* \"#utility.yul\":4776:5064   */\n      pop\n        /* \"#utility.yul\":5103:5106   */\n      0x80\n        /* \"#utility.yul\":5130:5183   */\n      tag_362\n        /* \"#utility.yul\":5175:5182   */\n      dup9\n        /* \"#utility.yul\":5166:5172   */\n      dup3\n        /* \"#utility.yul\":5155:5164   */\n      dup10\n        /* \"#utility.yul\":5151:5173   */\n      add\n        /* \"#utility.yul\":5130:5183   */\n      tag_221\n      jump\t// in\n    tag_362:\n        /* \"#utility.yul\":5120:5183   */\n      swap2\n      pop\n        /* \"#utility.yul\":5074:5193   */\n      pop\n        /* \"#utility.yul\":4109:5200   */\n      swap3\n      swap6\n      pop\n      swap3\n      swap6\n      swap1\n      swap4\n      pop\n      jump\t// out\n        /* \"#utility.yul\":5206:5324   */\n    tag_232:\n        /* \"#utility.yul\":5293:5317   */\n      tag_364\n        /* \"#utility.yul\":5311:5316   */\n      dup2\n        /* \"#utility.yul\":5293:5317   */\n      tag_212\n      jump\t// in\n    tag_364:\n        /* \"#utility.yul\":5288:5291   */\n      dup3\n        /* \"#utility.yul\":5281:5318   */\n      mstore\n        /* \"#utility.yul\":5206:5324   */\n      pop\n      pop\n      jump\t// out\n        /* \"#utility.yul\":5330:5552   */\n    tag_22:\n        /* \"#utility.yul\":5423:5427   */\n      0x00\n        /* \"#utility.yul\":5461:5463   */\n      0x20\n        /* \"#utility.yul\":5450:5459   */\n      dup3\n        /* \"#utility.yul\":5446:5464   */\n      add\n        /* \"#utility.yul\":5438:5464   */\n      swap1\n      pop\n        /* \"#utility.yul\":5474:5545   */\n      tag_366\n        /* \"#utility.yul\":5542:5543   */\n      0x00\n        /* \"#utility.yul\":5531:5540   */\n      dup4\n        /* \"#utility.yul\":5527:5544   */\n      add\n        /* \"#utility.yul\":5518:5524   */\n      dup5\n        /* \"#utility.yul\":5474:5545   */\n      tag_232\n      jump\t// in\n    tag_366:\n        /* \"#utility.yul\":5330:5552   */\n      swap3\n      swap2\n      pop\n      pop\n      jump\t// out\n        /* \"#utility.yul\":5558:5676   */\n    tag_233:\n        /* \"#utility.yul\":5645:5669   */\n      tag_368\n        /* \"#utility.yul\":5663:5668   */\n      dup2\n        /* \"#utility.yul\":5645:5669   */\n      tag_216\n      jump\t// in\n    tag_368:\n        /* \"#utility.yul\":5640:5643   */\n      dup3\n        /* \"#utility.yul\":5633:5670   */\n      mstore\n        /* \"#utility.yul\":5558:5676   */\n      pop\n      pop\n      jump\t// out\n        /* \"#utility.yul\":5682:5800   */\n    tag_234:\n        /* \"#utility.yul\":5769:5793   */\n      tag_370\n        /* \"#utility.yul\":5787:5792   */\n      dup2\n        /* \"#utility.yul\":5769:5793   */\n      tag_219\n      jump\t// in\n    tag_370:\n        /* \"#utility.yul\":5764:5767   */\n      dup3\n        /* \"#utility.yul\":5757:5794   */\n      mstore\n        /* \"#utility.yul\":5682:5800   */\n      pop\n      pop\n      jump\t// out\n        /* \"#utility.yul\":5806:5905   */\n    tag_235:\n        /* \"#utility.yul\":5858:5864   */\n      0x00\n        /* \"#utility.yul\":5892:5897   */\n      dup2\n        /* \"#utility.yul\":5886:5898   */\n      mload\n        /* \"#utility.yul\":5876:5898   */\n      swap1\n      pop\n        /* \"#utility.yul\":5806:5905   */\n      swap2\n      swap1\n      pop\n      jump\t// out\n        /* \"#utility.yul\":5911:6080   */\n    tag_236:\n        /* \"#utility.yul\":5995:6006   */\n      0x00\n        /* \"#utility.yul\":6029:6035   */\n      dup3\n        /* \"#utility.yul\":6024:6027   */\n      dup3\n        /* \"#utility.yul\":6017:6036   */\n      mstore\n        /* \"#utility.yul\":6069:6073   */\n      0x20\n        /* \"#utility.yul\":6064:6067   */\n      dup3\n        /* \"#utility.yul\":6060:6074   */\n      add\n        /* \"#utility.yul\":6045:6074   */\n      swap1\n      pop\n        /* \"#utility.yul\":5911:6080   */\n      swap3\n      swap2\n      pop\n      pop\n      jump\t// out\n        /* \"#utility.yul\":6086:6225   */\n    tag_237:\n        /* \"#utility.yul\":6175:6181   */\n      dup3\n        /* \"#utility.yul\":6170:6173   */\n      dup2\n        /* \"#utility.yul\":6165:6168   */\n      dup4\n        /* \"#utility.yul\":6159:6182   */\n      mcopy\n        /* \"#utility.yul\":6216:6217   */\n      0x00\n        /* \"#utility.yul\":6207:6213   */\n      dup4\n        /* \"#utility.yul\":6202:6205   */\n      dup4\n        /* \"#utility.yul\":6198:6214   */\n      add\n        /* \"#utility.yul\":6191:6218   */\n      mstore\n        /* \"#utility.yul\":6086:6225   */\n      pop\n      pop\n      pop\n      jump\t// out\n        /* \"#utility.yul\":6231:6608   */\n    tag_238:\n        /* \"#utility.yul\":6319:6322   */\n      0x00\n        /* \"#utility.yul\":6347:6386   */\n      tag_375\n        /* \"#utility.yul\":6380:6385   */\n      dup3\n        /* \"#utility.yul\":6347:6386   */\n      tag_235\n      jump\t// in\n    tag_375:\n        /* \"#utility.yul\":6402:6473   */\n      tag_376\n        /* \"#utility.yul\":6466:6472   */\n      dup2\n        /* \"#utility.yul\":6461:6464   */\n      dup6\n        /* \"#utility.yul\":6402:6473   */\n      tag_236\n      jump\t// in\n    tag_376:\n        /* \"#utility.yul\":6395:6473   */\n      swap4\n      pop\n        /* \"#utility.yul\":6482:6547   */\n      tag_377\n        /* \"#utility.yul\":6540:6546   */\n      dup2\n        /* \"#utility.yul\":6535:6538   */\n      dup6\n        /* \"#utility.yul\":6528:6532   */\n      0x20\n        /* \"#utility.yul\":6521:6526   */\n      dup7\n        /* \"#utility.yul\":6517:6533   */\n      add\n        /* \"#utility.yul\":6482:6547   */\n      tag_237\n      jump\t// in\n    tag_377:\n        /* \"#utility.yul\":6572:6601   */\n      tag_378\n        /* \"#utility.yul\":6594:6600   */\n      dup2\n        /* \"#utility.yul\":6572:6601   */\n      tag_224\n      jump\t// in\n    tag_378:\n        /* \"#utility.yul\":6567:6570   */\n      dup5\n        /* \"#utility.yul\":6563:6602   */\n      add\n        /* \"#utility.yul\":6556:6602   */\n      swap2\n      pop\n        /* \"#utility.yul\":6323:6608   */\n      pop\n        /* \"#utility.yul\":6231:6608   */\n      swap3\n      swap2\n      pop\n      pop\n      jump\t// out\n        /* \"#utility.yul\":6614:6704   */\n    tag_239:\n        /* \"#utility.yul\":6648:6655   */\n      0x00\n        /* \"#utility.yul\":6691:6696   */\n      dup2\n        /* \"#utility.yul\":6684:6697   */\n      iszero\n        /* \"#utility.yul\":6677:6698   */\n      iszero\n        /* \"#utility.yul\":6666:6698   */\n      swap1\n      pop\n        /* \"#utility.yul\":6614:6704   */\n      swap2\n      swap1\n      pop\n      jump\t// out\n        /* \"#utility.yul\":6710:6819   */\n    tag_240:\n        /* \"#utility.yul\":6791:6812   */\n      tag_381\n        /* \"#utility.yul\":6806:6811   */\n      dup2\n        /* \"#utility.yul\":6791:6812   */\n      tag_239\n      jump\t// in\n    tag_381:\n        /* \"#utility.yul\":6786:6789   */\n      dup3\n        /* \"#utility.yul\":6779:6813   */\n      mstore\n        /* \"#utility.yul\":6710:6819   */\n      pop\n      pop\n      jump\t// out\n        /* \"#utility.yul\":6825:8123   */\n    tag_28:\n        /* \"#utility.yul\":7184:7188   */\n      0x00\n        /* \"#utility.yul\":7222:7225   */\n      0x0140\n        /* \"#utility.yul\":7211:7220   */\n      dup3\n        /* \"#utility.yul\":7207:7226   */\n      add\n        /* \"#utility.yul\":7199:7226   */\n      swap1\n      pop\n        /* \"#utility.yul\":7236:7307   */\n      tag_383\n        /* \"#utility.yul\":7304:7305   */\n      0x00\n        /* \"#utility.yul\":7293:7302   */\n      dup4\n        /* \"#utility.yul\":7289:7306   */\n      add\n        /* \"#utility.yul\":7280:7286   */\n      dup14\n        /* \"#utility.yul\":7236:7307   */\n      tag_233\n      jump\t// in\n    tag_383:\n        /* \"#utility.yul\":7317:7389   */\n      tag_384\n        /* \"#utility.yul\":7385:7387   */\n      0x20\n        /* \"#utility.yul\":7374:7383   */\n      dup4\n        /* \"#utility.yul\":7370:7388   */\n      add\n        /* \"#utility.yul\":7361:7367   */\n      dup13\n        /* \"#utility.yul\":7317:7389   */\n      tag_234\n      jump\t// in\n    tag_384:\n        /* \"#utility.yul\":7399:7471   */\n      tag_385\n        /* \"#utility.yul\":7467:7469   */\n      0x40\n        /* \"#utility.yul\":7456:7465   */\n      dup4\n        /* \"#utility.yul\":7452:7470   */\n      add\n        /* \"#utility.yul\":7443:7449   */\n      dup12\n        /* \"#utility.yul\":7399:7471   */\n      tag_234\n      jump\t// in\n    tag_385:\n        /* \"#utility.yul\":7481:7553   */\n      tag_386\n        /* \"#utility.yul\":7549:7551   */\n      0x60\n        /* \"#utility.yul\":7538:7547   */\n      dup4\n        /* \"#utility.yul\":7534:7552   */\n      add\n        /* \"#utility.yul\":7525:7531   */\n      dup11\n        /* \"#utility.yul\":7481:7553   */\n      tag_234\n      jump\t// in\n    tag_386:\n        /* \"#utility.yul\":7563:7636   */\n      tag_387\n        /* \"#utility.yul\":7631:7634   */\n      0x80\n        /* \"#utility.yul\":7620:7629   */\n      dup4\n        /* \"#utility.yul\":7616:7635   */\n      add\n        /* \"#utility.yul\":7607:7613   */\n      dup10\n        /* \"#utility.yul\":7563:7636   */\n      tag_234\n      jump\t// in\n    tag_387:\n        /* \"#utility.yul\":7646:7719   */\n      tag_388\n        /* \"#utility.yul\":7714:7717   */\n      0xa0\n        /* \"#utility.yul\":7703:7712   */\n      dup4\n        /* \"#utility.yul\":7699:7718   */\n      add\n        /* \"#utility.yul\":7690:7696   */\n      dup9\n        /* \"#utility.yul\":7646:7719   */\n      tag_234\n      jump\t// in\n    tag_388:\n        /* \"#utility.yul\":7767:7776   */\n      dup2\n        /* \"#utility.yul\":7761:7765   */\n      dup2\n        /* \"#utility.yul\":7757:7777   */\n      sub\n        /* \"#utility.yul\":7751:7754   */\n      0xc0\n        /* \"#utility.yul\":7740:7749   */\n      dup4\n        /* \"#utility.yul\":7736:7755   */\n      add\n        /* \"#utility.yul\":7729:7778   */\n      mstore\n        /* \"#utility.yul\":7795:7873   */\n      tag_389\n        /* \"#utility.yul\":7868:7872   */\n      dup2\n        /* \"#utility.yul\":7859:7865   */\n      dup8\n        /* \"#utility.yul\":7795:7873   */\n      tag_238\n      jump\t// in\n    tag_389:\n        /* \"#utility.yul\":7787:7873   */\n      swap1\n      pop\n        /* \"#utility.yul\":7883:7956   */\n      tag_390\n        /* \"#utility.yul\":7951:7954   */\n      0xe0\n        /* \"#utility.yul\":7940:7949   */\n      dup4\n        /* \"#utility.yul\":7936:7955   */\n      add\n        /* \"#utility.yul\":7927:7933   */\n      dup7\n        /* \"#utility.yul\":7883:7956   */\n      tag_234\n      jump\t// in\n    tag_390:\n        /* \"#utility.yul\":7966:8039   */\n      tag_391\n        /* \"#utility.yul\":8034:8037   */\n      0x0100\n        /* \"#utility.yul\":8023:8032   */\n      dup4\n        /* \"#utility.yul\":8019:8038   */\n      add\n        /* \"#utility.yul\":8010:8016   */\n      dup6\n        /* \"#utility.yul\":7966:8039   */\n      tag_234\n      jump\t// in\n    tag_391:\n        /* \"#utility.yul\":8049:8116   */\n      tag_392\n        /* \"#utility.yul\":8111:8114   */\n      0x0120\n        /* \"#utility.yul\":8100:8109   */\n      dup4\n        /* \"#utility.yul\":8096:8115   */\n      add\n        /* \"#utility.yul\":8087:8093   */\n      dup5\n        /* \"#utility.yul\":8049:8116   */\n      tag_240\n      jump\t// in\n    tag_392:\n        /* \"#utility.yul\":6825:8123   */\n      swap12\n      swap11\n      pop\n      pop\n      pop\n      pop\n      pop\n      pop\n      pop\n      pop\n      pop\n      pop\n      pop\n      jump\t// out\n        /* \"#utility.yul\":8129:8748   */\n    tag_31:\n        /* \"#utility.yul\":8206:8212   */\n      0x00\n        /* \"#utility.yul\":8214:8220   */\n      dup1\n        /* \"#utility.yul\":8222:8228   */\n      0x00\n        /* \"#utility.yul\":8271:8273   */\n      0x60\n        /* \"#utility.yul\":8259:8268   */\n      dup5\n        /* \"#utility.yul\":8250:8257   */\n      dup7\n        /* \"#utility.yul\":8246:8269   */\n      sub\n        /* \"#utility.yul\":8242:8274   */\n      slt\n        /* \"#utility.yul\":8239:8358   */\n      iszero\n      tag_394\n      jumpi\n        /* \"#utility.yul\":8277:8356   */\n      tag_395\n      tag_210\n      jump\t// in\n    tag_395:\n        /* \"#utility.yul\":8239:8358   */\n    tag_394:\n        /* \"#utility.yul\":8397:8398   */\n      0x00\n        /* \"#utility.yul\":8422:8475   */\n      tag_396\n        /* \"#utility.yul\":8467:8474   */\n      dup7\n        /* \"#utility.yul\":8458:8464   */\n      dup3\n        /* \"#utility.yul\":8447:8456   */\n      dup8\n        /* \"#utility.yul\":8443:8465   */\n      add\n        /* \"#utility.yul\":8422:8475   */\n      tag_214\n      jump\t// in\n    tag_396:\n        /* \"#utility.yul\":8412:8475   */\n      swap4\n      pop\n        /* \"#utility.yul\":8368:8485   */\n      pop\n        /* \"#utility.yul\":8524:8526   */\n      0x20\n        /* \"#utility.yul\":8550:8603   */\n      tag_397\n        /* \"#utility.yul\":8595:8602   */\n      dup7\n        /* \"#utility.yul\":8586:8592   */\n      dup3\n        /* \"#utility.yul\":8575:8584   */\n      dup8\n        /* \"#utility.yul\":8571:8593   */\n      add\n        /* \"#utility.yul\":8550:8603   */\n      tag_218\n      jump\t// in\n    tag_397:\n        /* \"#utility.yul\":8540:8603   */\n      swap3\n      pop\n        /* \"#utility.yul\":8495:8613   */\n      pop\n        /* \"#utility.yul\":8652:8654   */\n      0x40\n        /* \"#utility.yul\":8678:8731   */\n      tag_398\n        /* \"#utility.yul\":8723:8730   */\n      dup7\n        /* \"#utility.yul\":8714:8720   */\n      dup3\n        /* \"#utility.yul\":8703:8712   */\n      dup8\n        /* \"#utility.yul\":8699:8721   */\n      add\n        /* \"#utility.yul\":8678:8731   */\n      tag_221\n      jump\t// in\n    tag_398:\n        /* \"#utility.yul\":8668:8731   */\n      swap2\n      pop\n        /* \"#utility.yul\":8623:8741   */\n      pop\n        /* \"#utility.yul\":8129:8748   */\n      swap3\n      pop\n      swap3\n      pop\n      swap3\n      jump\t// out\n        /* \"#utility.yul\":8754:9228   */\n    tag_36:\n        /* \"#utility.yul\":8822:8828   */\n      0x00\n        /* \"#utility.yul\":8830:8836   */\n      dup1\n        /* \"#utility.yul\":8879:8881   */\n      0x40\n        /* \"#utility.yul\":8867:8876   */\n      dup4\n        /* \"#utility.yul\":8858:8865   */\n      dup6\n        /* \"#utility.yul\":8854:8877   */\n      sub\n        /* \"#utility.yul\":8850:8882   */\n      slt\n        /* \"#utility.yul\":8847:8966   */\n      iszero\n      tag_400\n      jumpi\n        /* \"#utility.yul\":8885:8964   */\n      tag_401\n      tag_210\n      jump\t// in\n    tag_401:\n        /* \"#utility.yul\":8847:8966   */\n    tag_400:\n        /* \"#utility.yul\":9005:9006   */\n      0x00\n        /* \"#utility.yul\":9030:9083   */\n      tag_402\n        /* \"#utility.yul\":9075:9082   */\n      dup6\n        /* \"#utility.yul\":9066:9072   */\n      dup3\n        /* \"#utility.yul\":9055:9064   */\n      dup7\n        /* \"#utility.yul\":9051:9073   */\n      add\n        /* \"#utility.yul\":9030:9083   */\n      tag_214\n      jump\t// in\n    tag_402:\n        /* \"#utility.yul\":9020:9083   */\n      swap3\n      pop\n        /* \"#utility.yul\":8976:9093   */\n      pop\n        /* \"#utility.yul\":9132:9134   */\n      0x20\n        /* \"#utility.yul\":9158:9211   */\n      tag_403\n        /* \"#utility.yul\":9203:9210   */\n      dup6\n        /* \"#utility.yul\":9194:9200   */\n      dup3\n        /* \"#utility.yul\":9183:9192   */\n      dup7\n        /* \"#utility.yul\":9179:9201   */\n      add\n        /* \"#utility.yul\":9158:9211   */\n      tag_218\n      jump\t// in\n    tag_403:\n        /* \"#utility.yul\":9148:9211   */\n      swap2\n      pop\n        /* \"#utility.yul\":9103:9221   */\n      pop\n        /* \"#utility.yul\":8754:9228   */\n      swap3\n      pop\n      swap3\n      swap1\n      pop\n      jump\t// out\n        /* \"#utility.yul\":9234:9676   */\n    tag_47:\n        /* \"#utility.yul\":9383:9387   */\n      0x00\n        /* \"#utility.yul\":9421:9423   */\n      0x60\n        /* \"#utility.yul\":9410:9419   */\n      dup3\n        /* \"#utility.yul\":9406:9424   */\n      add\n        /* \"#utility.yul\":9398:9424   */\n      swap1\n      pop\n        /* \"#utility.yul\":9434:9505   */\n      tag_405\n        /* \"#utility.yul\":9502:9503   */\n      0x00\n        /* \"#utility.yul\":9491:9500   */\n      dup4\n        /* \"#utility.yul\":9487:9504   */\n      add\n        /* \"#utility.yul\":9478:9484   */\n      dup7\n        /* \"#utility.yul\":9434:9505   */\n      tag_234\n      jump\t// in\n    tag_405:\n        /* \"#utility.yul\":9515:9587   */\n      tag_406\n        /* \"#utility.yul\":9583:9585   */\n      0x20\n        /* \"#utility.yul\":9572:9581   */\n      dup4\n        /* \"#utility.yul\":9568:9586   */\n      add\n        /* \"#utility.yul\":9559:9565   */\n      dup6\n        /* \"#utility.yul\":9515:9587   */\n      tag_234\n      jump\t// in\n    tag_406:\n        /* \"#utility.yul\":9597:9669   */\n      tag_407\n        /* \"#utility.yul\":9665:9667   */\n      0x40\n        /* \"#utility.yul\":9654:9663   */\n      dup4\n        /* \"#utility.yul\":9650:9668   */\n      add\n        /* \"#utility.yul\":9641:9647   */\n      dup5\n        /* \"#utility.yul\":9597:9669   */\n      tag_234\n      jump\t// in\n    tag_407:\n        /* \"#utility.yul\":9234:9676   */\n      swap5\n      swap4\n      pop\n      pop\n      pop\n      pop\n      jump\t// out\n        /* \"#utility.yul\":9682:10869   */\n    tag_53:\n        /* \"#utility.yul\":10013:10017   */\n      0x00\n        /* \"#utility.yul\":10051:10054   */\n      0x0120\n        /* \"#utility.yul\":10040:10049   */\n      dup3\n        /* \"#utility.yul\":10036:10055   */\n      add\n        /* \"#utility.yul\":10028:10055   */\n      swap1\n      pop\n        /* \"#utility.yul\":10065:10136   */\n      tag_409\n        /* \"#utility.yul\":10133:10134   */\n      0x00\n        /* \"#utility.yul\":10122:10131   */\n      dup4\n        /* \"#utility.yul\":10118:10135   */\n      add\n        /* \"#utility.yul\":10109:10115   */\n      dup13\n        /* \"#utility.yul\":10065:10136   */\n      tag_233\n      jump\t// in\n    tag_409:\n        /* \"#utility.yul\":10146:10218   */\n      tag_410\n        /* \"#utility.yul\":10214:10216   */\n      0x20\n        /* \"#utility.yul\":10203:10212   */\n      dup4\n        /* \"#utility.yul\":10199:10217   */\n      add\n        /* \"#utility.yul\":10190:10196   */\n      dup12\n        /* \"#utility.yul\":10146:10218   */\n      tag_234\n      jump\t// in\n    tag_410:\n        /* \"#utility.yul\":10228:10300   */\n      tag_411\n        /* \"#utility.yul\":10296:10298   */\n      0x40\n        /* \"#utility.yul\":10285:10294   */\n      dup4\n        /* \"#utility.yul\":10281:10299   */\n      add\n        /* \"#utility.yul\":10272:10278   */\n      dup11\n        /* \"#utility.yul\":10228:10300   */\n      tag_234\n      jump\t// in\n    tag_411:\n        /* \"#utility.yul\":10310:10382   */\n      tag_412\n        /* \"#utility.yul\":10378:10380   */\n      0x60\n        /* \"#utility.yul\":10367:10376   */\n      dup4\n        /* \"#utility.yul\":10363:10381   */\n      add\n        /* \"#utility.yul\":10354:10360   */\n      dup10\n        /* \"#utility.yul\":10310:10382   */\n      tag_234\n      jump\t// in\n    tag_412:\n        /* \"#utility.yul\":10392:10465   */\n      tag_413\n        /* \"#utility.yul\":10460:10463   */\n      0x80\n        /* \"#utility.yul\":10449:10458   */\n      dup4\n        /* \"#utility.yul\":10445:10464   */\n      add\n        /* \"#utility.yul\":10436:10442   */\n      dup9\n        /* \"#utility.yul\":10392:10465   */\n      tag_234\n      jump\t// in\n    tag_413:\n        /* \"#utility.yul\":10513:10522   */\n      dup2\n        /* \"#utility.yul\":10507:10511   */\n      dup2\n        /* \"#utility.yul\":10503:10523   */\n      sub\n        /* \"#utility.yul\":10497:10500   */\n      0xa0\n        /* \"#utility.yul\":10486:10495   */\n      dup4\n        /* \"#utility.yul\":10482:10501   */\n      add\n        /* \"#utility.yul\":10475:10524   */\n      mstore\n        /* \"#utility.yul\":10541:10619   */\n      tag_414\n        /* \"#utility.yul\":10614:10618   */\n      dup2\n        /* \"#utility.yul\":10605:10611   */\n      dup8\n        /* \"#utility.yul\":10541:10619   */\n      tag_238\n      jump\t// in\n    tag_414:\n        /* \"#utility.yul\":10533:10619   */\n      swap1\n      pop\n        /* \"#utility.yul\":10629:10702   */\n      tag_415\n        /* \"#utility.yul\":10697:10700   */\n      0xc0\n        /* \"#utility.yul\":10686:10695   */\n      dup4\n        /* \"#utility.yul\":10682:10701   */\n      add\n        /* \"#utility.yul\":10673:10679   */\n      dup7\n        /* \"#utility.yul\":10629:10702   */\n      tag_234\n      jump\t// in\n    tag_415:\n        /* \"#utility.yul\":10712:10785   */\n      tag_416\n        /* \"#utility.yul\":10780:10783   */\n      0xe0\n        /* \"#utility.yul\":10769:10778   */\n      dup4\n        /* \"#utility.yul\":10765:10784   */\n      add\n        /* \"#utility.yul\":10756:10762   */\n      dup6\n        /* \"#utility.yul\":10712:10785   */\n      tag_234\n      jump\t// in\n    tag_416:\n        /* \"#utility.yul\":10795:10862   */\n      tag_417\n        /* \"#utility.yul\":10857:10860   */\n      0x0100\n        /* \"#utility.yul\":10846:10855   */\n      dup4\n        /* \"#utility.yul\":10842:10861   */\n      add\n        /* \"#utility.yul\":10833:10839   */\n      dup5\n        /* \"#utility.yul\":10795:10862   */\n      tag_240\n      jump\t// in\n    tag_417:\n        /* \"#utility.yul\":9682:10869   */\n      swap11\n      swap10\n      pop\n      pop\n      pop\n      pop\n      pop\n      pop\n      pop\n      pop\n      pop\n      pop\n      jump\t// out\n        /* \"#utility.yul\":10875:11095   */\n    tag_241:\n        /* \"#utility.yul\":11015:11049   */\n      0x4e6f20736520686120616c63616e7a61646f20656c206d6f6e746f20746f7461\n        /* \"#utility.yul\":11011:11012   */\n      0x00\n        /* \"#utility.yul\":11003:11009   */\n      dup3\n        /* \"#utility.yul\":10999:11013   */\n      add\n        /* \"#utility.yul\":10992:11050   */\n      mstore\n        /* \"#utility.yul\":11084:11087   */\n      0x6c00000000000000000000000000000000000000000000000000000000000000\n        /* \"#utility.yul\":11079:11081   */\n      0x20\n        /* \"#utility.yul\":11071:11077   */\n      dup3\n        /* \"#utility.yul\":11067:11082   */\n      add\n        /* \"#utility.yul\":11060:11088   */\n      mstore\n        /* \"#utility.yul\":10875:11095   */\n      pop\n      jump\t// out\n        /* \"#utility.yul\":11101:11467   */\n    tag_242:\n        /* \"#utility.yul\":11243:11246   */\n      0x00\n        /* \"#utility.yul\":11264:11331   */\n      tag_420\n        /* \"#utility.yul\":11328:11330   */\n      0x21\n        /* \"#utility.yul\":11323:11326   */\n      dup4\n        /* \"#utility.yul\":11264:11331   */\n      tag_236\n      jump\t// in\n    tag_420:\n        /* \"#utility.yul\":11257:11331   */\n      swap2\n      pop\n        /* \"#utility.yul\":11340:11433   */\n      tag_421\n        /* \"#utility.yul\":11429:11432   */\n      dup3\n        /* \"#utility.yul\":11340:11433   */\n      tag_241\n      jump\t// in\n    tag_421:\n        /* \"#utility.yul\":11458:11460   */\n      0x40\n        /* \"#utility.yul\":11453:11456   */\n      dup3\n        /* \"#utility.yul\":11449:11461   */\n      add\n        /* \"#utility.yul\":11442:11461   */\n      swap1\n      pop\n        /* \"#utility.yul\":11101:11467   */\n      swap2\n      swap1\n      pop\n      jump\t// out\n        /* \"#utility.yul\":11473:11892   */\n    tag_57:\n        /* \"#utility.yul\":11639:11643   */\n      0x00\n        /* \"#utility.yul\":11677:11679   */\n      0x20\n        /* \"#utility.yul\":11666:11675   */\n      dup3\n        /* \"#utility.yul\":11662:11680   */\n      add\n        /* \"#utility.yul\":11654:11680   */\n      swap1\n      pop\n        /* \"#utility.yul\":11726:11735   */\n      dup2\n        /* \"#utility.yul\":11720:11724   */\n      dup2\n        /* \"#utility.yul\":11716:11736   */\n      sub\n        /* \"#utility.yul\":11712:11713   */\n      0x00\n        /* \"#utility.yul\":11701:11710   */\n      dup4\n        /* \"#utility.yul\":11697:11714   */\n      add\n        /* \"#utility.yul\":11690:11737   */\n      mstore\n        /* \"#utility.yul\":11754:11885   */\n      tag_423\n        /* \"#utility.yul\":11880:11884   */\n      dup2\n        /* \"#utility.yul\":11754:11885   */\n      tag_242\n      jump\t// in\n    tag_423:\n        /* \"#utility.yul\":11746:11885   */\n      swap1\n      pop\n        /* \"#utility.yul\":11473:11892   */\n      swap2\n      swap1\n      pop\n      jump\t// out\n        /* \"#utility.yul\":11898:12078   */\n    tag_63:\n        /* \"#utility.yul\":11946:12023   */\n      0x4e487b7100000000000000000000000000000000000000000000000000000000\n        /* \"#utility.yul\":11943:11944   */\n      0x00\n        /* \"#utility.yul\":11936:12024   */\n      mstore\n        /* \"#utility.yul\":12043:12047   */\n      0x32\n        /* \"#utility.yul\":12040:12041   */\n      0x04\n        /* \"#utility.yul\":12033:12048   */\n      mstore\n        /* \"#utility.yul\":12067:12071   */\n      0x24\n        /* \"#utility.yul\":12064:12065   */\n      0x00\n        /* \"#utility.yul\":12057:12072   */\n      revert\n        /* \"#utility.yul\":12084:12318   */\n    tag_243:\n        /* \"#utility.yul\":12224:12258   */\n      0x456c206a7565676f206861207465726d696e61646f2e204c612073616c612068\n        /* \"#utility.yul\":12220:12221   */\n      0x00\n        /* \"#utility.yul\":12212:12218   */\n      dup3\n        /* \"#utility.yul\":12208:12222   */\n      add\n        /* \"#utility.yul\":12201:12259   */\n      mstore\n        /* \"#utility.yul\":12293:12310   */\n      0x61207369646f20636572726164612e0000000000000000000000000000000000\n        /* \"#utility.yul\":12288:12290   */\n      0x20\n        /* \"#utility.yul\":12280:12286   */\n      dup3\n        /* \"#utility.yul\":12276:12291   */\n      add\n        /* \"#utility.yul\":12269:12311   */\n      mstore\n        /* \"#utility.yul\":12084:12318   */\n      pop\n      jump\t// out\n        /* \"#utility.yul\":12324:12690   */\n    tag_244:\n        /* \"#utility.yul\":12466:12469   */\n      0x00\n        /* \"#utility.yul\":12487:12554   */\n      tag_427\n        /* \"#utility.yul\":12551:12553   */\n      0x2f\n        /* \"#utility.yul\":12546:12549   */\n      dup4\n        /* \"#utility.yul\":12487:12554   */\n      tag_236\n      jump\t// in\n    tag_427:\n        /* \"#utility.yul\":12480:12554   */\n      swap2\n      pop\n        /* \"#utility.yul\":12563:12656   */\n      tag_428\n        /* \"#utility.yul\":12652:12655   */\n      dup3\n        /* \"#utility.yul\":12563:12656   */\n      tag_243\n      jump\t// in\n    tag_428:\n        /* \"#utility.yul\":12681:12683   */\n      0x40\n        /* \"#utility.yul\":12676:12679   */\n      dup3\n        /* \"#utility.yul\":12672:12684   */\n      add\n        /* \"#utility.yul\":12665:12684   */\n      swap1\n      pop\n        /* \"#utility.yul\":12324:12690   */\n      swap2\n      swap1\n      pop\n      jump\t// out\n        /* \"#utility.yul\":12696:13115   */\n    tag_91:\n        /* \"#utility.yul\":12862:12866   */\n      0x00\n        /* \"#utility.yul\":12900:12902   */\n      0x20\n        /* \"#utility.yul\":12889:12898   */\n      dup3\n        /* \"#utility.yul\":12885:12903   */\n      add\n        /* \"#utility.yul\":12877:12903   */\n      swap1\n      pop\n        /* \"#utility.yul\":12949:12958   */\n      dup2\n        /* \"#utility.yul\":12943:12947   */\n      dup2\n        /* \"#utility.yul\":12939:12959   */\n      sub\n        /* \"#utility.yul\":12935:12936   */\n      0x00\n        /* \"#utility.yul\":12924:12933   */\n      dup4\n        /* \"#utility.yul\":12920:12937   */\n      add\n        /* \"#utility.yul\":12913:12960   */\n      mstore\n        /* \"#utility.yul\":12977:13108   */\n      tag_430\n        /* \"#utility.yul\":13103:13107   */\n      dup2\n        /* \"#utility.yul\":12977:13108   */\n      tag_244\n      jump\t// in\n    tag_430:\n        /* \"#utility.yul\":12969:13108   */\n      swap1\n      pop\n        /* \"#utility.yul\":12696:13115   */\n      swap2\n      swap1\n      pop\n      jump\t// out\n        /* \"#utility.yul\":13121:13301   */\n    tag_245:\n        /* \"#utility.yul\":13169:13246   */\n      0x4e487b7100000000000000000000000000000000000000000000000000000000\n        /* \"#utility.yul\":13166:13167   */\n      0x00\n        /* \"#utility.yul\":13159:13247   */\n      mstore\n        /* \"#utility.yul\":13266:13270   */\n      0x11\n        /* \"#utility.yul\":13263:13264   */\n      0x04\n        /* \"#utility.yul\":13256:13271   */\n      mstore\n        /* \"#utility.yul\":13290:13294   */\n      0x24\n        /* \"#utility.yul\":13287:13288   */\n      0x00\n        /* \"#utility.yul\":13280:13295   */\n      revert\n        /* \"#utility.yul\":13307:13540   */\n    tag_94:\n        /* \"#utility.yul\":13346:13349   */\n      0x00\n        /* \"#utility.yul\":13369:13393   */\n      tag_433\n        /* \"#utility.yul\":13387:13392   */\n      dup3\n        /* \"#utility.yul\":13369:13393   */\n      tag_219\n      jump\t// in\n    tag_433:\n        /* \"#utility.yul\":13360:13393   */\n      swap2\n      pop\n        /* \"#utility.yul\":13415:13481   */\n      0xffffffffffffffffffffffffffffffffffffffffffffffffffffffffffffffff\n        /* \"#utility.yul\":13408:13413   */\n      dup3\n        /* \"#utility.yul\":13405:13482   */\n      sub\n        /* \"#utility.yul\":13402:13505   */\n      tag_434\n      jumpi\n        /* \"#utility.yul\":13485:13503   */\n      tag_435\n      tag_245\n      jump\t// in\n    tag_435:\n        /* \"#utility.yul\":13402:13505   */\n    tag_434:\n        /* \"#utility.yul\":13532:13533   */\n      0x01\n        /* \"#utility.yul\":13525:13530   */\n      dup3\n        /* \"#utility.yul\":13521:13534   */\n      add\n        /* \"#utility.yul\":13514:13534   */\n      swap1\n      pop\n        /* \"#utility.yul\":13307:13540   */\n      swap2\n      swap1\n      pop\n      jump\t// out\n        /* \"#utility.yul\":13546:13768   */\n    tag_246:\n        /* \"#utility.yul\":13686:13720   */\n      0x4465626520686162657220616c206d656e6f732032207061727469636970616e\n        /* \"#utility.yul\":13682:13683   */\n      0x00\n        /* \"#utility.yul\":13674:13680   */\n      dup3\n        /* \"#utility.yul\":13670:13684   */\n      add\n        /* \"#utility.yul\":13663:13721   */\n      mstore\n        /* \"#utility.yul\":13755:13760   */\n      0x7465730000000000000000000000000000000000000000000000000000000000\n        /* \"#utility.yul\":13750:13752   */\n      0x20\n        /* \"#utility.yul\":13742:13748   */\n      dup3\n        /* \"#utility.yul\":13738:13753   */\n      add\n        /* \"#utility.yul\":13731:13761   */\n      mstore\n        /* \"#utility.yul\":13546:13768   */\n      pop\n      jump\t// out\n        /* \"#utility.yul\":13774:14140   */\n    tag_247:\n        /* \"#utility.yul\":13916:13919   */\n      0x00\n        /* \"#utility.yul\":13937:14004   */\n      tag_438\n        /* \"#utility.yul\":14001:14003   */\n      0x23\n        /* \"#utility.yul\":13996:13999   */\n      dup4\n        /* \"#utility.yul\":13937:14004   */\n      tag_236\n      jump\t// in\n    tag_438:\n        /* \"#utility.yul\":13930:14004   */\n      swap2\n      pop\n        /* \"#utility.yul\":14013:14106   */\n      tag_439\n        /* \"#utility.yul\":14102:14105   */\n      dup3\n        /* \"#utility.yul\":14013:14106   */\n      tag_246\n      jump\t// in\n    tag_439:\n        /* \"#utility.yul\":14131:14133   */\n      0x40\n        /* \"#utility.yul\":14126:14129   */\n      dup3\n        /* \"#utility.yul\":14122:14134   */\n      add\n        /* \"#utility.yul\":14115:14134   */\n      swap1\n      pop\n        /* \"#utility.yul\":13774:14140   */\n      swap2\n      swap1\n      pop\n      jump\t// out\n        /* \"#utility.yul\":14146:14565   */\n    tag_98:\n        /* \"#utility.yul\":14312:14316   */\n      0x00\n        /* \"#utility.yul\":14350:14352   */\n      0x20\n        /* \"#utility.yul\":14339:14348   */\n      dup3\n        /* \"#utility.yul\":14335:14353   */\n      add\n        /* \"#utility.yul\":14327:14353   */\n      swap1\n      pop\n        /* \"#utility.yul\":14399:14408   */\n      dup2\n        /* \"#utility.yul\":14393:14397   */\n      dup2\n        /* \"#utility.yul\":14389:14409   */\n      sub\n        /* \"#utility.yul\":14385:14386   */\n      0x00\n        /* \"#utility.yul\":14374:14383   */\n      dup4\n        /* \"#utility.yul\":14370:14387   */\n      add\n        /* \"#utility.yul\":14363:14410   */\n      mstore\n        /* \"#utility.yul\":14427:14558   */\n      tag_441\n        /* \"#utility.yul\":14553:14557   */\n      dup2\n        /* \"#utility.yul\":14427:14558   */\n      tag_247\n      jump\t// in\n    tag_441:\n        /* \"#utility.yul\":14419:14558   */\n      swap1\n      pop\n        /* \"#utility.yul\":14146:14565   */\n      swap2\n      swap1\n      pop\n      jump\t// out\n        /* \"#utility.yul\":14571:14804   */\n    tag_248:\n        /* \"#utility.yul\":14711:14745   */\n      0x456c206d6f6e746f206465206c6120636f6e747269627563696f6e2064656265\n        /* \"#utility.yul\":14707:14708   */\n      0x00\n        /* \"#utility.yul\":14699:14705   */\n      dup3\n        /* \"#utility.yul\":14695:14709   */\n      add\n        /* \"#utility.yul\":14688:14746   */\n      mstore\n        /* \"#utility.yul\":14780:14796   */\n      0x20736572206d61796f7220612030000000000000000000000000000000000000\n        /* \"#utility.yul\":14775:14777   */\n      0x20\n        /* \"#utility.yul\":14767:14773   */\n      dup3\n        /* \"#utility.yul\":14763:14778   */\n      add\n        /* \"#utility.yul\":14756:14797   */\n      mstore\n        /* \"#utility.yul\":14571:14804   */\n      pop\n      jump\t// out\n        /* \"#utility.yul\":14810:15176   */\n    tag_249:\n        /* \"#utility.yul\":14952:14955   */\n      0x00\n        /* \"#utility.yul\":14973:15040   */\n      tag_444\n        /* \"#utility.yul\":15037:15039   */\n      0x2e\n        /* \"#utility.yul\":15032:15035   */\n      dup4\n        /* \"#utility.yul\":14973:15040   */\n      tag_236\n      jump\t// in\n    tag_444:\n        /* \"#utility.yul\":14966:15040   */\n      swap2\n      pop\n        /* \"#utility.yul\":15049:15142   */\n      tag_445\n        /* \"#utility.yul\":15138:15141   */\n      dup3\n        /* \"#utility.yul\":15049:15142   */\n      tag_248\n      jump\t// in\n    tag_445:\n        /* \"#utility.yul\":15167:15169   */\n      0x40\n        /* \"#utility.yul\":15162:15165   */\n      dup3\n        /* \"#utility.yul\":15158:15170   */\n      add\n        /* \"#utility.yul\":15151:15170   */\n      swap1\n      pop\n        /* \"#utility.yul\":14810:15176   */\n      swap2\n      swap1\n      pop\n      jump\t// out\n        /* \"#utility.yul\":15182:15601   */\n    tag_101:\n        /* \"#utility.yul\":15348:15352   */\n      0x00\n        /* \"#utility.yul\":15386:15388   */\n      0x20\n        /* \"#utility.yul\":15375:15384   */\n      dup3\n        /* \"#utility.yul\":15371:15389   */\n      add\n        /* \"#utility.yul\":15363:15389   */\n      swap1\n      pop\n        /* \"#utility.yul\":15435:15444   */\n      dup2\n        /* \"#utility.yul\":15429:15433   */\n      dup2\n        /* \"#utility.yul\":15425:15445   */\n      sub\n        /* \"#utility.yul\":15421:15422   */\n      0x00\n        /* \"#utility.yul\":15410:15419   */\n      dup4\n        /* \"#utility.yul\":15406:15423   */\n      add\n        /* \"#utility.yul\":15399:15446   */\n      mstore\n        /* \"#utility.yul\":15463:15594   */\n      tag_447\n        /* \"#utility.yul\":15589:15593   */\n      dup2\n        /* \"#utility.yul\":15463:15594   */\n      tag_249\n      jump\t// in\n    tag_447:\n        /* \"#utility.yul\":15455:15594   */\n      swap1\n      pop\n        /* \"#utility.yul\":15182:15601   */\n      swap2\n      swap1\n      pop\n      jump\t// out\n        /* \"#utility.yul\":15607:15755   */\n    tag_250:\n        /* \"#utility.yul\":15709:15720   */\n      0x00\n        /* \"#utility.yul\":15746:15749   */\n      dup2\n        /* \"#utility.yul\":15731:15749   */\n      swap1\n      pop\n        /* \"#utility.yul\":15607:15755   */\n      swap3\n      swap2\n      pop\n      pop\n      jump\t// out\n        /* \"#utility.yul\":15761:15917   */\n    tag_251:\n        /* \"#utility.yul\":15901:15909   */\n      0x72756c6574610000000000000000000000000000000000000000000000000000\n        /* \"#utility.yul\":15897:15898   */\n      0x00\n        /* \"#utility.yul\":15889:15895   */\n      dup3\n        /* \"#utility.yul\":15885:15899   */\n      add\n        /* \"#utility.yul\":15878:15910   */\n      mstore\n        /* \"#utility.yul\":15761:15917   */\n      pop\n      jump\t// out\n        /* \"#utility.yul\":15923:16323   */\n    tag_252:\n        /* \"#utility.yul\":16083:16086   */\n      0x00\n        /* \"#utility.yul\":16104:16188   */\n      tag_451\n        /* \"#utility.yul\":16186:16187   */\n      0x06\n        /* \"#utility.yul\":16181:16184   */\n      dup4\n        /* \"#utility.yul\":16104:16188   */\n      tag_250\n      jump\t// in\n    tag_451:\n        /* \"#utility.yul\":16097:16188   */\n      swap2\n      pop\n        /* \"#utility.yul\":16197:16290   */\n      tag_452\n        /* \"#utility.yul\":16286:16289   */\n      dup3\n        /* \"#utility.yul\":16197:16290   */\n      tag_251\n      jump\t// in\n    tag_452:\n        /* \"#utility.yul\":16315:16316   */\n      0x06\n        /* \"#utility.yul\":16310:16313   */\n      dup3\n        /* \"#utility.yul\":16306:16317   */\n      add\n        /* \"#utility.yul\":16299:16317   */\n      swap1\n      pop\n        /* \"#utility.yul\":15923:16323   */\n      swap2\n      swap1\n      pop\n      jump\t// out\n        /* \"#utility.yul\":16329:16710   */\n    tag_103:\n        /* \"#utility.yul\":16514:16517   */\n      0x00\n        /* \"#utility.yul\":16536:16684   */\n      tag_454\n        /* \"#utility.yul\":16680:16683   */\n      dup3\n        /* \"#utility.yul\":16536:16684   */\n      tag_252\n      jump\t// in\n    tag_454:\n        /* \"#utility.yul\":16529:16684   */\n      swap2\n      pop\n        /* \"#utility.yul\":16701:16704   */\n      dup2\n        /* \"#utility.yul\":16694:16704   */\n      swap1\n      pop\n        /* \"#utility.yul\":16329:16710   */\n      swap2\n      swap1\n      pop\n      jump\t// out\n        /* \"#utility.yul\":16716:17106   */\n    tag_253:\n        /* \"#utility.yul\":16822:16825   */\n      0x00\n        /* \"#utility.yul\":16850:16889   */\n      tag_456\n        /* \"#utility.yul\":16883:16888   */\n      dup3\n        /* \"#utility.yul\":16850:16889   */\n      tag_235\n      jump\t// in\n    tag_456:\n        /* \"#utility.yul\":16905:16994   */\n      tag_457\n        /* \"#utility.yul\":16987:16993   */\n      dup2\n        /* \"#utility.yul\":16982:16985   */\n      dup6\n        /* \"#utility.yul\":16905:16994   */\n      tag_250\n      jump\t// in\n    tag_457:\n        /* \"#utility.yul\":16898:16994   */\n      swap4\n      pop\n        /* \"#utility.yul\":17003:17068   */\n      tag_458\n        /* \"#utility.yul\":17061:17067   */\n      dup2\n        /* \"#utility.yul\":17056:17059   */\n      dup6\n        /* \"#utility.yul\":17049:17053   */\n      0x20\n        /* \"#utility.yul\":17042:17047   */\n      dup7\n        /* \"#utility.yul\":17038:17054   */\n      add\n        /* \"#utility.yul\":17003:17068   */\n      tag_237\n      jump\t// in\n    tag_458:\n        /* \"#utility.yul\":17093:17099   */\n      dup1\n        /* \"#utility.yul\":17088:17091   */\n      dup5\n        /* \"#utility.yul\":17084:17100   */\n      add\n        /* \"#utility.yul\":17077:17100   */\n      swap2\n      pop\n        /* \"#utility.yul\":16826:17106   */\n      pop\n        /* \"#utility.yul\":16716:17106   */\n      swap3\n      swap2\n      pop\n      pop\n      jump\t// out\n        /* \"#utility.yul\":17112:17387   */\n    tag_105:\n        /* \"#utility.yul\":17244:17247   */\n      0x00\n        /* \"#utility.yul\":17266:17361   */\n      tag_460\n        /* \"#utility.yul\":17357:17360   */\n      dup3\n        /* \"#utility.yul\":17348:17354   */\n      dup5\n        /* \"#utility.yul\":17266:17361   */\n      tag_253\n      jump\t// in\n    tag_460:\n        /* \"#utility.yul\":17259:17361   */\n      swap2\n      pop\n        /* \"#utility.yul\":17378:17381   */\n      dup2\n        /* \"#utility.yul\":17371:17381   */\n      swap1\n      pop\n        /* \"#utility.yul\":17112:17387   */\n      swap3\n      swap2\n      pop\n      pop\n      jump\t// out\n        /* \"#utility.yul\":17393:17551   */\n    tag_254:\n        /* \"#utility.yul\":17533:17543   */\n      0x656e6c6973746172000000000000000000000000000000000000000000000000\n        /* \"#utility.yul\":17529:17530   */\n      0x00\n        /* \"#utility.yul\":17521:17527   */\n      dup3\n        /* \"#utility.yul\":17517:17531   */\n      add\n        /* \"#utility.yul\":17510:17544   */\n      mstore\n        /* \"#utility.yul\":17393:17551   */\n      pop\n      jump\t// out\n        /* \"#utility.yul\":17557:17957   */\n    tag_255:\n        /* \"#utility.yul\":17717:17720   */\n      0x00\n        /* \"#utility.yul\":17738:17822   */\n      tag_463\n        /* \"#utility.yul\":17820:17821   */\n      0x08\n        /* \"#utility.yul\":17815:17818   */\n      dup4\n        /* \"#utility.yul\":17738:17822   */\n      tag_250\n      jump\t// in\n    tag_463:\n        /* \"#utility.yul\":17731:17822   */\n      swap2\n      pop\n        /* \"#utility.yul\":17831:17924   */\n      tag_464\n        /* \"#utility.yul\":17920:17923   */\n      dup3\n        /* \"#utility.yul\":17831:17924   */\n      tag_254\n      jump\t// in\n    tag_464:\n        /* \"#utility.yul\":17949:17950   */\n      0x08\n        /* \"#utility.yul\":17944:17947   */\n      dup3\n        /* \"#utility.yul\":17940:17951   */\n      add\n        /* \"#utility.yul\":17933:17951   */\n      swap1\n      pop\n        /* \"#utility.yul\":17557:17957   */\n      swap2\n      swap1\n      pop\n      jump\t// out\n        /* \"#utility.yul\":17963:18344   */\n    tag_108:\n        /* \"#utility.yul\":18148:18151   */\n      0x00\n        /* \"#utility.yul\":18170:18318   */\n      tag_466\n        /* \"#utility.yul\":18314:18317   */\n      dup3\n        /* \"#utility.yul\":18170:18318   */\n      tag_255\n      jump\t// in\n    tag_466:\n        /* \"#utility.yul\":18163:18318   */\n      swap2\n      pop\n        /* \"#utility.yul\":18335:18338   */\n      dup2\n        /* \"#utility.yul\":18328:18338   */\n      swap1\n      pop\n        /* \"#utility.yul\":17963:18344   */\n      swap2\n      swap1\n      pop\n      jump\t// out\n        /* \"#utility.yul\":18350:18529   */\n    tag_256:\n        /* \"#utility.yul\":18490:18521   */\n      0x5469706f20646520646973747269627563696f6e20696e76616c69646f000000\n        /* \"#utility.yul\":18486:18487   */\n      0x00\n        /* \"#utility.yul\":18478:18484   */\n      dup3\n        /* \"#utility.yul\":18474:18488   */\n      add\n        /* \"#utility.yul\":18467:18522   */\n      mstore\n        /* \"#utility.yul\":18350:18529   */\n      pop\n      jump\t// out\n        /* \"#utility.yul\":18535:18901   */\n    tag_257:\n        /* \"#utility.yul\":18677:18680   */\n      0x00\n        /* \"#utility.yul\":18698:18765   */\n      tag_469\n        /* \"#utility.yul\":18762:18764   */\n      0x1d\n        /* \"#utility.yul\":18757:18760   */\n      dup4\n        /* \"#utility.yul\":18698:18765   */\n      tag_236\n      jump\t// in\n    tag_469:\n        /* \"#utility.yul\":18691:18765   */\n      swap2\n      pop\n        /* \"#utility.yul\":18774:18867   */\n      tag_470\n        /* \"#utility.yul\":18863:18866   */\n      dup3\n        /* \"#utility.yul\":18774:18867   */\n      tag_256\n      jump\t// in\n    tag_470:\n        /* \"#utility.yul\":18892:18894   */\n      0x20\n        /* \"#utility.yul\":18887:18890   */\n      dup3\n        /* \"#utility.yul\":18883:18895   */\n      add\n        /* \"#utility.yul\":18876:18895   */\n      swap1\n      pop\n        /* \"#utility.yul\":18535:18901   */\n      swap2\n      swap1\n      pop\n      jump\t// out\n        /* \"#utility.yul\":18907:19326   */\n    tag_112:\n        /* \"#utility.yul\":19073:19077   */\n      0x00\n        /* \"#utility.yul\":19111:19113   */\n      0x20\n        /* \"#utility.yul\":19100:19109   */\n      dup3\n        /* \"#utility.yul\":19096:19114   */\n      add\n        /* \"#utility.yul\":19088:19114   */\n      swap1\n      pop\n        /* \"#utility.yul\":19160:19169   */\n      dup2\n        /* \"#utility.yul\":19154:19158   */\n      dup2\n        /* \"#utility.yul\":19150:19170   */\n      sub\n        /* \"#utility.yul\":19146:19147   */\n      0x00\n        /* \"#utility.yul\":19135:19144   */\n      dup4\n        /* \"#utility.yul\":19131:19148   */\n      add\n        /* \"#utility.yul\":19124:19171   */\n      mstore\n        /* \"#utility.yul\":19188:19319   */\n      tag_472\n        /* \"#utility.yul\":19314:19318   */\n      dup2\n        /* \"#utility.yul\":19188:19319   */\n      tag_257\n      jump\t// in\n    tag_472:\n        /* \"#utility.yul\":19180:19319   */\n      swap1\n      pop\n        /* \"#utility.yul\":18907:19326   */\n      swap2\n      swap1\n      pop\n      jump\t// out\n        /* \"#utility.yul\":19332:19426   */\n    tag_258:\n        /* \"#utility.yul\":19365:19373   */\n      0x00\n        /* \"#utility.yul\":19413:19418   */\n      dup2\n        /* \"#utility.yul\":19409:19411   */\n      0x60\n        /* \"#utility.yul\":19405:19419   */\n      shl\n        /* \"#utility.yul\":19384:19419   */\n      swap1\n      pop\n        /* \"#utility.yul\":19332:19426   */\n      swap2\n      swap1\n      pop\n      jump\t// out\n        /* \"#utility.yul\":19432:19526   */\n    tag_259:\n        /* \"#utility.yul\":19471:19478   */\n      0x00\n        /* \"#utility.yul\":19500:19520   */\n      tag_475\n        /* \"#utility.yul\":19514:19519   */\n      dup3\n        /* \"#utility.yul\":19500:19520   */\n      tag_258\n      jump\t// in\n    tag_475:\n        /* \"#utility.yul\":19489:19520   */\n      swap1\n      pop\n        /* \"#utility.yul\":19432:19526   */\n      swap2\n      swap1\n      pop\n      jump\t// out\n        /* \"#utility.yul\":19532:19632   */\n    tag_260:\n        /* \"#utility.yul\":19571:19578   */\n      0x00\n        /* \"#utility.yul\":19600:19626   */\n      tag_477\n        /* \"#utility.yul\":19620:19625   */\n      dup3\n        /* \"#utility.yul\":19600:19626   */\n      tag_259\n      jump\t// in\n    tag_477:\n        /* \"#utility.yul\":19589:19626   */\n      swap1\n      pop\n        /* \"#utility.yul\":19532:19632   */\n      swap2\n      swap1\n      pop\n      jump\t// out\n        /* \"#utility.yul\":19638:19795   */\n    tag_261:\n        /* \"#utility.yul\":19743:19788   */\n      tag_479\n        /* \"#utility.yul\":19763:19787   */\n      tag_480\n        /* \"#utility.yul\":19781:19786   */\n      dup3\n        /* \"#utility.yul\":19763:19787   */\n      tag_216\n      jump\t// in\n    tag_480:\n        /* \"#utility.yul\":19743:19788   */\n      tag_260\n      jump\t// in\n    tag_479:\n        /* \"#utility.yul\":19738:19741   */\n      dup3\n        /* \"#utility.yul\":19731:19789   */\n      mstore\n        /* \"#utility.yul\":19638:19795   */\n      pop\n      pop\n      jump\t// out\n        /* \"#utility.yul\":19801:19880   */\n    tag_262:\n        /* \"#utility.yul\":19840:19847   */\n      0x00\n        /* \"#utility.yul\":19869:19874   */\n      dup2\n        /* \"#utility.yul\":19858:19874   */\n      swap1\n      pop\n        /* \"#utility.yul\":19801:19880   */\n      swap2\n      swap1\n      pop\n      jump\t// out\n        /* \"#utility.yul\":19886:20043   */\n    tag_263:\n        /* \"#utility.yul\":19991:20036   */\n      tag_483\n        /* \"#utility.yul\":20011:20035   */\n      tag_484\n        /* \"#utility.yul\":20029:20034   */\n      dup3\n        /* \"#utility.yul\":20011:20035   */\n      tag_219\n      jump\t// in\n    tag_484:\n        /* \"#utility.yul\":19991:20036   */\n      tag_262\n      jump\t// in\n    tag_483:\n        /* \"#utility.yul\":19986:19989   */\n      dup3\n        /* \"#utility.yul\":19979:20037   */\n      mstore\n        /* \"#utility.yul\":19886:20043   */\n      pop\n      pop\n      jump\t// out\n        /* \"#utility.yul\":20049:20446   */\n    tag_114:\n        /* \"#utility.yul\":20189:20192   */\n      0x00\n        /* \"#utility.yul\":20204:20279   */\n      tag_486\n        /* \"#utility.yul\":20275:20278   */\n      dup3\n        /* \"#utility.yul\":20266:20272   */\n      dup6\n        /* \"#utility.yul\":20204:20279   */\n      tag_261\n      jump\t// in\n    tag_486:\n        /* \"#utility.yul\":20304:20306   */\n      0x14\n        /* \"#utility.yul\":20299:20302   */\n      dup3\n        /* \"#utility.yul\":20295:20307   */\n      add\n        /* \"#utility.yul\":20288:20307   */\n      swap2\n      pop\n        /* \"#utility.yul\":20317:20392   */\n      tag_487\n        /* \"#utility.yul\":20388:20391   */\n      dup3\n        /* \"#utility.yul\":20379:20385   */\n      dup5\n        /* \"#utility.yul\":20317:20392   */\n      tag_263\n      jump\t// in\n    tag_487:\n        /* \"#utility.yul\":20417:20419   */\n      0x20\n        /* \"#utility.yul\":20412:20415   */\n      dup3\n        /* \"#utility.yul\":20408:20420   */\n      add\n        /* \"#utility.yul\":20401:20420   */\n      swap2\n      pop\n        /* \"#utility.yul\":20437:20440   */\n      dup2\n        /* \"#utility.yul\":20430:20440   */\n      swap1\n      pop\n        /* \"#utility.yul\":20049:20446   */\n      swap4\n      swap3\n      pop\n      pop\n      pop\n      jump\t// out\n        /* \"#utility.yul\":20452:20862   */\n    tag_116:\n        /* \"#utility.yul\":20492:20499   */\n      0x00\n        /* \"#utility.yul\":20515:20535   */\n      tag_489\n        /* \"#utility.yul\":20533:20534   */\n      dup3\n        /* \"#utility.yul\":20515:20535   */\n      tag_219\n      jump\t// in\n    tag_489:\n        /* \"#utility.yul\":20510:20535   */\n      swap2\n      pop\n        /* \"#utility.yul\":20549:20569   */\n      tag_490\n        /* \"#utility.yul\":20567:20568   */\n      dup4\n        /* \"#utility.yul\":20549:20569   */\n      tag_219\n      jump\t// in\n    tag_490:\n        /* \"#utility.yul\":20544:20569   */\n      swap3\n      pop\n        /* \"#utility.yul\":20604:20605   */\n      dup3\n        /* \"#utility.yul\":20601:20602   */\n      dup3\n        /* \"#utility.yul\":20597:20606   */\n      mul\n        /* \"#utility.yul\":20626:20656   */\n      tag_491\n        /* \"#utility.yul\":20644:20655   */\n      dup2\n        /* \"#utility.yul\":20626:20656   */\n      tag_219\n      jump\t// in\n    tag_491:\n        /* \"#utility.yul\":20615:20656   */\n      swap2\n      pop\n        /* \"#utility.yul\":20805:20806   */\n      dup3\n        /* \"#utility.yul\":20796:20803   */\n      dup3\n        /* \"#utility.yul\":20792:20807   */\n      div\n        /* \"#utility.yul\":20789:20790   */\n      dup5\n        /* \"#utility.yul\":20786:20808   */\n      eq\n        /* \"#utility.yul\":20766:20767   */\n      dup4\n        /* \"#utility.yul\":20759:20768   */\n      iszero\n        /* \"#utility.yul\":20739:20822   */\n      or\n        /* \"#utility.yul\":20716:20855   */\n      tag_492\n      jumpi\n        /* \"#utility.yul\":20835:20853   */\n      tag_493\n      tag_245\n      jump\t// in\n    tag_493:\n        /* \"#utility.yul\":20716:20855   */\n    tag_492:\n        /* \"#utility.yul\":20500:20862   */\n      pop\n        /* \"#utility.yul\":20452:20862   */\n      swap3\n      swap2\n      pop\n      pop\n      jump\t// out\n        /* \"#utility.yul\":20868:21048   */\n    tag_264:\n        /* \"#utility.yul\":20916:20993   */\n      0x4e487b7100000000000000000000000000000000000000000000000000000000\n        /* \"#utility.yul\":20913:20914   */\n      0x00\n        /* \"#utility.yul\":20906:20994   */\n      mstore\n        /* \"#utility.yul\":21013:21017   */\n      0x22\n        /* \"#utility.yul\":21010:21011   */\n      0x04\n        /* \"#utility.yul\":21003:21018   */\n      mstore\n        /* \"#utility.yul\":21037:21041   */\n      0x24\n        /* \"#utility.yul\":21034:21035   */\n      0x00\n        /* \"#utility.yul\":21027:21042   */\n      revert\n        /* \"#utility.yul\":21054:21374   */\n    tag_123:\n        /* \"#utility.yul\":21098:21104   */\n      0x00\n        /* \"#utility.yul\":21135:21136   */\n      0x02\n        /* \"#utility.yul\":21129:21133   */\n      dup3\n        /* \"#utility.yul\":21125:21137   */\n      div\n        /* \"#utility.yul\":21115:21137   */\n      swap1\n      pop\n        /* \"#utility.yul\":21182:21183   */\n      0x01\n        /* \"#utility.yul\":21176:21180   */\n      dup3\n        /* \"#utility.yul\":21172:21184   */\n      and\n        /* \"#utility.yul\":21203:21221   */\n      dup1\n        /* \"#utility.yul\":21193:21274   */\n      tag_496\n      jumpi\n        /* \"#utility.yul\":21259:21263   */\n      0x7f\n        /* \"#utility.yul\":21251:21257   */\n      dup3\n        /* \"#utility.yul\":21247:21264   */\n      and\n        /* \"#utility.yul\":21237:21264   */\n      swap2\n      pop\n        /* \"#utility.yul\":21193:21274   */\n    tag_496:\n        /* \"#utility.yul\":21321:21323   */\n      0x20\n        /* \"#utility.yul\":21313:21319   */\n      dup3\n        /* \"#utility.yul\":21310:21324   */\n      lt\n        /* \"#utility.yul\":21290:21308   */\n      dup2\n        /* \"#utility.yul\":21287:21325   */\n      sub\n        /* \"#utility.yul\":21284:21368   */\n      tag_497\n      jumpi\n        /* \"#utility.yul\":21340:21358   */\n      tag_498\n      tag_264\n      jump\t// in\n    tag_498:\n        /* \"#utility.yul\":21284:21368   */\n    tag_497:\n        /* \"#utility.yul\":21105:21374   */\n      pop\n        /* \"#utility.yul\":21054:21374   */\n      swap2\n      swap1\n      pop\n      jump\t// out\n        /* \"#utility.yul\":21380:21521   */\n    tag_265:\n        /* \"#utility.yul\":21429:21433   */\n      0x00\n        /* \"#utility.yul\":21452:21455   */\n      dup2\n        /* \"#utility.yul\":21444:21455   */\n      swap1\n      pop\n        /* \"#utility.yul\":21475:21478   */\n      dup2\n        /* \"#utility.yul\":21472:21473   */\n      0x00\n        /* \"#utility.yul\":21465:21479   */\n      mstore\n        /* \"#utility.yul\":21509:21513   */\n      0x20\n        /* \"#utility.yul\":21506:21507   */\n      0x00\n        /* \"#utility.yul\":21496:21514   */\n      keccak256\n        /* \"#utility.yul\":21488:21514   */\n      swap1\n      pop\n        /* \"#utility.yul\":21380:21521   */\n      swap2\n      swap1\n      pop\n      jump\t// out\n        /* \"#utility.yul\":21527:21620   */\n    tag_266:\n        /* \"#utility.yul\":21564:21570   */\n      0x00\n        /* \"#utility.yul\":21611:21613   */\n      0x20\n        /* \"#utility.yul\":21606:21608   */\n      0x1f\n        /* \"#utility.yul\":21599:21604   */\n      dup4\n        /* \"#utility.yul\":21595:21609   */\n      add\n        /* \"#utility.yul\":21591:21614   */\n      div\n        /* \"#utility.yul\":21581:21614   */\n      swap1\n      pop\n        /* \"#utility.yul\":21527:21620   */\n      swap2\n      swap1\n      pop\n      jump\t// out\n        /* \"#utility.yul\":21626:21733   */\n    tag_267:\n        /* \"#utility.yul\":21670:21678   */\n      0x00\n        /* \"#utility.yul\":21720:21725   */\n      dup3\n        /* \"#utility.yul\":21714:21718   */\n      dup3\n        /* \"#utility.yul\":21710:21726   */\n      shl\n        /* \"#utility.yul\":21689:21726   */\n      swap1\n      pop\n        /* \"#utility.yul\":21626:21733   */\n      swap3\n      swap2\n      pop\n      pop\n      jump\t// out\n        /* \"#utility.yul\":21739:22132   */\n    tag_268:\n        /* \"#utility.yul\":21808:21814   */\n      0x00\n        /* \"#utility.yul\":21858:21859   */\n      0x08\n        /* \"#utility.yul\":21846:21856   */\n      dup4\n        /* \"#utility.yul\":21842:21860   */\n      mul\n        /* \"#utility.yul\":21881:21978   */\n      tag_503\n        /* \"#utility.yul\":21911:21977   */\n      0xffffffffffffffffffffffffffffffffffffffffffffffffffffffffffffffff\n        /* \"#utility.yul\":21900:21909   */\n      dup3\n        /* \"#utility.yul\":21881:21978   */\n      tag_267\n      jump\t// in\n    tag_503:\n        /* \"#utility.yul\":21999:22038   */\n      tag_504\n        /* \"#utility.yul\":22029:22037   */\n      dup7\n        /* \"#utility.yul\":22018:22027   */\n      dup4\n        /* \"#utility.yul\":21999:22038   */\n      tag_267\n      jump\t// in\n    tag_504:\n        /* \"#utility.yul\":21987:22038   */\n      swap6\n      pop\n        /* \"#utility.yul\":22071:22075   */\n      dup1\n        /* \"#utility.yul\":22067:22076   */\n      not\n        /* \"#utility.yul\":22060:22065   */\n      dup5\n        /* \"#utility.yul\":22056:22077   */\n      and\n        /* \"#utility.yul\":22047:22077   */\n      swap4\n      pop\n        /* \"#utility.yul\":22120:22124   */\n      dup1\n        /* \"#utility.yul\":22110:22118   */\n      dup7\n        /* \"#utility.yul\":22106:22125   */\n      and\n        /* \"#utility.yul\":22099:22104   */\n      dup5\n        /* \"#utility.yul\":22096:22126   */\n      or\n        /* \"#utility.yul\":22086:22126   */\n      swap3\n      pop\n        /* \"#utility.yul\":21815:22132   */\n      pop\n      pop\n        /* \"#utility.yul\":21739:22132   */\n      swap4\n      swap3\n      pop\n      pop\n      pop\n      jump\t// out\n        /* \"#utility.yul\":22138:22198   */\n    tag_269:\n        /* \"#utility.yul\":22166:22169   */\n      0x00\n        /* \"#utility.yul\":22187:22192   */\n      dup2\n        /* \"#utility.yul\":22180:22192   */\n      swap1\n      pop\n        /* \"#utility.yul\":22138:22198   */\n      swap2\n      swap1\n      pop\n      jump\t// out\n        /* \"#utility.yul\":22204:22346   */\n    tag_270:\n        /* \"#utility.yul\":22254:22263   */\n      0x00\n        /* \"#utility.yul\":22287:22340   */\n      tag_507\n        /* \"#utility.yul\":22305:22339   */\n      tag_508\n        /* \"#utility.yul\":22314:22338   */\n      tag_509\n        /* \"#utility.yul\":22332:22337   */\n      dup5\n        /* \"#utility.yul\":22314:22338   */\n      tag_219\n      jump\t// in\n    tag_509:\n        /* \"#utility.yul\":22305:22339   */\n      tag_269\n      jump\t// in\n    tag_508:\n        /* \"#utility.yul\":22287:22340   */\n      tag_219\n      jump\t// in\n    tag_507:\n        /* \"#utility.yul\":22274:22340   */\n      swap1\n      pop\n        /* \"#utility.yul\":22204:22346   */\n      swap2\n      swap1\n      pop\n      jump\t// out\n        /* \"#utility.yul\":22352:22427   */\n    tag_271:\n        /* \"#utility.yul\":22395:22398   */\n      0x00\n        /* \"#utility.yul\":22416:22421   */\n      dup2\n        /* \"#utility.yul\":22409:22421   */\n      swap1\n      pop\n        /* \"#utility.yul\":22352:22427   */\n      swap2\n      swap1\n      pop\n      jump\t// out\n        /* \"#utility.yul\":22433:22702   */\n    tag_272:\n        /* \"#utility.yul\":22543:22582   */\n      tag_512\n        /* \"#utility.yul\":22574:22581   */\n      dup4\n        /* \"#utility.yul\":22543:22582   */\n      tag_270\n      jump\t// in\n    tag_512:\n        /* \"#utility.yul\":22604:22695   */\n      tag_513\n        /* \"#utility.yul\":22653:22694   */\n      tag_514\n        /* \"#utility.yul\":22677:22693   */\n      dup3\n        /* \"#utility.yul\":22653:22694   */\n      tag_271\n      jump\t// in\n    tag_514:\n        /* \"#utility.yul\":22645:22651   */\n      dup5\n        /* \"#utility.yul\":22638:22642   */\n      dup5\n        /* \"#utility.yul\":22632:22643   */\n      sload\n        /* \"#utility.yul\":22604:22695   */\n      tag_268\n      jump\t// in\n    tag_513:\n        /* \"#utility.yul\":22598:22602   */\n      dup3\n        /* \"#utility.yul\":22591:22696   */\n      sstore\n        /* \"#utility.yul\":22509:22702   */\n      pop\n        /* \"#utility.yul\":22433:22702   */\n      pop\n      pop\n      pop\n      jump\t// out\n        /* \"#utility.yul\":22708:22781   */\n    tag_273:\n        /* \"#utility.yul\":22753:22756   */\n      0x00\n        /* \"#utility.yul\":22708:22781   */\n      swap1\n      jump\t// out\n        /* \"#utility.yul\":22787:22976   */\n    tag_274:\n        /* \"#utility.yul\":22864:22896   */\n      tag_517\n      tag_273\n      jump\t// in\n    tag_517:\n        /* \"#utility.yul\":22905:22970   */\n      tag_518\n        /* \"#utility.yul\":22963:22969   */\n      dup2\n        /* \"#utility.yul\":22955:22961   */\n      dup5\n        /* \"#utility.yul\":22949:22953   */\n      dup5\n        /* \"#utility.yul\":22905:22970   */\n      tag_272\n      jump\t// in\n    tag_518:\n        /* \"#utility.yul\":22840:22976   */\n      pop\n        /* \"#utility.yul\":22787:22976   */\n      pop\n      pop\n      jump\t// out\n        /* \"#utility.yul\":22982:23168   */\n    tag_275:\n        /* \"#utility.yul\":23042:23162   */\n    tag_520:\n        /* \"#utility.yul\":23059:23062   */\n      dup2\n        /* \"#utility.yul\":23052:23057   */\n      dup2\n        /* \"#utility.yul\":23049:23063   */\n      lt\n        /* \"#utility.yul\":23042:23162   */\n      iszero\n      tag_522\n      jumpi\n        /* \"#utility.yul\":23113:23152   */\n      tag_523\n        /* \"#utility.yul\":23150:23151   */\n      0x00\n        /* \"#utility.yul\":23143:23148   */\n      dup3\n        /* \"#utility.yul\":23113:23152   */\n      tag_274\n      jump\t// in\n    tag_523:\n        /* \"#utility.yul\":23086:23087   */\n      0x01\n        /* \"#utility.yul\":23079:23084   */\n      dup2\n        /* \"#utility.yul\":23075:23088   */\n      add\n        /* \"#utility.yul\":23066:23088   */\n      swap1\n      pop\n        /* \"#utility.yul\":23042:23162   */\n      jump(tag_520)\n    tag_522:\n        /* \"#utility.yul\":22982:23168   */\n      pop\n      pop\n      jump\t// out\n        /* \"#utility.yul\":23174:23717   */\n    tag_276:\n        /* \"#utility.yul\":23275:23277   */\n      0x1f\n        /* \"#utility.yul\":23270:23273   */\n      dup3\n        /* \"#utility.yul\":23267:23278   */\n      gt\n        /* \"#utility.yul\":23264:23710   */\n      iszero\n      tag_525\n      jumpi\n        /* \"#utility.yul\":23309:23347   */\n      tag_526\n        /* \"#utility.yul\":23341:23346   */\n      dup2\n        /* \"#utility.yul\":23309:23347   */\n      tag_265\n      jump\t// in\n    tag_526:\n        /* \"#utility.yul\":23393:23422   */\n      tag_527\n        /* \"#utility.yul\":23411:23421   */\n      dup5\n        /* \"#utility.yul\":23393:23422   */\n      tag_266\n      jump\t// in\n    tag_527:\n        /* \"#utility.yul\":23383:23391   */\n      dup2\n        /* \"#utility.yul\":23379:23423   */\n      add\n        /* \"#utility.yul\":23576:23578   */\n      0x20\n        /* \"#utility.yul\":23564:23574   */\n      dup6\n        /* \"#utility.yul\":23561:23579   */\n      lt\n        /* \"#utility.yul\":23558:23607   */\n      iszero\n      tag_528\n      jumpi\n        /* \"#utility.yul\":23597:23605   */\n      dup2\n        /* \"#utility.yul\":23582:23605   */\n      swap1\n      pop\n        /* \"#utility.yul\":23558:23607   */\n    tag_528:\n        /* \"#utility.yul\":23620:23700   */\n      tag_529\n        /* \"#utility.yul\":23676:23698   */\n      tag_530\n        /* \"#utility.yul\":23694:23697   */\n      dup6\n        /* \"#utility.yul\":23676:23698   */\n      tag_266\n      jump\t// in\n    tag_530:\n        /* \"#utility.yul\":23666:23674   */\n      dup4\n        /* \"#utility.yul\":23662:23699   */\n      add\n        /* \"#utility.yul\":23649:23660   */\n      dup3\n        /* \"#utility.yul\":23620:23700   */\n      tag_275\n      jump\t// in\n    tag_529:\n        /* \"#utility.yul\":23279:23710   */\n      pop\n      pop\n        /* \"#utility.yul\":23264:23710   */\n    tag_525:\n        /* \"#utility.yul\":23174:23717   */\n      pop\n      pop\n      pop\n      jump\t// out\n        /* \"#utility.yul\":23723:23840   */\n    tag_277:\n        /* \"#utility.yul\":23777:23785   */\n      0x00\n        /* \"#utility.yul\":23827:23832   */\n      dup3\n        /* \"#utility.yul\":23821:23825   */\n      dup3\n        /* \"#utility.yul\":23817:23833   */\n      shr\n        /* \"#utility.yul\":23796:23833   */\n      swap1\n      pop\n        /* \"#utility.yul\":23723:23840   */\n      swap3\n      swap2\n      pop\n      pop\n      jump\t// out\n        /* \"#utility.yul\":23846:24015   */\n    tag_278:\n        /* \"#utility.yul\":23890:23896   */\n      0x00\n        /* \"#utility.yul\":23923:23974   */\n      tag_533\n        /* \"#utility.yul\":23971:23972   */\n      0x00\n        /* \"#utility.yul\":23967:23973   */\n      not\n        /* \"#utility.yul\":23959:23964   */\n      dup5\n        /* \"#utility.yul\":23956:23957   */\n      0x08\n        /* \"#utility.yul\":23952:23965   */\n      mul\n        /* \"#utility.yul\":23923:23974   */\n      tag_277\n      jump\t// in\n    tag_533:\n        /* \"#utility.yul\":23919:23975   */\n      not\n        /* \"#utility.yul\":24004:24008   */\n      dup1\n        /* \"#utility.yul\":23998:24002   */\n      dup4\n        /* \"#utility.yul\":23994:24009   */\n      and\n        /* \"#utility.yul\":23984:24009   */\n      swap2\n      pop\n        /* \"#utility.yul\":23897:24015   */\n      pop\n        /* \"#utility.yul\":23846:24015   */\n      swap3\n      swap2\n      pop\n      pop\n      jump\t// out\n        /* \"#utility.yul\":24020:24315   */\n    tag_279:\n        /* \"#utility.yul\":24096:24100   */\n      0x00\n        /* \"#utility.yul\":24242:24271   */\n      tag_535\n        /* \"#utility.yul\":24267:24270   */\n      dup4\n        /* \"#utility.yul\":24261:24265   */\n      dup4\n        /* \"#utility.yul\":24242:24271   */\n      tag_278\n      jump\t// in\n    tag_535:\n        /* \"#utility.yul\":24234:24271   */\n      swap2\n      pop\n        /* \"#utility.yul\":24304:24307   */\n      dup3\n        /* \"#utility.yul\":24301:24302   */\n      0x02\n        /* \"#utility.yul\":24297:24308   */\n      mul\n        /* \"#utility.yul\":24291:24295   */\n      dup3\n        /* \"#utility.yul\":24288:24309   */\n      or\n        /* \"#utility.yul\":24280:24309   */\n      swap1\n      pop\n        /* \"#utility.yul\":24020:24315   */\n      swap3\n      swap2\n      pop\n      pop\n      jump\t// out\n        /* \"#utility.yul\":24320:25715   */\n    tag_118:\n        /* \"#utility.yul\":24437:24474   */\n      tag_537\n        /* \"#utility.yul\":24470:24473   */\n      dup3\n        /* \"#utility.yul\":24437:24474   */\n      tag_235\n      jump\t// in\n    tag_537:\n        /* \"#utility.yul\":24539:24557   */\n      0xffffffffffffffff\n        /* \"#utility.yul\":24531:24537   */\n      dup2\n        /* \"#utility.yul\":24528:24558   */\n      gt\n        /* \"#utility.yul\":24525:24581   */\n      iszero\n      tag_538\n      jumpi\n        /* \"#utility.yul\":24561:24579   */\n      tag_539\n      tag_225\n      jump\t// in\n    tag_539:\n        /* \"#utility.yul\":24525:24581   */\n    tag_538:\n        /* \"#utility.yul\":24605:24643   */\n      tag_540\n        /* \"#utility.yul\":24637:24641   */\n      dup3\n        /* \"#utility.yul\":24631:24642   */\n      sload\n        /* \"#utility.yul\":24605:24643   */\n      tag_123\n      jump\t// in\n    tag_540:\n        /* \"#utility.yul\":24690:24757   */\n      tag_541\n        /* \"#utility.yul\":24750:24756   */\n      dup3\n        /* \"#utility.yul\":24742:24748   */\n      dup3\n        /* \"#utility.yul\":24736:24740   */\n      dup6\n        /* \"#utility.yul\":24690:24757   */\n      tag_276\n      jump\t// in\n    tag_541:\n        /* \"#utility.yul\":24784:24785   */\n      0x00\n        /* \"#utility.yul\":24808:24812   */\n      0x20\n        /* \"#utility.yul\":24795:24812   */\n      swap1\n      pop\n        /* \"#utility.yul\":24840:24842   */\n      0x1f\n        /* \"#utility.yul\":24832:24838   */\n      dup4\n        /* \"#utility.yul\":24829:24843   */\n      gt\n        /* \"#utility.yul\":24857:24858   */\n      0x01\n        /* \"#utility.yul\":24852:25470   */\n      dup2\n      eq\n      tag_543\n      jumpi\n        /* \"#utility.yul\":25514:25515   */\n      0x00\n        /* \"#utility.yul\":25531:25537   */\n      dup5\n        /* \"#utility.yul\":25528:25605   */\n      iszero\n      tag_544\n      jumpi\n        /* \"#utility.yul\":25580:25589   */\n      dup3\n        /* \"#utility.yul\":25575:25578   */\n      dup8\n        /* \"#utility.yul\":25571:25590   */\n      add\n        /* \"#utility.yul\":25565:25591   */\n      mload\n        /* \"#utility.yul\":25556:25591   */\n      swap1\n      pop\n        /* \"#utility.yul\":25528:25605   */\n    tag_544:\n        /* \"#utility.yul\":25631:25698   */\n      tag_545\n        /* \"#utility.yul\":25691:25697   */\n      dup6\n        /* \"#utility.yul\":25684:25689   */\n      dup3\n        /* \"#utility.yul\":25631:25698   */\n      tag_279\n      jump\t// in\n    tag_545:\n        /* \"#utility.yul\":25625:25629   */\n      dup7\n        /* \"#utility.yul\":25618:25699   */\n      sstore\n        /* \"#utility.yul\":25487:25709   */\n      pop\n        /* \"#utility.yul\":24822:25709   */\n      jump(tag_542)\n        /* \"#utility.yul\":24852:25470   */\n    tag_543:\n        /* \"#utility.yul\":24904:24908   */\n      0x1f\n        /* \"#utility.yul\":24900:24909   */\n      not\n        /* \"#utility.yul\":24892:24898   */\n      dup5\n        /* \"#utility.yul\":24888:24910   */\n      and\n        /* \"#utility.yul\":24938:24975   */\n      tag_546\n        /* \"#utility.yul\":24970:24974   */\n      dup7\n        /* \"#utility.yul\":24938:24975   */\n      tag_265\n      jump\t// in\n    tag_546:\n        /* \"#utility.yul\":24997:24998   */\n      0x00\n        /* \"#utility.yul\":25011:25219   */\n    tag_547:\n        /* \"#utility.yul\":25025:25032   */\n      dup3\n        /* \"#utility.yul\":25022:25023   */\n      dup2\n        /* \"#utility.yul\":25019:25033   */\n      lt\n        /* \"#utility.yul\":25011:25219   */\n      iszero\n      tag_549\n      jumpi\n        /* \"#utility.yul\":25104:25113   */\n      dup5\n        /* \"#utility.yul\":25099:25102   */\n      dup10\n        /* \"#utility.yul\":25095:25114   */\n      add\n        /* \"#utility.yul\":25089:25115   */\n      mload\n        /* \"#utility.yul\":25081:25087   */\n      dup3\n        /* \"#utility.yul\":25074:25116   */\n      sstore\n        /* \"#utility.yul\":25155:25156   */\n      0x01\n        /* \"#utility.yul\":25147:25153   */\n      dup3\n        /* \"#utility.yul\":25143:25157   */\n      add\n        /* \"#utility.yul\":25133:25157   */\n      swap2\n      pop\n        /* \"#utility.yul\":25202:25204   */\n      0x20\n        /* \"#utility.yul\":25191:25200   */\n      dup6\n        /* \"#utility.yul\":25187:25205   */\n      add\n        /* \"#utility.yul\":25174:25205   */\n      swap5\n      pop\n        /* \"#utility.yul\":25048:25052   */\n      0x20\n        /* \"#utility.yul\":25045:25046   */\n      dup2\n        /* \"#utility.yul\":25041:25053   */\n      add\n        /* \"#utility.yul\":25036:25053   */\n      swap1\n      pop\n        /* \"#utility.yul\":25011:25219   */\n      jump(tag_547)\n    tag_549:\n        /* \"#utility.yul\":25247:25253   */\n      dup7\n        /* \"#utility.yul\":25238:25245   */\n      dup4\n        /* \"#utility.yul\":25235:25254   */\n      lt\n        /* \"#utility.yul\":25232:25411   */\n      iszero\n      tag_550\n      jumpi\n        /* \"#utility.yul\":25305:25314   */\n      dup5\n        /* \"#utility.yul\":25300:25303   */\n      dup10\n        /* \"#utility.yul\":25296:25315   */\n      add\n        /* \"#utility.yul\":25290:25316   */\n      mload\n        /* \"#utility.yul\":25348:25396   */\n      tag_551\n        /* \"#utility.yul\":25390:25394   */\n      0x1f\n        /* \"#utility.yul\":25382:25388   */\n      dup10\n        /* \"#utility.yul\":25378:25395   */\n      and\n        /* \"#utility.yul\":25367:25376   */\n      dup3\n        /* \"#utility.yul\":25348:25396   */\n      tag_278\n      jump\t// in\n    tag_551:\n        /* \"#utility.yul\":25340:25346   */\n      dup4\n        /* \"#utility.yul\":25333:25397   */\n      sstore\n        /* \"#utility.yul\":25255:25411   */\n      pop\n        /* \"#utility.yul\":25232:25411   */\n    tag_550:\n        /* \"#utility.yul\":25457:25458   */\n      0x01\n        /* \"#utility.yul\":25453:25454   */\n      0x02\n        /* \"#utility.yul\":25445:25451   */\n      dup9\n        /* \"#utility.yul\":25441:25455   */\n      mul\n        /* \"#utility.yul\":25437:25459   */\n      add\n        /* \"#utility.yul\":25431:25435   */\n      dup9\n        /* \"#utility.yul\":25424:25460   */\n      sstore\n        /* \"#utility.yul\":24859:25470   */\n      pop\n      pop\n      pop\n        /* \"#utility.yul\":24822:25709   */\n    tag_542:\n      pop\n        /* \"#utility.yul\":24412:25715   */\n      pop\n      pop\n      pop\n        /* \"#utility.yul\":24320:25715   */\n      pop\n      pop\n      jump\t// out\n        /* \"#utility.yul\":25721:25891   */\n    tag_280:\n        /* \"#utility.yul\":25861:25883   */\n      0x4c612073616c6120657374612063657272616461000000000000000000000000\n        /* \"#utility.yul\":25857:25858   */\n      0x00\n        /* \"#utility.yul\":25849:25855   */\n      dup3\n        /* \"#utility.yul\":25845:25859   */\n      add\n        /* \"#utility.yul\":25838:25884   */\n      mstore\n        /* \"#utility.yul\":25721:25891   */\n      pop\n      jump\t// out\n        /* \"#utility.yul\":25897:26263   */\n    tag_281:\n        /* \"#utility.yul\":26039:26042   */\n      0x00\n        /* \"#utility.yul\":26060:26127   */\n      tag_554\n        /* \"#utility.yul\":26124:26126   */\n      0x14\n        /* \"#utility.yul\":26119:26122   */\n      dup4\n        /* \"#utility.yul\":26060:26127   */\n      tag_236\n      jump\t// in\n    tag_554:\n        /* \"#utility.yul\":26053:26127   */\n      swap2\n      pop\n        /* \"#utility.yul\":26136:26229   */\n      tag_555\n        /* \"#utility.yul\":26225:26228   */\n      dup3\n        /* \"#utility.yul\":26136:26229   */\n      tag_280\n      jump\t// in\n    tag_555:\n        /* \"#utility.yul\":26254:26256   */\n      0x20\n        /* \"#utility.yul\":26249:26252   */\n      dup3\n        /* \"#utility.yul\":26245:26257   */\n      add\n        /* \"#utility.yul\":26238:26257   */\n      swap1\n      pop\n        /* \"#utility.yul\":25897:26263   */\n      swap2\n      swap1\n      pop\n      jump\t// out\n        /* \"#utility.yul\":26269:26688   */\n    tag_131:\n        /* \"#utility.yul\":26435:26439   */\n      0x00\n        /* \"#utility.yul\":26473:26475   */\n      0x20\n        /* \"#utility.yul\":26462:26471   */\n      dup3\n        /* \"#utility.yul\":26458:26476   */\n      add\n        /* \"#utility.yul\":26450:26476   */\n      swap1\n      pop\n        /* \"#utility.yul\":26522:26531   */\n      dup2\n        /* \"#utility.yul\":26516:26520   */\n      dup2\n        /* \"#utility.yul\":26512:26532   */\n      sub\n        /* \"#utility.yul\":26508:26509   */\n      0x00\n        /* \"#utility.yul\":26497:26506   */\n      dup4\n        /* \"#utility.yul\":26493:26510   */\n      add\n        /* \"#utility.yul\":26486:26533   */\n      mstore\n        /* \"#utility.yul\":26550:26681   */\n      tag_557\n        /* \"#utility.yul\":26676:26680   */\n      dup2\n        /* \"#utility.yul\":26550:26681   */\n      tag_281\n      jump\t// in\n    tag_557:\n        /* \"#utility.yul\":26542:26681   */\n      swap1\n      pop\n        /* \"#utility.yul\":26269:26688   */\n      swap2\n      swap1\n      pop\n      jump\t// out\n        /* \"#utility.yul\":26694:26924   */\n    tag_282:\n        /* \"#utility.yul\":26834:26868   */\n      0x4e6f20746f646f73206c6f73207061727469636970616e746573207365206861\n        /* \"#utility.yul\":26830:26831   */\n      0x00\n        /* \"#utility.yul\":26822:26828   */\n      dup3\n        /* \"#utility.yul\":26818:26832   */\n      add\n        /* \"#utility.yul\":26811:26869   */\n      mstore\n        /* \"#utility.yul\":26903:26916   */\n      0x6e20756e69646f2061756e000000000000000000000000000000000000000000\n        /* \"#utility.yul\":26898:26900   */\n      0x20\n        /* \"#utility.yul\":26890:26896   */\n      dup3\n        /* \"#utility.yul\":26886:26901   */\n      add\n        /* \"#utility.yul\":26879:26917   */\n      mstore\n        /* \"#utility.yul\":26694:26924   */\n      pop\n      jump\t// out\n        /* \"#utility.yul\":26930:27296   */\n    tag_283:\n        /* \"#utility.yul\":27072:27075   */\n      0x00\n        /* \"#utility.yul\":27093:27160   */\n      tag_560\n        /* \"#utility.yul\":27157:27159   */\n      0x2b\n        /* \"#utility.yul\":27152:27155   */\n      dup4\n        /* \"#utility.yul\":27093:27160   */\n      tag_236\n      jump\t// in\n    tag_560:\n        /* \"#utility.yul\":27086:27160   */\n      swap2\n      pop\n        /* \"#utility.yul\":27169:27262   */\n      tag_561\n        /* \"#utility.yul\":27258:27261   */\n      dup3\n        /* \"#utility.yul\":27169:27262   */\n      tag_282\n      jump\t// in\n    tag_561:\n        /* \"#utility.yul\":27287:27289   */\n      0x40\n        /* \"#utility.yul\":27282:27285   */\n      dup3\n        /* \"#utility.yul\":27278:27290   */\n      add\n        /* \"#utility.yul\":27271:27290   */\n      swap1\n      pop\n        /* \"#utility.yul\":26930:27296   */\n      swap2\n      swap1\n      pop\n      jump\t// out\n        /* \"#utility.yul\":27302:27721   */\n    tag_134:\n        /* \"#utility.yul\":27468:27472   */\n      0x00\n        /* \"#utility.yul\":27506:27508   */\n      0x20\n        /* \"#utility.yul\":27495:27504   */\n      dup3\n        /* \"#utility.yul\":27491:27509   */\n      add\n        /* \"#utility.yul\":27483:27509   */\n      swap1\n      pop\n        /* \"#utility.yul\":27555:27564   */\n      dup2\n        /* \"#utility.yul\":27549:27553   */\n      dup2\n        /* \"#utility.yul\":27545:27565   */\n      sub\n        /* \"#utility.yul\":27541:27542   */\n      0x00\n        /* \"#utility.yul\":27530:27539   */\n      dup4\n        /* \"#utility.yul\":27526:27543   */\n      add\n        /* \"#utility.yul\":27519:27566   */\n      mstore\n        /* \"#utility.yul\":27583:27714   */\n      tag_563\n        /* \"#utility.yul\":27709:27713   */\n      dup2\n        /* \"#utility.yul\":27583:27714   */\n      tag_283\n      jump\t// in\n    tag_563:\n        /* \"#utility.yul\":27575:27714   */\n      swap1\n      pop\n        /* \"#utility.yul\":27302:27721   */\n      swap2\n      swap1\n      pop\n      jump\t// out\n        /* \"#utility.yul\":27727:27908   */\n    tag_284:\n        /* \"#utility.yul\":27867:27900   */\n      0x456c206d6f6e746f2061706f727461646f20657320696e636f72726563746f00\n        /* \"#utility.yul\":27863:27864   */\n      0x00\n        /* \"#utility.yul\":27855:27861   */\n      dup3\n        /* \"#utility.yul\":27851:27865   */\n      add\n        /* \"#utility.yul\":27844:27901   */\n      mstore\n        /* \"#utility.yul\":27727:27908   */\n      pop\n      jump\t// out\n        /* \"#utility.yul\":27914:28280   */\n    tag_285:\n        /* \"#utility.yul\":28056:28059   */\n      0x00\n        /* \"#utility.yul\":28077:28144   */\n      tag_566\n        /* \"#utility.yul\":28141:28143   */\n      0x1f\n        /* \"#utility.yul\":28136:28139   */\n      dup4\n        /* \"#utility.yul\":28077:28144   */\n      tag_236\n      jump\t// in\n    tag_566:\n        /* \"#utility.yul\":28070:28144   */\n      swap2\n      pop\n        /* \"#utility.yul\":28153:28246   */\n      tag_567\n        /* \"#utility.yul\":28242:28245   */\n      dup3\n        /* \"#utility.yul\":28153:28246   */\n      tag_284\n      jump\t// in\n    tag_567:\n        /* \"#utility.yul\":28271:28273   */\n      0x20\n        /* \"#utility.yul\":28266:28269   */\n      dup3\n        /* \"#utility.yul\":28262:28274   */\n      add\n        /* \"#utility.yul\":28255:28274   */\n      swap1\n      pop\n        /* \"#utility.yul\":27914:28280   */\n      swap2\n      swap1\n      pop\n      jump\t// out\n        /* \"#utility.yul\":28286:28705   */\n    tag_137:\n        /* \"#utility.yul\":28452:28456   */\n      0x00\n        /* \"#utility.yul\":28490:28492   */\n      0x20\n        /* \"#utility.yul\":28479:28488   */\n      dup3\n        /* \"#utility.yul\":28475:28493   */\n      add\n        /* \"#utility.yul\":28467:28493   */\n      swap1\n      pop\n        /* \"#utility.yul\":28539:28548   */\n      dup2\n        /* \"#utility.yul\":28533:28537   */\n      dup2\n        /* \"#utility.yul\":28529:28549   */\n      sub\n        /* \"#utility.yul\":28525:28526   */\n      0x00\n        /* \"#utility.yul\":28514:28523   */\n      dup4\n        /* \"#utility.yul\":28510:28527   */\n      add\n        /* \"#utility.yul\":28503:28550   */\n      mstore\n        /* \"#utility.yul\":28567:28698   */\n      tag_569\n        /* \"#utility.yul\":28693:28697   */\n      dup2\n        /* \"#utility.yul\":28567:28698   */\n      tag_285\n      jump\t// in\n    tag_569:\n        /* \"#utility.yul\":28559:28698   */\n      swap1\n      pop\n        /* \"#utility.yul\":28286:28705   */\n      swap2\n      swap1\n      pop\n      jump\t// out\n        /* \"#utility.yul\":28711:28892   */\n    tag_286:\n        /* \"#utility.yul\":28851:28884   */\n      0x546f646173206c617320726f6e6461732068616e2066696e616c697a61646f00\n        /* \"#utility.yul\":28847:28848   */\n      0x00\n        /* \"#utility.yul\":28839:28845   */\n      dup3\n        /* \"#utility.yul\":28835:28849   */\n      add\n        /* \"#utility.yul\":28828:28885   */\n      mstore\n        /* \"#utility.yul\":28711:28892   */\n      pop\n      jump\t// out\n        /* \"#utility.yul\":28898:29264   */\n    tag_287:\n        /* \"#utility.yul\":29040:29043   */\n      0x00\n        /* \"#utility.yul\":29061:29128   */\n      tag_572\n        /* \"#utility.yul\":29125:29127   */\n      0x1f\n        /* \"#utility.yul\":29120:29123   */\n      dup4\n        /* \"#utility.yul\":29061:29128   */\n      tag_236\n      jump\t// in\n    tag_572:\n        /* \"#utility.yul\":29054:29128   */\n      swap2\n      pop\n        /* \"#utility.yul\":29137:29230   */\n      tag_573\n        /* \"#utility.yul\":29226:29229   */\n      dup3\n        /* \"#utility.yul\":29137:29230   */\n      tag_286\n      jump\t// in\n    tag_573:\n        /* \"#utility.yul\":29255:29257   */\n      0x20\n        /* \"#utility.yul\":29250:29253   */\n      dup3\n        /* \"#utility.yul\":29246:29258   */\n      add\n        /* \"#utility.yul\":29239:29258   */\n      swap1\n      pop\n        /* \"#utility.yul\":28898:29264   */\n      swap2\n      swap1\n      pop\n      jump\t// out\n        /* \"#utility.yul\":29270:29689   */\n    tag_140:\n        /* \"#utility.yul\":29436:29440   */\n      0x00\n        /* \"#utility.yul\":29474:29476   */\n      0x20\n        /* \"#utility.yul\":29463:29472   */\n      dup3\n        /* \"#utility.yul\":29459:29477   */\n      add\n        /* \"#utility.yul\":29451:29477   */\n      swap1\n      pop\n        /* \"#utility.yul\":29523:29532   */\n      dup2\n        /* \"#utility.yul\":29517:29521   */\n      dup2\n        /* \"#utility.yul\":29513:29533   */\n      sub\n        /* \"#utility.yul\":29509:29510   */\n      0x00\n        /* \"#utility.yul\":29498:29507   */\n      dup4\n        /* \"#utility.yul\":29494:29511   */\n      add\n        /* \"#utility.yul\":29487:29534   */\n      mstore\n        /* \"#utility.yul\":29551:29682   */\n      tag_575\n        /* \"#utility.yul\":29677:29681   */\n      dup2\n        /* \"#utility.yul\":29551:29682   */\n      tag_287\n      jump\t// in\n    tag_575:\n        /* \"#utility.yul\":29543:29682   */\n      swap1\n      pop\n        /* \"#utility.yul\":29270:29689   */\n      swap2\n      swap1\n      pop\n      jump\t// out\n        /* \"#utility.yul\":29695:29915   */\n    tag_288:\n        /* \"#utility.yul\":29835:29869   */\n      0x4e6f2065726573207061727469636970616e746520646520657374612073616c\n        /* \"#utility.yul\":29831:29832   */\n      0x00\n        /* \"#utility.yul\":29823:29829   */\n      dup3\n        /* \"#utility.yul\":29819:29833   */\n      add\n        /* \"#utility.yul\":29812:29870   */\n      mstore\n        /* \"#utility.yul\":29904:29907   */\n      0x6100000000000000000000000000000000000000000000000000000000000000\n        /* \"#utility.yul\":29899:29901   */\n      0x20\n        /* \"#utility.yul\":29891:29897   */\n      dup3\n        /* \"#utility.yul\":29887:29902   */\n      add\n        /* \"#utility.yul\":29880:29908   */\n      mstore\n        /* \"#utility.yul\":29695:29915   */\n      pop\n      jump\t// out\n        /* \"#utility.yul\":29921:30287   */\n    tag_289:\n        /* \"#utility.yul\":30063:30066   */\n      0x00\n        /* \"#utility.yul\":30084:30151   */\n      tag_578\n        /* \"#utility.yul\":30148:30150   */\n      0x21\n        /* \"#utility.yul\":30143:30146   */\n      dup4\n        /* \"#utility.yul\":30084:30151   */\n      tag_236\n      jump\t// in\n    tag_578:\n        /* \"#utility.yul\":30077:30151   */\n      swap2\n      pop\n        /* \"#utility.yul\":30160:30253   */\n      tag_579\n        /* \"#utility.yul\":30249:30252   */\n      dup3\n        /* \"#utility.yul\":30160:30253   */\n      tag_288\n      jump\t// in\n    tag_579:\n        /* \"#utility.yul\":30278:30280   */\n      0x40\n        /* \"#utility.yul\":30273:30276   */\n      dup3\n        /* \"#utility.yul\":30269:30281   */\n      add\n        /* \"#utility.yul\":30262:30281   */\n      swap1\n      pop\n        /* \"#utility.yul\":29921:30287   */\n      swap2\n      swap1\n      pop\n      jump\t// out\n        /* \"#utility.yul\":30293:30712   */\n    tag_150:\n        /* \"#utility.yul\":30459:30463   */\n      0x00\n        /* \"#utility.yul\":30497:30499   */\n      0x20\n        /* \"#utility.yul\":30486:30495   */\n      dup3\n        /* \"#utility.yul\":30482:30500   */\n      add\n        /* \"#utility.yul\":30474:30500   */\n      swap1\n      pop\n        /* \"#utility.yul\":30546:30555   */\n      dup2\n        /* \"#utility.yul\":30540:30544   */\n      dup2\n        /* \"#utility.yul\":30536:30556   */\n      sub\n        /* \"#utility.yul\":30532:30533   */\n      0x00\n        /* \"#utility.yul\":30521:30530   */\n      dup4\n        /* \"#utility.yul\":30517:30534   */\n      add\n        /* \"#utility.yul\":30510:30557   */\n      mstore\n        /* \"#utility.yul\":30574:30705   */\n      tag_581\n        /* \"#utility.yul\":30700:30704   */\n      dup2\n        /* \"#utility.yul\":30574:30705   */\n      tag_289\n      jump\t// in\n    tag_581:\n        /* \"#utility.yul\":30566:30705   */\n      swap1\n      pop\n        /* \"#utility.yul\":30293:30712   */\n      swap2\n      swap1\n      pop\n      jump\t// out\n        /* \"#utility.yul\":30718:30909   */\n    tag_152:\n        /* \"#utility.yul\":30758:30761   */\n      0x00\n        /* \"#utility.yul\":30777:30797   */\n      tag_583\n        /* \"#utility.yul\":30795:30796   */\n      dup3\n        /* \"#utility.yul\":30777:30797   */\n      tag_219\n      jump\t// in\n    tag_583:\n        /* \"#utility.yul\":30772:30797   */\n      swap2\n      pop\n        /* \"#utility.yul\":30811:30831   */\n      tag_584\n        /* \"#utility.yul\":30829:30830   */\n      dup4\n        /* \"#utility.yul\":30811:30831   */\n      tag_219\n      jump\t// in\n    tag_584:\n        /* \"#utility.yul\":30806:30831   */\n      swap3\n      pop\n        /* \"#utility.yul\":30854:30855   */\n      dup3\n        /* \"#utility.yul\":30851:30852   */\n      dup3\n        /* \"#utility.yul\":30847:30856   */\n      add\n        /* \"#utility.yul\":30840:30856   */\n      swap1\n      pop\n        /* \"#utility.yul\":30875:30878   */\n      dup1\n        /* \"#utility.yul\":30872:30873   */\n      dup3\n        /* \"#utility.yul\":30869:30879   */\n      gt\n        /* \"#utility.yul\":30866:30902   */\n      iszero\n      tag_585\n      jumpi\n        /* \"#utility.yul\":30882:30900   */\n      tag_586\n      tag_245\n      jump\t// in\n    tag_586:\n        /* \"#utility.yul\":30866:30902   */\n    tag_585:\n        /* \"#utility.yul\":30718:30909   */\n      swap3\n      swap2\n      pop\n      pop\n      jump\t// out\n        /* \"#utility.yul\":30915:31082   */\n    tag_290:\n        /* \"#utility.yul\":31055:31074   */\n      0x4c612073616c61206e6f20657869737465000000000000000000000000000000\n        /* \"#utility.yul\":31051:31052   */\n      0x00\n        /* \"#utility.yul\":31043:31049   */\n      dup3\n        /* \"#utility.yul\":31039:31053   */\n      add\n        /* \"#utility.yul\":31032:31075   */\n      mstore\n        /* \"#utility.yul\":30915:31082   */\n      pop\n      jump\t// out\n        /* \"#utility.yul\":31088:31454   */\n    tag_291:\n        /* \"#utility.yul\":31230:31233   */\n      0x00\n        /* \"#utility.yul\":31251:31318   */\n      tag_589\n        /* \"#utility.yul\":31315:31317   */\n      0x11\n        /* \"#utility.yul\":31310:31313   */\n      dup4\n        /* \"#utility.yul\":31251:31318   */\n      tag_236\n      jump\t// in\n    tag_589:\n        /* \"#utility.yul\":31244:31318   */\n      swap2\n      pop\n        /* \"#utility.yul\":31327:31420   */\n      tag_590\n        /* \"#utility.yul\":31416:31419   */\n      dup3\n        /* \"#utility.yul\":31327:31420   */\n      tag_290\n      jump\t// in\n    tag_590:\n        /* \"#utility.yul\":31445:31447   */\n      0x20\n        /* \"#utility.yul\":31440:31443   */\n      dup3\n        /* \"#utility.yul\":31436:31448   */\n      add\n        /* \"#utility.yul\":31429:31448   */\n      swap1\n      pop\n        /* \"#utility.yul\":31088:31454   */\n      swap2\n      swap1\n      pop\n      jump\t// out\n        /* \"#utility.yul\":31460:31879   */\n    tag_156:\n        /* \"#utility.yul\":31626:31630   */\n      0x00\n        /* \"#utility.yul\":31664:31666   */\n      0x20\n        /* \"#utility.yul\":31653:31662   */\n      dup3\n        /* \"#utility.yul\":31649:31667   */\n      add\n        /* \"#utility.yul\":31641:31667   */\n      swap1\n      pop\n        /* \"#utility.yul\":31713:31722   */\n      dup2\n        /* \"#utility.yul\":31707:31711   */\n      dup2\n        /* \"#utility.yul\":31703:31723   */\n      sub\n        /* \"#utility.yul\":31699:31700   */\n      0x00\n        /* \"#utility.yul\":31688:31697   */\n      dup4\n        /* \"#utility.yul\":31684:31701   */\n      add\n        /* \"#utility.yul\":31677:31724   */\n      mstore\n        /* \"#utility.yul\":31741:31872   */\n      tag_592\n        /* \"#utility.yul\":31867:31871   */\n      dup2\n        /* \"#utility.yul\":31741:31872   */\n      tag_291\n      jump\t// in\n    tag_592:\n        /* \"#utility.yul\":31733:31872   */\n      swap1\n      pop\n        /* \"#utility.yul\":31460:31879   */\n      swap2\n      swap1\n      pop\n      jump\t// out\n        /* \"#utility.yul\":31885:32053   */\n    tag_292:\n        /* \"#utility.yul\":32025:32045   */\n      0x4c612073616c612065737461206c6c656e610000000000000000000000000000\n        /* \"#utility.yul\":32021:32022   */\n      0x00\n        /* \"#utility.yul\":32013:32019   */\n      dup3\n        /* \"#utility.yul\":32009:32023   */\n      add\n        /* \"#utility.yul\":32002:32046   */\n      mstore\n        /* \"#utility.yul\":31885:32053   */\n      pop\n      jump\t// out\n        /* \"#utility.yul\":32059:32425   */\n    tag_293:\n        /* \"#utility.yul\":32201:32204   */\n      0x00\n        /* \"#utility.yul\":32222:32289   */\n      tag_595\n        /* \"#utility.yul\":32286:32288   */\n      0x12\n        /* \"#utility.yul\":32281:32284   */\n      dup4\n        /* \"#utility.yul\":32222:32289   */\n      tag_236\n      jump\t// in\n    tag_595:\n        /* \"#utility.yul\":32215:32289   */\n      swap2\n      pop\n        /* \"#utility.yul\":32298:32391   */\n      tag_596\n        /* \"#utility.yul\":32387:32390   */\n      dup3\n        /* \"#utility.yul\":32298:32391   */\n      tag_292\n      jump\t// in\n    tag_596:\n        /* \"#utility.yul\":32416:32418   */\n      0x20\n        /* \"#utility.yul\":32411:32414   */\n      dup3\n        /* \"#utility.yul\":32407:32419   */\n      add\n        /* \"#utility.yul\":32400:32419   */\n      swap1\n      pop\n        /* \"#utility.yul\":32059:32425   */\n      swap2\n      swap1\n      pop\n      jump\t// out\n        /* \"#utility.yul\":32431:32850   */\n    tag_159:\n        /* \"#utility.yul\":32597:32601   */\n      0x00\n        /* \"#utility.yul\":32635:32637   */\n      0x20\n        /* \"#utility.yul\":32624:32633   */\n      dup3\n        /* \"#utility.yul\":32620:32638   */\n      add\n        /* \"#utility.yul\":32612:32638   */\n      swap1\n      pop\n        /* \"#utility.yul\":32684:32693   */\n      dup2\n        /* \"#utility.yul\":32678:32682   */\n      dup2\n        /* \"#utility.yul\":32674:32694   */\n      sub\n        /* \"#utility.yul\":32670:32671   */\n      0x00\n        /* \"#utility.yul\":32659:32668   */\n      dup4\n        /* \"#utility.yul\":32655:32672   */\n      add\n        /* \"#utility.yul\":32648:32695   */\n      mstore\n        /* \"#utility.yul\":32712:32843   */\n      tag_598\n        /* \"#utility.yul\":32838:32842   */\n      dup2\n        /* \"#utility.yul\":32712:32843   */\n      tag_293\n      jump\t// in\n    tag_598:\n        /* \"#utility.yul\":32704:32843   */\n      swap1\n      pop\n        /* \"#utility.yul\":32431:32850   */\n      swap2\n      swap1\n      pop\n      jump\t// out\n        /* \"#utility.yul\":32856:33079   */\n    tag_294:\n        /* \"#utility.yul\":32996:33030   */\n      0x45737465207061727469636970616e7465207961206573746120656e206c6120\n        /* \"#utility.yul\":32992:32993   */\n      0x00\n        /* \"#utility.yul\":32984:32990   */\n      dup3\n        /* \"#utility.yul\":32980:32994   */\n      add\n        /* \"#utility.yul\":32973:33031   */\n      mstore\n        /* \"#utility.yul\":33065:33071   */\n      0x73616c6100000000000000000000000000000000000000000000000000000000\n        /* \"#utility.yul\":33060:33062   */\n      0x20\n        /* \"#utility.yul\":33052:33058   */\n      dup3\n        /* \"#utility.yul\":33048:33063   */\n      add\n        /* \"#utility.yul\":33041:33072   */\n      mstore\n        /* \"#utility.yul\":32856:33079   */\n      pop\n      jump\t// out\n        /* \"#utility.yul\":33085:33451   */\n    tag_295:\n        /* \"#utility.yul\":33227:33230   */\n      0x00\n        /* \"#utility.yul\":33248:33315   */\n      tag_601\n        /* \"#utility.yul\":33312:33314   */\n      0x24\n        /* \"#utility.yul\":33307:33310   */\n      dup4\n        /* \"#utility.yul\":33248:33315   */\n      tag_236\n      jump\t// in\n    tag_601:\n        /* \"#utility.yul\":33241:33315   */\n      swap2\n      pop\n        /* \"#utility.yul\":33324:33417   */\n      tag_602\n        /* \"#utility.yul\":33413:33416   */\n      dup3\n        /* \"#utility.yul\":33324:33417   */\n      tag_294\n      jump\t// in\n    tag_602:\n        /* \"#utility.yul\":33442:33444   */\n      0x40\n        /* \"#utility.yul\":33437:33440   */\n      dup3\n        /* \"#utility.yul\":33433:33445   */\n      add\n        /* \"#utility.yul\":33426:33445   */\n      swap1\n      pop\n        /* \"#utility.yul\":33085:33451   */\n      swap2\n      swap1\n      pop\n      jump\t// out\n        /* \"#utility.yul\":33457:33876   */\n    tag_170:\n        /* \"#utility.yul\":33623:33627   */\n      0x00\n        /* \"#utility.yul\":33661:33663   */\n      0x20\n        /* \"#utility.yul\":33650:33659   */\n      dup3\n        /* \"#utility.yul\":33646:33664   */\n      add\n        /* \"#utility.yul\":33638:33664   */\n      swap1\n      pop\n        /* \"#utility.yul\":33710:33719   */\n      dup2\n        /* \"#utility.yul\":33704:33708   */\n      dup2\n        /* \"#utility.yul\":33700:33720   */\n      sub\n        /* \"#utility.yul\":33696:33697   */\n      0x00\n        /* \"#utility.yul\":33685:33694   */\n      dup4\n        /* \"#utility.yul\":33681:33698   */\n      add\n        /* \"#utility.yul\":33674:33721   */\n      mstore\n        /* \"#utility.yul\":33738:33869   */\n      tag_604\n        /* \"#utility.yul\":33864:33868   */\n      dup2\n        /* \"#utility.yul\":33738:33869   */\n      tag_295\n      jump\t// in\n    tag_604:\n        /* \"#utility.yul\":33730:33869   */\n      swap1\n      pop\n        /* \"#utility.yul\":33457:33876   */\n      swap2\n      swap1\n      pop\n      jump\t// out\n        /* \"#utility.yul\":33882:34111   */\n    tag_296:\n        /* \"#utility.yul\":34022:34056   */\n      0x536f6c6f20656c20616e66697472696f6e207075656465207265616c697a6172\n        /* \"#utility.yul\":34018:34019   */\n      0x00\n        /* \"#utility.yul\":34010:34016   */\n      dup3\n        /* \"#utility.yul\":34006:34020   */\n      add\n        /* \"#utility.yul\":33999:34057   */\n      mstore\n        /* \"#utility.yul\":34091:34103   */\n      0x20656c20736f7274656f00000000000000000000000000000000000000000000\n        /* \"#utility.yul\":34086:34088   */\n      0x20\n        /* \"#utility.yul\":34078:34084   */\n      dup3\n        /* \"#utility.yul\":34074:34089   */\n      add\n        /* \"#utility.yul\":34067:34104   */\n      mstore\n        /* \"#utility.yul\":33882:34111   */\n      pop\n      jump\t// out\n        /* \"#utility.yul\":34117:34483   */\n    tag_297:\n        /* \"#utility.yul\":34259:34262   */\n      0x00\n        /* \"#utility.yul\":34280:34347   */\n      tag_607\n        /* \"#utility.yul\":34344:34346   */\n      0x2a\n        /* \"#utility.yul\":34339:34342   */\n      dup4\n        /* \"#utility.yul\":34280:34347   */\n      tag_236\n      jump\t// in\n    tag_607:\n        /* \"#utility.yul\":34273:34347   */\n      swap2\n      pop\n        /* \"#utility.yul\":34356:34449   */\n      tag_608\n        /* \"#utility.yul\":34445:34448   */\n      dup3\n        /* \"#utility.yul\":34356:34449   */\n      tag_296\n      jump\t// in\n    tag_608:\n        /* \"#utility.yul\":34474:34476   */\n      0x40\n        /* \"#utility.yul\":34469:34472   */\n      dup3\n        /* \"#utility.yul\":34465:34477   */\n      add\n        /* \"#utility.yul\":34458:34477   */\n      swap1\n      pop\n        /* \"#utility.yul\":34117:34483   */\n      swap2\n      swap1\n      pop\n      jump\t// out\n        /* \"#utility.yul\":34489:34908   */\n    tag_176:\n        /* \"#utility.yul\":34655:34659   */\n      0x00\n        /* \"#utility.yul\":34693:34695   */\n      0x20\n        /* \"#utility.yul\":34682:34691   */\n      dup3\n        /* \"#utility.yul\":34678:34696   */\n      add\n        /* \"#utility.yul\":34670:34696   */\n      swap1\n      pop\n        /* \"#utility.yul\":34742:34751   */\n      dup2\n        /* \"#utility.yul\":34736:34740   */\n      dup2\n        /* \"#utility.yul\":34732:34752   */\n      sub\n        /* \"#utility.yul\":34728:34729   */\n      0x00\n        /* \"#utility.yul\":34717:34726   */\n      dup4\n        /* \"#utility.yul\":34713:34730   */\n      add\n        /* \"#utility.yul\":34706:34753   */\n      mstore\n        /* \"#utility.yul\":34770:34901   */\n      tag_610\n        /* \"#utility.yul\":34896:34900   */\n      dup2\n        /* \"#utility.yul\":34770:34901   */\n      tag_297\n      jump\t// in\n    tag_610:\n        /* \"#utility.yul\":34762:34901   */\n      swap1\n      pop\n        /* \"#utility.yul\":34489:34908   */\n      swap2\n      swap1\n      pop\n      jump\t// out\n        /* \"#utility.yul\":34914:35311   */\n    tag_183:\n        /* \"#utility.yul\":35054:35057   */\n      0x00\n        /* \"#utility.yul\":35069:35144   */\n      tag_612\n        /* \"#utility.yul\":35140:35143   */\n      dup3\n        /* \"#utility.yul\":35131:35137   */\n      dup6\n        /* \"#utility.yul\":35069:35144   */\n      tag_263\n      jump\t// in\n    tag_612:\n        /* \"#utility.yul\":35169:35171   */\n      0x20\n        /* \"#utility.yul\":35164:35167   */\n      dup3\n        /* \"#utility.yul\":35160:35172   */\n      add\n        /* \"#utility.yul\":35153:35172   */\n      swap2\n      pop\n        /* \"#utility.yul\":35182:35257   */\n      tag_613\n        /* \"#utility.yul\":35253:35256   */\n      dup3\n        /* \"#utility.yul\":35244:35250   */\n      dup5\n        /* \"#utility.yul\":35182:35257   */\n      tag_263\n      jump\t// in\n    tag_613:\n        /* \"#utility.yul\":35282:35284   */\n      0x20\n        /* \"#utility.yul\":35277:35280   */\n      dup3\n        /* \"#utility.yul\":35273:35285   */\n      add\n        /* \"#utility.yul\":35266:35285   */\n      swap2\n      pop\n        /* \"#utility.yul\":35302:35305   */\n      dup2\n        /* \"#utility.yul\":35295:35305   */\n      swap1\n      pop\n        /* \"#utility.yul\":34914:35311   */\n      swap4\n      swap3\n      pop\n      pop\n      pop\n      jump\t// out\n        /* \"#utility.yul\":35317:35497   */\n    tag_298:\n        /* \"#utility.yul\":35365:35442   */\n      0x4e487b7100000000000000000000000000000000000000000000000000000000\n        /* \"#utility.yul\":35362:35363   */\n      0x00\n        /* \"#utility.yul\":35355:35443   */\n      mstore\n        /* \"#utility.yul\":35462:35466   */\n      0x12\n        /* \"#utility.yul\":35459:35460   */\n      0x04\n        /* \"#utility.yul\":35452:35467   */\n      mstore\n        /* \"#utility.yul\":35486:35490   */\n      0x24\n        /* \"#utility.yul\":35483:35484   */\n      0x00\n        /* \"#utility.yul\":35476:35491   */\n      revert\n        /* \"#utility.yul\":35503:35679   */\n    tag_185:\n        /* \"#utility.yul\":35535:35536   */\n      0x00\n        /* \"#utility.yul\":35552:35572   */\n      tag_616\n        /* \"#utility.yul\":35570:35571   */\n      dup3\n        /* \"#utility.yul\":35552:35572   */\n      tag_219\n      jump\t// in\n    tag_616:\n        /* \"#utility.yul\":35547:35572   */\n      swap2\n      pop\n        /* \"#utility.yul\":35586:35606   */\n      tag_617\n        /* \"#utility.yul\":35604:35605   */\n      dup4\n        /* \"#utility.yul\":35586:35606   */\n      tag_219\n      jump\t// in\n    tag_617:\n        /* \"#utility.yul\":35581:35606   */\n      swap3\n      pop\n        /* \"#utility.yul\":35625:35626   */\n      dup3\n        /* \"#utility.yul\":35615:35650   */\n      tag_618\n      jumpi\n        /* \"#utility.yul\":35630:35648   */\n      tag_619\n      tag_298\n      jump\t// in\n    tag_619:\n        /* \"#utility.yul\":35615:35650   */\n    tag_618:\n        /* \"#utility.yul\":35671:35672   */\n      dup3\n        /* \"#utility.yul\":35668:35669   */\n      dup3\n        /* \"#utility.yul\":35664:35673   */\n      mod\n        /* \"#utility.yul\":35659:35673   */\n      swap1\n      pop\n        /* \"#utility.yul\":35503:35679   */\n      swap3\n      swap2\n      pop\n      pop\n      jump\t// out\n        /* \"#utility.yul\":35685:35907   */\n    tag_199:\n        /* \"#utility.yul\":35778:35782   */\n      0x00\n        /* \"#utility.yul\":35816:35818   */\n      0x20\n        /* \"#utility.yul\":35805:35814   */\n      dup3\n        /* \"#utility.yul\":35801:35819   */\n      add\n        /* \"#utility.yul\":35793:35819   */\n      swap1\n      pop\n        /* \"#utility.yul\":35829:35900   */\n      tag_621\n        /* \"#utility.yul\":35897:35898   */\n      0x00\n        /* \"#utility.yul\":35886:35895   */\n      dup4\n        /* \"#utility.yul\":35882:35899   */\n      add\n        /* \"#utility.yul\":35873:35879   */\n      dup5\n        /* \"#utility.yul\":35829:35900   */\n      tag_233\n      jump\t// in\n    tag_621:\n        /* \"#utility.yul\":35685:35907   */\n      swap3\n      swap2\n      pop\n      pop\n      jump\t// out\n\n    auxdata: 0xa26469706673582212204951dcd130d885e8c0bbc39347657c7d00978837989042579087181f0a525c5f64736f6c634300081a0033\n}\n",
				"bytecode": {
					"linkReferences": {},
					"object": "6080604052348015600e575f80fd5b506126c08061001c5f395ff3fe60806040526004361061007a575f3560e01c8063b3d5a9281161004d578063b3d5a92814610143578063c37cea5f1461016b578063c4aa418314610193578063f89e7257146101d15761007a565b8063592667111461007e5780638d22ed65146100a657806390b7a18b146100e257806392c6e20314610127575b5f80fd5b348015610089575f80fd5b506100a4600480360381019061009f9190611452565b610215565b005b3480156100b1575f80fd5b506100cc60048036038101906100c79190611646565b610510565b6040516100d991906116e8565b60405180910390f35b3480156100ed575f80fd5b5061010860048036038101906101039190611452565b6108cc565b60405161011e9a99989796959493929190611799565b60405180910390f35b610141600480360381019061013c919061183a565b6109cc565b005b34801561014e575f80fd5b506101696004803603810190610164919061188a565b610c0d565b005b348015610176575f80fd5b50610191600480360381019061018c919061188a565b610f7a565b005b34801561019e575f80fd5b506101b960048036038101906101b49190611452565b6111e2565b6040516101c8939291906118c8565b60405180910390f35b3480156101dc575f80fd5b506101f760048036038101906101f29190611452565b6112a8565b60405161020c999897969594939291906118fd565b60405180910390f35b5f805f8381526020019081526020015f209050806003015481600801541015610273576040517f08c379a000000000000000000000000000000000000000000000000000000000815260040161026a906119ff565b60405180910390fd5b5f805f90505b82600a01805490508110156103cd5782600a01818154811061029e5761029d611a1d565b5b905f5260205f20906003020160020160019054906101000a900460ff1680156102f6575082600a0181815481106102d8576102d7611a1d565b5b905f5260205f2090600302016002015f9054906101000a900460ff16155b156103c05782600a01818154811061031157610310611a1d565b5b905f5260205f2090600302015f015f9054906101000a900473ffffffffffffffffffffffffffffffffffffffff169150600183600a01828154811061035957610358611a1d565b5b905f5260205f2090600302016002015f6101000a81548160ff0219169083151502179055505f83600a01828154811061039557610394611a1d565b5b905f5260205f20906003020160020160016101000a81548160ff0219169083151502179055506103cd565b8080600101915050610279565b508073ffffffffffffffffffffffffffffffffffffffff166108fc836008015490811502906040515f60405180830381858888f19350505050158015610415573d5f803e3d5ffd5b505f82600801819055505f600190505f5b83600a01805490508110156104815783600a01818154811061044b5761044a611a1d565b5b905f5260205f20906003020160020160029054906101000a900460ff16610474575f9150610481565b8080600101915050610426565b508080610495575082600401548360050154145b156104f0575f836009015f6101000a81548160ff021916908315150217905550837f0fc72a1a775163051323182742f7b56d5d827481f60d4a9e6792b1e88585a8f06040516104e390611aba565b60405180910390a261050a565b826005015f81548092919061050490611b05565b91905055505b50505050565b5f60018511610554576040517f08c379a000000000000000000000000000000000000000000000000000000000815260040161054b90611bbc565b60405180910390fd5b5f8411610596576040517f08c379a000000000000000000000000000000000000000000000000000000000815260040161058d90611c4a565b60405180910390fd5b6040516020016105a590611cbc565b60405160208183030381529060405280519060200120836040516020016105cc9190611d00565b60405160208183030381529060405280519060200120148061063757506040516020016105f890611d60565b604051602081830303815290604052805190602001208360405160200161061f9190611d00565b60405160208183030381529060405280519060200120145b610676576040517f08c379a000000000000000000000000000000000000000000000000000000000815260040161066d90611dbe565b60405180910390fd5b5f864260405160200161068a929190611e41565b6040516020818303038152906040528051906020012090505f805f8381526020019081526020015f20905087815f015f6101000a81548173ffffffffffffffffffffffffffffffffffffffff021916908373ffffffffffffffffffffffffffffffffffffffff16021790555086816001018190555085816002018190555085876107149190611e6c565b8160030181905550868160040181905550600181600501819055508481600601908161074091906120a7565b508381600701819055506001816009015f6101000a81548160ff02191690831515021790555061076e6113c8565b88815f019073ffffffffffffffffffffffffffffffffffffffff16908173ffffffffffffffffffffffffffffffffffffffff168152505081600301548160200181815250505f8160400190151590811515815250505f8160600190151590811515815250505f81608001901515908115158152505081600a0181908060018154018082558091505060019003905f5260205f2090600302015f909190919091505f820151815f015f6101000a81548173ffffffffffffffffffffffffffffffffffffffff021916908373ffffffffffffffffffffffffffffffffffffffff160217905550602082015181600101556040820151816002015f6101000a81548160ff02191690831515021790555060608201518160020160016101000a81548160ff02191690831515021790555060808201518160020160026101000a81548160ff021916908315150217905550505082935050505095945050505050565b5f602052805f5260405f205f91509050805f015f9054906101000a900473ffffffffffffffffffffffffffffffffffffffff169080600101549080600201549080600301549080600401549080600501549080600601805461092d90611eda565b80601f016020809104026020016040519081016040528092919081815260200182805461095990611eda565b80156109a45780601f1061097b576101008083540402835291602001916109a4565b820191905f5260205f20905b81548152906001019060200180831161098757829003601f168201915b505050505090806007015490806008015490806009015f9054906101000a900460ff1690508a565b5f805f8581526020019081526020015f209050806009015f9054906101000a900460ff16610a2f576040517f08c379a0000000000000000000000000000000000000000000000000000000008152600401610a26906121c0565b60405180910390fd5b806001015481600a018054905014610a7c576040517f08c379a0000000000000000000000000000000000000000000000000000000008152600401610a739061224e565b60405180910390fd5b80600201548214610ac2576040517f08c379a0000000000000000000000000000000000000000000000000000000008152600401610ab9906122b6565b60405180910390fd5b806004015481600501541115610b0d576040517f08c379a0000000000000000000000000000000000000000000000000000000008152600401610b049061231e565b60405180910390fd5b5f805b82600a0180549050811015610bab578473ffffffffffffffffffffffffffffffffffffffff1683600a018281548110610b4c57610b4b611a1d565b5b905f5260205f2090600302015f015f9054906101000a900473ffffffffffffffffffffffffffffffffffffffff1673ffffffffffffffffffffffffffffffffffffffff1603610b9e5760019150610bab565b8080600101915050610b10565b5080610bec576040517f08c379a0000000000000000000000000000000000000000000000000000000008152600401610be3906123ac565b60405180910390fd5b82826008015f828254610bff91906123ca565b925050819055505050505050565b5f805f8481526020019081526020015f2090505f73ffffffffffffffffffffffffffffffffffffffff16815f015f9054906101000a900473ffffffffffffffffffffffffffffffffffffffff1673ffffffffffffffffffffffffffffffffffffffff1603610cb0576040517f08c379a0000000000000000000000000000000000000000000000000000000008152600401610ca790612447565b60405180910390fd5b806001015481600a018054905010610cfd576040517f08c379a0000000000000000000000000000000000000000000000000000000008152600401610cf4906124af565b60405180910390fd5b806009015f9054906101000a900460ff16610d4d576040517f08c379a0000000000000000000000000000000000000000000000000000000008152600401610d44906121c0565b60405180910390fd5b5f5b81600a0180549050811015610e1c578273ffffffffffffffffffffffffffffffffffffffff1682600a018281548110610d8b57610d8a611a1d565b5b905f5260205f2090600302015f015f9054906101000a900473ffffffffffffffffffffffffffffffffffffffff1673ffffffffffffffffffffffffffffffffffffffff1603610e0f576040517f08c379a0000000000000000000000000000000000000000000000000000000008152600401610e069061253d565b60405180910390fd5b8080600101915050610d4f565b50610e256113c8565b82815f019073ffffffffffffffffffffffffffffffffffffffff16908173ffffffffffffffffffffffffffffffffffffffff168152505081600301548160200181815250505f8160400190151590811515815250505f8160600190151590811515815250505f81608001901515908115158152505081600a0181908060018154018082558091505060019003905f5260205f2090600302015f909190919091505f820151815f015f6101000a81548173ffffffffffffffffffffffffffffffffffffffff021916908373ffffffffffffffffffffffffffffffffffffffff160217905550602082015181600101556040820151816002015f6101000a81548160ff02191690831515021790555060608201518160020160016101000a81548160ff02191690831515021790555060808201518160020160026101000a81548160ff021916908315150217905550505050505050565b5f805f8481526020019081526020015f2090508173ffffffffffffffffffffffffffffffffffffffff16815f015f9054906101000a900473ffffffffffffffffffffffffffffffffffffffff1673ffffffffffffffffffffffffffffffffffffffff161461101d576040517f08c379a0000000000000000000000000000000000000000000000000000000008152600401611014906125cb565b60405180910390fd5b806003015481600801541015611068576040517f08c379a000000000000000000000000000000000000000000000000000000000815260040161105f906119ff565b60405180910390fd5b5f805b82600a018054905042446040516020016110869291906125e9565b604051602081830303815290604052805190602001205f1c6110a89190612641565b915082600a0182815481106110c0576110bf611a1d565b5b905f5260205f2090600302015f015f9054906101000a900473ffffffffffffffffffffffffffffffffffffffff16905082600a01828154811061110657611105611a1d565b5b905f5260205f20906003020160020160029054906101000a900460ff1661106b57600183600a01838154811061113f5761113e611a1d565b5b905f5260205f20906003020160020160026101000a81548160ff021916908315150217905550600183600a01838154811061117d5761117c611a1d565b5b905f5260205f20906003020160020160016101000a81548160ff021916908315150217905550847fb12f018adaff7c028f285765ab08880de52e3ddb667174ab75d2346d08d5108a826040516111d39190612671565b60405180910390a25050505050565b5f805f805f808681526020019081526020015f2090505f73ffffffffffffffffffffffffffffffffffffffff16815f015f9054906101000a900473ffffffffffffffffffffffffffffffffffffffff1673ffffffffffffffffffffffffffffffffffffffff1603611288576040517f08c379a000000000000000000000000000000000000000000000000000000000815260040161127f90612447565b60405180910390fd5b8060020154816001015482600a0180549050935093509350509193909250565b5f805f805f60605f805f805f808c81526020019081526020015f209050805f015f9054906101000a900473ffffffffffffffffffffffffffffffffffffffff16816001015482600201548360030154846005015485600601866007015487600a0180549050886009015f9054906101000a900460ff1683805461132a90611eda565b80601f016020809104026020016040519081016040528092919081815260200182805461135690611eda565b80156113a15780601f10611378576101008083540402835291602001916113a1565b820191905f5260205f20905b81548152906001019060200180831161138457829003601f168201915b50505050509350995099509950995099509950995099509950509193959799909294969850565b6040518060a001604052805f73ffffffffffffffffffffffffffffffffffffffff1681526020015f81526020015f151581526020015f151581526020015f151581525090565b5f604051905090565b5f80fd5b5f80fd5b5f819050919050565b6114318161141f565b811461143b575f80fd5b50565b5f8135905061144c81611428565b92915050565b5f6020828403121561146757611466611417565b5b5f6114748482850161143e565b91505092915050565b5f73ffffffffffffffffffffffffffffffffffffffff82169050919050565b5f6114a68261147d565b9050919050565b6114b68161149c565b81146114c0575f80fd5b50565b5f813590506114d1816114ad565b92915050565b5f819050919050565b6114e9816114d7565b81146114f3575f80fd5b50565b5f81359050611504816114e0565b92915050565b5f80fd5b5f80fd5b5f601f19601f8301169050919050565b7f4e487b71000000000000000000000000000000000000000000000000000000005f52604160045260245ffd5b61155882611512565b810181811067ffffffffffffffff8211171561157757611576611522565b5b80604052505050565b5f61158961140e565b9050611595828261154f565b919050565b5f67ffffffffffffffff8211156115b4576115b3611522565b5b6115bd82611512565b9050602081019050919050565b828183375f83830152505050565b5f6115ea6115e58461159a565b611580565b9050828152602081018484840111156116065761160561150e565b5b6116118482856115ca565b509392505050565b5f82601f83011261162d5761162c61150a565b5b813561163d8482602086016115d8565b91505092915050565b5f805f805f60a0868803121561165f5761165e611417565b5b5f61166c888289016114c3565b955050602061167d888289016114f6565b945050604061168e888289016114f6565b935050606086013567ffffffffffffffff8111156116af576116ae61141b565b5b6116bb88828901611619565b92505060806116cc888289016114f6565b9150509295509295909350565b6116e28161141f565b82525050565b5f6020820190506116fb5f8301846116d9565b92915050565b61170a8161149c565b82525050565b611719816114d7565b82525050565b5f81519050919050565b5f82825260208201905092915050565b8281835e5f83830152505050565b5f6117518261171f565b61175b8185611729565b935061176b818560208601611739565b61177481611512565b840191505092915050565b5f8115159050919050565b6117938161177f565b82525050565b5f610140820190506117ad5f83018d611701565b6117ba602083018c611710565b6117c7604083018b611710565b6117d4606083018a611710565b6117e16080830189611710565b6117ee60a0830188611710565b81810360c08301526118008187611747565b905061180f60e0830186611710565b61181d610100830185611710565b61182b61012083018461178a565b9b9a5050505050505050505050565b5f805f6060848603121561185157611850611417565b5b5f61185e8682870161143e565b935050602061186f868287016114c3565b9250506040611880868287016114f6565b9150509250925092565b5f80604083850312156118a05761189f611417565b5b5f6118ad8582860161143e565b92505060206118be858286016114c3565b9150509250929050565b5f6060820190506118db5f830186611710565b6118e86020830185611710565b6118f56040830184611710565b949350505050565b5f610120820190506119115f83018c611701565b61191e602083018b611710565b61192b604083018a611710565b6119386060830189611710565b6119456080830188611710565b81810360a08301526119578187611747565b905061196660c0830186611710565b61197360e0830185611710565b61198161010083018461178a565b9a9950505050505050505050565b7f4e6f20736520686120616c63616e7a61646f20656c206d6f6e746f20746f74615f8201527f6c00000000000000000000000000000000000000000000000000000000000000602082015250565b5f6119e9602183611729565b91506119f48261198f565b604082019050919050565b5f6020820190508181035f830152611a16816119dd565b9050919050565b7f4e487b71000000000000000000000000000000000000000000000000000000005f52603260045260245ffd5b7f456c206a7565676f206861207465726d696e61646f2e204c612073616c6120685f8201527f61207369646f20636572726164612e0000000000000000000000000000000000602082015250565b5f611aa4602f83611729565b9150611aaf82611a4a565b604082019050919050565b5f6020820190508181035f830152611ad181611a98565b9050919050565b7f4e487b71000000000000000000000000000000000000000000000000000000005f52601160045260245ffd5b5f611b0f826114d7565b91507fffffffffffffffffffffffffffffffffffffffffffffffffffffffffffffffff8203611b4157611b40611ad8565b5b600182019050919050565b7f4465626520686162657220616c206d656e6f732032207061727469636970616e5f8201527f7465730000000000000000000000000000000000000000000000000000000000602082015250565b5f611ba6602383611729565b9150611bb182611b4c565b604082019050919050565b5f6020820190508181035f830152611bd381611b9a565b9050919050565b7f456c206d6f6e746f206465206c6120636f6e747269627563696f6e20646562655f8201527f20736572206d61796f7220612030000000000000000000000000000000000000602082015250565b5f611c34602e83611729565b9150611c3f82611bda565b604082019050919050565b5f6020820190508181035f830152611c6181611c28565b9050919050565b5f81905092915050565b7f72756c65746100000000000000000000000000000000000000000000000000005f82015250565b5f611ca6600683611c68565b9150611cb182611c72565b600682019050919050565b5f611cc682611c9a565b9150819050919050565b5f611cda8261171f565b611ce48185611c68565b9350611cf4818560208601611739565b80840191505092915050565b5f611d0b8284611cd0565b915081905092915050565b7f656e6c69737461720000000000000000000000000000000000000000000000005f82015250565b5f611d4a600883611c68565b9150611d5582611d16565b600882019050919050565b5f611d6a82611d3e565b9150819050919050565b7f5469706f20646520646973747269627563696f6e20696e76616c69646f0000005f82015250565b5f611da8601d83611729565b9150611db382611d74565b602082019050919050565b5f6020820190508181035f830152611dd581611d9c565b9050919050565b5f8160601b9050919050565b5f611df282611ddc565b9050919050565b5f611e0382611de8565b9050919050565b611e1b611e168261149c565b611df9565b82525050565b5f819050919050565b611e3b611e36826114d7565b611e21565b82525050565b5f611e4c8285611e0a565b601482019150611e5c8284611e2a565b6020820191508190509392505050565b5f611e76826114d7565b9150611e81836114d7565b9250828202611e8f816114d7565b91508282048414831517611ea657611ea5611ad8565b5b5092915050565b7f4e487b71000000000000000000000000000000000000000000000000000000005f52602260045260245ffd5b5f6002820490506001821680611ef157607f821691505b602082108103611f0457611f03611ead565b5b50919050565b5f819050815f5260205f209050919050565b5f6020601f8301049050919050565b5f82821b905092915050565b5f60088302611f667fffffffffffffffffffffffffffffffffffffffffffffffffffffffffffffffff82611f2b565b611f708683611f2b565b95508019841693508086168417925050509392505050565b5f819050919050565b5f611fab611fa6611fa1846114d7565b611f88565b6114d7565b9050919050565b5f819050919050565b611fc483611f91565b611fd8611fd082611fb2565b848454611f37565b825550505050565b5f90565b611fec611fe0565b611ff7818484611fbb565b505050565b5b8181101561201a5761200f5f82611fe4565b600181019050611ffd565b5050565b601f82111561205f5761203081611f0a565b61203984611f1c565b81016020851015612048578190505b61205c61205485611f1c565b830182611ffc565b50505b505050565b5f82821c905092915050565b5f61207f5f1984600802612064565b1980831691505092915050565b5f6120978383612070565b9150826002028217905092915050565b6120b08261171f565b67ffffffffffffffff8111156120c9576120c8611522565b5b6120d38254611eda565b6120de82828561201e565b5f60209050601f83116001811461210f575f84156120fd578287015190505b612107858261208c565b86555061216e565b601f19841661211d86611f0a565b5f5b828110156121445784890151825560018201915060208501945060208101905061211f565b86831015612161578489015161215d601f891682612070565b8355505b6001600288020188555050505b505050505050565b7f4c612073616c61206573746120636572726164610000000000000000000000005f82015250565b5f6121aa601483611729565b91506121b582612176565b602082019050919050565b5f6020820190508181035f8301526121d78161219e565b9050919050565b7f4e6f20746f646f73206c6f73207061727469636970616e7465732073652068615f8201527f6e20756e69646f2061756e000000000000000000000000000000000000000000602082015250565b5f612238602b83611729565b9150612243826121de565b604082019050919050565b5f6020820190508181035f8301526122658161222c565b9050919050565b7f456c206d6f6e746f2061706f727461646f20657320696e636f72726563746f005f82015250565b5f6122a0601f83611729565b91506122ab8261226c565b602082019050919050565b5f6020820190508181035f8301526122cd81612294565b9050919050565b7f546f646173206c617320726f6e6461732068616e2066696e616c697a61646f005f82015250565b5f612308601f83611729565b9150612313826122d4565b602082019050919050565b5f6020820190508181035f830152612335816122fc565b9050919050565b7f4e6f2065726573207061727469636970616e746520646520657374612073616c5f8201527f6100000000000000000000000000000000000000000000000000000000000000602082015250565b5f612396602183611729565b91506123a18261233c565b604082019050919050565b5f6020820190508181035f8301526123c38161238a565b9050919050565b5f6123d4826114d7565b91506123df836114d7565b92508282019050808211156123f7576123f6611ad8565b5b92915050565b7f4c612073616c61206e6f206578697374650000000000000000000000000000005f82015250565b5f612431601183611729565b915061243c826123fd565b602082019050919050565b5f6020820190508181035f83015261245e81612425565b9050919050565b7f4c612073616c612065737461206c6c656e6100000000000000000000000000005f82015250565b5f612499601283611729565b91506124a482612465565b602082019050919050565b5f6020820190508181035f8301526124c68161248d565b9050919050565b7f45737465207061727469636970616e7465207961206573746120656e206c61205f8201527f73616c6100000000000000000000000000000000000000000000000000000000602082015250565b5f612527602483611729565b9150612532826124cd565b604082019050919050565b5f6020820190508181035f8301526125548161251b565b9050919050565b7f536f6c6f20656c20616e66697472696f6e207075656465207265616c697a61725f8201527f20656c20736f7274656f00000000000000000000000000000000000000000000602082015250565b5f6125b5602a83611729565b91506125c08261255b565b604082019050919050565b5f6020820190508181035f8301526125e2816125a9565b9050919050565b5f6125f48285611e2a565b6020820191506126048284611e2a565b6020820191508190509392505050565b7f4e487b71000000000000000000000000000000000000000000000000000000005f52601260045260245ffd5b5f61264b826114d7565b9150612656836114d7565b92508261266657612665612614565b5b828206905092915050565b5f6020820190506126845f830184611701565b9291505056fea26469706673582212204951dcd130d885e8c0bbc39347657c7d00978837989042579087181f0a525c5f64736f6c634300081a0033",
					"opcodes": "PUSH1 0x80 PUSH1 0x40 MSTORE CALLVALUE DUP1 ISZERO PUSH1 0xE JUMPI PUSH0 DUP1 REVERT JUMPDEST POP PUSH2 0x26C0 DUP1 PUSH2 0x1C PUSH0 CODECOPY PUSH0 RETURN INVALID PUSH1 0x80 PUSH1 0x40 MSTORE PUSH1 0x4 CALLDATASIZE LT PUSH2 0x7A JUMPI PUSH0 CALLDATALOAD PUSH1 0xE0 SHR DUP1 PUSH4 0xB3D5A928 GT PUSH2 0x4D JUMPI DUP1 PUSH4 0xB3D5A928 EQ PUSH2 0x143 JUMPI DUP1 PUSH4 0xC37CEA5F EQ PUSH2 0x16B JUMPI DUP1 PUSH4 0xC4AA4183 EQ PUSH2 0x193 JUMPI DUP1 PUSH4 0xF89E7257 EQ PUSH2 0x1D1 JUMPI PUSH2 0x7A JUMP JUMPDEST DUP1 PUSH4 0x59266711 EQ PUSH2 0x7E JUMPI DUP1 PUSH4 0x8D22ED65 EQ PUSH2 0xA6 JUMPI DUP1 PUSH4 0x90B7A18B EQ PUSH2 0xE2 JUMPI DUP1 PUSH4 0x92C6E203 EQ PUSH2 0x127 JUMPI JUMPDEST PUSH0 DUP1 REVERT JUMPDEST CALLVALUE DUP1 ISZERO PUSH2 0x89 JUMPI PUSH0 DUP1 REVERT JUMPDEST POP PUSH2 0xA4 PUSH1 0x4 DUP1 CALLDATASIZE SUB DUP2 ADD SWAP1 PUSH2 0x9F SWAP2 SWAP1 PUSH2 0x1452 JUMP JUMPDEST PUSH2 0x215 JUMP JUMPDEST STOP JUMPDEST CALLVALUE DUP1 ISZERO PUSH2 0xB1 JUMPI PUSH0 DUP1 REVERT JUMPDEST POP PUSH2 0xCC PUSH1 0x4 DUP1 CALLDATASIZE SUB DUP2 ADD SWAP1 PUSH2 0xC7 SWAP2 SWAP1 PUSH2 0x1646 JUMP JUMPDEST PUSH2 0x510 JUMP JUMPDEST PUSH1 0x40 MLOAD PUSH2 0xD9 SWAP2 SWAP1 PUSH2 0x16E8 JUMP JUMPDEST PUSH1 0x40 MLOAD DUP1 SWAP2 SUB SWAP1 RETURN JUMPDEST CALLVALUE DUP1 ISZERO PUSH2 0xED JUMPI PUSH0 DUP1 REVERT JUMPDEST POP PUSH2 0x108 PUSH1 0x4 DUP1 CALLDATASIZE SUB DUP2 ADD SWAP1 PUSH2 0x103 SWAP2 SWAP1 PUSH2 0x1452 JUMP JUMPDEST PUSH2 0x8CC JUMP JUMPDEST PUSH1 0x40 MLOAD PUSH2 0x11E SWAP11 SWAP10 SWAP9 SWAP8 SWAP7 SWAP6 SWAP5 SWAP4 SWAP3 SWAP2 SWAP1 PUSH2 0x1799 JUMP JUMPDEST PUSH1 0x40 MLOAD DUP1 SWAP2 SUB SWAP1 RETURN JUMPDEST PUSH2 0x141 PUSH1 0x4 DUP1 CALLDATASIZE SUB DUP2 ADD SWAP1 PUSH2 0x13C SWAP2 SWAP1 PUSH2 0x183A JUMP JUMPDEST PUSH2 0x9CC JUMP JUMPDEST STOP JUMPDEST CALLVALUE DUP1 ISZERO PUSH2 0x14E JUMPI PUSH0 DUP1 REVERT JUMPDEST POP PUSH2 0x169 PUSH1 0x4 DUP1 CALLDATASIZE SUB DUP2 ADD SWAP1 PUSH2 0x164 SWAP2 SWAP1 PUSH2 0x188A JUMP JUMPDEST PUSH2 0xC0D JUMP JUMPDEST STOP JUMPDEST CALLVALUE DUP1 ISZERO PUSH2 0x176 JUMPI PUSH0 DUP1 REVERT JUMPDEST POP PUSH2 0x191 PUSH1 0x4 DUP1 CALLDATASIZE SUB DUP2 ADD SWAP1 PUSH2 0x18C SWAP2 SWAP1 PUSH2 0x188A JUMP JUMPDEST PUSH2 0xF7A JUMP JUMPDEST STOP JUMPDEST CALLVALUE DUP1 ISZERO PUSH2 0x19E JUMPI PUSH0 DUP1 REVERT JUMPDEST POP PUSH2 0x1B9 PUSH1 0x4 DUP1 CALLDATASIZE SUB DUP2 ADD SWAP1 PUSH2 0x1B4 SWAP2 SWAP1 PUSH2 0x1452 JUMP JUMPDEST PUSH2 0x11E2 JUMP JUMPDEST PUSH1 0x40 MLOAD PUSH2 0x1C8 SWAP4 SWAP3 SWAP2 SWAP1 PUSH2 0x18C8 JUMP JUMPDEST PUSH1 0x40 MLOAD DUP1 SWAP2 SUB SWAP1 RETURN JUMPDEST CALLVALUE DUP1 ISZERO PUSH2 0x1DC JUMPI PUSH0 DUP1 REVERT JUMPDEST POP PUSH2 0x1F7 PUSH1 0x4 DUP1 CALLDATASIZE SUB DUP2 ADD SWAP1 PUSH2 0x1F2 SWAP2 SWAP1 PUSH2 0x1452 JUMP JUMPDEST PUSH2 0x12A8 JUMP JUMPDEST PUSH1 0x40 MLOAD PUSH2 0x20C SWAP10 SWAP9 SWAP8 SWAP7 SWAP6 SWAP5 SWAP4 SWAP3 SWAP2 SWAP1 PUSH2 0x18FD JUMP JUMPDEST PUSH1 0x40 MLOAD DUP1 SWAP2 SUB SWAP1 RETURN JUMPDEST PUSH0 DUP1 PUSH0 DUP4 DUP2 MSTORE PUSH1 0x20 ADD SWAP1 DUP2 MSTORE PUSH1 0x20 ADD PUSH0 KECCAK256 SWAP1 POP DUP1 PUSH1 0x3 ADD SLOAD DUP2 PUSH1 0x8 ADD SLOAD LT ISZERO PUSH2 0x273 JUMPI PUSH1 0x40 MLOAD PUSH32 0x8C379A000000000000000000000000000000000000000000000000000000000 DUP2 MSTORE PUSH1 0x4 ADD PUSH2 0x26A SWAP1 PUSH2 0x19FF JUMP JUMPDEST PUSH1 0x40 MLOAD DUP1 SWAP2 SUB SWAP1 REVERT JUMPDEST PUSH0 DUP1 PUSH0 SWAP1 POP JUMPDEST DUP3 PUSH1 0xA ADD DUP1 SLOAD SWAP1 POP DUP2 LT ISZERO PUSH2 0x3CD JUMPI DUP3 PUSH1 0xA ADD DUP2 DUP2 SLOAD DUP2 LT PUSH2 0x29E JUMPI PUSH2 0x29D PUSH2 0x1A1D JUMP JUMPDEST JUMPDEST SWAP1 PUSH0 MSTORE PUSH1 0x20 PUSH0 KECCAK256 SWAP1 PUSH1 0x3 MUL ADD PUSH1 0x2 ADD PUSH1 0x1 SWAP1 SLOAD SWAP1 PUSH2 0x100 EXP SWAP1 DIV PUSH1 0xFF AND DUP1 ISZERO PUSH2 0x2F6 JUMPI POP DUP3 PUSH1 0xA ADD DUP2 DUP2 SLOAD DUP2 LT PUSH2 0x2D8 JUMPI PUSH2 0x2D7 PUSH2 0x1A1D JUMP JUMPDEST JUMPDEST SWAP1 PUSH0 MSTORE PUSH1 0x20 PUSH0 KECCAK256 SWAP1 PUSH1 0x3 MUL ADD PUSH1 0x2 ADD PUSH0 SWAP1 SLOAD SWAP1 PUSH2 0x100 EXP SWAP1 DIV PUSH1 0xFF AND ISZERO JUMPDEST ISZERO PUSH2 0x3C0 JUMPI DUP3 PUSH1 0xA ADD DUP2 DUP2 SLOAD DUP2 LT PUSH2 0x311 JUMPI PUSH2 0x310 PUSH2 0x1A1D JUMP JUMPDEST JUMPDEST SWAP1 PUSH0 MSTORE PUSH1 0x20 PUSH0 KECCAK256 SWAP1 PUSH1 0x3 MUL ADD PUSH0 ADD PUSH0 SWAP1 SLOAD SWAP1 PUSH2 0x100 EXP SWAP1 DIV PUSH20 0xFFFFFFFFFFFFFFFFFFFFFFFFFFFFFFFFFFFFFFFF AND SWAP2 POP PUSH1 0x1 DUP4 PUSH1 0xA ADD DUP3 DUP2 SLOAD DUP2 LT PUSH2 0x359 JUMPI PUSH2 0x358 PUSH2 0x1A1D JUMP JUMPDEST JUMPDEST SWAP1 PUSH0 MSTORE PUSH1 0x20 PUSH0 KECCAK256 SWAP1 PUSH1 0x3 MUL ADD PUSH1 0x2 ADD PUSH0 PUSH2 0x100 EXP DUP2 SLOAD DUP2 PUSH1 0xFF MUL NOT AND SWAP1 DUP4 ISZERO ISZERO MUL OR SWAP1 SSTORE POP PUSH0 DUP4 PUSH1 0xA ADD DUP3 DUP2 SLOAD DUP2 LT PUSH2 0x395 JUMPI PUSH2 0x394 PUSH2 0x1A1D JUMP JUMPDEST JUMPDEST SWAP1 PUSH0 MSTORE PUSH1 0x20 PUSH0 KECCAK256 SWAP1 PUSH1 0x3 MUL ADD PUSH1 0x2 ADD PUSH1 0x1 PUSH2 0x100 EXP DUP2 SLOAD DUP2 PUSH1 0xFF MUL NOT AND SWAP1 DUP4 ISZERO ISZERO MUL OR SWAP1 SSTORE POP PUSH2 0x3CD JUMP JUMPDEST DUP1 DUP1 PUSH1 0x1 ADD SWAP2 POP POP PUSH2 0x279 JUMP JUMPDEST POP DUP1 PUSH20 0xFFFFFFFFFFFFFFFFFFFFFFFFFFFFFFFFFFFFFFFF AND PUSH2 0x8FC DUP4 PUSH1 0x8 ADD SLOAD SWAP1 DUP2 ISZERO MUL SWAP1 PUSH1 0x40 MLOAD PUSH0 PUSH1 0x40 MLOAD DUP1 DUP4 SUB DUP2 DUP6 DUP9 DUP9 CALL SWAP4 POP POP POP POP ISZERO DUP1 ISZERO PUSH2 0x415 JUMPI RETURNDATASIZE PUSH0 DUP1 RETURNDATACOPY RETURNDATASIZE PUSH0 REVERT JUMPDEST POP PUSH0 DUP3 PUSH1 0x8 ADD DUP2 SWAP1 SSTORE POP PUSH0 PUSH1 0x1 SWAP1 POP PUSH0 JUMPDEST DUP4 PUSH1 0xA ADD DUP1 SLOAD SWAP1 POP DUP2 LT ISZERO PUSH2 0x481 JUMPI DUP4 PUSH1 0xA ADD DUP2 DUP2 SLOAD DUP2 LT PUSH2 0x44B JUMPI PUSH2 0x44A PUSH2 0x1A1D JUMP JUMPDEST JUMPDEST SWAP1 PUSH0 MSTORE PUSH1 0x20 PUSH0 KECCAK256 SWAP1 PUSH1 0x3 MUL ADD PUSH1 0x2 ADD PUSH1 0x2 SWAP1 SLOAD SWAP1 PUSH2 0x100 EXP SWAP1 DIV PUSH1 0xFF AND PUSH2 0x474 JUMPI PUSH0 SWAP2 POP PUSH2 0x481 JUMP JUMPDEST DUP1 DUP1 PUSH1 0x1 ADD SWAP2 POP POP PUSH2 0x426 JUMP JUMPDEST POP DUP1 DUP1 PUSH2 0x495 JUMPI POP DUP3 PUSH1 0x4 ADD SLOAD DUP4 PUSH1 0x5 ADD SLOAD EQ JUMPDEST ISZERO PUSH2 0x4F0 JUMPI PUSH0 DUP4 PUSH1 0x9 ADD PUSH0 PUSH2 0x100 EXP DUP2 SLOAD DUP2 PUSH1 0xFF MUL NOT AND SWAP1 DUP4 ISZERO ISZERO MUL OR SWAP1 SSTORE POP DUP4 PUSH32 0xFC72A1A775163051323182742F7B56D5D827481F60D4A9E6792B1E88585A8F0 PUSH1 0x40 MLOAD PUSH2 0x4E3 SWAP1 PUSH2 0x1ABA JUMP JUMPDEST PUSH1 0x40 MLOAD DUP1 SWAP2 SUB SWAP1 LOG2 PUSH2 0x50A JUMP JUMPDEST DUP3 PUSH1 0x5 ADD PUSH0 DUP2 SLOAD DUP1 SWAP3 SWAP2 SWAP1 PUSH2 0x504 SWAP1 PUSH2 0x1B05 JUMP JUMPDEST SWAP2 SWAP1 POP SSTORE POP JUMPDEST POP POP POP POP JUMP JUMPDEST PUSH0 PUSH1 0x1 DUP6 GT PUSH2 0x554 JUMPI PUSH1 0x40 MLOAD PUSH32 0x8C379A000000000000000000000000000000000000000000000000000000000 DUP2 MSTORE PUSH1 0x4 ADD PUSH2 0x54B SWAP1 PUSH2 0x1BBC JUMP JUMPDEST PUSH1 0x40 MLOAD DUP1 SWAP2 SUB SWAP1 REVERT JUMPDEST PUSH0 DUP5 GT PUSH2 0x596 JUMPI PUSH1 0x40 MLOAD PUSH32 0x8C379A000000000000000000000000000000000000000000000000000000000 DUP2 MSTORE PUSH1 0x4 ADD PUSH2 0x58D SWAP1 PUSH2 0x1C4A JUMP JUMPDEST PUSH1 0x40 MLOAD DUP1 SWAP2 SUB SWAP1 REVERT JUMPDEST PUSH1 0x40 MLOAD PUSH1 0x20 ADD PUSH2 0x5A5 SWAP1 PUSH2 0x1CBC JUMP JUMPDEST PUSH1 0x40 MLOAD PUSH1 0x20 DUP2 DUP4 SUB SUB DUP2 MSTORE SWAP1 PUSH1 0x40 MSTORE DUP1 MLOAD SWAP1 PUSH1 0x20 ADD KECCAK256 DUP4 PUSH1 0x40 MLOAD PUSH1 0x20 ADD PUSH2 0x5CC SWAP2 SWAP1 PUSH2 0x1D00 JUMP JUMPDEST PUSH1 0x40 MLOAD PUSH1 0x20 DUP2 DUP4 SUB SUB DUP2 MSTORE SWAP1 PUSH1 0x40 MSTORE DUP1 MLOAD SWAP1 PUSH1 0x20 ADD KECCAK256 EQ DUP1 PUSH2 0x637 JUMPI POP PUSH1 0x40 MLOAD PUSH1 0x20 ADD PUSH2 0x5F8 SWAP1 PUSH2 0x1D60 JUMP JUMPDEST PUSH1 0x40 MLOAD PUSH1 0x20 DUP2 DUP4 SUB SUB DUP2 MSTORE SWAP1 PUSH1 0x40 MSTORE DUP1 MLOAD SWAP1 PUSH1 0x20 ADD KECCAK256 DUP4 PUSH1 0x40 MLOAD PUSH1 0x20 ADD PUSH2 0x61F SWAP2 SWAP1 PUSH2 0x1D00 JUMP JUMPDEST PUSH1 0x40 MLOAD PUSH1 0x20 DUP2 DUP4 SUB SUB DUP2 MSTORE SWAP1 PUSH1 0x40 MSTORE DUP1 MLOAD SWAP1 PUSH1 0x20 ADD KECCAK256 EQ JUMPDEST PUSH2 0x676 JUMPI PUSH1 0x40 MLOAD PUSH32 0x8C379A000000000000000000000000000000000000000000000000000000000 DUP2 MSTORE PUSH1 0x4 ADD PUSH2 0x66D SWAP1 PUSH2 0x1DBE JUMP JUMPDEST PUSH1 0x40 MLOAD DUP1 SWAP2 SUB SWAP1 REVERT JUMPDEST PUSH0 DUP7 TIMESTAMP PUSH1 0x40 MLOAD PUSH1 0x20 ADD PUSH2 0x68A SWAP3 SWAP2 SWAP1 PUSH2 0x1E41 JUMP JUMPDEST PUSH1 0x40 MLOAD PUSH1 0x20 DUP2 DUP4 SUB SUB DUP2 MSTORE SWAP1 PUSH1 0x40 MSTORE DUP1 MLOAD SWAP1 PUSH1 0x20 ADD KECCAK256 SWAP1 POP PUSH0 DUP1 PUSH0 DUP4 DUP2 MSTORE PUSH1 0x20 ADD SWAP1 DUP2 MSTORE PUSH1 0x20 ADD PUSH0 KECCAK256 SWAP1 POP DUP8 DUP2 PUSH0 ADD PUSH0 PUSH2 0x100 EXP DUP2 SLOAD DUP2 PUSH20 0xFFFFFFFFFFFFFFFFFFFFFFFFFFFFFFFFFFFFFFFF MUL NOT AND SWAP1 DUP4 PUSH20 0xFFFFFFFFFFFFFFFFFFFFFFFFFFFFFFFFFFFFFFFF AND MUL OR SWAP1 SSTORE POP DUP7 DUP2 PUSH1 0x1 ADD DUP2 SWAP1 SSTORE POP DUP6 DUP2 PUSH1 0x2 ADD DUP2 SWAP1 SSTORE POP DUP6 DUP8 PUSH2 0x714 SWAP2 SWAP1 PUSH2 0x1E6C JUMP JUMPDEST DUP2 PUSH1 0x3 ADD DUP2 SWAP1 SSTORE POP DUP7 DUP2 PUSH1 0x4 ADD DUP2 SWAP1 SSTORE POP PUSH1 0x1 DUP2 PUSH1 0x5 ADD DUP2 SWAP1 SSTORE POP DUP5 DUP2 PUSH1 0x6 ADD SWAP1 DUP2 PUSH2 0x740 SWAP2 SWAP1 PUSH2 0x20A7 JUMP JUMPDEST POP DUP4 DUP2 PUSH1 0x7 ADD DUP2 SWAP1 SSTORE POP PUSH1 0x1 DUP2 PUSH1 0x9 ADD PUSH0 PUSH2 0x100 EXP DUP2 SLOAD DUP2 PUSH1 0xFF MUL NOT AND SWAP1 DUP4 ISZERO ISZERO MUL OR SWAP1 SSTORE POP PUSH2 0x76E PUSH2 0x13C8 JUMP JUMPDEST DUP9 DUP2 PUSH0 ADD SWAP1 PUSH20 0xFFFFFFFFFFFFFFFFFFFFFFFFFFFFFFFFFFFFFFFF AND SWAP1 DUP2 PUSH20 0xFFFFFFFFFFFFFFFFFFFFFFFFFFFFFFFFFFFFFFFF AND DUP2 MSTORE POP POP DUP2 PUSH1 0x3 ADD SLOAD DUP2 PUSH1 0x20 ADD DUP2 DUP2 MSTORE POP POP PUSH0 DUP2 PUSH1 0x40 ADD SWAP1 ISZERO ISZERO SWAP1 DUP2 ISZERO ISZERO DUP2 MSTORE POP POP PUSH0 DUP2 PUSH1 0x60 ADD SWAP1 ISZERO ISZERO SWAP1 DUP2 ISZERO ISZERO DUP2 MSTORE POP POP PUSH0 DUP2 PUSH1 0x80 ADD SWAP1 ISZERO ISZERO SWAP1 DUP2 ISZERO ISZERO DUP2 MSTORE POP POP DUP2 PUSH1 0xA ADD DUP2 SWAP1 DUP1 PUSH1 0x1 DUP2 SLOAD ADD DUP1 DUP3 SSTORE DUP1 SWAP2 POP POP PUSH1 0x1 SWAP1 SUB SWAP1 PUSH0 MSTORE PUSH1 0x20 PUSH0 KECCAK256 SWAP1 PUSH1 0x3 MUL ADD PUSH0 SWAP1 SWAP2 SWAP1 SWAP2 SWAP1 SWAP2 POP PUSH0 DUP3 ADD MLOAD DUP2 PUSH0 ADD PUSH0 PUSH2 0x100 EXP DUP2 SLOAD DUP2 PUSH20 0xFFFFFFFFFFFFFFFFFFFFFFFFFFFFFFFFFFFFFFFF MUL NOT AND SWAP1 DUP4 PUSH20 0xFFFFFFFFFFFFFFFFFFFFFFFFFFFFFFFFFFFFFFFF AND MUL OR SWAP1 SSTORE POP PUSH1 0x20 DUP3 ADD MLOAD DUP2 PUSH1 0x1 ADD SSTORE PUSH1 0x40 DUP3 ADD MLOAD DUP2 PUSH1 0x2 ADD PUSH0 PUSH2 0x100 EXP DUP2 SLOAD DUP2 PUSH1 0xFF MUL NOT AND SWAP1 DUP4 ISZERO ISZERO MUL OR SWAP1 SSTORE POP PUSH1 0x60 DUP3 ADD MLOAD DUP2 PUSH1 0x2 ADD PUSH1 0x1 PUSH2 0x100 EXP DUP2 SLOAD DUP2 PUSH1 0xFF MUL NOT AND SWAP1 DUP4 ISZERO ISZERO MUL OR SWAP1 SSTORE POP PUSH1 0x80 DUP3 ADD MLOAD DUP2 PUSH1 0x2 ADD PUSH1 0x2 PUSH2 0x100 EXP DUP2 SLOAD DUP2 PUSH1 0xFF MUL NOT AND SWAP1 DUP4 ISZERO ISZERO MUL OR SWAP1 SSTORE POP POP POP DUP3 SWAP4 POP POP POP POP SWAP6 SWAP5 POP POP POP POP POP JUMP JUMPDEST PUSH0 PUSH1 0x20 MSTORE DUP1 PUSH0 MSTORE PUSH1 0x40 PUSH0 KECCAK256 PUSH0 SWAP2 POP SWAP1 POP DUP1 PUSH0 ADD PUSH0 SWAP1 SLOAD SWAP1 PUSH2 0x100 EXP SWAP1 DIV PUSH20 0xFFFFFFFFFFFFFFFFFFFFFFFFFFFFFFFFFFFFFFFF AND SWAP1 DUP1 PUSH1 0x1 ADD SLOAD SWAP1 DUP1 PUSH1 0x2 ADD SLOAD SWAP1 DUP1 PUSH1 0x3 ADD SLOAD SWAP1 DUP1 PUSH1 0x4 ADD SLOAD SWAP1 DUP1 PUSH1 0x5 ADD SLOAD SWAP1 DUP1 PUSH1 0x6 ADD DUP1 SLOAD PUSH2 0x92D SWAP1 PUSH2 0x1EDA JUMP JUMPDEST DUP1 PUSH1 0x1F ADD PUSH1 0x20 DUP1 SWAP2 DIV MUL PUSH1 0x20 ADD PUSH1 0x40 MLOAD SWAP1 DUP2 ADD PUSH1 0x40 MSTORE DUP1 SWAP3 SWAP2 SWAP1 DUP2 DUP2 MSTORE PUSH1 0x20 ADD DUP3 DUP1 SLOAD PUSH2 0x959 SWAP1 PUSH2 0x1EDA JUMP JUMPDEST DUP1 ISZERO PUSH2 0x9A4 JUMPI DUP1 PUSH1 0x1F LT PUSH2 0x97B JUMPI PUSH2 0x100 DUP1 DUP4 SLOAD DIV MUL DUP4 MSTORE SWAP2 PUSH1 0x20 ADD SWAP2 PUSH2 0x9A4 JUMP JUMPDEST DUP3 ADD SWAP2 SWAP1 PUSH0 MSTORE PUSH1 0x20 PUSH0 KECCAK256 SWAP1 JUMPDEST DUP2 SLOAD DUP2 MSTORE SWAP1 PUSH1 0x1 ADD SWAP1 PUSH1 0x20 ADD DUP1 DUP4 GT PUSH2 0x987 JUMPI DUP3 SWAP1 SUB PUSH1 0x1F AND DUP3 ADD SWAP2 JUMPDEST POP POP POP POP POP SWAP1 DUP1 PUSH1 0x7 ADD SLOAD SWAP1 DUP1 PUSH1 0x8 ADD SLOAD SWAP1 DUP1 PUSH1 0x9 ADD PUSH0 SWAP1 SLOAD SWAP1 PUSH2 0x100 EXP SWAP1 DIV PUSH1 0xFF AND SWAP1 POP DUP11 JUMP JUMPDEST PUSH0 DUP1 PUSH0 DUP6 DUP2 MSTORE PUSH1 0x20 ADD SWAP1 DUP2 MSTORE PUSH1 0x20 ADD PUSH0 KECCAK256 SWAP1 POP DUP1 PUSH1 0x9 ADD PUSH0 SWAP1 SLOAD SWAP1 PUSH2 0x100 EXP SWAP1 DIV PUSH1 0xFF AND PUSH2 0xA2F JUMPI PUSH1 0x40 MLOAD PUSH32 0x8C379A000000000000000000000000000000000000000000000000000000000 DUP2 MSTORE PUSH1 0x4 ADD PUSH2 0xA26 SWAP1 PUSH2 0x21C0 JUMP JUMPDEST PUSH1 0x40 MLOAD DUP1 SWAP2 SUB SWAP1 REVERT JUMPDEST DUP1 PUSH1 0x1 ADD SLOAD DUP2 PUSH1 0xA ADD DUP1 SLOAD SWAP1 POP EQ PUSH2 0xA7C JUMPI PUSH1 0x40 MLOAD PUSH32 0x8C379A000000000000000000000000000000000000000000000000000000000 DUP2 MSTORE PUSH1 0x4 ADD PUSH2 0xA73 SWAP1 PUSH2 0x224E JUMP JUMPDEST PUSH1 0x40 MLOAD DUP1 SWAP2 SUB SWAP1 REVERT JUMPDEST DUP1 PUSH1 0x2 ADD SLOAD DUP3 EQ PUSH2 0xAC2 JUMPI PUSH1 0x40 MLOAD PUSH32 0x8C379A000000000000000000000000000000000000000000000000000000000 DUP2 MSTORE PUSH1 0x4 ADD PUSH2 0xAB9 SWAP1 PUSH2 0x22B6 JUMP JUMPDEST PUSH1 0x40 MLOAD DUP1 SWAP2 SUB SWAP1 REVERT JUMPDEST DUP1 PUSH1 0x4 ADD SLOAD DUP2 PUSH1 0x5 ADD SLOAD GT ISZERO PUSH2 0xB0D JUMPI PUSH1 0x40 MLOAD PUSH32 0x8C379A000000000000000000000000000000000000000000000000000000000 DUP2 MSTORE PUSH1 0x4 ADD PUSH2 0xB04 SWAP1 PUSH2 0x231E JUMP JUMPDEST PUSH1 0x40 MLOAD DUP1 SWAP2 SUB SWAP1 REVERT JUMPDEST PUSH0 DUP1 JUMPDEST DUP3 PUSH1 0xA ADD DUP1 SLOAD SWAP1 POP DUP2 LT ISZERO PUSH2 0xBAB JUMPI DUP5 PUSH20 0xFFFFFFFFFFFFFFFFFFFFFFFFFFFFFFFFFFFFFFFF AND DUP4 PUSH1 0xA ADD DUP3 DUP2 SLOAD DUP2 LT PUSH2 0xB4C JUMPI PUSH2 0xB4B PUSH2 0x1A1D JUMP JUMPDEST JUMPDEST SWAP1 PUSH0 MSTORE PUSH1 0x20 PUSH0 KECCAK256 SWAP1 PUSH1 0x3 MUL ADD PUSH0 ADD PUSH0 SWAP1 SLOAD SWAP1 PUSH2 0x100 EXP SWAP1 DIV PUSH20 0xFFFFFFFFFFFFFFFFFFFFFFFFFFFFFFFFFFFFFFFF AND PUSH20 0xFFFFFFFFFFFFFFFFFFFFFFFFFFFFFFFFFFFFFFFF AND SUB PUSH2 0xB9E JUMPI PUSH1 0x1 SWAP2 POP PUSH2 0xBAB JUMP JUMPDEST DUP1 DUP1 PUSH1 0x1 ADD SWAP2 POP POP PUSH2 0xB10 JUMP JUMPDEST POP DUP1 PUSH2 0xBEC JUMPI PUSH1 0x40 MLOAD PUSH32 0x8C379A000000000000000000000000000000000000000000000000000000000 DUP2 MSTORE PUSH1 0x4 ADD PUSH2 0xBE3 SWAP1 PUSH2 0x23AC JUMP JUMPDEST PUSH1 0x40 MLOAD DUP1 SWAP2 SUB SWAP1 REVERT JUMPDEST DUP3 DUP3 PUSH1 0x8 ADD PUSH0 DUP3 DUP3 SLOAD PUSH2 0xBFF SWAP2 SWAP1 PUSH2 0x23CA JUMP JUMPDEST SWAP3 POP POP DUP2 SWAP1 SSTORE POP POP POP POP POP POP JUMP JUMPDEST PUSH0 DUP1 PUSH0 DUP5 DUP2 MSTORE PUSH1 0x20 ADD SWAP1 DUP2 MSTORE PUSH1 0x20 ADD PUSH0 KECCAK256 SWAP1 POP PUSH0 PUSH20 0xFFFFFFFFFFFFFFFFFFFFFFFFFFFFFFFFFFFFFFFF AND DUP2 PUSH0 ADD PUSH0 SWAP1 SLOAD SWAP1 PUSH2 0x100 EXP SWAP1 DIV PUSH20 0xFFFFFFFFFFFFFFFFFFFFFFFFFFFFFFFFFFFFFFFF AND PUSH20 0xFFFFFFFFFFFFFFFFFFFFFFFFFFFFFFFFFFFFFFFF AND SUB PUSH2 0xCB0 JUMPI PUSH1 0x40 MLOAD PUSH32 0x8C379A000000000000000000000000000000000000000000000000000000000 DUP2 MSTORE PUSH1 0x4 ADD PUSH2 0xCA7 SWAP1 PUSH2 0x2447 JUMP JUMPDEST PUSH1 0x40 MLOAD DUP1 SWAP2 SUB SWAP1 REVERT JUMPDEST DUP1 PUSH1 0x1 ADD SLOAD DUP2 PUSH1 0xA ADD DUP1 SLOAD SWAP1 POP LT PUSH2 0xCFD JUMPI PUSH1 0x40 MLOAD PUSH32 0x8C379A000000000000000000000000000000000000000000000000000000000 DUP2 MSTORE PUSH1 0x4 ADD PUSH2 0xCF4 SWAP1 PUSH2 0x24AF JUMP JUMPDEST PUSH1 0x40 MLOAD DUP1 SWAP2 SUB SWAP1 REVERT JUMPDEST DUP1 PUSH1 0x9 ADD PUSH0 SWAP1 SLOAD SWAP1 PUSH2 0x100 EXP SWAP1 DIV PUSH1 0xFF AND PUSH2 0xD4D JUMPI PUSH1 0x40 MLOAD PUSH32 0x8C379A000000000000000000000000000000000000000000000000000000000 DUP2 MSTORE PUSH1 0x4 ADD PUSH2 0xD44 SWAP1 PUSH2 0x21C0 JUMP JUMPDEST PUSH1 0x40 MLOAD DUP1 SWAP2 SUB SWAP1 REVERT JUMPDEST PUSH0 JUMPDEST DUP2 PUSH1 0xA ADD DUP1 SLOAD SWAP1 POP DUP2 LT ISZERO PUSH2 0xE1C JUMPI DUP3 PUSH20 0xFFFFFFFFFFFFFFFFFFFFFFFFFFFFFFFFFFFFFFFF AND DUP3 PUSH1 0xA ADD DUP3 DUP2 SLOAD DUP2 LT PUSH2 0xD8B JUMPI PUSH2 0xD8A PUSH2 0x1A1D JUMP JUMPDEST JUMPDEST SWAP1 PUSH0 MSTORE PUSH1 0x20 PUSH0 KECCAK256 SWAP1 PUSH1 0x3 MUL ADD PUSH0 ADD PUSH0 SWAP1 SLOAD SWAP1 PUSH2 0x100 EXP SWAP1 DIV PUSH20 0xFFFFFFFFFFFFFFFFFFFFFFFFFFFFFFFFFFFFFFFF AND PUSH20 0xFFFFFFFFFFFFFFFFFFFFFFFFFFFFFFFFFFFFFFFF AND SUB PUSH2 0xE0F JUMPI PUSH1 0x40 MLOAD PUSH32 0x8C379A000000000000000000000000000000000000000000000000000000000 DUP2 MSTORE PUSH1 0x4 ADD PUSH2 0xE06 SWAP1 PUSH2 0x253D JUMP JUMPDEST PUSH1 0x40 MLOAD DUP1 SWAP2 SUB SWAP1 REVERT JUMPDEST DUP1 DUP1 PUSH1 0x1 ADD SWAP2 POP POP PUSH2 0xD4F JUMP JUMPDEST POP PUSH2 0xE25 PUSH2 0x13C8 JUMP JUMPDEST DUP3 DUP2 PUSH0 ADD SWAP1 PUSH20 0xFFFFFFFFFFFFFFFFFFFFFFFFFFFFFFFFFFFFFFFF AND SWAP1 DUP2 PUSH20 0xFFFFFFFFFFFFFFFFFFFFFFFFFFFFFFFFFFFFFFFF AND DUP2 MSTORE POP POP DUP2 PUSH1 0x3 ADD SLOAD DUP2 PUSH1 0x20 ADD DUP2 DUP2 MSTORE POP POP PUSH0 DUP2 PUSH1 0x40 ADD SWAP1 ISZERO ISZERO SWAP1 DUP2 ISZERO ISZERO DUP2 MSTORE POP POP PUSH0 DUP2 PUSH1 0x60 ADD SWAP1 ISZERO ISZERO SWAP1 DUP2 ISZERO ISZERO DUP2 MSTORE POP POP PUSH0 DUP2 PUSH1 0x80 ADD SWAP1 ISZERO ISZERO SWAP1 DUP2 ISZERO ISZERO DUP2 MSTORE POP POP DUP2 PUSH1 0xA ADD DUP2 SWAP1 DUP1 PUSH1 0x1 DUP2 SLOAD ADD DUP1 DUP3 SSTORE DUP1 SWAP2 POP POP PUSH1 0x1 SWAP1 SUB SWAP1 PUSH0 MSTORE PUSH1 0x20 PUSH0 KECCAK256 SWAP1 PUSH1 0x3 MUL ADD PUSH0 SWAP1 SWAP2 SWAP1 SWAP2 SWAP1 SWAP2 POP PUSH0 DUP3 ADD MLOAD DUP2 PUSH0 ADD PUSH0 PUSH2 0x100 EXP DUP2 SLOAD DUP2 PUSH20 0xFFFFFFFFFFFFFFFFFFFFFFFFFFFFFFFFFFFFFFFF MUL NOT AND SWAP1 DUP4 PUSH20 0xFFFFFFFFFFFFFFFFFFFFFFFFFFFFFFFFFFFFFFFF AND MUL OR SWAP1 SSTORE POP PUSH1 0x20 DUP3 ADD MLOAD DUP2 PUSH1 0x1 ADD SSTORE PUSH1 0x40 DUP3 ADD MLOAD DUP2 PUSH1 0x2 ADD PUSH0 PUSH2 0x100 EXP DUP2 SLOAD DUP2 PUSH1 0xFF MUL NOT AND SWAP1 DUP4 ISZERO ISZERO MUL OR SWAP1 SSTORE POP PUSH1 0x60 DUP3 ADD MLOAD DUP2 PUSH1 0x2 ADD PUSH1 0x1 PUSH2 0x100 EXP DUP2 SLOAD DUP2 PUSH1 0xFF MUL NOT AND SWAP1 DUP4 ISZERO ISZERO MUL OR SWAP1 SSTORE POP PUSH1 0x80 DUP3 ADD MLOAD DUP2 PUSH1 0x2 ADD PUSH1 0x2 PUSH2 0x100 EXP DUP2 SLOAD DUP2 PUSH1 0xFF MUL NOT AND SWAP1 DUP4 ISZERO ISZERO MUL OR SWAP1 SSTORE POP POP POP POP POP POP POP JUMP JUMPDEST PUSH0 DUP1 PUSH0 DUP5 DUP2 MSTORE PUSH1 0x20 ADD SWAP1 DUP2 MSTORE PUSH1 0x20 ADD PUSH0 KECCAK256 SWAP1 POP DUP2 PUSH20 0xFFFFFFFFFFFFFFFFFFFFFFFFFFFFFFFFFFFFFFFF AND DUP2 PUSH0 ADD PUSH0 SWAP1 SLOAD SWAP1 PUSH2 0x100 EXP SWAP1 DIV PUSH20 0xFFFFFFFFFFFFFFFFFFFFFFFFFFFFFFFFFFFFFFFF AND PUSH20 0xFFFFFFFFFFFFFFFFFFFFFFFFFFFFFFFFFFFFFFFF AND EQ PUSH2 0x101D JUMPI PUSH1 0x40 MLOAD PUSH32 0x8C379A000000000000000000000000000000000000000000000000000000000 DUP2 MSTORE PUSH1 0x4 ADD PUSH2 0x1014 SWAP1 PUSH2 0x25CB JUMP JUMPDEST PUSH1 0x40 MLOAD DUP1 SWAP2 SUB SWAP1 REVERT JUMPDEST DUP1 PUSH1 0x3 ADD SLOAD DUP2 PUSH1 0x8 ADD SLOAD LT ISZERO PUSH2 0x1068 JUMPI PUSH1 0x40 MLOAD PUSH32 0x8C379A000000000000000000000000000000000000000000000000000000000 DUP2 MSTORE PUSH1 0x4 ADD PUSH2 0x105F SWAP1 PUSH2 0x19FF JUMP JUMPDEST PUSH1 0x40 MLOAD DUP1 SWAP2 SUB SWAP1 REVERT JUMPDEST PUSH0 DUP1 JUMPDEST DUP3 PUSH1 0xA ADD DUP1 SLOAD SWAP1 POP TIMESTAMP PREVRANDAO PUSH1 0x40 MLOAD PUSH1 0x20 ADD PUSH2 0x1086 SWAP3 SWAP2 SWAP1 PUSH2 0x25E9 JUMP JUMPDEST PUSH1 0x40 MLOAD PUSH1 0x20 DUP2 DUP4 SUB SUB DUP2 MSTORE SWAP1 PUSH1 0x40 MSTORE DUP1 MLOAD SWAP1 PUSH1 0x20 ADD KECCAK256 PUSH0 SHR PUSH2 0x10A8 SWAP2 SWAP1 PUSH2 0x2641 JUMP JUMPDEST SWAP2 POP DUP3 PUSH1 0xA ADD DUP3 DUP2 SLOAD DUP2 LT PUSH2 0x10C0 JUMPI PUSH2 0x10BF PUSH2 0x1A1D JUMP JUMPDEST JUMPDEST SWAP1 PUSH0 MSTORE PUSH1 0x20 PUSH0 KECCAK256 SWAP1 PUSH1 0x3 MUL ADD PUSH0 ADD PUSH0 SWAP1 SLOAD SWAP1 PUSH2 0x100 EXP SWAP1 DIV PUSH20 0xFFFFFFFFFFFFFFFFFFFFFFFFFFFFFFFFFFFFFFFF AND SWAP1 POP DUP3 PUSH1 0xA ADD DUP3 DUP2 SLOAD DUP2 LT PUSH2 0x1106 JUMPI PUSH2 0x1105 PUSH2 0x1A1D JUMP JUMPDEST JUMPDEST SWAP1 PUSH0 MSTORE PUSH1 0x20 PUSH0 KECCAK256 SWAP1 PUSH1 0x3 MUL ADD PUSH1 0x2 ADD PUSH1 0x2 SWAP1 SLOAD SWAP1 PUSH2 0x100 EXP SWAP1 DIV PUSH1 0xFF AND PUSH2 0x106B JUMPI PUSH1 0x1 DUP4 PUSH1 0xA ADD DUP4 DUP2 SLOAD DUP2 LT PUSH2 0x113F JUMPI PUSH2 0x113E PUSH2 0x1A1D JUMP JUMPDEST JUMPDEST SWAP1 PUSH0 MSTORE PUSH1 0x20 PUSH0 KECCAK256 SWAP1 PUSH1 0x3 MUL ADD PUSH1 0x2 ADD PUSH1 0x2 PUSH2 0x100 EXP DUP2 SLOAD DUP2 PUSH1 0xFF MUL NOT AND SWAP1 DUP4 ISZERO ISZERO MUL OR SWAP1 SSTORE POP PUSH1 0x1 DUP4 PUSH1 0xA ADD DUP4 DUP2 SLOAD DUP2 LT PUSH2 0x117D JUMPI PUSH2 0x117C PUSH2 0x1A1D JUMP JUMPDEST JUMPDEST SWAP1 PUSH0 MSTORE PUSH1 0x20 PUSH0 KECCAK256 SWAP1 PUSH1 0x3 MUL ADD PUSH1 0x2 ADD PUSH1 0x1 PUSH2 0x100 EXP DUP2 SLOAD DUP2 PUSH1 0xFF MUL NOT AND SWAP1 DUP4 ISZERO ISZERO MUL OR SWAP1 SSTORE POP DUP5 PUSH32 0xB12F018ADAFF7C028F285765AB08880DE52E3DDB667174AB75D2346D08D5108A DUP3 PUSH1 0x40 MLOAD PUSH2 0x11D3 SWAP2 SWAP1 PUSH2 0x2671 JUMP JUMPDEST PUSH1 0x40 MLOAD DUP1 SWAP2 SUB SWAP1 LOG2 POP POP POP POP POP JUMP JUMPDEST PUSH0 DUP1 PUSH0 DUP1 PUSH0 DUP1 DUP7 DUP2 MSTORE PUSH1 0x20 ADD SWAP1 DUP2 MSTORE PUSH1 0x20 ADD PUSH0 KECCAK256 SWAP1 POP PUSH0 PUSH20 0xFFFFFFFFFFFFFFFFFFFFFFFFFFFFFFFFFFFFFFFF AND DUP2 PUSH0 ADD PUSH0 SWAP1 SLOAD SWAP1 PUSH2 0x100 EXP SWAP1 DIV PUSH20 0xFFFFFFFFFFFFFFFFFFFFFFFFFFFFFFFFFFFFFFFF AND PUSH20 0xFFFFFFFFFFFFFFFFFFFFFFFFFFFFFFFFFFFFFFFF AND SUB PUSH2 0x1288 JUMPI PUSH1 0x40 MLOAD PUSH32 0x8C379A000000000000000000000000000000000000000000000000000000000 DUP2 MSTORE PUSH1 0x4 ADD PUSH2 0x127F SWAP1 PUSH2 0x2447 JUMP JUMPDEST PUSH1 0x40 MLOAD DUP1 SWAP2 SUB SWAP1 REVERT JUMPDEST DUP1 PUSH1 0x2 ADD SLOAD DUP2 PUSH1 0x1 ADD SLOAD DUP3 PUSH1 0xA ADD DUP1 SLOAD SWAP1 POP SWAP4 POP SWAP4 POP SWAP4 POP POP SWAP2 SWAP4 SWAP1 SWAP3 POP JUMP JUMPDEST PUSH0 DUP1 PUSH0 DUP1 PUSH0 PUSH1 0x60 PUSH0 DUP1 PUSH0 DUP1 PUSH0 DUP1 DUP13 DUP2 MSTORE PUSH1 0x20 ADD SWAP1 DUP2 MSTORE PUSH1 0x20 ADD PUSH0 KECCAK256 SWAP1 POP DUP1 PUSH0 ADD PUSH0 SWAP1 SLOAD SWAP1 PUSH2 0x100 EXP SWAP1 DIV PUSH20 0xFFFFFFFFFFFFFFFFFFFFFFFFFFFFFFFFFFFFFFFF AND DUP2 PUSH1 0x1 ADD SLOAD DUP3 PUSH1 0x2 ADD SLOAD DUP4 PUSH1 0x3 ADD SLOAD DUP5 PUSH1 0x5 ADD SLOAD DUP6 PUSH1 0x6 ADD DUP7 PUSH1 0x7 ADD SLOAD DUP8 PUSH1 0xA ADD DUP1 SLOAD SWAP1 POP DUP9 PUSH1 0x9 ADD PUSH0 SWAP1 SLOAD SWAP1 PUSH2 0x100 EXP SWAP1 DIV PUSH1 0xFF AND DUP4 DUP1 SLOAD PUSH2 0x132A SWAP1 PUSH2 0x1EDA JUMP JUMPDEST DUP1 PUSH1 0x1F ADD PUSH1 0x20 DUP1 SWAP2 DIV MUL PUSH1 0x20 ADD PUSH1 0x40 MLOAD SWAP1 DUP2 ADD PUSH1 0x40 MSTORE DUP1 SWAP3 SWAP2 SWAP1 DUP2 DUP2 MSTORE PUSH1 0x20 ADD DUP3 DUP1 SLOAD PUSH2 0x1356 SWAP1 PUSH2 0x1EDA JUMP JUMPDEST DUP1 ISZERO PUSH2 0x13A1 JUMPI DUP1 PUSH1 0x1F LT PUSH2 0x1378 JUMPI PUSH2 0x100 DUP1 DUP4 SLOAD DIV MUL DUP4 MSTORE SWAP2 PUSH1 0x20 ADD SWAP2 PUSH2 0x13A1 JUMP JUMPDEST DUP3 ADD SWAP2 SWAP1 PUSH0 MSTORE PUSH1 0x20 PUSH0 KECCAK256 SWAP1 JUMPDEST DUP2 SLOAD DUP2 MSTORE SWAP1 PUSH1 0x1 ADD SWAP1 PUSH1 0x20 ADD DUP1 DUP4 GT PUSH2 0x1384 JUMPI DUP3 SWAP1 SUB PUSH1 0x1F AND DUP3 ADD SWAP2 JUMPDEST POP POP POP POP POP SWAP4 POP SWAP10 POP SWAP10 POP SWAP10 POP SWAP10 POP SWAP10 POP SWAP10 POP SWAP10 POP SWAP10 POP SWAP10 POP POP SWAP2 SWAP4 SWAP6 SWAP8 SWAP10 SWAP1 SWAP3 SWAP5 SWAP7 SWAP9 POP JUMP JUMPDEST PUSH1 0x40 MLOAD DUP1 PUSH1 0xA0 ADD PUSH1 0x40 MSTORE DUP1 PUSH0 PUSH20 0xFFFFFFFFFFFFFFFFFFFFFFFFFFFFFFFFFFFFFFFF AND DUP2 MSTORE PUSH1 0x20 ADD PUSH0 DUP2 MSTORE PUSH1 0x20 ADD PUSH0 ISZERO ISZERO DUP2 MSTORE PUSH1 0x20 ADD PUSH0 ISZERO ISZERO DUP2 MSTORE PUSH1 0x20 ADD PUSH0 ISZERO ISZERO DUP2 MSTORE POP SWAP1 JUMP JUMPDEST PUSH0 PUSH1 0x40 MLOAD SWAP1 POP SWAP1 JUMP JUMPDEST PUSH0 DUP1 REVERT JUMPDEST PUSH0 DUP1 REVERT JUMPDEST PUSH0 DUP2 SWAP1 POP SWAP2 SWAP1 POP JUMP JUMPDEST PUSH2 0x1431 DUP2 PUSH2 0x141F JUMP JUMPDEST DUP2 EQ PUSH2 0x143B JUMPI PUSH0 DUP1 REVERT JUMPDEST POP JUMP JUMPDEST PUSH0 DUP2 CALLDATALOAD SWAP1 POP PUSH2 0x144C DUP2 PUSH2 0x1428 JUMP JUMPDEST SWAP3 SWAP2 POP POP JUMP JUMPDEST PUSH0 PUSH1 0x20 DUP3 DUP5 SUB SLT ISZERO PUSH2 0x1467 JUMPI PUSH2 0x1466 PUSH2 0x1417 JUMP JUMPDEST JUMPDEST PUSH0 PUSH2 0x1474 DUP5 DUP3 DUP6 ADD PUSH2 0x143E JUMP JUMPDEST SWAP2 POP POP SWAP3 SWAP2 POP POP JUMP JUMPDEST PUSH0 PUSH20 0xFFFFFFFFFFFFFFFFFFFFFFFFFFFFFFFFFFFFFFFF DUP3 AND SWAP1 POP SWAP2 SWAP1 POP JUMP JUMPDEST PUSH0 PUSH2 0x14A6 DUP3 PUSH2 0x147D JUMP JUMPDEST SWAP1 POP SWAP2 SWAP1 POP JUMP JUMPDEST PUSH2 0x14B6 DUP2 PUSH2 0x149C JUMP JUMPDEST DUP2 EQ PUSH2 0x14C0 JUMPI PUSH0 DUP1 REVERT JUMPDEST POP JUMP JUMPDEST PUSH0 DUP2 CALLDATALOAD SWAP1 POP PUSH2 0x14D1 DUP2 PUSH2 0x14AD JUMP JUMPDEST SWAP3 SWAP2 POP POP JUMP JUMPDEST PUSH0 DUP2 SWAP1 POP SWAP2 SWAP1 POP JUMP JUMPDEST PUSH2 0x14E9 DUP2 PUSH2 0x14D7 JUMP JUMPDEST DUP2 EQ PUSH2 0x14F3 JUMPI PUSH0 DUP1 REVERT JUMPDEST POP JUMP JUMPDEST PUSH0 DUP2 CALLDATALOAD SWAP1 POP PUSH2 0x1504 DUP2 PUSH2 0x14E0 JUMP JUMPDEST SWAP3 SWAP2 POP POP JUMP JUMPDEST PUSH0 DUP1 REVERT JUMPDEST PUSH0 DUP1 REVERT JUMPDEST PUSH0 PUSH1 0x1F NOT PUSH1 0x1F DUP4 ADD AND SWAP1 POP SWAP2 SWAP1 POP JUMP JUMPDEST PUSH32 0x4E487B7100000000000000000000000000000000000000000000000000000000 PUSH0 MSTORE PUSH1 0x41 PUSH1 0x4 MSTORE PUSH1 0x24 PUSH0 REVERT JUMPDEST PUSH2 0x1558 DUP3 PUSH2 0x1512 JUMP JUMPDEST DUP2 ADD DUP2 DUP2 LT PUSH8 0xFFFFFFFFFFFFFFFF DUP3 GT OR ISZERO PUSH2 0x1577 JUMPI PUSH2 0x1576 PUSH2 0x1522 JUMP JUMPDEST JUMPDEST DUP1 PUSH1 0x40 MSTORE POP POP POP JUMP JUMPDEST PUSH0 PUSH2 0x1589 PUSH2 0x140E JUMP JUMPDEST SWAP1 POP PUSH2 0x1595 DUP3 DUP3 PUSH2 0x154F JUMP JUMPDEST SWAP2 SWAP1 POP JUMP JUMPDEST PUSH0 PUSH8 0xFFFFFFFFFFFFFFFF DUP3 GT ISZERO PUSH2 0x15B4 JUMPI PUSH2 0x15B3 PUSH2 0x1522 JUMP JUMPDEST JUMPDEST PUSH2 0x15BD DUP3 PUSH2 0x1512 JUMP JUMPDEST SWAP1 POP PUSH1 0x20 DUP2 ADD SWAP1 POP SWAP2 SWAP1 POP JUMP JUMPDEST DUP3 DUP2 DUP4 CALLDATACOPY PUSH0 DUP4 DUP4 ADD MSTORE POP POP POP JUMP JUMPDEST PUSH0 PUSH2 0x15EA PUSH2 0x15E5 DUP5 PUSH2 0x159A JUMP JUMPDEST PUSH2 0x1580 JUMP JUMPDEST SWAP1 POP DUP3 DUP2 MSTORE PUSH1 0x20 DUP2 ADD DUP5 DUP5 DUP5 ADD GT ISZERO PUSH2 0x1606 JUMPI PUSH2 0x1605 PUSH2 0x150E JUMP JUMPDEST JUMPDEST PUSH2 0x1611 DUP5 DUP3 DUP6 PUSH2 0x15CA JUMP JUMPDEST POP SWAP4 SWAP3 POP POP POP JUMP JUMPDEST PUSH0 DUP3 PUSH1 0x1F DUP4 ADD SLT PUSH2 0x162D JUMPI PUSH2 0x162C PUSH2 0x150A JUMP JUMPDEST JUMPDEST DUP2 CALLDATALOAD PUSH2 0x163D DUP5 DUP3 PUSH1 0x20 DUP7 ADD PUSH2 0x15D8 JUMP JUMPDEST SWAP2 POP POP SWAP3 SWAP2 POP POP JUMP JUMPDEST PUSH0 DUP1 PUSH0 DUP1 PUSH0 PUSH1 0xA0 DUP7 DUP9 SUB SLT ISZERO PUSH2 0x165F JUMPI PUSH2 0x165E PUSH2 0x1417 JUMP JUMPDEST JUMPDEST PUSH0 PUSH2 0x166C DUP9 DUP3 DUP10 ADD PUSH2 0x14C3 JUMP JUMPDEST SWAP6 POP POP PUSH1 0x20 PUSH2 0x167D DUP9 DUP3 DUP10 ADD PUSH2 0x14F6 JUMP JUMPDEST SWAP5 POP POP PUSH1 0x40 PUSH2 0x168E DUP9 DUP3 DUP10 ADD PUSH2 0x14F6 JUMP JUMPDEST SWAP4 POP POP PUSH1 0x60 DUP7 ADD CALLDATALOAD PUSH8 0xFFFFFFFFFFFFFFFF DUP2 GT ISZERO PUSH2 0x16AF JUMPI PUSH2 0x16AE PUSH2 0x141B JUMP JUMPDEST JUMPDEST PUSH2 0x16BB DUP9 DUP3 DUP10 ADD PUSH2 0x1619 JUMP JUMPDEST SWAP3 POP POP PUSH1 0x80 PUSH2 0x16CC DUP9 DUP3 DUP10 ADD PUSH2 0x14F6 JUMP JUMPDEST SWAP2 POP POP SWAP3 SWAP6 POP SWAP3 SWAP6 SWAP1 SWAP4 POP JUMP JUMPDEST PUSH2 0x16E2 DUP2 PUSH2 0x141F JUMP JUMPDEST DUP3 MSTORE POP POP JUMP JUMPDEST PUSH0 PUSH1 0x20 DUP3 ADD SWAP1 POP PUSH2 0x16FB PUSH0 DUP4 ADD DUP5 PUSH2 0x16D9 JUMP JUMPDEST SWAP3 SWAP2 POP POP JUMP JUMPDEST PUSH2 0x170A DUP2 PUSH2 0x149C JUMP JUMPDEST DUP3 MSTORE POP POP JUMP JUMPDEST PUSH2 0x1719 DUP2 PUSH2 0x14D7 JUMP JUMPDEST DUP3 MSTORE POP POP JUMP JUMPDEST PUSH0 DUP2 MLOAD SWAP1 POP SWAP2 SWAP1 POP JUMP JUMPDEST PUSH0 DUP3 DUP3 MSTORE PUSH1 0x20 DUP3 ADD SWAP1 POP SWAP3 SWAP2 POP POP JUMP JUMPDEST DUP3 DUP2 DUP4 MCOPY PUSH0 DUP4 DUP4 ADD MSTORE POP POP POP JUMP JUMPDEST PUSH0 PUSH2 0x1751 DUP3 PUSH2 0x171F JUMP JUMPDEST PUSH2 0x175B DUP2 DUP6 PUSH2 0x1729 JUMP JUMPDEST SWAP4 POP PUSH2 0x176B DUP2 DUP6 PUSH1 0x20 DUP7 ADD PUSH2 0x1739 JUMP JUMPDEST PUSH2 0x1774 DUP2 PUSH2 0x1512 JUMP JUMPDEST DUP5 ADD SWAP2 POP POP SWAP3 SWAP2 POP POP JUMP JUMPDEST PUSH0 DUP2 ISZERO ISZERO SWAP1 POP SWAP2 SWAP1 POP JUMP JUMPDEST PUSH2 0x1793 DUP2 PUSH2 0x177F JUMP JUMPDEST DUP3 MSTORE POP POP JUMP JUMPDEST PUSH0 PUSH2 0x140 DUP3 ADD SWAP1 POP PUSH2 0x17AD PUSH0 DUP4 ADD DUP14 PUSH2 0x1701 JUMP JUMPDEST PUSH2 0x17BA PUSH1 0x20 DUP4 ADD DUP13 PUSH2 0x1710 JUMP JUMPDEST PUSH2 0x17C7 PUSH1 0x40 DUP4 ADD DUP12 PUSH2 0x1710 JUMP JUMPDEST PUSH2 0x17D4 PUSH1 0x60 DUP4 ADD DUP11 PUSH2 0x1710 JUMP JUMPDEST PUSH2 0x17E1 PUSH1 0x80 DUP4 ADD DUP10 PUSH2 0x1710 JUMP JUMPDEST PUSH2 0x17EE PUSH1 0xA0 DUP4 ADD DUP9 PUSH2 0x1710 JUMP JUMPDEST DUP2 DUP2 SUB PUSH1 0xC0 DUP4 ADD MSTORE PUSH2 0x1800 DUP2 DUP8 PUSH2 0x1747 JUMP JUMPDEST SWAP1 POP PUSH2 0x180F PUSH1 0xE0 DUP4 ADD DUP7 PUSH2 0x1710 JUMP JUMPDEST PUSH2 0x181D PUSH2 0x100 DUP4 ADD DUP6 PUSH2 0x1710 JUMP JUMPDEST PUSH2 0x182B PUSH2 0x120 DUP4 ADD DUP5 PUSH2 0x178A JUMP JUMPDEST SWAP12 SWAP11 POP POP POP POP POP POP POP POP POP POP POP JUMP JUMPDEST PUSH0 DUP1 PUSH0 PUSH1 0x60 DUP5 DUP7 SUB SLT ISZERO PUSH2 0x1851 JUMPI PUSH2 0x1850 PUSH2 0x1417 JUMP JUMPDEST JUMPDEST PUSH0 PUSH2 0x185E DUP7 DUP3 DUP8 ADD PUSH2 0x143E JUMP JUMPDEST SWAP4 POP POP PUSH1 0x20 PUSH2 0x186F DUP7 DUP3 DUP8 ADD PUSH2 0x14C3 JUMP JUMPDEST SWAP3 POP POP PUSH1 0x40 PUSH2 0x1880 DUP7 DUP3 DUP8 ADD PUSH2 0x14F6 JUMP JUMPDEST SWAP2 POP POP SWAP3 POP SWAP3 POP SWAP3 JUMP JUMPDEST PUSH0 DUP1 PUSH1 0x40 DUP4 DUP6 SUB SLT ISZERO PUSH2 0x18A0 JUMPI PUSH2 0x189F PUSH2 0x1417 JUMP JUMPDEST JUMPDEST PUSH0 PUSH2 0x18AD DUP6 DUP3 DUP7 ADD PUSH2 0x143E JUMP JUMPDEST SWAP3 POP POP PUSH1 0x20 PUSH2 0x18BE DUP6 DUP3 DUP7 ADD PUSH2 0x14C3 JUMP JUMPDEST SWAP2 POP POP SWAP3 POP SWAP3 SWAP1 POP JUMP JUMPDEST PUSH0 PUSH1 0x60 DUP3 ADD SWAP1 POP PUSH2 0x18DB PUSH0 DUP4 ADD DUP7 PUSH2 0x1710 JUMP JUMPDEST PUSH2 0x18E8 PUSH1 0x20 DUP4 ADD DUP6 PUSH2 0x1710 JUMP JUMPDEST PUSH2 0x18F5 PUSH1 0x40 DUP4 ADD DUP5 PUSH2 0x1710 JUMP JUMPDEST SWAP5 SWAP4 POP POP POP POP JUMP JUMPDEST PUSH0 PUSH2 0x120 DUP3 ADD SWAP1 POP PUSH2 0x1911 PUSH0 DUP4 ADD DUP13 PUSH2 0x1701 JUMP JUMPDEST PUSH2 0x191E PUSH1 0x20 DUP4 ADD DUP12 PUSH2 0x1710 JUMP JUMPDEST PUSH2 0x192B PUSH1 0x40 DUP4 ADD DUP11 PUSH2 0x1710 JUMP JUMPDEST PUSH2 0x1938 PUSH1 0x60 DUP4 ADD DUP10 PUSH2 0x1710 JUMP JUMPDEST PUSH2 0x1945 PUSH1 0x80 DUP4 ADD DUP9 PUSH2 0x1710 JUMP JUMPDEST DUP2 DUP2 SUB PUSH1 0xA0 DUP4 ADD MSTORE PUSH2 0x1957 DUP2 DUP8 PUSH2 0x1747 JUMP JUMPDEST SWAP1 POP PUSH2 0x1966 PUSH1 0xC0 DUP4 ADD DUP7 PUSH2 0x1710 JUMP JUMPDEST PUSH2 0x1973 PUSH1 0xE0 DUP4 ADD DUP6 PUSH2 0x1710 JUMP JUMPDEST PUSH2 0x1981 PUSH2 0x100 DUP4 ADD DUP5 PUSH2 0x178A JUMP JUMPDEST SWAP11 SWAP10 POP POP POP POP POP POP POP POP POP POP JUMP JUMPDEST PUSH32 0x4E6F20736520686120616C63616E7A61646F20656C206D6F6E746F20746F7461 PUSH0 DUP3 ADD MSTORE PUSH32 0x6C00000000000000000000000000000000000000000000000000000000000000 PUSH1 0x20 DUP3 ADD MSTORE POP JUMP JUMPDEST PUSH0 PUSH2 0x19E9 PUSH1 0x21 DUP4 PUSH2 0x1729 JUMP JUMPDEST SWAP2 POP PUSH2 0x19F4 DUP3 PUSH2 0x198F JUMP JUMPDEST PUSH1 0x40 DUP3 ADD SWAP1 POP SWAP2 SWAP1 POP JUMP JUMPDEST PUSH0 PUSH1 0x20 DUP3 ADD SWAP1 POP DUP2 DUP2 SUB PUSH0 DUP4 ADD MSTORE PUSH2 0x1A16 DUP2 PUSH2 0x19DD JUMP JUMPDEST SWAP1 POP SWAP2 SWAP1 POP JUMP JUMPDEST PUSH32 0x4E487B7100000000000000000000000000000000000000000000000000000000 PUSH0 MSTORE PUSH1 0x32 PUSH1 0x4 MSTORE PUSH1 0x24 PUSH0 REVERT JUMPDEST PUSH32 0x456C206A7565676F206861207465726D696E61646F2E204C612073616C612068 PUSH0 DUP3 ADD MSTORE PUSH32 0x61207369646F20636572726164612E0000000000000000000000000000000000 PUSH1 0x20 DUP3 ADD MSTORE POP JUMP JUMPDEST PUSH0 PUSH2 0x1AA4 PUSH1 0x2F DUP4 PUSH2 0x1729 JUMP JUMPDEST SWAP2 POP PUSH2 0x1AAF DUP3 PUSH2 0x1A4A JUMP JUMPDEST PUSH1 0x40 DUP3 ADD SWAP1 POP SWAP2 SWAP1 POP JUMP JUMPDEST PUSH0 PUSH1 0x20 DUP3 ADD SWAP1 POP DUP2 DUP2 SUB PUSH0 DUP4 ADD MSTORE PUSH2 0x1AD1 DUP2 PUSH2 0x1A98 JUMP JUMPDEST SWAP1 POP SWAP2 SWAP1 POP JUMP JUMPDEST PUSH32 0x4E487B7100000000000000000000000000000000000000000000000000000000 PUSH0 MSTORE PUSH1 0x11 PUSH1 0x4 MSTORE PUSH1 0x24 PUSH0 REVERT JUMPDEST PUSH0 PUSH2 0x1B0F DUP3 PUSH2 0x14D7 JUMP JUMPDEST SWAP2 POP PUSH32 0xFFFFFFFFFFFFFFFFFFFFFFFFFFFFFFFFFFFFFFFFFFFFFFFFFFFFFFFFFFFFFFFF DUP3 SUB PUSH2 0x1B41 JUMPI PUSH2 0x1B40 PUSH2 0x1AD8 JUMP JUMPDEST JUMPDEST PUSH1 0x1 DUP3 ADD SWAP1 POP SWAP2 SWAP1 POP JUMP JUMPDEST PUSH32 0x4465626520686162657220616C206D656E6F732032207061727469636970616E PUSH0 DUP3 ADD MSTORE PUSH32 0x7465730000000000000000000000000000000000000000000000000000000000 PUSH1 0x20 DUP3 ADD MSTORE POP JUMP JUMPDEST PUSH0 PUSH2 0x1BA6 PUSH1 0x23 DUP4 PUSH2 0x1729 JUMP JUMPDEST SWAP2 POP PUSH2 0x1BB1 DUP3 PUSH2 0x1B4C JUMP JUMPDEST PUSH1 0x40 DUP3 ADD SWAP1 POP SWAP2 SWAP1 POP JUMP JUMPDEST PUSH0 PUSH1 0x20 DUP3 ADD SWAP1 POP DUP2 DUP2 SUB PUSH0 DUP4 ADD MSTORE PUSH2 0x1BD3 DUP2 PUSH2 0x1B9A JUMP JUMPDEST SWAP1 POP SWAP2 SWAP1 POP JUMP JUMPDEST PUSH32 0x456C206D6F6E746F206465206C6120636F6E747269627563696F6E2064656265 PUSH0 DUP3 ADD MSTORE PUSH32 0x20736572206D61796F7220612030000000000000000000000000000000000000 PUSH1 0x20 DUP3 ADD MSTORE POP JUMP JUMPDEST PUSH0 PUSH2 0x1C34 PUSH1 0x2E DUP4 PUSH2 0x1729 JUMP JUMPDEST SWAP2 POP PUSH2 0x1C3F DUP3 PUSH2 0x1BDA JUMP JUMPDEST PUSH1 0x40 DUP3 ADD SWAP1 POP SWAP2 SWAP1 POP JUMP JUMPDEST PUSH0 PUSH1 0x20 DUP3 ADD SWAP1 POP DUP2 DUP2 SUB PUSH0 DUP4 ADD MSTORE PUSH2 0x1C61 DUP2 PUSH2 0x1C28 JUMP JUMPDEST SWAP1 POP SWAP2 SWAP1 POP JUMP JUMPDEST PUSH0 DUP2 SWAP1 POP SWAP3 SWAP2 POP POP JUMP JUMPDEST PUSH32 0x72756C6574610000000000000000000000000000000000000000000000000000 PUSH0 DUP3 ADD MSTORE POP JUMP JUMPDEST PUSH0 PUSH2 0x1CA6 PUSH1 0x6 DUP4 PUSH2 0x1C68 JUMP JUMPDEST SWAP2 POP PUSH2 0x1CB1 DUP3 PUSH2 0x1C72 JUMP JUMPDEST PUSH1 0x6 DUP3 ADD SWAP1 POP SWAP2 SWAP1 POP JUMP JUMPDEST PUSH0 PUSH2 0x1CC6 DUP3 PUSH2 0x1C9A JUMP JUMPDEST SWAP2 POP DUP2 SWAP1 POP SWAP2 SWAP1 POP JUMP JUMPDEST PUSH0 PUSH2 0x1CDA DUP3 PUSH2 0x171F JUMP JUMPDEST PUSH2 0x1CE4 DUP2 DUP6 PUSH2 0x1C68 JUMP JUMPDEST SWAP4 POP PUSH2 0x1CF4 DUP2 DUP6 PUSH1 0x20 DUP7 ADD PUSH2 0x1739 JUMP JUMPDEST DUP1 DUP5 ADD SWAP2 POP POP SWAP3 SWAP2 POP POP JUMP JUMPDEST PUSH0 PUSH2 0x1D0B DUP3 DUP5 PUSH2 0x1CD0 JUMP JUMPDEST SWAP2 POP DUP2 SWAP1 POP SWAP3 SWAP2 POP POP JUMP JUMPDEST PUSH32 0x656E6C6973746172000000000000000000000000000000000000000000000000 PUSH0 DUP3 ADD MSTORE POP JUMP JUMPDEST PUSH0 PUSH2 0x1D4A PUSH1 0x8 DUP4 PUSH2 0x1C68 JUMP JUMPDEST SWAP2 POP PUSH2 0x1D55 DUP3 PUSH2 0x1D16 JUMP JUMPDEST PUSH1 0x8 DUP3 ADD SWAP1 POP SWAP2 SWAP1 POP JUMP JUMPDEST PUSH0 PUSH2 0x1D6A DUP3 PUSH2 0x1D3E JUMP JUMPDEST SWAP2 POP DUP2 SWAP1 POP SWAP2 SWAP1 POP JUMP JUMPDEST PUSH32 0x5469706F20646520646973747269627563696F6E20696E76616C69646F000000 PUSH0 DUP3 ADD MSTORE POP JUMP JUMPDEST PUSH0 PUSH2 0x1DA8 PUSH1 0x1D DUP4 PUSH2 0x1729 JUMP JUMPDEST SWAP2 POP PUSH2 0x1DB3 DUP3 PUSH2 0x1D74 JUMP JUMPDEST PUSH1 0x20 DUP3 ADD SWAP1 POP SWAP2 SWAP1 POP JUMP JUMPDEST PUSH0 PUSH1 0x20 DUP3 ADD SWAP1 POP DUP2 DUP2 SUB PUSH0 DUP4 ADD MSTORE PUSH2 0x1DD5 DUP2 PUSH2 0x1D9C JUMP JUMPDEST SWAP1 POP SWAP2 SWAP1 POP JUMP JUMPDEST PUSH0 DUP2 PUSH1 0x60 SHL SWAP1 POP SWAP2 SWAP1 POP JUMP JUMPDEST PUSH0 PUSH2 0x1DF2 DUP3 PUSH2 0x1DDC JUMP JUMPDEST SWAP1 POP SWAP2 SWAP1 POP JUMP JUMPDEST PUSH0 PUSH2 0x1E03 DUP3 PUSH2 0x1DE8 JUMP JUMPDEST SWAP1 POP SWAP2 SWAP1 POP JUMP JUMPDEST PUSH2 0x1E1B PUSH2 0x1E16 DUP3 PUSH2 0x149C JUMP JUMPDEST PUSH2 0x1DF9 JUMP JUMPDEST DUP3 MSTORE POP POP JUMP JUMPDEST PUSH0 DUP2 SWAP1 POP SWAP2 SWAP1 POP JUMP JUMPDEST PUSH2 0x1E3B PUSH2 0x1E36 DUP3 PUSH2 0x14D7 JUMP JUMPDEST PUSH2 0x1E21 JUMP JUMPDEST DUP3 MSTORE POP POP JUMP JUMPDEST PUSH0 PUSH2 0x1E4C DUP3 DUP6 PUSH2 0x1E0A JUMP JUMPDEST PUSH1 0x14 DUP3 ADD SWAP2 POP PUSH2 0x1E5C DUP3 DUP5 PUSH2 0x1E2A JUMP JUMPDEST PUSH1 0x20 DUP3 ADD SWAP2 POP DUP2 SWAP1 POP SWAP4 SWAP3 POP POP POP JUMP JUMPDEST PUSH0 PUSH2 0x1E76 DUP3 PUSH2 0x14D7 JUMP JUMPDEST SWAP2 POP PUSH2 0x1E81 DUP4 PUSH2 0x14D7 JUMP JUMPDEST SWAP3 POP DUP3 DUP3 MUL PUSH2 0x1E8F DUP2 PUSH2 0x14D7 JUMP JUMPDEST SWAP2 POP DUP3 DUP3 DIV DUP5 EQ DUP4 ISZERO OR PUSH2 0x1EA6 JUMPI PUSH2 0x1EA5 PUSH2 0x1AD8 JUMP JUMPDEST JUMPDEST POP SWAP3 SWAP2 POP POP JUMP JUMPDEST PUSH32 0x4E487B7100000000000000000000000000000000000000000000000000000000 PUSH0 MSTORE PUSH1 0x22 PUSH1 0x4 MSTORE PUSH1 0x24 PUSH0 REVERT JUMPDEST PUSH0 PUSH1 0x2 DUP3 DIV SWAP1 POP PUSH1 0x1 DUP3 AND DUP1 PUSH2 0x1EF1 JUMPI PUSH1 0x7F DUP3 AND SWAP2 POP JUMPDEST PUSH1 0x20 DUP3 LT DUP2 SUB PUSH2 0x1F04 JUMPI PUSH2 0x1F03 PUSH2 0x1EAD JUMP JUMPDEST JUMPDEST POP SWAP2 SWAP1 POP JUMP JUMPDEST PUSH0 DUP2 SWAP1 POP DUP2 PUSH0 MSTORE PUSH1 0x20 PUSH0 KECCAK256 SWAP1 POP SWAP2 SWAP1 POP JUMP JUMPDEST PUSH0 PUSH1 0x20 PUSH1 0x1F DUP4 ADD DIV SWAP1 POP SWAP2 SWAP1 POP JUMP JUMPDEST PUSH0 DUP3 DUP3 SHL SWAP1 POP SWAP3 SWAP2 POP POP JUMP JUMPDEST PUSH0 PUSH1 0x8 DUP4 MUL PUSH2 0x1F66 PUSH32 0xFFFFFFFFFFFFFFFFFFFFFFFFFFFFFFFFFFFFFFFFFFFFFFFFFFFFFFFFFFFFFFFF DUP3 PUSH2 0x1F2B JUMP JUMPDEST PUSH2 0x1F70 DUP7 DUP4 PUSH2 0x1F2B JUMP JUMPDEST SWAP6 POP DUP1 NOT DUP5 AND SWAP4 POP DUP1 DUP7 AND DUP5 OR SWAP3 POP POP POP SWAP4 SWAP3 POP POP POP JUMP JUMPDEST PUSH0 DUP2 SWAP1 POP SWAP2 SWAP1 POP JUMP JUMPDEST PUSH0 PUSH2 0x1FAB PUSH2 0x1FA6 PUSH2 0x1FA1 DUP5 PUSH2 0x14D7 JUMP JUMPDEST PUSH2 0x1F88 JUMP JUMPDEST PUSH2 0x14D7 JUMP JUMPDEST SWAP1 POP SWAP2 SWAP1 POP JUMP JUMPDEST PUSH0 DUP2 SWAP1 POP SWAP2 SWAP1 POP JUMP JUMPDEST PUSH2 0x1FC4 DUP4 PUSH2 0x1F91 JUMP JUMPDEST PUSH2 0x1FD8 PUSH2 0x1FD0 DUP3 PUSH2 0x1FB2 JUMP JUMPDEST DUP5 DUP5 SLOAD PUSH2 0x1F37 JUMP JUMPDEST DUP3 SSTORE POP POP POP POP JUMP JUMPDEST PUSH0 SWAP1 JUMP JUMPDEST PUSH2 0x1FEC PUSH2 0x1FE0 JUMP JUMPDEST PUSH2 0x1FF7 DUP2 DUP5 DUP5 PUSH2 0x1FBB JUMP JUMPDEST POP POP POP JUMP JUMPDEST JUMPDEST DUP2 DUP2 LT ISZERO PUSH2 0x201A JUMPI PUSH2 0x200F PUSH0 DUP3 PUSH2 0x1FE4 JUMP JUMPDEST PUSH1 0x1 DUP2 ADD SWAP1 POP PUSH2 0x1FFD JUMP JUMPDEST POP POP JUMP JUMPDEST PUSH1 0x1F DUP3 GT ISZERO PUSH2 0x205F JUMPI PUSH2 0x2030 DUP2 PUSH2 0x1F0A JUMP JUMPDEST PUSH2 0x2039 DUP5 PUSH2 0x1F1C JUMP JUMPDEST DUP2 ADD PUSH1 0x20 DUP6 LT ISZERO PUSH2 0x2048 JUMPI DUP2 SWAP1 POP JUMPDEST PUSH2 0x205C PUSH2 0x2054 DUP6 PUSH2 0x1F1C JUMP JUMPDEST DUP4 ADD DUP3 PUSH2 0x1FFC JUMP JUMPDEST POP POP JUMPDEST POP POP POP JUMP JUMPDEST PUSH0 DUP3 DUP3 SHR SWAP1 POP SWAP3 SWAP2 POP POP JUMP JUMPDEST PUSH0 PUSH2 0x207F PUSH0 NOT DUP5 PUSH1 0x8 MUL PUSH2 0x2064 JUMP JUMPDEST NOT DUP1 DUP4 AND SWAP2 POP POP SWAP3 SWAP2 POP POP JUMP JUMPDEST PUSH0 PUSH2 0x2097 DUP4 DUP4 PUSH2 0x2070 JUMP JUMPDEST SWAP2 POP DUP3 PUSH1 0x2 MUL DUP3 OR SWAP1 POP SWAP3 SWAP2 POP POP JUMP JUMPDEST PUSH2 0x20B0 DUP3 PUSH2 0x171F JUMP JUMPDEST PUSH8 0xFFFFFFFFFFFFFFFF DUP2 GT ISZERO PUSH2 0x20C9 JUMPI PUSH2 0x20C8 PUSH2 0x1522 JUMP JUMPDEST JUMPDEST PUSH2 0x20D3 DUP3 SLOAD PUSH2 0x1EDA JUMP JUMPDEST PUSH2 0x20DE DUP3 DUP3 DUP6 PUSH2 0x201E JUMP JUMPDEST PUSH0 PUSH1 0x20 SWAP1 POP PUSH1 0x1F DUP4 GT PUSH1 0x1 DUP2 EQ PUSH2 0x210F JUMPI PUSH0 DUP5 ISZERO PUSH2 0x20FD JUMPI DUP3 DUP8 ADD MLOAD SWAP1 POP JUMPDEST PUSH2 0x2107 DUP6 DUP3 PUSH2 0x208C JUMP JUMPDEST DUP7 SSTORE POP PUSH2 0x216E JUMP JUMPDEST PUSH1 0x1F NOT DUP5 AND PUSH2 0x211D DUP7 PUSH2 0x1F0A JUMP JUMPDEST PUSH0 JUMPDEST DUP3 DUP2 LT ISZERO PUSH2 0x2144 JUMPI DUP5 DUP10 ADD MLOAD DUP3 SSTORE PUSH1 0x1 DUP3 ADD SWAP2 POP PUSH1 0x20 DUP6 ADD SWAP5 POP PUSH1 0x20 DUP2 ADD SWAP1 POP PUSH2 0x211F JUMP JUMPDEST DUP7 DUP4 LT ISZERO PUSH2 0x2161 JUMPI DUP5 DUP10 ADD MLOAD PUSH2 0x215D PUSH1 0x1F DUP10 AND DUP3 PUSH2 0x2070 JUMP JUMPDEST DUP4 SSTORE POP JUMPDEST PUSH1 0x1 PUSH1 0x2 DUP9 MUL ADD DUP9 SSTORE POP POP POP JUMPDEST POP POP POP POP POP POP JUMP JUMPDEST PUSH32 0x4C612073616C6120657374612063657272616461000000000000000000000000 PUSH0 DUP3 ADD MSTORE POP JUMP JUMPDEST PUSH0 PUSH2 0x21AA PUSH1 0x14 DUP4 PUSH2 0x1729 JUMP JUMPDEST SWAP2 POP PUSH2 0x21B5 DUP3 PUSH2 0x2176 JUMP JUMPDEST PUSH1 0x20 DUP3 ADD SWAP1 POP SWAP2 SWAP1 POP JUMP JUMPDEST PUSH0 PUSH1 0x20 DUP3 ADD SWAP1 POP DUP2 DUP2 SUB PUSH0 DUP4 ADD MSTORE PUSH2 0x21D7 DUP2 PUSH2 0x219E JUMP JUMPDEST SWAP1 POP SWAP2 SWAP1 POP JUMP JUMPDEST PUSH32 0x4E6F20746F646F73206C6F73207061727469636970616E746573207365206861 PUSH0 DUP3 ADD MSTORE PUSH32 0x6E20756E69646F2061756E000000000000000000000000000000000000000000 PUSH1 0x20 DUP3 ADD MSTORE POP JUMP JUMPDEST PUSH0 PUSH2 0x2238 PUSH1 0x2B DUP4 PUSH2 0x1729 JUMP JUMPDEST SWAP2 POP PUSH2 0x2243 DUP3 PUSH2 0x21DE JUMP JUMPDEST PUSH1 0x40 DUP3 ADD SWAP1 POP SWAP2 SWAP1 POP JUMP JUMPDEST PUSH0 PUSH1 0x20 DUP3 ADD SWAP1 POP DUP2 DUP2 SUB PUSH0 DUP4 ADD MSTORE PUSH2 0x2265 DUP2 PUSH2 0x222C JUMP JUMPDEST SWAP1 POP SWAP2 SWAP1 POP JUMP JUMPDEST PUSH32 0x456C206D6F6E746F2061706F727461646F20657320696E636F72726563746F00 PUSH0 DUP3 ADD MSTORE POP JUMP JUMPDEST PUSH0 PUSH2 0x22A0 PUSH1 0x1F DUP4 PUSH2 0x1729 JUMP JUMPDEST SWAP2 POP PUSH2 0x22AB DUP3 PUSH2 0x226C JUMP JUMPDEST PUSH1 0x20 DUP3 ADD SWAP1 POP SWAP2 SWAP1 POP JUMP JUMPDEST PUSH0 PUSH1 0x20 DUP3 ADD SWAP1 POP DUP2 DUP2 SUB PUSH0 DUP4 ADD MSTORE PUSH2 0x22CD DUP2 PUSH2 0x2294 JUMP JUMPDEST SWAP1 POP SWAP2 SWAP1 POP JUMP JUMPDEST PUSH32 0x546F646173206C617320726F6E6461732068616E2066696E616C697A61646F00 PUSH0 DUP3 ADD MSTORE POP JUMP JUMPDEST PUSH0 PUSH2 0x2308 PUSH1 0x1F DUP4 PUSH2 0x1729 JUMP JUMPDEST SWAP2 POP PUSH2 0x2313 DUP3 PUSH2 0x22D4 JUMP JUMPDEST PUSH1 0x20 DUP3 ADD SWAP1 POP SWAP2 SWAP1 POP JUMP JUMPDEST PUSH0 PUSH1 0x20 DUP3 ADD SWAP1 POP DUP2 DUP2 SUB PUSH0 DUP4 ADD MSTORE PUSH2 0x2335 DUP2 PUSH2 0x22FC JUMP JUMPDEST SWAP1 POP SWAP2 SWAP1 POP JUMP JUMPDEST PUSH32 0x4E6F2065726573207061727469636970616E746520646520657374612073616C PUSH0 DUP3 ADD MSTORE PUSH32 0x6100000000000000000000000000000000000000000000000000000000000000 PUSH1 0x20 DUP3 ADD MSTORE POP JUMP JUMPDEST PUSH0 PUSH2 0x2396 PUSH1 0x21 DUP4 PUSH2 0x1729 JUMP JUMPDEST SWAP2 POP PUSH2 0x23A1 DUP3 PUSH2 0x233C JUMP JUMPDEST PUSH1 0x40 DUP3 ADD SWAP1 POP SWAP2 SWAP1 POP JUMP JUMPDEST PUSH0 PUSH1 0x20 DUP3 ADD SWAP1 POP DUP2 DUP2 SUB PUSH0 DUP4 ADD MSTORE PUSH2 0x23C3 DUP2 PUSH2 0x238A JUMP JUMPDEST SWAP1 POP SWAP2 SWAP1 POP JUMP JUMPDEST PUSH0 PUSH2 0x23D4 DUP3 PUSH2 0x14D7 JUMP JUMPDEST SWAP2 POP PUSH2 0x23DF DUP4 PUSH2 0x14D7 JUMP JUMPDEST SWAP3 POP DUP3 DUP3 ADD SWAP1 POP DUP1 DUP3 GT ISZERO PUSH2 0x23F7 JUMPI PUSH2 0x23F6 PUSH2 0x1AD8 JUMP JUMPDEST JUMPDEST SWAP3 SWAP2 POP POP JUMP JUMPDEST PUSH32 0x4C612073616C61206E6F20657869737465000000000000000000000000000000 PUSH0 DUP3 ADD MSTORE POP JUMP JUMPDEST PUSH0 PUSH2 0x2431 PUSH1 0x11 DUP4 PUSH2 0x1729 JUMP JUMPDEST SWAP2 POP PUSH2 0x243C DUP3 PUSH2 0x23FD JUMP JUMPDEST PUSH1 0x20 DUP3 ADD SWAP1 POP SWAP2 SWAP1 POP JUMP JUMPDEST PUSH0 PUSH1 0x20 DUP3 ADD SWAP1 POP DUP2 DUP2 SUB PUSH0 DUP4 ADD MSTORE PUSH2 0x245E DUP2 PUSH2 0x2425 JUMP JUMPDEST SWAP1 POP SWAP2 SWAP1 POP JUMP JUMPDEST PUSH32 0x4C612073616C612065737461206C6C656E610000000000000000000000000000 PUSH0 DUP3 ADD MSTORE POP JUMP JUMPDEST PUSH0 PUSH2 0x2499 PUSH1 0x12 DUP4 PUSH2 0x1729 JUMP JUMPDEST SWAP2 POP PUSH2 0x24A4 DUP3 PUSH2 0x2465 JUMP JUMPDEST PUSH1 0x20 DUP3 ADD SWAP1 POP SWAP2 SWAP1 POP JUMP JUMPDEST PUSH0 PUSH1 0x20 DUP3 ADD SWAP1 POP DUP2 DUP2 SUB PUSH0 DUP4 ADD MSTORE PUSH2 0x24C6 DUP2 PUSH2 0x248D JUMP JUMPDEST SWAP1 POP SWAP2 SWAP1 POP JUMP JUMPDEST PUSH32 0x45737465207061727469636970616E7465207961206573746120656E206C6120 PUSH0 DUP3 ADD MSTORE PUSH32 0x73616C6100000000000000000000000000000000000000000000000000000000 PUSH1 0x20 DUP3 ADD MSTORE POP JUMP JUMPDEST PUSH0 PUSH2 0x2527 PUSH1 0x24 DUP4 PUSH2 0x1729 JUMP JUMPDEST SWAP2 POP PUSH2 0x2532 DUP3 PUSH2 0x24CD JUMP JUMPDEST PUSH1 0x40 DUP3 ADD SWAP1 POP SWAP2 SWAP1 POP JUMP JUMPDEST PUSH0 PUSH1 0x20 DUP3 ADD SWAP1 POP DUP2 DUP2 SUB PUSH0 DUP4 ADD MSTORE PUSH2 0x2554 DUP2 PUSH2 0x251B JUMP JUMPDEST SWAP1 POP SWAP2 SWAP1 POP JUMP JUMPDEST PUSH32 0x536F6C6F20656C20616E66697472696F6E207075656465207265616C697A6172 PUSH0 DUP3 ADD MSTORE PUSH32 0x20656C20736F7274656F00000000000000000000000000000000000000000000 PUSH1 0x20 DUP3 ADD MSTORE POP JUMP JUMPDEST PUSH0 PUSH2 0x25B5 PUSH1 0x2A DUP4 PUSH2 0x1729 JUMP JUMPDEST SWAP2 POP PUSH2 0x25C0 DUP3 PUSH2 0x255B JUMP JUMPDEST PUSH1 0x40 DUP3 ADD SWAP1 POP SWAP2 SWAP1 POP JUMP JUMPDEST PUSH0 PUSH1 0x20 DUP3 ADD SWAP1 POP DUP2 DUP2 SUB PUSH0 DUP4 ADD MSTORE PUSH2 0x25E2 DUP2 PUSH2 0x25A9 JUMP JUMPDEST SWAP1 POP SWAP2 SWAP1 POP JUMP JUMPDEST PUSH0 PUSH2 0x25F4 DUP3 DUP6 PUSH2 0x1E2A JUMP JUMPDEST PUSH1 0x20 DUP3 ADD SWAP2 POP PUSH2 0x2604 DUP3 DUP5 PUSH2 0x1E2A JUMP JUMPDEST PUSH1 0x20 DUP3 ADD SWAP2 POP DUP2 SWAP1 POP SWAP4 SWAP3 POP POP POP JUMP JUMPDEST PUSH32 0x4E487B7100000000000000000000000000000000000000000000000000000000 PUSH0 MSTORE PUSH1 0x12 PUSH1 0x4 MSTORE PUSH1 0x24 PUSH0 REVERT JUMPDEST PUSH0 PUSH2 0x264B DUP3 PUSH2 0x14D7 JUMP JUMPDEST SWAP2 POP PUSH2 0x2656 DUP4 PUSH2 0x14D7 JUMP JUMPDEST SWAP3 POP DUP3 PUSH2 0x2666 JUMPI PUSH2 0x2665 PUSH2 0x2614 JUMP JUMPDEST JUMPDEST DUP3 DUP3 MOD SWAP1 POP SWAP3 SWAP2 POP POP JUMP JUMPDEST PUSH0 PUSH1 0x20 DUP3 ADD SWAP1 POP PUSH2 0x2684 PUSH0 DUP4 ADD DUP5 PUSH2 0x1701 JUMP JUMPDEST SWAP3 SWAP2 POP POP JUMP INVALID LOG2 PUSH5 0x6970667358 0x22 SLT KECCAK256 BLOBHASH MLOAD 0xDC 0xD1 ADDRESS 0xD8 DUP6 0xE8 0xC0 0xBB 0xC3 SWAP4 SELFBALANCE PUSH6 0x7C7D00978837 SWAP9 SWAP1 TIMESTAMP JUMPI SWAP1 DUP8 XOR 0x1F EXP MSTORE TLOAD PUSH0 PUSH5 0x736F6C6343 STOP ADDMOD BYTE STOP CALLER "
				},
				"gasEstimates": {
					"creation": {
						"codeDepositCost": "1984000",
						"executionCost": "2096",
						"totalCost": "1986096"
					},
					"external": {
						"buscarSala(bytes32)": "infinite",
						"contribuir(bytes32,address,uint256)": "infinite",
						"crearSala(address,uint256,uint256,string,uint256)": "infinite",
						"enviarMontoTotal(bytes32)": "infinite",
						"obtenerDetallesSala(bytes32)": "infinite",
						"realizarSorteo(bytes32,address)": "infinite",
						"salas(bytes32)": "infinite",
						"unirseASala(bytes32,address)": "infinite"
					}
				},
				"methodIdentifiers": {
					"buscarSala(bytes32)": "c4aa4183",
					"contribuir(bytes32,address,uint256)": "92c6e203",
					"crearSala(address,uint256,uint256,string,uint256)": "8d22ed65",
					"enviarMontoTotal(bytes32)": "59266711",
					"obtenerDetallesSala(bytes32)": "f89e7257",
					"realizarSorteo(bytes32,address)": "c37cea5f",
					"salas(bytes32)": "90b7a18b",
					"unirseASala(bytes32,address)": "b3d5a928"
				}
			},
			"storageLayout": {
				"storage": [
					{
						"astId": 42,
						"contract": "contracts/pasanaku.sol:Pasanaku",
						"label": "salas",
						"offset": 0,
						"slot": "0",
						"type": "t_mapping(t_bytes32,t_struct(Sala)37_storage)"
					}
				],
				"types": {
					"t_address": {
						"encoding": "inplace",
						"label": "address",
						"numberOfBytes": "20"
					},
					"t_array(t_struct(Participante)12_storage)dyn_storage": {
						"base": "t_struct(Participante)12_storage",
						"encoding": "dynamic_array",
						"label": "struct Pasanaku.Participante[]",
						"numberOfBytes": "32"
					},
					"t_bool": {
						"encoding": "inplace",
						"label": "bool",
						"numberOfBytes": "1"
					},
					"t_bytes32": {
						"encoding": "inplace",
						"label": "bytes32",
						"numberOfBytes": "32"
					},
					"t_mapping(t_bytes32,t_struct(Sala)37_storage)": {
						"encoding": "mapping",
						"key": "t_bytes32",
						"label": "mapping(bytes32 => struct Pasanaku.Sala)",
						"numberOfBytes": "32",
						"value": "t_struct(Sala)37_storage"
					},
					"t_string_storage": {
						"encoding": "bytes",
						"label": "string",
						"numberOfBytes": "32"
					},
					"t_struct(Participante)12_storage": {
						"encoding": "inplace",
						"label": "struct Pasanaku.Participante",
						"members": [
							{
								"astId": 3,
								"contract": "contracts/pasanaku.sol:Pasanaku",
								"label": "wallet",
								"offset": 0,
								"slot": "0",
								"type": "t_address"
							},
							{
								"astId": 5,
								"contract": "contracts/pasanaku.sol:Pasanaku",
								"label": "montoARecibir",
								"offset": 0,
								"slot": "1",
								"type": "t_uint256"
							},
							{
								"astId": 7,
								"contract": "contracts/pasanaku.sol:Pasanaku",
								"label": "haRecibidoFondos",
								"offset": 0,
								"slot": "2",
								"type": "t_bool"
							},
							{
								"astId": 9,
								"contract": "contracts/pasanaku.sol:Pasanaku",
								"label": "esSuTurno",
								"offset": 1,
								"slot": "2",
								"type": "t_bool"
							},
							{
								"astId": 11,
								"contract": "contracts/pasanaku.sol:Pasanaku",
								"label": "esBeneficiario",
								"offset": 2,
								"slot": "2",
								"type": "t_bool"
							}
						],
						"numberOfBytes": "96"
					},
					"t_struct(Sala)37_storage": {
						"encoding": "inplace",
						"label": "struct Pasanaku.Sala",
						"members": [
							{
								"astId": 14,
								"contract": "contracts/pasanaku.sol:Pasanaku",
								"label": "anfitrion",
								"offset": 0,
								"slot": "0",
								"type": "t_address"
							},
							{
								"astId": 16,
								"contract": "contracts/pasanaku.sol:Pasanaku",
								"label": "cantidadParticipantes",
								"offset": 0,
								"slot": "1",
								"type": "t_uint256"
							},
							{
								"astId": 18,
								"contract": "contracts/pasanaku.sol:Pasanaku",
								"label": "montoAportarPorRonda",
								"offset": 0,
								"slot": "2",
								"type": "t_uint256"
							},
							{
								"astId": 20,
								"contract": "contracts/pasanaku.sol:Pasanaku",
								"label": "montoTotalARedibirPorRonda",
								"offset": 0,
								"slot": "3",
								"type": "t_uint256"
							},
							{
								"astId": 22,
								"contract": "contracts/pasanaku.sol:Pasanaku",
								"label": "numeroDeRondas",
								"offset": 0,
								"slot": "4",
								"type": "t_uint256"
							},
							{
								"astId": 24,
								"contract": "contracts/pasanaku.sol:Pasanaku",
								"label": "rondaActual",
								"offset": 0,
								"slot": "5",
								"type": "t_uint256"
							},
							{
								"astId": 26,
								"contract": "contracts/pasanaku.sol:Pasanaku",
								"label": "tipoDeReparticion",
								"offset": 0,
								"slot": "6",
								"type": "t_string_storage"
							},
							{
								"astId": 28,
								"contract": "contracts/pasanaku.sol:Pasanaku",
								"label": "diasParaEnviarAporte",
								"offset": 0,
								"slot": "7",
								"type": "t_uint256"
							},
							{
								"astId": 30,
								"contract": "contracts/pasanaku.sol:Pasanaku",
								"label": "pozoTotal",
								"offset": 0,
								"slot": "8",
								"type": "t_uint256"
							},
							{
								"astId": 32,
								"contract": "contracts/pasanaku.sol:Pasanaku",
								"label": "salaActiva",
								"offset": 0,
								"slot": "9",
								"type": "t_bool"
							},
							{
								"astId": 36,
								"contract": "contracts/pasanaku.sol:Pasanaku",
								"label": "participantes",
								"offset": 0,
								"slot": "10",
								"type": "t_array(t_struct(Participante)12_storage)dyn_storage"
							}
						],
						"numberOfBytes": "352"
					},
					"t_uint256": {
						"encoding": "inplace",
						"label": "uint256",
						"numberOfBytes": "32"
					}
				}
			},
			"userdoc": {
				"kind": "user",
				"methods": {},
				"version": 1
			}
		}
	}
}