{
	"contracts/naku.sol": {
		"Pasanaku": {
			"abi": [
				{
					"inputs": [
						{
							"internalType": "string",
							"name": "hashId",
							"type": "string"
						},
						{
							"internalType": "address",
							"name": "wallet",
							"type": "address"
						},
						{
							"internalType": "uint256",
							"name": "numTurno",
							"type": "uint256"
						}
					],
					"name": "agregarParticipante",
					"outputs": [],
					"stateMutability": "nonpayable",
					"type": "function"
				},
				{
					"inputs": [
						{
							"internalType": "string",
							"name": "hashId",
							"type": "string"
						},
						{
							"internalType": "uint256",
							"name": "montoAportar",
							"type": "uint256"
						},
						{
							"internalType": "uint256",
							"name": "numeroRondas",
							"type": "uint256"
						},
						{
							"internalType": "uint256",
							"name": "fechaInicio",
							"type": "uint256"
						},
						{
							"internalType": "uint256",
							"name": "fechaFin",
							"type": "uint256"
						},
						{
							"internalType": "uint256",
							"name": "periodo",
							"type": "uint256"
						}
					],
					"name": "crearSala",
					"outputs": [],
					"stateMutability": "nonpayable",
					"type": "function"
				},
				{
					"inputs": [
						{
							"internalType": "uint256",
							"name": "",
							"type": "uint256"
						}
					],
					"name": "listaSalas",
					"outputs": [
						{
							"internalType": "string",
							"name": "",
							"type": "string"
						}
					],
					"stateMutability": "view",
					"type": "function"
				},
				{
					"inputs": [
						{
							"internalType": "string",
							"name": "hashId",
							"type": "string"
						}
					],
					"name": "obtenerHistorialTransacciones",
					"outputs": [
						{
							"components": [
								{
									"internalType": "address",
									"name": "from",
									"type": "address"
								},
								{
									"internalType": "address",
									"name": "to",
									"type": "address"
								},
								{
									"internalType": "uint256",
									"name": "monto",
									"type": "uint256"
								},
								{
									"internalType": "uint256",
									"name": "fecha",
									"type": "uint256"
								}
							],
							"internalType": "struct Pasanaku.Transaccion[]",
							"name": "",
							"type": "tuple[]"
						}
					],
					"stateMutability": "view",
					"type": "function"
				},
				{
					"inputs": [
						{
							"internalType": "string",
							"name": "hashId",
							"type": "string"
						}
					],
					"name": "obtenerParticipantes",
					"outputs": [
						{
							"components": [
								{
									"internalType": "address",
									"name": "wallet",
									"type": "address"
								},
								{
									"internalType": "uint256",
									"name": "numTurno",
									"type": "uint256"
								},
								{
									"internalType": "bool",
									"name": "haRecibido",
									"type": "bool"
								}
							],
							"internalType": "struct Pasanaku.Participante[]",
							"name": "",
							"type": "tuple[]"
						}
					],
					"stateMutability": "view",
					"type": "function"
				},
				{
					"inputs": [
						{
							"internalType": "string",
							"name": "hashId",
							"type": "string"
						}
					],
					"name": "obtenerSala",
					"outputs": [
						{
							"internalType": "address",
							"name": "anfitrion",
							"type": "address"
						},
						{
							"internalType": "uint256",
							"name": "montoAportar",
							"type": "uint256"
						},
						{
							"internalType": "uint256",
							"name": "montoTotalAportar",
							"type": "uint256"
						},
						{
							"internalType": "uint256",
							"name": "numeroRondas",
							"type": "uint256"
						},
						{
							"internalType": "uint256",
							"name": "rondaActual",
							"type": "uint256"
						},
						{
							"internalType": "uint256",
							"name": "fechaInicio",
							"type": "uint256"
						},
						{
							"internalType": "uint256",
							"name": "fechaFin",
							"type": "uint256"
						},
						{
							"internalType": "uint256",
							"name": "periodo",
							"type": "uint256"
						}
					],
					"stateMutability": "view",
					"type": "function"
				},
				{
					"inputs": [
						{
							"internalType": "string",
							"name": "hashId",
							"type": "string"
						},
						{
							"internalType": "address",
							"name": "walletParticipante",
							"type": "address"
						}
					],
					"name": "realizarEnvio",
					"outputs": [],
					"stateMutability": "nonpayable",
					"type": "function"
				},
				{
					"inputs": [
						{
							"internalType": "string",
							"name": "hashId",
							"type": "string"
						},
						{
							"internalType": "address",
							"name": "from",
							"type": "address"
						},
						{
							"internalType": "address",
							"name": "to",
							"type": "address"
						},
						{
							"internalType": "uint256",
							"name": "monto",
							"type": "uint256"
						}
					],
					"name": "registrarTransaccion",
					"outputs": [],
					"stateMutability": "nonpayable",
					"type": "function"
				}
			],
			"devdoc": {
				"kind": "dev",
				"methods": {},
				"version": 1
			},
			"evm": {
				"assembly": "    /* \"contracts/naku.sol\":60:5344  contract Pasanaku {... */\n  mstore(0x40, 0x80)\n  callvalue\n  dup1\n  iszero\n  tag_1\n  jumpi\n  revert(0x00, 0x00)\ntag_1:\n  pop\n  dataSize(sub_0)\n  dup1\n  dataOffset(sub_0)\n  0x00\n  codecopy\n  0x00\n  return\nstop\n\nsub_0: assembly {\n        /* \"contracts/naku.sol\":60:5344  contract Pasanaku {... */\n      mstore(0x40, 0x80)\n      callvalue\n      dup1\n      iszero\n      tag_1\n      jumpi\n      revert(0x00, 0x00)\n    tag_1:\n      pop\n      jumpi(tag_2, lt(calldatasize, 0x04))\n      shr(0xe0, calldataload(0x00))\n      dup1\n      0x6afe5b71\n      gt\n      tag_11\n      jumpi\n      dup1\n      0x6afe5b71\n      eq\n      tag_7\n      jumpi\n      dup1\n      0x869cc9ab\n      eq\n      tag_8\n      jumpi\n      dup1\n      0x9916495a\n      eq\n      tag_9\n      jumpi\n      dup1\n      0xcdb2000d\n      eq\n      tag_10\n      jumpi\n      jump(tag_2)\n    tag_11:\n      dup1\n      0x1295ac46\n      eq\n      tag_3\n      jumpi\n      dup1\n      0x2d74801d\n      eq\n      tag_4\n      jumpi\n      dup1\n      0x34b79858\n      eq\n      tag_5\n      jumpi\n      dup1\n      0x5e096a89\n      eq\n      tag_6\n      jumpi\n    tag_2:\n      revert(0x00, 0x00)\n        /* \"contracts/naku.sol\":2743:4028  function realizarEnvio(string memory hashId, address walletParticipante) public {... */\n    tag_3:\n      tag_12\n      0x04\n      dup1\n      calldatasize\n      sub\n      dup2\n      add\n      swap1\n      tag_13\n      swap2\n      swap1\n      tag_14\n      jump\t// in\n    tag_13:\n      tag_15\n      jump\t// in\n    tag_12:\n      stop\n        /* \"contracts/naku.sol\":4821:5041  function obtenerParticipantes(string memory hashId) public view returns (Participante[] memory) {... */\n    tag_4:\n      tag_16\n      0x04\n      dup1\n      calldatasize\n      sub\n      dup2\n      add\n      swap1\n      tag_17\n      swap2\n      swap1\n      tag_18\n      jump\t// in\n    tag_17:\n      tag_19\n      jump\t// in\n    tag_16:\n      mload(0x40)\n      tag_20\n      swap2\n      swap1\n      tag_21\n      jump\t// in\n    tag_20:\n      mload(0x40)\n      dup1\n      swap2\n      sub\n      swap1\n      return\n        /* \"contracts/naku.sol\":823:849  string[] public listaSalas */\n    tag_5:\n      tag_22\n      0x04\n      dup1\n      calldatasize\n      sub\n      dup2\n      add\n      swap1\n      tag_23\n      swap2\n      swap1\n      tag_24\n      jump\t// in\n    tag_23:\n      tag_25\n      jump\t// in\n    tag_22:\n      mload(0x40)\n      tag_26\n      swap2\n      swap1\n      tag_27\n      jump\t// in\n    tag_26:\n      mload(0x40)\n      dup1\n      swap2\n      sub\n      swap1\n      return\n        /* \"contracts/naku.sol\":5104:5341  function obtenerHistorialTransacciones(string memory hashId) public view returns (Transaccion[] memory) {... */\n    tag_6:\n      tag_28\n      0x04\n      dup1\n      calldatasize\n      sub\n      dup2\n      add\n      swap1\n      tag_29\n      swap2\n      swap1\n      tag_18\n      jump\t// in\n    tag_29:\n      tag_30\n      jump\t// in\n    tag_28:\n      mload(0x40)\n      tag_31\n      swap2\n      swap1\n      tag_32\n      jump\t// in\n    tag_31:\n      mload(0x40)\n      dup1\n      swap2\n      sub\n      swap1\n      return\n        /* \"contracts/naku.sol\":887:1625  function crearSala(... */\n    tag_7:\n      tag_33\n      0x04\n      dup1\n      calldatasize\n      sub\n      dup2\n      add\n      swap1\n      tag_34\n      swap2\n      swap1\n      tag_35\n      jump\t// in\n    tag_34:\n      tag_36\n      jump\t// in\n    tag_33:\n      stop\n        /* \"contracts/naku.sol\":1676:2079  function agregarParticipante(... */\n    tag_8:\n      tag_37\n      0x04\n      dup1\n      calldatasize\n      sub\n      dup2\n      add\n      swap1\n      tag_38\n      swap2\n      swap1\n      tag_39\n      jump\t// in\n    tag_38:\n      tag_40\n      jump\t// in\n    tag_37:\n      stop\n        /* \"contracts/naku.sol\":2132:2683  function registrarTransaccion(... */\n    tag_9:\n      tag_41\n      0x04\n      dup1\n      calldatasize\n      sub\n      dup2\n      add\n      swap1\n      tag_42\n      swap2\n      swap1\n      tag_43\n      jump\t// in\n    tag_42:\n      tag_44\n      jump\t// in\n    tag_41:\n      stop\n        /* \"contracts/naku.sol\":4083:4771  function obtenerSala(string memory hashId) public view returns (... */\n    tag_10:\n      tag_45\n      0x04\n      dup1\n      calldatasize\n      sub\n      dup2\n      add\n      swap1\n      tag_46\n      swap2\n      swap1\n      tag_18\n      jump\t// in\n    tag_46:\n      tag_47\n      jump\t// in\n    tag_45:\n      mload(0x40)\n      tag_48\n      swap9\n      swap8\n      swap7\n      swap6\n      swap5\n      swap4\n      swap3\n      swap2\n      swap1\n      tag_49\n      jump\t// in\n    tag_48:\n      mload(0x40)\n      dup1\n      swap2\n      sub\n      swap1\n      return\n        /* \"contracts/naku.sol\":2743:4028  function realizarEnvio(string memory hashId, address walletParticipante) public {... */\n    tag_15:\n        /* \"contracts/naku.sol\":2871:2872  0 */\n      0x00\n        /* \"contracts/naku.sol\":2842:2847  salas */\n      0x00\n        /* \"contracts/naku.sol\":2848:2854  hashId */\n      dup4\n        /* \"contracts/naku.sol\":2842:2855  salas[hashId] */\n      mload(0x40)\n      tag_51\n      swap2\n      swap1\n      tag_52\n      jump\t// in\n    tag_51:\n      swap1\n      dup2\n      mstore\n      0x20\n      add\n      mload(0x40)\n      dup1\n      swap2\n      sub\n      swap1\n      keccak256\n        /* \"contracts/naku.sol\":2842:2868  salas[hashId].montoAportar */\n      0x02\n      add\n      sload\n        /* \"contracts/naku.sol\":2842:2872  salas[hashId].montoAportar > 0 */\n      gt\n        /* \"contracts/naku.sol\":2834:2894  require(salas[hashId].montoAportar > 0, \"La sala no existe\") */\n      tag_53\n      jumpi\n      mload(0x40)\n      0x08c379a000000000000000000000000000000000000000000000000000000000\n      dup2\n      mstore\n      0x04\n      add\n      tag_54\n      swap1\n      tag_55\n      jump\t// in\n    tag_54:\n      mload(0x40)\n      dup1\n      swap2\n      sub\n      swap1\n      revert\n    tag_53:\n        /* \"contracts/naku.sol\":2907:2924  Sala storage sala */\n      0x00\n        /* \"contracts/naku.sol\":2927:2932  salas */\n      0x00\n        /* \"contracts/naku.sol\":2933:2939  hashId */\n      dup4\n        /* \"contracts/naku.sol\":2927:2940  salas[hashId] */\n      mload(0x40)\n      tag_56\n      swap2\n      swap1\n      tag_52\n      jump\t// in\n    tag_56:\n      swap1\n      dup2\n      mstore\n      0x20\n      add\n      mload(0x40)\n      dup1\n      swap2\n      sub\n      swap1\n      keccak256\n        /* \"contracts/naku.sol\":2907:2940  Sala storage sala = salas[hashId] */\n      swap1\n      pop\n        /* \"contracts/naku.sol\":3005:3009  sala */\n      dup1\n        /* \"contracts/naku.sol\":3005:3023  sala.participantes */\n      0x09\n      add\n        /* \"contracts/naku.sol\":3005:3030  sala.participantes.length */\n      dup1\n      sload\n      swap1\n      pop\n        /* \"contracts/naku.sol\":2985:2989  sala */\n      dup2\n        /* \"contracts/naku.sol\":2985:3002  sala.montoAportar */\n      0x02\n      add\n      sload\n        /* \"contracts/naku.sol\":2985:3030  sala.montoAportar * sala.participantes.length */\n      tag_57\n      swap2\n      swap1\n      tag_58\n      jump\t// in\n    tag_57:\n        /* \"contracts/naku.sol\":2959:2963  sala */\n      dup2\n        /* \"contracts/naku.sol\":2959:2981  sala.montoTotalAportar */\n      0x03\n      add\n      sload\n        /* \"contracts/naku.sol\":2959:3030  sala.montoTotalAportar >= sala.montoAportar * sala.participantes.length */\n      lt\n      iszero\n        /* \"contracts/naku.sol\":2951:3069  require(sala.montoTotalAportar >= sala.montoAportar * sala.participantes.length, \"No se ha completado el monto total\") */\n      tag_59\n      jumpi\n      mload(0x40)\n      0x08c379a000000000000000000000000000000000000000000000000000000000\n      dup2\n      mstore\n      0x04\n      add\n      tag_60\n      swap1\n      tag_61\n      jump\t// in\n    tag_60:\n      mload(0x40)\n      dup1\n      swap2\n      sub\n      swap1\n      revert\n    tag_59:\n        /* \"contracts/naku.sol\":3087:3093  uint i */\n      0x00\n        /* \"contracts/naku.sol\":3096:3097  0 */\n      0x00\n        /* \"contracts/naku.sol\":3087:3097  uint i = 0 */\n      swap1\n      pop\n        /* \"contracts/naku.sol\":3082:4021  for (uint i = 0; i < sala.participantes.length; i++) {... */\n    tag_62:\n        /* \"contracts/naku.sol\":3103:3107  sala */\n      dup2\n        /* \"contracts/naku.sol\":3103:3121  sala.participantes */\n      0x09\n      add\n        /* \"contracts/naku.sol\":3103:3128  sala.participantes.length */\n      dup1\n      sload\n      swap1\n      pop\n        /* \"contracts/naku.sol\":3099:3100  i */\n      dup2\n        /* \"contracts/naku.sol\":3099:3128  i < sala.participantes.length */\n      lt\n        /* \"contracts/naku.sol\":3082:4021  for (uint i = 0; i < sala.participantes.length; i++) {... */\n      iszero\n      tag_63\n      jumpi\n        /* \"contracts/naku.sol\":3188:3192  sala */\n      dup2\n        /* \"contracts/naku.sol\":3188:3204  sala.rondaActual */\n      0x05\n      add\n      sload\n        /* \"contracts/naku.sol\":3154:3158  sala */\n      dup3\n        /* \"contracts/naku.sol\":3154:3172  sala.participantes */\n      0x09\n      add\n        /* \"contracts/naku.sol\":3173:3174  i */\n      dup3\n        /* \"contracts/naku.sol\":3154:3175  sala.participantes[i] */\n      dup2\n      sload\n      dup2\n      lt\n      tag_65\n      jumpi\n      tag_66\n      tag_67\n      jump\t// in\n    tag_66:\n    tag_65:\n      swap1\n      0x00\n      mstore\n      keccak256(0x00, 0x20)\n      swap1\n      0x03\n      mul\n      add\n        /* \"contracts/naku.sol\":3154:3184  sala.participantes[i].numTurno */\n      0x01\n      add\n      sload\n        /* \"contracts/naku.sol\":3154:3204  sala.participantes[i].numTurno == sala.rondaActual */\n      eq\n        /* \"contracts/naku.sol\":3154:3241  sala.participantes[i].numTurno == sala.rondaActual && !sala.participantes[i].haRecibido */\n      dup1\n      iszero\n      tag_69\n      jumpi\n      pop\n        /* \"contracts/naku.sol\":3209:3213  sala */\n      dup2\n        /* \"contracts/naku.sol\":3209:3227  sala.participantes */\n      0x09\n      add\n        /* \"contracts/naku.sol\":3228:3229  i */\n      dup2\n        /* \"contracts/naku.sol\":3209:3230  sala.participantes[i] */\n      dup2\n      sload\n      dup2\n      lt\n      tag_70\n      jumpi\n      tag_71\n      tag_67\n      jump\t// in\n    tag_71:\n    tag_70:\n      swap1\n      0x00\n      mstore\n      keccak256(0x00, 0x20)\n      swap1\n      0x03\n      mul\n      add\n        /* \"contracts/naku.sol\":3209:3241  sala.participantes[i].haRecibido */\n      0x02\n      add\n      0x00\n      swap1\n      sload\n      swap1\n      0x0100\n      exp\n      swap1\n      div\n      0xff\n      and\n        /* \"contracts/naku.sol\":3208:3241  !sala.participantes[i].haRecibido */\n      iszero\n        /* \"contracts/naku.sol\":3154:3241  sala.participantes[i].numTurno == sala.rondaActual && !sala.participantes[i].haRecibido */\n    tag_69:\n        /* \"contracts/naku.sol\":3150:4010  if (sala.participantes[i].numTurno == sala.rondaActual && !sala.participantes[i].haRecibido) {... */\n      iszero\n      tag_73\n      jumpi\n        /* \"contracts/naku.sol\":3302:3320  walletParticipante */\n      dup3\n        /* \"contracts/naku.sol\":3270:3320  sala.participantes[i].wallet == walletParticipante */\n      0xffffffffffffffffffffffffffffffffffffffff\n      and\n        /* \"contracts/naku.sol\":3270:3274  sala */\n      dup3\n        /* \"contracts/naku.sol\":3270:3288  sala.participantes */\n      0x09\n      add\n        /* \"contracts/naku.sol\":3289:3290  i */\n      dup3\n        /* \"contracts/naku.sol\":3270:3291  sala.participantes[i] */\n      dup2\n      sload\n      dup2\n      lt\n      tag_74\n      jumpi\n      tag_75\n      tag_67\n      jump\t// in\n    tag_75:\n    tag_74:\n      swap1\n      0x00\n      mstore\n      keccak256(0x00, 0x20)\n      swap1\n      0x03\n      mul\n      add\n        /* \"contracts/naku.sol\":3270:3298  sala.participantes[i].wallet */\n      0x00\n      add\n      0x00\n      swap1\n      sload\n      swap1\n      0x0100\n      exp\n      swap1\n      div\n      0xffffffffffffffffffffffffffffffffffffffff\n      and\n        /* \"contracts/naku.sol\":3270:3320  sala.participantes[i].wallet == walletParticipante */\n      0xffffffffffffffffffffffffffffffffffffffff\n      and\n      eq\n        /* \"contracts/naku.sol\":3262:3372  require(sala.participantes[i].wallet == walletParticipante, \"Wallet no coincide con el participante en turno\") */\n      tag_77\n      jumpi\n      mload(0x40)\n      0x08c379a000000000000000000000000000000000000000000000000000000000\n      dup2\n      mstore\n      0x04\n      add\n      tag_78\n      swap1\n      tag_79\n      jump\t// in\n    tag_78:\n      mload(0x40)\n      dup1\n      swap2\n      sub\n      swap1\n      revert\n    tag_77:\n        /* \"contracts/naku.sol\":3478:3482  sala */\n      dup2\n        /* \"contracts/naku.sol\":3478:3496  sala.participantes */\n      0x09\n      add\n        /* \"contracts/naku.sol\":3497:3498  i */\n      dup2\n        /* \"contracts/naku.sol\":3478:3499  sala.participantes[i] */\n      dup2\n      sload\n      dup2\n      lt\n      tag_80\n      jumpi\n      tag_81\n      tag_67\n      jump\t// in\n    tag_81:\n    tag_80:\n      swap1\n      0x00\n      mstore\n      keccak256(0x00, 0x20)\n      swap1\n      0x03\n      mul\n      add\n        /* \"contracts/naku.sol\":3478:3506  sala.participantes[i].wallet */\n      0x00\n      add\n      0x00\n      swap1\n      sload\n      swap1\n      0x0100\n      exp\n      swap1\n      div\n      0xffffffffffffffffffffffffffffffffffffffff\n      and\n        /* \"contracts/naku.sol\":3470:3516  payable(sala.participantes[i].wallet).transfer */\n      0xffffffffffffffffffffffffffffffffffffffff\n      and\n        /* \"contracts/naku.sol\":3470:3535  payable(sala.participantes[i].wallet).transfer(sala.montoAportar) */\n      0x08fc\n        /* \"contracts/naku.sol\":3517:3521  sala */\n      dup4\n        /* \"contracts/naku.sol\":3517:3534  sala.montoAportar */\n      0x02\n      add\n      sload\n        /* \"contracts/naku.sol\":3470:3535  payable(sala.participantes[i].wallet).transfer(sala.montoAportar) */\n      swap1\n      dup2\n      iszero\n      mul\n      swap1\n      mload(0x40)\n      0x00\n      mload(0x40)\n      dup1\n      dup4\n      sub\n      dup2\n      dup6\n      dup9\n      dup9\n      call\n      swap4\n      pop\n      pop\n      pop\n      pop\n      iszero\n      dup1\n      iszero\n      tag_84\n      jumpi\n      returndatacopy(0x00, 0x00, returndatasize)\n      revert(0x00, returndatasize)\n    tag_84:\n      pop\n        /* \"contracts/naku.sol\":3589:3593  true */\n      0x01\n        /* \"contracts/naku.sol\":3554:3558  sala */\n      dup3\n        /* \"contracts/naku.sol\":3554:3572  sala.participantes */\n      0x09\n      add\n        /* \"contracts/naku.sol\":3573:3574  i */\n      dup3\n        /* \"contracts/naku.sol\":3554:3575  sala.participantes[i] */\n      dup2\n      sload\n      dup2\n      lt\n      tag_85\n      jumpi\n      tag_86\n      tag_67\n      jump\t// in\n    tag_86:\n    tag_85:\n      swap1\n      0x00\n      mstore\n      keccak256(0x00, 0x20)\n      swap1\n      0x03\n      mul\n      add\n        /* \"contracts/naku.sol\":3554:3586  sala.participantes[i].haRecibido */\n      0x02\n      add\n      0x00\n        /* \"contracts/naku.sol\":3554:3593  sala.participantes[i].haRecibido = true */\n      0x0100\n      exp\n      dup2\n      sload\n      dup2\n      0xff\n      mul\n      not\n      and\n      swap1\n      dup4\n      iszero\n      iszero\n      mul\n      or\n      swap1\n      sstore\n      pop\n        /* \"contracts/naku.sol\":3676:3680  sala */\n      dup2\n        /* \"contracts/naku.sol\":3676:3703  sala.historialTransacciones */\n      0x0a\n      add\n        /* \"contracts/naku.sol\":3709:3930  Transaccion({... */\n      mload(0x40)\n      dup1\n      0x80\n      add\n      0x40\n      mstore\n      dup1\n        /* \"contracts/naku.sol\":120:162  0x1234567890AbcdEF1234567890aBcdef12345678 */\n      0x1234567890abcdef1234567890abcdef12345678\n        /* \"contracts/naku.sol\":3709:3930  Transaccion({... */\n      0xffffffffffffffffffffffffffffffffffffffff\n      and\n      dup2\n      mstore\n      0x20\n      add\n        /* \"contracts/naku.sol\":3790:3794  sala */\n      dup5\n        /* \"contracts/naku.sol\":3790:3808  sala.participantes */\n      0x09\n      add\n        /* \"contracts/naku.sol\":3809:3810  i */\n      dup5\n        /* \"contracts/naku.sol\":3790:3811  sala.participantes[i] */\n      dup2\n      sload\n      dup2\n      lt\n      tag_88\n      jumpi\n      tag_89\n      tag_67\n      jump\t// in\n    tag_89:\n    tag_88:\n      swap1\n      0x00\n      mstore\n      keccak256(0x00, 0x20)\n      swap1\n      0x03\n      mul\n      add\n        /* \"contracts/naku.sol\":3790:3818  sala.participantes[i].wallet */\n      0x00\n      add\n      0x00\n      swap1\n      sload\n      swap1\n      0x0100\n      exp\n      swap1\n      div\n      0xffffffffffffffffffffffffffffffffffffffff\n      and\n        /* \"contracts/naku.sol\":3709:3930  Transaccion({... */\n      0xffffffffffffffffffffffffffffffffffffffff\n      and\n      dup2\n      mstore\n      0x20\n      add\n        /* \"contracts/naku.sol\":3848:3852  sala */\n      dup5\n        /* \"contracts/naku.sol\":3848:3865  sala.montoAportar */\n      0x02\n      add\n      sload\n        /* \"contracts/naku.sol\":3709:3930  Transaccion({... */\n      dup2\n      mstore\n      0x20\n      add\n        /* \"contracts/naku.sol\":3895:3910  block.timestamp */\n      timestamp\n        /* \"contracts/naku.sol\":3709:3930  Transaccion({... */\n      dup2\n      mstore\n      pop\n        /* \"contracts/naku.sol\":3676:3931  sala.historialTransacciones.push(Transaccion({... */\n      swap1\n      dup1\n      0x01\n      dup2\n      sload\n      add\n      dup1\n      dup3\n      sstore\n      dup1\n      swap2\n      pop\n      pop\n      0x01\n      swap1\n      sub\n      swap1\n      0x00\n      mstore\n      keccak256(0x00, 0x20)\n      swap1\n      0x04\n      mul\n      add\n      0x00\n      swap1\n      swap2\n      swap1\n      swap2\n      swap1\n      swap2\n      pop\n      0x00\n      dup3\n      add\n      mload\n      dup2\n      0x00\n      add\n      exp(0x0100, 0x00)\n      dup2\n      sload\n      dup2\n      0xffffffffffffffffffffffffffffffffffffffff\n      mul\n      not\n      and\n      swap1\n      dup4\n      0xffffffffffffffffffffffffffffffffffffffff\n      and\n      mul\n      or\n      swap1\n      sstore\n      pop\n      0x20\n      dup3\n      add\n      mload\n      dup2\n      0x01\n      add\n      exp(0x0100, 0x00)\n      dup2\n      sload\n      dup2\n      0xffffffffffffffffffffffffffffffffffffffff\n      mul\n      not\n      and\n      swap1\n      dup4\n      0xffffffffffffffffffffffffffffffffffffffff\n      and\n      mul\n      or\n      swap1\n      sstore\n      pop\n      0x40\n      dup3\n      add\n      mload\n      dup2\n      0x02\n      add\n      sstore\n      0x60\n      dup3\n      add\n      mload\n      dup2\n      0x03\n      add\n      sstore\n      pop\n      pop\n        /* \"contracts/naku.sol\":3952:3956  sala */\n      dup2\n        /* \"contracts/naku.sol\":3952:3968  sala.rondaActual */\n      0x05\n      add\n      0x00\n        /* \"contracts/naku.sol\":3952:3970  sala.rondaActual++ */\n      dup2\n      sload\n      dup1\n      swap3\n      swap2\n      swap1\n      tag_92\n      swap1\n      tag_93\n      jump\t// in\n    tag_92:\n      swap2\n      swap1\n      pop\n      sstore\n      pop\n        /* \"contracts/naku.sol\":3989:3994  break */\n      jump(tag_63)\n        /* \"contracts/naku.sol\":3150:4010  if (sala.participantes[i].numTurno == sala.rondaActual && !sala.participantes[i].haRecibido) {... */\n    tag_73:\n        /* \"contracts/naku.sol\":3130:3133  i++ */\n      dup1\n      dup1\n      0x01\n      add\n      swap2\n      pop\n      pop\n        /* \"contracts/naku.sol\":3082:4021  for (uint i = 0; i < sala.participantes.length; i++) {... */\n      jump(tag_62)\n    tag_63:\n      pop\n        /* \"contracts/naku.sol\":2823:4028  {... */\n      pop\n        /* \"contracts/naku.sol\":2743:4028  function realizarEnvio(string memory hashId, address walletParticipante) public {... */\n      pop\n      pop\n      jump\t// out\n        /* \"contracts/naku.sol\":4821:5041  function obtenerParticipantes(string memory hashId) public view returns (Participante[] memory) {... */\n    tag_19:\n        /* \"contracts/naku.sol\":4894:4915  Participante[] memory */\n      0x60\n        /* \"contracts/naku.sol\":4965:4966  0 */\n      0x00\n        /* \"contracts/naku.sol\":4936:4941  salas */\n      0x00\n        /* \"contracts/naku.sol\":4942:4948  hashId */\n      dup4\n        /* \"contracts/naku.sol\":4936:4949  salas[hashId] */\n      mload(0x40)\n      tag_95\n      swap2\n      swap1\n      tag_52\n      jump\t// in\n    tag_95:\n      swap1\n      dup2\n      mstore\n      0x20\n      add\n      mload(0x40)\n      dup1\n      swap2\n      sub\n      swap1\n      keccak256\n        /* \"contracts/naku.sol\":4936:4962  salas[hashId].montoAportar */\n      0x02\n      add\n      sload\n        /* \"contracts/naku.sol\":4936:4966  salas[hashId].montoAportar > 0 */\n      gt\n        /* \"contracts/naku.sol\":4928:4988  require(salas[hashId].montoAportar > 0, \"La sala no existe\") */\n      tag_96\n      jumpi\n      mload(0x40)\n      0x08c379a000000000000000000000000000000000000000000000000000000000\n      dup2\n      mstore\n      0x04\n      add\n      tag_97\n      swap1\n      tag_55\n      jump\t// in\n    tag_97:\n      mload(0x40)\n      dup1\n      swap2\n      sub\n      swap1\n      revert\n    tag_96:\n        /* \"contracts/naku.sol\":5006:5011  salas */\n      0x00\n        /* \"contracts/naku.sol\":5012:5018  hashId */\n      dup3\n        /* \"contracts/naku.sol\":5006:5019  salas[hashId] */\n      mload(0x40)\n      tag_98\n      swap2\n      swap1\n      tag_52\n      jump\t// in\n    tag_98:\n      swap1\n      dup2\n      mstore\n      0x20\n      add\n      mload(0x40)\n      dup1\n      swap2\n      sub\n      swap1\n      keccak256\n        /* \"contracts/naku.sol\":5006:5033  salas[hashId].participantes */\n      0x09\n      add\n        /* \"contracts/naku.sol\":4999:5033  return salas[hashId].participantes */\n      dup1\n      sload\n      dup1\n      0x20\n      mul\n      0x20\n      add\n      mload(0x40)\n      swap1\n      dup2\n      add\n      0x40\n      mstore\n      dup1\n      swap3\n      swap2\n      swap1\n      dup2\n      dup2\n      mstore\n      0x20\n      add\n      0x00\n      swap1\n    tag_99:\n      dup3\n      dup3\n      lt\n      iszero\n      tag_100\n      jumpi\n      dup4\n      dup3\n      swap1\n      0x00\n      mstore\n      keccak256(0x00, 0x20)\n      swap1\n      0x03\n      mul\n      add\n      mload(0x40)\n      dup1\n      0x60\n      add\n      0x40\n      mstore\n      swap1\n      dup2\n      0x00\n      dup3\n      add\n      0x00\n      swap1\n      sload\n      swap1\n      0x0100\n      exp\n      swap1\n      div\n      0xffffffffffffffffffffffffffffffffffffffff\n      and\n      0xffffffffffffffffffffffffffffffffffffffff\n      and\n      0xffffffffffffffffffffffffffffffffffffffff\n      and\n      dup2\n      mstore\n      0x20\n      add\n      0x01\n      dup3\n      add\n      sload\n      dup2\n      mstore\n      0x20\n      add\n      0x02\n      dup3\n      add\n      0x00\n      swap1\n      sload\n      swap1\n      0x0100\n      exp\n      swap1\n      div\n      0xff\n      and\n      iszero\n      iszero\n      iszero\n      iszero\n      dup2\n      mstore\n      pop\n      pop\n      dup2\n      mstore\n      0x20\n      add\n      swap1\n      0x01\n      add\n      swap1\n      jump(tag_99)\n    tag_100:\n      pop\n      pop\n      pop\n      pop\n      swap1\n      pop\n        /* \"contracts/naku.sol\":4821:5041  function obtenerParticipantes(string memory hashId) public view returns (Participante[] memory) {... */\n      swap2\n      swap1\n      pop\n      jump\t// out\n        /* \"contracts/naku.sol\":823:849  string[] public listaSalas */\n    tag_25:\n      0x01\n      dup2\n      dup2\n      sload\n      dup2\n      lt\n      tag_102\n      jumpi\n      0x00\n      dup1\n      revert\n    tag_102:\n      swap1\n      0x00\n      mstore\n      keccak256(0x00, 0x20)\n      add\n      0x00\n      swap2\n      pop\n      swap1\n      pop\n      dup1\n      sload\n      tag_104\n      swap1\n      tag_105\n      jump\t// in\n    tag_104:\n      dup1\n      0x1f\n      add\n      0x20\n      dup1\n      swap2\n      div\n      mul\n      0x20\n      add\n      mload(0x40)\n      swap1\n      dup2\n      add\n      0x40\n      mstore\n      dup1\n      swap3\n      swap2\n      swap1\n      dup2\n      dup2\n      mstore\n      0x20\n      add\n      dup3\n      dup1\n      sload\n      tag_106\n      swap1\n      tag_105\n      jump\t// in\n    tag_106:\n      dup1\n      iszero\n      tag_107\n      jumpi\n      dup1\n      0x1f\n      lt\n      tag_108\n      jumpi\n      0x0100\n      dup1\n      dup4\n      sload\n      div\n      mul\n      dup4\n      mstore\n      swap2\n      0x20\n      add\n      swap2\n      jump(tag_107)\n    tag_108:\n      dup3\n      add\n      swap2\n      swap1\n      0x00\n      mstore\n      keccak256(0x00, 0x20)\n      swap1\n    tag_109:\n      dup2\n      sload\n      dup2\n      mstore\n      swap1\n      0x01\n      add\n      swap1\n      0x20\n      add\n      dup1\n      dup4\n      gt\n      tag_109\n      jumpi\n      dup3\n      swap1\n      sub\n      0x1f\n      and\n      dup3\n      add\n      swap2\n    tag_107:\n      pop\n      pop\n      pop\n      pop\n      pop\n      dup2\n      jump\t// out\n        /* \"contracts/naku.sol\":5104:5341  function obtenerHistorialTransacciones(string memory hashId) public view returns (Transaccion[] memory) {... */\n    tag_30:\n        /* \"contracts/naku.sol\":5186:5206  Transaccion[] memory */\n      0x60\n        /* \"contracts/naku.sol\":5256:5257  0 */\n      0x00\n        /* \"contracts/naku.sol\":5227:5232  salas */\n      0x00\n        /* \"contracts/naku.sol\":5233:5239  hashId */\n      dup4\n        /* \"contracts/naku.sol\":5227:5240  salas[hashId] */\n      mload(0x40)\n      tag_111\n      swap2\n      swap1\n      tag_52\n      jump\t// in\n    tag_111:\n      swap1\n      dup2\n      mstore\n      0x20\n      add\n      mload(0x40)\n      dup1\n      swap2\n      sub\n      swap1\n      keccak256\n        /* \"contracts/naku.sol\":5227:5253  salas[hashId].montoAportar */\n      0x02\n      add\n      sload\n        /* \"contracts/naku.sol\":5227:5257  salas[hashId].montoAportar > 0 */\n      gt\n        /* \"contracts/naku.sol\":5219:5279  require(salas[hashId].montoAportar > 0, \"La sala no existe\") */\n      tag_112\n      jumpi\n      mload(0x40)\n      0x08c379a000000000000000000000000000000000000000000000000000000000\n      dup2\n      mstore\n      0x04\n      add\n      tag_113\n      swap1\n      tag_55\n      jump\t// in\n    tag_113:\n      mload(0x40)\n      dup1\n      swap2\n      sub\n      swap1\n      revert\n    tag_112:\n        /* \"contracts/naku.sol\":5297:5302  salas */\n      0x00\n        /* \"contracts/naku.sol\":5303:5309  hashId */\n      dup3\n        /* \"contracts/naku.sol\":5297:5310  salas[hashId] */\n      mload(0x40)\n      tag_114\n      swap2\n      swap1\n      tag_52\n      jump\t// in\n    tag_114:\n      swap1\n      dup2\n      mstore\n      0x20\n      add\n      mload(0x40)\n      dup1\n      swap2\n      sub\n      swap1\n      keccak256\n        /* \"contracts/naku.sol\":5297:5333  salas[hashId].historialTransacciones */\n      0x0a\n      add\n        /* \"contracts/naku.sol\":5290:5333  return salas[hashId].historialTransacciones */\n      dup1\n      sload\n      dup1\n      0x20\n      mul\n      0x20\n      add\n      mload(0x40)\n      swap1\n      dup2\n      add\n      0x40\n      mstore\n      dup1\n      swap3\n      swap2\n      swap1\n      dup2\n      dup2\n      mstore\n      0x20\n      add\n      0x00\n      swap1\n    tag_115:\n      dup3\n      dup3\n      lt\n      iszero\n      tag_116\n      jumpi\n      dup4\n      dup3\n      swap1\n      0x00\n      mstore\n      keccak256(0x00, 0x20)\n      swap1\n      0x04\n      mul\n      add\n      mload(0x40)\n      dup1\n      0x80\n      add\n      0x40\n      mstore\n      swap1\n      dup2\n      0x00\n      dup3\n      add\n      0x00\n      swap1\n      sload\n      swap1\n      0x0100\n      exp\n      swap1\n      div\n      0xffffffffffffffffffffffffffffffffffffffff\n      and\n      0xffffffffffffffffffffffffffffffffffffffff\n      and\n      0xffffffffffffffffffffffffffffffffffffffff\n      and\n      dup2\n      mstore\n      0x20\n      add\n      0x01\n      dup3\n      add\n      0x00\n      swap1\n      sload\n      swap1\n      0x0100\n      exp\n      swap1\n      div\n      0xffffffffffffffffffffffffffffffffffffffff\n      and\n      0xffffffffffffffffffffffffffffffffffffffff\n      and\n      0xffffffffffffffffffffffffffffffffffffffff\n      and\n      dup2\n      mstore\n      0x20\n      add\n      0x02\n      dup3\n      add\n      sload\n      dup2\n      mstore\n      0x20\n      add\n      0x03\n      dup3\n      add\n      sload\n      dup2\n      mstore\n      pop\n      pop\n      dup2\n      mstore\n      0x20\n      add\n      swap1\n      0x01\n      add\n      swap1\n      jump(tag_115)\n    tag_116:\n      pop\n      pop\n      pop\n      pop\n      swap1\n      pop\n        /* \"contracts/naku.sol\":5104:5341  function obtenerHistorialTransacciones(string memory hashId) public view returns (Transaccion[] memory) {... */\n      swap2\n      swap1\n      pop\n      jump\t// out\n        /* \"contracts/naku.sol\":887:1625  function crearSala(... */\n    tag_36:\n        /* \"contracts/naku.sol\":1130:1131  0 */\n      0x00\n        /* \"contracts/naku.sol\":1100:1105  salas */\n      0x00\n        /* \"contracts/naku.sol\":1106:1112  hashId */\n      dup8\n        /* \"contracts/naku.sol\":1100:1113  salas[hashId] */\n      mload(0x40)\n      tag_119\n      swap2\n      swap1\n      tag_52\n      jump\t// in\n    tag_119:\n      swap1\n      dup2\n      mstore\n      0x20\n      add\n      mload(0x40)\n      dup1\n      swap2\n      sub\n      swap1\n      keccak256\n        /* \"contracts/naku.sol\":1100:1126  salas[hashId].montoAportar */\n      0x02\n      add\n      sload\n        /* \"contracts/naku.sol\":1100:1131  salas[hashId].montoAportar == 0 */\n      eq\n        /* \"contracts/naku.sol\":1092:1153  require(salas[hashId].montoAportar == 0, \"La sala ya existe\") */\n      tag_120\n      jumpi\n      mload(0x40)\n      0x08c379a000000000000000000000000000000000000000000000000000000000\n      dup2\n      mstore\n      0x04\n      add\n      tag_121\n      swap1\n      tag_122\n      jump\t// in\n    tag_121:\n      mload(0x40)\n      dup1\n      swap2\n      sub\n      swap1\n      revert\n    tag_120:\n        /* \"contracts/naku.sol\":1166:1188  Sala storage nuevaSala */\n      0x00\n        /* \"contracts/naku.sol\":1191:1196  salas */\n      0x00\n        /* \"contracts/naku.sol\":1197:1203  hashId */\n      dup8\n        /* \"contracts/naku.sol\":1191:1204  salas[hashId] */\n      mload(0x40)\n      tag_123\n      swap2\n      swap1\n      tag_52\n      jump\t// in\n    tag_123:\n      swap1\n      dup2\n      mstore\n      0x20\n      add\n      mload(0x40)\n      dup1\n      swap2\n      sub\n      swap1\n      keccak256\n        /* \"contracts/naku.sol\":1166:1204  Sala storage nuevaSala = salas[hashId] */\n      swap1\n      pop\n        /* \"contracts/naku.sol\":1234:1240  hashId */\n      dup7\n        /* \"contracts/naku.sol\":1215:1224  nuevaSala */\n      dup2\n        /* \"contracts/naku.sol\":1215:1231  nuevaSala.hashId */\n      0x00\n      add\n        /* \"contracts/naku.sol\":1215:1240  nuevaSala.hashId = hashId */\n      swap1\n      dup2\n      tag_124\n      swap2\n      swap1\n      tag_125\n      jump\t// in\n    tag_124:\n      pop\n        /* \"contracts/naku.sol\":1273:1283  msg.sender */\n      caller\n        /* \"contracts/naku.sol\":1251:1260  nuevaSala */\n      dup2\n        /* \"contracts/naku.sol\":1251:1270  nuevaSala.anfitrion */\n      0x01\n      add\n      0x00\n        /* \"contracts/naku.sol\":1251:1283  nuevaSala.anfitrion = msg.sender */\n      0x0100\n      exp\n      dup2\n      sload\n      dup2\n      0xffffffffffffffffffffffffffffffffffffffff\n      mul\n      not\n      and\n      swap1\n      dup4\n      0xffffffffffffffffffffffffffffffffffffffff\n      and\n      mul\n      or\n      swap1\n      sstore\n      pop\n        /* \"contracts/naku.sol\":1319:1331  montoAportar */\n      dup6\n        /* \"contracts/naku.sol\":1294:1303  nuevaSala */\n      dup2\n        /* \"contracts/naku.sol\":1294:1316  nuevaSala.montoAportar */\n      0x02\n      add\n        /* \"contracts/naku.sol\":1294:1331  nuevaSala.montoAportar = montoAportar */\n      dup2\n      swap1\n      sstore\n      pop\n        /* \"contracts/naku.sol\":1372:1373  0 */\n      0x00\n        /* \"contracts/naku.sol\":1342:1351  nuevaSala */\n      dup2\n        /* \"contracts/naku.sol\":1342:1369  nuevaSala.montoTotalAportar */\n      0x03\n      add\n        /* \"contracts/naku.sol\":1342:1373  nuevaSala.montoTotalAportar = 0 */\n      dup2\n      swap1\n      sstore\n      pop\n        /* \"contracts/naku.sol\":1409:1421  numeroRondas */\n      dup5\n        /* \"contracts/naku.sol\":1384:1393  nuevaSala */\n      dup2\n        /* \"contracts/naku.sol\":1384:1406  nuevaSala.numeroRondas */\n      0x04\n      add\n        /* \"contracts/naku.sol\":1384:1421  nuevaSala.numeroRondas = numeroRondas */\n      dup2\n      swap1\n      sstore\n      pop\n        /* \"contracts/naku.sol\":1456:1457  1 */\n      0x01\n        /* \"contracts/naku.sol\":1432:1441  nuevaSala */\n      dup2\n        /* \"contracts/naku.sol\":1432:1453  nuevaSala.rondaActual */\n      0x05\n      add\n        /* \"contracts/naku.sol\":1432:1457  nuevaSala.rondaActual = 1 */\n      dup2\n      swap1\n      sstore\n      pop\n        /* \"contracts/naku.sol\":1492:1503  fechaInicio */\n      dup4\n        /* \"contracts/naku.sol\":1468:1477  nuevaSala */\n      dup2\n        /* \"contracts/naku.sol\":1468:1489  nuevaSala.fechaInicio */\n      0x06\n      add\n        /* \"contracts/naku.sol\":1468:1503  nuevaSala.fechaInicio = fechaInicio */\n      dup2\n      swap1\n      sstore\n      pop\n        /* \"contracts/naku.sol\":1535:1543  fechaFin */\n      dup3\n        /* \"contracts/naku.sol\":1514:1523  nuevaSala */\n      dup2\n        /* \"contracts/naku.sol\":1514:1532  nuevaSala.fechaFin */\n      0x07\n      add\n        /* \"contracts/naku.sol\":1514:1543  nuevaSala.fechaFin = fechaFin */\n      dup2\n      swap1\n      sstore\n      pop\n        /* \"contracts/naku.sol\":1574:1581  periodo */\n      dup2\n        /* \"contracts/naku.sol\":1554:1563  nuevaSala */\n      dup2\n        /* \"contracts/naku.sol\":1554:1571  nuevaSala.periodo */\n      0x08\n      add\n        /* \"contracts/naku.sol\":1554:1581  nuevaSala.periodo = periodo */\n      dup2\n      swap1\n      sstore\n      pop\n        /* \"contracts/naku.sol\":1594:1604  listaSalas */\n      0x01\n        /* \"contracts/naku.sol\":1610:1616  hashId */\n      dup8\n        /* \"contracts/naku.sol\":1594:1617  listaSalas.push(hashId) */\n      swap1\n      dup1\n      0x01\n      dup2\n      sload\n      add\n      dup1\n      dup3\n      sstore\n      dup1\n      swap2\n      pop\n      pop\n      0x01\n      swap1\n      sub\n      swap1\n      0x00\n      mstore\n      keccak256(0x00, 0x20)\n      add\n      0x00\n      swap1\n      swap2\n      swap1\n      swap2\n      swap1\n      swap2\n      pop\n      swap1\n      dup2\n      tag_127\n      swap2\n      swap1\n      tag_125\n      jump\t// in\n    tag_127:\n      pop\n        /* \"contracts/naku.sol\":1081:1625  {... */\n      pop\n        /* \"contracts/naku.sol\":887:1625  function crearSala(... */\n      pop\n      pop\n      pop\n      pop\n      pop\n      pop\n      jump\t// out\n        /* \"contracts/naku.sol\":1676:2079  function agregarParticipante(... */\n    tag_40:\n        /* \"contracts/naku.sol\":1847:1848  0 */\n      0x00\n        /* \"contracts/naku.sol\":1818:1823  salas */\n      0x00\n        /* \"contracts/naku.sol\":1824:1830  hashId */\n      dup5\n        /* \"contracts/naku.sol\":1818:1831  salas[hashId] */\n      mload(0x40)\n      tag_129\n      swap2\n      swap1\n      tag_52\n      jump\t// in\n    tag_129:\n      swap1\n      dup2\n      mstore\n      0x20\n      add\n      mload(0x40)\n      dup1\n      swap2\n      sub\n      swap1\n      keccak256\n        /* \"contracts/naku.sol\":1818:1844  salas[hashId].montoAportar */\n      0x02\n      add\n      sload\n        /* \"contracts/naku.sol\":1818:1848  salas[hashId].montoAportar > 0 */\n      gt\n        /* \"contracts/naku.sol\":1810:1870  require(salas[hashId].montoAportar > 0, \"La sala no existe\") */\n      tag_130\n      jumpi\n      mload(0x40)\n      0x08c379a000000000000000000000000000000000000000000000000000000000\n      dup2\n      mstore\n      0x04\n      add\n      tag_131\n      swap1\n      tag_55\n      jump\t// in\n    tag_131:\n      mload(0x40)\n      dup1\n      swap2\n      sub\n      swap1\n      revert\n    tag_130:\n        /* \"contracts/naku.sol\":1883:1900  Sala storage sala */\n      0x00\n        /* \"contracts/naku.sol\":1903:1908  salas */\n      0x00\n        /* \"contracts/naku.sol\":1909:1915  hashId */\n      dup5\n        /* \"contracts/naku.sol\":1903:1916  salas[hashId] */\n      mload(0x40)\n      tag_132\n      swap2\n      swap1\n      tag_52\n      jump\t// in\n    tag_132:\n      swap1\n      dup2\n      mstore\n      0x20\n      add\n      mload(0x40)\n      dup1\n      swap2\n      sub\n      swap1\n      keccak256\n        /* \"contracts/naku.sol\":1883:1916  Sala storage sala = salas[hashId] */\n      swap1\n      pop\n        /* \"contracts/naku.sol\":1927:1931  sala */\n      dup1\n        /* \"contracts/naku.sol\":1927:1945  sala.participantes */\n      0x09\n      add\n        /* \"contracts/naku.sol\":1951:2070  Participante({... */\n      mload(0x40)\n      dup1\n      0x60\n      add\n      0x40\n      mstore\n      dup1\n        /* \"contracts/naku.sol\":1987:1993  wallet */\n      dup6\n        /* \"contracts/naku.sol\":1951:2070  Participante({... */\n      0xffffffffffffffffffffffffffffffffffffffff\n      and\n      dup2\n      mstore\n      0x20\n      add\n        /* \"contracts/naku.sol\":2018:2026  numTurno */\n      dup5\n        /* \"contracts/naku.sol\":1951:2070  Participante({... */\n      dup2\n      mstore\n      0x20\n      add\n        /* \"contracts/naku.sol\":2053:2058  false */\n      0x00\n        /* \"contracts/naku.sol\":1951:2070  Participante({... */\n      iszero\n      iszero\n      dup2\n      mstore\n      pop\n        /* \"contracts/naku.sol\":1927:2071  sala.participantes.push(Participante({... */\n      swap1\n      dup1\n      0x01\n      dup2\n      sload\n      add\n      dup1\n      dup3\n      sstore\n      dup1\n      swap2\n      pop\n      pop\n      0x01\n      swap1\n      sub\n      swap1\n      0x00\n      mstore\n      keccak256(0x00, 0x20)\n      swap1\n      0x03\n      mul\n      add\n      0x00\n      swap1\n      swap2\n      swap1\n      swap2\n      swap1\n      swap2\n      pop\n      0x00\n      dup3\n      add\n      mload\n      dup2\n      0x00\n      add\n      exp(0x0100, 0x00)\n      dup2\n      sload\n      dup2\n      0xffffffffffffffffffffffffffffffffffffffff\n      mul\n      not\n      and\n      swap1\n      dup4\n      0xffffffffffffffffffffffffffffffffffffffff\n      and\n      mul\n      or\n      swap1\n      sstore\n      pop\n      0x20\n      dup3\n      add\n      mload\n      dup2\n      0x01\n      add\n      sstore\n      0x40\n      dup3\n      add\n      mload\n      dup2\n      0x02\n      add\n      exp(0x0100, 0x00)\n      dup2\n      sload\n      dup2\n      0xff\n      mul\n      not\n      and\n      swap1\n      dup4\n      iszero\n      iszero\n      mul\n      or\n      swap1\n      sstore\n      pop\n      pop\n      pop\n        /* \"contracts/naku.sol\":1799:2079  {... */\n      pop\n        /* \"contracts/naku.sol\":1676:2079  function agregarParticipante(... */\n      pop\n      pop\n      pop\n      jump\t// out\n        /* \"contracts/naku.sol\":2132:2683  function registrarTransaccion(... */\n    tag_44:\n        /* \"contracts/naku.sol\":2320:2321  0 */\n      0x00\n        /* \"contracts/naku.sol\":2291:2296  salas */\n      0x00\n        /* \"contracts/naku.sol\":2297:2303  hashId */\n      dup6\n        /* \"contracts/naku.sol\":2291:2304  salas[hashId] */\n      mload(0x40)\n      tag_135\n      swap2\n      swap1\n      tag_52\n      jump\t// in\n    tag_135:\n      swap1\n      dup2\n      mstore\n      0x20\n      add\n      mload(0x40)\n      dup1\n      swap2\n      sub\n      swap1\n      keccak256\n        /* \"contracts/naku.sol\":2291:2317  salas[hashId].montoAportar */\n      0x02\n      add\n      sload\n        /* \"contracts/naku.sol\":2291:2321  salas[hashId].montoAportar > 0 */\n      gt\n        /* \"contracts/naku.sol\":2283:2343  require(salas[hashId].montoAportar > 0, \"La sala no existe\") */\n      tag_136\n      jumpi\n      mload(0x40)\n      0x08c379a000000000000000000000000000000000000000000000000000000000\n      dup2\n      mstore\n      0x04\n      add\n      tag_137\n      swap1\n      tag_55\n      jump\t// in\n    tag_137:\n      mload(0x40)\n      dup1\n      swap2\n      sub\n      swap1\n      revert\n    tag_136:\n        /* \"contracts/naku.sol\":2370:2371  0 */\n      0x00\n        /* \"contracts/naku.sol\":2362:2367  monto */\n      dup2\n        /* \"contracts/naku.sol\":2362:2371  monto > 0 */\n      gt\n        /* \"contracts/naku.sol\":2354:2406  require(monto > 0, \"El monto debe ser mayor a cero\") */\n      tag_138\n      jumpi\n      mload(0x40)\n      0x08c379a000000000000000000000000000000000000000000000000000000000\n      dup2\n      mstore\n      0x04\n      add\n      tag_139\n      swap1\n      tag_140\n      jump\t// in\n    tag_139:\n      mload(0x40)\n      dup1\n      swap2\n      sub\n      swap1\n      revert\n    tag_138:\n        /* \"contracts/naku.sol\":2419:2436  Sala storage sala */\n      0x00\n        /* \"contracts/naku.sol\":2439:2444  salas */\n      0x00\n        /* \"contracts/naku.sol\":2445:2451  hashId */\n      dup6\n        /* \"contracts/naku.sol\":2439:2452  salas[hashId] */\n      mload(0x40)\n      tag_141\n      swap2\n      swap1\n      tag_52\n      jump\t// in\n    tag_141:\n      swap1\n      dup2\n      mstore\n      0x20\n      add\n      mload(0x40)\n      dup1\n      swap2\n      sub\n      swap1\n      keccak256\n        /* \"contracts/naku.sol\":2419:2452  Sala storage sala = salas[hashId] */\n      swap1\n      pop\n        /* \"contracts/naku.sol\":2463:2467  sala */\n      dup1\n        /* \"contracts/naku.sol\":2463:2490  sala.historialTransacciones */\n      0x0a\n      add\n        /* \"contracts/naku.sol\":2496:2630  Transaccion({... */\n      mload(0x40)\n      dup1\n      0x80\n      add\n      0x40\n      mstore\n      dup1\n        /* \"contracts/naku.sol\":2529:2533  from */\n      dup7\n        /* \"contracts/naku.sol\":2496:2630  Transaccion({... */\n      0xffffffffffffffffffffffffffffffffffffffff\n      and\n      dup2\n      mstore\n      0x20\n      add\n        /* \"contracts/naku.sol\":2552:2554  to */\n      dup6\n        /* \"contracts/naku.sol\":2496:2630  Transaccion({... */\n      0xffffffffffffffffffffffffffffffffffffffff\n      and\n      dup2\n      mstore\n      0x20\n      add\n        /* \"contracts/naku.sol\":2576:2581  monto */\n      dup5\n        /* \"contracts/naku.sol\":2496:2630  Transaccion({... */\n      dup2\n      mstore\n      0x20\n      add\n        /* \"contracts/naku.sol\":2603:2618  block.timestamp */\n      timestamp\n        /* \"contracts/naku.sol\":2496:2630  Transaccion({... */\n      dup2\n      mstore\n      pop\n        /* \"contracts/naku.sol\":2463:2631  sala.historialTransacciones.push(Transaccion({... */\n      swap1\n      dup1\n      0x01\n      dup2\n      sload\n      add\n      dup1\n      dup3\n      sstore\n      dup1\n      swap2\n      pop\n      pop\n      0x01\n      swap1\n      sub\n      swap1\n      0x00\n      mstore\n      keccak256(0x00, 0x20)\n      swap1\n      0x04\n      mul\n      add\n      0x00\n      swap1\n      swap2\n      swap1\n      swap2\n      swap1\n      swap2\n      pop\n      0x00\n      dup3\n      add\n      mload\n      dup2\n      0x00\n      add\n      exp(0x0100, 0x00)\n      dup2\n      sload\n      dup2\n      0xffffffffffffffffffffffffffffffffffffffff\n      mul\n      not\n      and\n      swap1\n      dup4\n      0xffffffffffffffffffffffffffffffffffffffff\n      and\n      mul\n      or\n      swap1\n      sstore\n      pop\n      0x20\n      dup3\n      add\n      mload\n      dup2\n      0x01\n      add\n      exp(0x0100, 0x00)\n      dup2\n      sload\n      dup2\n      0xffffffffffffffffffffffffffffffffffffffff\n      mul\n      not\n      and\n      swap1\n      dup4\n      0xffffffffffffffffffffffffffffffffffffffff\n      and\n      mul\n      or\n      swap1\n      sstore\n      pop\n      0x40\n      dup3\n      add\n      mload\n      dup2\n      0x02\n      add\n      sstore\n      0x60\n      dup3\n      add\n      mload\n      dup2\n      0x03\n      add\n      sstore\n      pop\n      pop\n        /* \"contracts/naku.sol\":2670:2675  monto */\n      dup2\n        /* \"contracts/naku.sol\":2644:2648  sala */\n      dup2\n        /* \"contracts/naku.sol\":2644:2666  sala.montoTotalAportar */\n      0x03\n      add\n      0x00\n        /* \"contracts/naku.sol\":2644:2675  sala.montoTotalAportar += monto */\n      dup3\n      dup3\n      sload\n      tag_143\n      swap2\n      swap1\n      tag_144\n      jump\t// in\n    tag_143:\n      swap3\n      pop\n      pop\n      dup2\n      swap1\n      sstore\n      pop\n        /* \"contracts/naku.sol\":2272:2683  {... */\n      pop\n        /* \"contracts/naku.sol\":2132:2683  function registrarTransaccion(... */\n      pop\n      pop\n      pop\n      pop\n      jump\t// out\n        /* \"contracts/naku.sol\":4083:4771  function obtenerSala(string memory hashId) public view returns (... */\n    tag_47:\n        /* \"contracts/naku.sol\":4157:4174  address anfitrion */\n      0x00\n        /* \"contracts/naku.sol\":4185:4202  uint montoAportar */\n      0x00\n        /* \"contracts/naku.sol\":4213:4235  uint montoTotalAportar */\n      0x00\n        /* \"contracts/naku.sol\":4246:4263  uint numeroRondas */\n      0x00\n        /* \"contracts/naku.sol\":4274:4290  uint rondaActual */\n      0x00\n        /* \"contracts/naku.sol\":4301:4317  uint fechaInicio */\n      0x00\n        /* \"contracts/naku.sol\":4328:4341  uint fechaFin */\n      0x00\n        /* \"contracts/naku.sol\":4352:4364  uint periodo */\n      0x00\n        /* \"contracts/naku.sol\":4420:4421  0 */\n      0x00\n        /* \"contracts/naku.sol\":4391:4396  salas */\n      0x00\n        /* \"contracts/naku.sol\":4397:4403  hashId */\n      dup11\n        /* \"contracts/naku.sol\":4391:4404  salas[hashId] */\n      mload(0x40)\n      tag_146\n      swap2\n      swap1\n      tag_52\n      jump\t// in\n    tag_146:\n      swap1\n      dup2\n      mstore\n      0x20\n      add\n      mload(0x40)\n      dup1\n      swap2\n      sub\n      swap1\n      keccak256\n        /* \"contracts/naku.sol\":4391:4417  salas[hashId].montoAportar */\n      0x02\n      add\n      sload\n        /* \"contracts/naku.sol\":4391:4421  salas[hashId].montoAportar > 0 */\n      gt\n        /* \"contracts/naku.sol\":4383:4443  require(salas[hashId].montoAportar > 0, \"La sala no existe\") */\n      tag_147\n      jumpi\n      mload(0x40)\n      0x08c379a000000000000000000000000000000000000000000000000000000000\n      dup2\n      mstore\n      0x04\n      add\n      tag_148\n      swap1\n      tag_55\n      jump\t// in\n    tag_148:\n      mload(0x40)\n      dup1\n      swap2\n      sub\n      swap1\n      revert\n    tag_147:\n        /* \"contracts/naku.sol\":4454:4471  Sala storage sala */\n      0x00\n        /* \"contracts/naku.sol\":4474:4479  salas */\n      0x00\n        /* \"contracts/naku.sol\":4480:4486  hashId */\n      dup11\n        /* \"contracts/naku.sol\":4474:4487  salas[hashId] */\n      mload(0x40)\n      tag_149\n      swap2\n      swap1\n      tag_52\n      jump\t// in\n    tag_149:\n      swap1\n      dup2\n      mstore\n      0x20\n      add\n      mload(0x40)\n      dup1\n      swap2\n      sub\n      swap1\n      keccak256\n        /* \"contracts/naku.sol\":4454:4487  Sala storage sala = salas[hashId] */\n      swap1\n      pop\n        /* \"contracts/naku.sol\":4520:4524  sala */\n      dup1\n        /* \"contracts/naku.sol\":4520:4534  sala.anfitrion */\n      0x01\n      add\n      0x00\n      swap1\n      sload\n      swap1\n      0x0100\n      exp\n      swap1\n      div\n      0xffffffffffffffffffffffffffffffffffffffff\n      and\n        /* \"contracts/naku.sol\":4549:4553  sala */\n      dup2\n        /* \"contracts/naku.sol\":4549:4566  sala.montoAportar */\n      0x02\n      add\n      sload\n        /* \"contracts/naku.sol\":4581:4585  sala */\n      dup3\n        /* \"contracts/naku.sol\":4581:4603  sala.montoTotalAportar */\n      0x03\n      add\n      sload\n        /* \"contracts/naku.sol\":4618:4622  sala */\n      dup4\n        /* \"contracts/naku.sol\":4618:4635  sala.numeroRondas */\n      0x04\n      add\n      sload\n        /* \"contracts/naku.sol\":4650:4654  sala */\n      dup5\n        /* \"contracts/naku.sol\":4650:4666  sala.rondaActual */\n      0x05\n      add\n      sload\n        /* \"contracts/naku.sol\":4681:4685  sala */\n      dup6\n        /* \"contracts/naku.sol\":4681:4697  sala.fechaInicio */\n      0x06\n      add\n      sload\n        /* \"contracts/naku.sol\":4712:4716  sala */\n      dup7\n        /* \"contracts/naku.sol\":4712:4725  sala.fechaFin */\n      0x07\n      add\n      sload\n        /* \"contracts/naku.sol\":4740:4744  sala */\n      dup8\n        /* \"contracts/naku.sol\":4740:4752  sala.periodo */\n      0x08\n      add\n      sload\n        /* \"contracts/naku.sol\":4498:4763  return (... */\n      swap9\n      pop\n      swap9\n      pop\n      swap9\n      pop\n      swap9\n      pop\n      swap9\n      pop\n      swap9\n      pop\n      swap9\n      pop\n      swap9\n      pop\n      pop\n        /* \"contracts/naku.sol\":4083:4771  function obtenerSala(string memory hashId) public view returns (... */\n      swap2\n      swap4\n      swap6\n      swap8\n      pop\n      swap2\n      swap4\n      swap6\n      swap8\n      jump\t// out\n        /* \"#utility.yul\":7:82   */\n    tag_150:\n        /* \"#utility.yul\":40:46   */\n      0x00\n        /* \"#utility.yul\":73:75   */\n      0x40\n        /* \"#utility.yul\":67:76   */\n      mload\n        /* \"#utility.yul\":57:76   */\n      swap1\n      pop\n        /* \"#utility.yul\":7:82   */\n      swap1\n      jump\t// out\n        /* \"#utility.yul\":88:205   */\n    tag_151:\n        /* \"#utility.yul\":197:198   */\n      0x00\n        /* \"#utility.yul\":194:195   */\n      0x00\n        /* \"#utility.yul\":187:199   */\n      revert\n        /* \"#utility.yul\":211:328   */\n    tag_152:\n        /* \"#utility.yul\":320:321   */\n      0x00\n        /* \"#utility.yul\":317:318   */\n      0x00\n        /* \"#utility.yul\":310:322   */\n      revert\n        /* \"#utility.yul\":334:451   */\n    tag_153:\n        /* \"#utility.yul\":443:444   */\n      0x00\n        /* \"#utility.yul\":440:441   */\n      0x00\n        /* \"#utility.yul\":433:445   */\n      revert\n        /* \"#utility.yul\":457:574   */\n    tag_154:\n        /* \"#utility.yul\":566:567   */\n      0x00\n        /* \"#utility.yul\":563:564   */\n      0x00\n        /* \"#utility.yul\":556:568   */\n      revert\n        /* \"#utility.yul\":580:682   */\n    tag_155:\n        /* \"#utility.yul\":621:627   */\n      0x00\n        /* \"#utility.yul\":672:674   */\n      0x1f\n        /* \"#utility.yul\":668:675   */\n      not\n        /* \"#utility.yul\":663:665   */\n      0x1f\n        /* \"#utility.yul\":656:661   */\n      dup4\n        /* \"#utility.yul\":652:666   */\n      add\n        /* \"#utility.yul\":648:676   */\n      and\n        /* \"#utility.yul\":638:676   */\n      swap1\n      pop\n        /* \"#utility.yul\":580:682   */\n      swap2\n      swap1\n      pop\n      jump\t// out\n        /* \"#utility.yul\":688:868   */\n    tag_156:\n        /* \"#utility.yul\":736:813   */\n      0x4e487b7100000000000000000000000000000000000000000000000000000000\n        /* \"#utility.yul\":733:734   */\n      0x00\n        /* \"#utility.yul\":726:814   */\n      mstore\n        /* \"#utility.yul\":833:837   */\n      0x41\n        /* \"#utility.yul\":830:831   */\n      0x04\n        /* \"#utility.yul\":823:838   */\n      mstore\n        /* \"#utility.yul\":857:861   */\n      0x24\n        /* \"#utility.yul\":854:855   */\n      0x00\n        /* \"#utility.yul\":847:862   */\n      revert\n        /* \"#utility.yul\":874:1155   */\n    tag_157:\n        /* \"#utility.yul\":957:984   */\n      tag_232\n        /* \"#utility.yul\":979:983   */\n      dup3\n        /* \"#utility.yul\":957:984   */\n      tag_155\n      jump\t// in\n    tag_232:\n        /* \"#utility.yul\":949:955   */\n      dup2\n        /* \"#utility.yul\":945:985   */\n      add\n        /* \"#utility.yul\":1087:1093   */\n      dup2\n        /* \"#utility.yul\":1075:1085   */\n      dup2\n        /* \"#utility.yul\":1072:1094   */\n      lt\n        /* \"#utility.yul\":1051:1069   */\n      0xffffffffffffffff\n        /* \"#utility.yul\":1039:1049   */\n      dup3\n        /* \"#utility.yul\":1036:1070   */\n      gt\n        /* \"#utility.yul\":1033:1095   */\n      or\n        /* \"#utility.yul\":1030:1118   */\n      iszero\n      tag_233\n      jumpi\n        /* \"#utility.yul\":1098:1116   */\n      tag_234\n      tag_156\n      jump\t// in\n    tag_234:\n        /* \"#utility.yul\":1030:1118   */\n    tag_233:\n        /* \"#utility.yul\":1138:1148   */\n      dup1\n        /* \"#utility.yul\":1134:1136   */\n      0x40\n        /* \"#utility.yul\":1127:1149   */\n      mstore\n        /* \"#utility.yul\":917:1155   */\n      pop\n        /* \"#utility.yul\":874:1155   */\n      pop\n      pop\n      jump\t// out\n        /* \"#utility.yul\":1161:1290   */\n    tag_158:\n        /* \"#utility.yul\":1195:1201   */\n      0x00\n        /* \"#utility.yul\":1222:1242   */\n      tag_236\n      tag_150\n      jump\t// in\n    tag_236:\n        /* \"#utility.yul\":1212:1242   */\n      swap1\n      pop\n        /* \"#utility.yul\":1251:1284   */\n      tag_237\n        /* \"#utility.yul\":1279:1283   */\n      dup3\n        /* \"#utility.yul\":1271:1277   */\n      dup3\n        /* \"#utility.yul\":1251:1284   */\n      tag_157\n      jump\t// in\n    tag_237:\n        /* \"#utility.yul\":1161:1290   */\n      swap2\n      swap1\n      pop\n      jump\t// out\n        /* \"#utility.yul\":1296:1604   */\n    tag_159:\n        /* \"#utility.yul\":1358:1362   */\n      0x00\n        /* \"#utility.yul\":1448:1466   */\n      0xffffffffffffffff\n        /* \"#utility.yul\":1440:1446   */\n      dup3\n        /* \"#utility.yul\":1437:1467   */\n      gt\n        /* \"#utility.yul\":1434:1490   */\n      iszero\n      tag_239\n      jumpi\n        /* \"#utility.yul\":1470:1488   */\n      tag_240\n      tag_156\n      jump\t// in\n    tag_240:\n        /* \"#utility.yul\":1434:1490   */\n    tag_239:\n        /* \"#utility.yul\":1508:1537   */\n      tag_241\n        /* \"#utility.yul\":1530:1536   */\n      dup3\n        /* \"#utility.yul\":1508:1537   */\n      tag_155\n      jump\t// in\n    tag_241:\n        /* \"#utility.yul\":1500:1537   */\n      swap1\n      pop\n        /* \"#utility.yul\":1592:1596   */\n      0x20\n        /* \"#utility.yul\":1586:1590   */\n      dup2\n        /* \"#utility.yul\":1582:1597   */\n      add\n        /* \"#utility.yul\":1574:1597   */\n      swap1\n      pop\n        /* \"#utility.yul\":1296:1604   */\n      swap2\n      swap1\n      pop\n      jump\t// out\n        /* \"#utility.yul\":1610:1758   */\n    tag_160:\n        /* \"#utility.yul\":1708:1714   */\n      dup3\n        /* \"#utility.yul\":1703:1706   */\n      dup2\n        /* \"#utility.yul\":1698:1701   */\n      dup4\n        /* \"#utility.yul\":1685:1715   */\n      calldatacopy\n        /* \"#utility.yul\":1749:1750   */\n      0x00\n        /* \"#utility.yul\":1740:1746   */\n      dup4\n        /* \"#utility.yul\":1735:1738   */\n      dup4\n        /* \"#utility.yul\":1731:1747   */\n      add\n        /* \"#utility.yul\":1724:1751   */\n      mstore\n        /* \"#utility.yul\":1610:1758   */\n      pop\n      pop\n      pop\n      jump\t// out\n        /* \"#utility.yul\":1764:2189   */\n    tag_161:\n        /* \"#utility.yul\":1842:1847   */\n      0x00\n        /* \"#utility.yul\":1867:1933   */\n      tag_244\n        /* \"#utility.yul\":1883:1932   */\n      tag_245\n        /* \"#utility.yul\":1925:1931   */\n      dup5\n        /* \"#utility.yul\":1883:1932   */\n      tag_159\n      jump\t// in\n    tag_245:\n        /* \"#utility.yul\":1867:1933   */\n      tag_158\n      jump\t// in\n    tag_244:\n        /* \"#utility.yul\":1858:1933   */\n      swap1\n      pop\n        /* \"#utility.yul\":1956:1962   */\n      dup3\n        /* \"#utility.yul\":1949:1954   */\n      dup2\n        /* \"#utility.yul\":1942:1963   */\n      mstore\n        /* \"#utility.yul\":1994:1998   */\n      0x20\n        /* \"#utility.yul\":1987:1992   */\n      dup2\n        /* \"#utility.yul\":1983:1999   */\n      add\n        /* \"#utility.yul\":2032:2035   */\n      dup5\n        /* \"#utility.yul\":2023:2029   */\n      dup5\n        /* \"#utility.yul\":2018:2021   */\n      dup5\n        /* \"#utility.yul\":2014:2030   */\n      add\n        /* \"#utility.yul\":2011:2036   */\n      gt\n        /* \"#utility.yul\":2008:2120   */\n      iszero\n      tag_246\n      jumpi\n        /* \"#utility.yul\":2039:2118   */\n      tag_247\n      tag_154\n      jump\t// in\n    tag_247:\n        /* \"#utility.yul\":2008:2120   */\n    tag_246:\n        /* \"#utility.yul\":2129:2183   */\n      tag_248\n        /* \"#utility.yul\":2176:2182   */\n      dup5\n        /* \"#utility.yul\":2171:2174   */\n      dup3\n        /* \"#utility.yul\":2166:2169   */\n      dup6\n        /* \"#utility.yul\":2129:2183   */\n      tag_160\n      jump\t// in\n    tag_248:\n        /* \"#utility.yul\":1848:2189   */\n      pop\n        /* \"#utility.yul\":1764:2189   */\n      swap4\n      swap3\n      pop\n      pop\n      pop\n      jump\t// out\n        /* \"#utility.yul\":2209:2549   */\n    tag_162:\n        /* \"#utility.yul\":2265:2270   */\n      0x00\n        /* \"#utility.yul\":2314:2317   */\n      dup3\n        /* \"#utility.yul\":2307:2311   */\n      0x1f\n        /* \"#utility.yul\":2299:2305   */\n      dup4\n        /* \"#utility.yul\":2295:2312   */\n      add\n        /* \"#utility.yul\":2291:2318   */\n      slt\n        /* \"#utility.yul\":2281:2403   */\n      tag_250\n      jumpi\n        /* \"#utility.yul\":2322:2401   */\n      tag_251\n      tag_153\n      jump\t// in\n    tag_251:\n        /* \"#utility.yul\":2281:2403   */\n    tag_250:\n        /* \"#utility.yul\":2439:2445   */\n      dup2\n        /* \"#utility.yul\":2426:2446   */\n      calldataload\n        /* \"#utility.yul\":2464:2543   */\n      tag_252\n        /* \"#utility.yul\":2539:2542   */\n      dup5\n        /* \"#utility.yul\":2531:2537   */\n      dup3\n        /* \"#utility.yul\":2524:2528   */\n      0x20\n        /* \"#utility.yul\":2516:2522   */\n      dup7\n        /* \"#utility.yul\":2512:2529   */\n      add\n        /* \"#utility.yul\":2464:2543   */\n      tag_161\n      jump\t// in\n    tag_252:\n        /* \"#utility.yul\":2455:2543   */\n      swap2\n      pop\n        /* \"#utility.yul\":2271:2549   */\n      pop\n        /* \"#utility.yul\":2209:2549   */\n      swap3\n      swap2\n      pop\n      pop\n      jump\t// out\n        /* \"#utility.yul\":2555:2681   */\n    tag_163:\n        /* \"#utility.yul\":2592:2599   */\n      0x00\n        /* \"#utility.yul\":2632:2674   */\n      0xffffffffffffffffffffffffffffffffffffffff\n        /* \"#utility.yul\":2625:2630   */\n      dup3\n        /* \"#utility.yul\":2621:2675   */\n      and\n        /* \"#utility.yul\":2610:2675   */\n      swap1\n      pop\n        /* \"#utility.yul\":2555:2681   */\n      swap2\n      swap1\n      pop\n      jump\t// out\n        /* \"#utility.yul\":2687:2783   */\n    tag_164:\n        /* \"#utility.yul\":2724:2731   */\n      0x00\n        /* \"#utility.yul\":2753:2777   */\n      tag_255\n        /* \"#utility.yul\":2771:2776   */\n      dup3\n        /* \"#utility.yul\":2753:2777   */\n      tag_163\n      jump\t// in\n    tag_255:\n        /* \"#utility.yul\":2742:2777   */\n      swap1\n      pop\n        /* \"#utility.yul\":2687:2783   */\n      swap2\n      swap1\n      pop\n      jump\t// out\n        /* \"#utility.yul\":2789:2911   */\n    tag_165:\n        /* \"#utility.yul\":2862:2886   */\n      tag_257\n        /* \"#utility.yul\":2880:2885   */\n      dup2\n        /* \"#utility.yul\":2862:2886   */\n      tag_164\n      jump\t// in\n    tag_257:\n        /* \"#utility.yul\":2855:2860   */\n      dup2\n        /* \"#utility.yul\":2852:2887   */\n      eq\n        /* \"#utility.yul\":2842:2905   */\n      tag_258\n      jumpi\n        /* \"#utility.yul\":2901:2902   */\n      0x00\n        /* \"#utility.yul\":2898:2899   */\n      0x00\n        /* \"#utility.yul\":2891:2903   */\n      revert\n        /* \"#utility.yul\":2842:2905   */\n    tag_258:\n        /* \"#utility.yul\":2789:2911   */\n      pop\n      jump\t// out\n        /* \"#utility.yul\":2917:3056   */\n    tag_166:\n        /* \"#utility.yul\":2963:2968   */\n      0x00\n        /* \"#utility.yul\":3001:3007   */\n      dup2\n        /* \"#utility.yul\":2988:3008   */\n      calldataload\n        /* \"#utility.yul\":2979:3008   */\n      swap1\n      pop\n        /* \"#utility.yul\":3017:3050   */\n      tag_260\n        /* \"#utility.yul\":3044:3049   */\n      dup2\n        /* \"#utility.yul\":3017:3050   */\n      tag_165\n      jump\t// in\n    tag_260:\n        /* \"#utility.yul\":2917:3056   */\n      swap3\n      swap2\n      pop\n      pop\n      jump\t// out\n        /* \"#utility.yul\":3062:3716   */\n    tag_14:\n        /* \"#utility.yul\":3140:3146   */\n      0x00\n        /* \"#utility.yul\":3148:3154   */\n      0x00\n        /* \"#utility.yul\":3197:3199   */\n      0x40\n        /* \"#utility.yul\":3185:3194   */\n      dup4\n        /* \"#utility.yul\":3176:3183   */\n      dup6\n        /* \"#utility.yul\":3172:3195   */\n      sub\n        /* \"#utility.yul\":3168:3200   */\n      slt\n        /* \"#utility.yul\":3165:3284   */\n      iszero\n      tag_262\n      jumpi\n        /* \"#utility.yul\":3203:3282   */\n      tag_263\n      tag_151\n      jump\t// in\n    tag_263:\n        /* \"#utility.yul\":3165:3284   */\n    tag_262:\n        /* \"#utility.yul\":3351:3352   */\n      0x00\n        /* \"#utility.yul\":3340:3349   */\n      dup4\n        /* \"#utility.yul\":3336:3353   */\n      add\n        /* \"#utility.yul\":3323:3354   */\n      calldataload\n        /* \"#utility.yul\":3381:3399   */\n      0xffffffffffffffff\n        /* \"#utility.yul\":3373:3379   */\n      dup2\n        /* \"#utility.yul\":3370:3400   */\n      gt\n        /* \"#utility.yul\":3367:3484   */\n      iszero\n      tag_264\n      jumpi\n        /* \"#utility.yul\":3403:3482   */\n      tag_265\n      tag_152\n      jump\t// in\n    tag_265:\n        /* \"#utility.yul\":3367:3484   */\n    tag_264:\n        /* \"#utility.yul\":3508:3571   */\n      tag_266\n        /* \"#utility.yul\":3563:3570   */\n      dup6\n        /* \"#utility.yul\":3554:3560   */\n      dup3\n        /* \"#utility.yul\":3543:3552   */\n      dup7\n        /* \"#utility.yul\":3539:3561   */\n      add\n        /* \"#utility.yul\":3508:3571   */\n      tag_162\n      jump\t// in\n    tag_266:\n        /* \"#utility.yul\":3498:3571   */\n      swap3\n      pop\n        /* \"#utility.yul\":3294:3581   */\n      pop\n        /* \"#utility.yul\":3620:3622   */\n      0x20\n        /* \"#utility.yul\":3646:3699   */\n      tag_267\n        /* \"#utility.yul\":3691:3698   */\n      dup6\n        /* \"#utility.yul\":3682:3688   */\n      dup3\n        /* \"#utility.yul\":3671:3680   */\n      dup7\n        /* \"#utility.yul\":3667:3689   */\n      add\n        /* \"#utility.yul\":3646:3699   */\n      tag_166\n      jump\t// in\n    tag_267:\n        /* \"#utility.yul\":3636:3699   */\n      swap2\n      pop\n        /* \"#utility.yul\":3591:3709   */\n      pop\n        /* \"#utility.yul\":3062:3716   */\n      swap3\n      pop\n      swap3\n      swap1\n      pop\n      jump\t// out\n        /* \"#utility.yul\":3722:4231   */\n    tag_18:\n        /* \"#utility.yul\":3791:3797   */\n      0x00\n        /* \"#utility.yul\":3840:3842   */\n      0x20\n        /* \"#utility.yul\":3828:3837   */\n      dup3\n        /* \"#utility.yul\":3819:3826   */\n      dup5\n        /* \"#utility.yul\":3815:3838   */\n      sub\n        /* \"#utility.yul\":3811:3843   */\n      slt\n        /* \"#utility.yul\":3808:3927   */\n      iszero\n      tag_269\n      jumpi\n        /* \"#utility.yul\":3846:3925   */\n      tag_270\n      tag_151\n      jump\t// in\n    tag_270:\n        /* \"#utility.yul\":3808:3927   */\n    tag_269:\n        /* \"#utility.yul\":3994:3995   */\n      0x00\n        /* \"#utility.yul\":3983:3992   */\n      dup3\n        /* \"#utility.yul\":3979:3996   */\n      add\n        /* \"#utility.yul\":3966:3997   */\n      calldataload\n        /* \"#utility.yul\":4024:4042   */\n      0xffffffffffffffff\n        /* \"#utility.yul\":4016:4022   */\n      dup2\n        /* \"#utility.yul\":4013:4043   */\n      gt\n        /* \"#utility.yul\":4010:4127   */\n      iszero\n      tag_271\n      jumpi\n        /* \"#utility.yul\":4046:4125   */\n      tag_272\n      tag_152\n      jump\t// in\n    tag_272:\n        /* \"#utility.yul\":4010:4127   */\n    tag_271:\n        /* \"#utility.yul\":4151:4214   */\n      tag_273\n        /* \"#utility.yul\":4206:4213   */\n      dup5\n        /* \"#utility.yul\":4197:4203   */\n      dup3\n        /* \"#utility.yul\":4186:4195   */\n      dup6\n        /* \"#utility.yul\":4182:4204   */\n      add\n        /* \"#utility.yul\":4151:4214   */\n      tag_162\n      jump\t// in\n    tag_273:\n        /* \"#utility.yul\":4141:4214   */\n      swap2\n      pop\n        /* \"#utility.yul\":3937:4224   */\n      pop\n        /* \"#utility.yul\":3722:4231   */\n      swap3\n      swap2\n      pop\n      pop\n      jump\t// out\n        /* \"#utility.yul\":4237:4379   */\n    tag_167:\n        /* \"#utility.yul\":4332:4338   */\n      0x00\n        /* \"#utility.yul\":4366:4371   */\n      dup2\n        /* \"#utility.yul\":4360:4372   */\n      mload\n        /* \"#utility.yul\":4350:4372   */\n      swap1\n      pop\n        /* \"#utility.yul\":4237:4379   */\n      swap2\n      swap1\n      pop\n      jump\t// out\n        /* \"#utility.yul\":4385:4597   */\n    tag_168:\n        /* \"#utility.yul\":4512:4523   */\n      0x00\n        /* \"#utility.yul\":4546:4552   */\n      dup3\n        /* \"#utility.yul\":4541:4544   */\n      dup3\n        /* \"#utility.yul\":4534:4553   */\n      mstore\n        /* \"#utility.yul\":4586:4590   */\n      0x20\n        /* \"#utility.yul\":4581:4584   */\n      dup3\n        /* \"#utility.yul\":4577:4591   */\n      add\n        /* \"#utility.yul\":4562:4591   */\n      swap1\n      pop\n        /* \"#utility.yul\":4385:4597   */\n      swap3\n      swap2\n      pop\n      pop\n      jump\t// out\n        /* \"#utility.yul\":4603:4763   */\n    tag_169:\n        /* \"#utility.yul\":4698:4702   */\n      0x00\n        /* \"#utility.yul\":4721:4724   */\n      dup2\n        /* \"#utility.yul\":4713:4724   */\n      swap1\n      pop\n        /* \"#utility.yul\":4751:4755   */\n      0x20\n        /* \"#utility.yul\":4746:4749   */\n      dup3\n        /* \"#utility.yul\":4742:4756   */\n      add\n        /* \"#utility.yul\":4734:4756   */\n      swap1\n      pop\n        /* \"#utility.yul\":4603:4763   */\n      swap2\n      swap1\n      pop\n      jump\t// out\n        /* \"#utility.yul\":4769:4877   */\n    tag_170:\n        /* \"#utility.yul\":4846:4870   */\n      tag_278\n        /* \"#utility.yul\":4864:4869   */\n      dup2\n        /* \"#utility.yul\":4846:4870   */\n      tag_164\n      jump\t// in\n    tag_278:\n        /* \"#utility.yul\":4841:4844   */\n      dup3\n        /* \"#utility.yul\":4834:4871   */\n      mstore\n        /* \"#utility.yul\":4769:4877   */\n      pop\n      pop\n      jump\t// out\n        /* \"#utility.yul\":4883:4960   */\n    tag_171:\n        /* \"#utility.yul\":4920:4927   */\n      0x00\n        /* \"#utility.yul\":4949:4954   */\n      dup2\n        /* \"#utility.yul\":4938:4954   */\n      swap1\n      pop\n        /* \"#utility.yul\":4883:4960   */\n      swap2\n      swap1\n      pop\n      jump\t// out\n        /* \"#utility.yul\":4966:5074   */\n    tag_172:\n        /* \"#utility.yul\":5043:5067   */\n      tag_281\n        /* \"#utility.yul\":5061:5066   */\n      dup2\n        /* \"#utility.yul\":5043:5067   */\n      tag_171\n      jump\t// in\n    tag_281:\n        /* \"#utility.yul\":5038:5041   */\n      dup3\n        /* \"#utility.yul\":5031:5068   */\n      mstore\n        /* \"#utility.yul\":4966:5074   */\n      pop\n      pop\n      jump\t// out\n        /* \"#utility.yul\":5080:5170   */\n    tag_173:\n        /* \"#utility.yul\":5114:5121   */\n      0x00\n        /* \"#utility.yul\":5157:5162   */\n      dup2\n        /* \"#utility.yul\":5150:5163   */\n      iszero\n        /* \"#utility.yul\":5143:5164   */\n      iszero\n        /* \"#utility.yul\":5132:5164   */\n      swap1\n      pop\n        /* \"#utility.yul\":5080:5170   */\n      swap2\n      swap1\n      pop\n      jump\t// out\n        /* \"#utility.yul\":5176:5275   */\n    tag_174:\n        /* \"#utility.yul\":5247:5268   */\n      tag_284\n        /* \"#utility.yul\":5262:5267   */\n      dup2\n        /* \"#utility.yul\":5247:5268   */\n      tag_173\n      jump\t// in\n    tag_284:\n        /* \"#utility.yul\":5242:5245   */\n      dup3\n        /* \"#utility.yul\":5235:5269   */\n      mstore\n        /* \"#utility.yul\":5176:5275   */\n      pop\n      pop\n      jump\t// out\n        /* \"#utility.yul\":5349:6032   */\n    tag_175:\n        /* \"#utility.yul\":5492:5496   */\n      0x60\n        /* \"#utility.yul\":5487:5490   */\n      dup3\n        /* \"#utility.yul\":5483:5497   */\n      add\n        /* \"#utility.yul\":5581:5585   */\n      0x00\n        /* \"#utility.yul\":5574:5579   */\n      dup3\n        /* \"#utility.yul\":5570:5586   */\n      add\n        /* \"#utility.yul\":5564:5587   */\n      mload\n        /* \"#utility.yul\":5600:5663   */\n      tag_286\n        /* \"#utility.yul\":5657:5661   */\n      0x00\n        /* \"#utility.yul\":5652:5655   */\n      dup6\n        /* \"#utility.yul\":5648:5662   */\n      add\n        /* \"#utility.yul\":5634:5646   */\n      dup3\n        /* \"#utility.yul\":5600:5663   */\n      tag_170\n      jump\t// in\n    tag_286:\n        /* \"#utility.yul\":5507:5673   */\n      pop\n        /* \"#utility.yul\":5759:5763   */\n      0x20\n        /* \"#utility.yul\":5752:5757   */\n      dup3\n        /* \"#utility.yul\":5748:5764   */\n      add\n        /* \"#utility.yul\":5742:5765   */\n      mload\n        /* \"#utility.yul\":5778:5841   */\n      tag_287\n        /* \"#utility.yul\":5835:5839   */\n      0x20\n        /* \"#utility.yul\":5830:5833   */\n      dup6\n        /* \"#utility.yul\":5826:5840   */\n      add\n        /* \"#utility.yul\":5812:5824   */\n      dup3\n        /* \"#utility.yul\":5778:5841   */\n      tag_172\n      jump\t// in\n    tag_287:\n        /* \"#utility.yul\":5683:5851   */\n      pop\n        /* \"#utility.yul\":5939:5943   */\n      0x40\n        /* \"#utility.yul\":5932:5937   */\n      dup3\n        /* \"#utility.yul\":5928:5944   */\n      add\n        /* \"#utility.yul\":5922:5945   */\n      mload\n        /* \"#utility.yul\":5958:6015   */\n      tag_288\n        /* \"#utility.yul\":6009:6013   */\n      0x40\n        /* \"#utility.yul\":6004:6007   */\n      dup6\n        /* \"#utility.yul\":6000:6014   */\n      add\n        /* \"#utility.yul\":5986:5998   */\n      dup3\n        /* \"#utility.yul\":5958:6015   */\n      tag_174\n      jump\t// in\n    tag_288:\n        /* \"#utility.yul\":5861:6025   */\n      pop\n        /* \"#utility.yul\":5461:6032   */\n      pop\n        /* \"#utility.yul\":5349:6032   */\n      pop\n      pop\n      jump\t// out\n        /* \"#utility.yul\":6038:6329   */\n    tag_176:\n        /* \"#utility.yul\":6163:6173   */\n      0x00\n        /* \"#utility.yul\":6184:6286   */\n      tag_290\n        /* \"#utility.yul\":6282:6285   */\n      dup4\n        /* \"#utility.yul\":6274:6280   */\n      dup4\n        /* \"#utility.yul\":6184:6286   */\n      tag_175\n      jump\t// in\n    tag_290:\n        /* \"#utility.yul\":6318:6322   */\n      0x60\n        /* \"#utility.yul\":6313:6316   */\n      dup4\n        /* \"#utility.yul\":6309:6323   */\n      add\n        /* \"#utility.yul\":6295:6323   */\n      swap1\n      pop\n        /* \"#utility.yul\":6038:6329   */\n      swap3\n      swap2\n      pop\n      pop\n      jump\t// out\n        /* \"#utility.yul\":6335:6476   */\n    tag_177:\n        /* \"#utility.yul\":6433:6437   */\n      0x00\n        /* \"#utility.yul\":6465:6469   */\n      0x20\n        /* \"#utility.yul\":6460:6463   */\n      dup3\n        /* \"#utility.yul\":6456:6470   */\n      add\n        /* \"#utility.yul\":6448:6470   */\n      swap1\n      pop\n        /* \"#utility.yul\":6335:6476   */\n      swap2\n      swap1\n      pop\n      jump\t// out\n        /* \"#utility.yul\":6554:7510   */\n    tag_178:\n        /* \"#utility.yul\":6729:6732   */\n      0x00\n        /* \"#utility.yul\":6758:6840   */\n      tag_293\n        /* \"#utility.yul\":6834:6839   */\n      dup3\n        /* \"#utility.yul\":6758:6840   */\n      tag_167\n      jump\t// in\n    tag_293:\n        /* \"#utility.yul\":6856:6970   */\n      tag_294\n        /* \"#utility.yul\":6963:6969   */\n      dup2\n        /* \"#utility.yul\":6958:6961   */\n      dup6\n        /* \"#utility.yul\":6856:6970   */\n      tag_168\n      jump\t// in\n    tag_294:\n        /* \"#utility.yul\":6849:6970   */\n      swap4\n      pop\n        /* \"#utility.yul\":6994:7078   */\n      tag_295\n        /* \"#utility.yul\":7072:7077   */\n      dup4\n        /* \"#utility.yul\":6994:7078   */\n      tag_169\n      jump\t// in\n    tag_295:\n        /* \"#utility.yul\":7101:7108   */\n      dup1\n        /* \"#utility.yul\":7132:7133   */\n      0x00\n        /* \"#utility.yul\":7117:7485   */\n    tag_296:\n        /* \"#utility.yul\":7142:7148   */\n      dup4\n        /* \"#utility.yul\":7139:7140   */\n      dup2\n        /* \"#utility.yul\":7136:7149   */\n      lt\n        /* \"#utility.yul\":7117:7485   */\n      iszero\n      tag_298\n      jumpi\n        /* \"#utility.yul\":7218:7224   */\n      dup2\n        /* \"#utility.yul\":7212:7225   */\n      mload\n        /* \"#utility.yul\":7245:7364   */\n      tag_299\n        /* \"#utility.yul\":7360:7363   */\n      dup9\n        /* \"#utility.yul\":7345:7358   */\n      dup3\n        /* \"#utility.yul\":7245:7364   */\n      tag_176\n      jump\t// in\n    tag_299:\n        /* \"#utility.yul\":7238:7364   */\n      swap8\n      pop\n        /* \"#utility.yul\":7387:7475   */\n      tag_300\n        /* \"#utility.yul\":7468:7474   */\n      dup4\n        /* \"#utility.yul\":7387:7475   */\n      tag_177\n      jump\t// in\n    tag_300:\n        /* \"#utility.yul\":7377:7475   */\n      swap3\n      pop\n        /* \"#utility.yul\":7177:7485   */\n      pop\n        /* \"#utility.yul\":7164:7165   */\n      0x01\n        /* \"#utility.yul\":7161:7162   */\n      dup2\n        /* \"#utility.yul\":7157:7166   */\n      add\n        /* \"#utility.yul\":7152:7166   */\n      swap1\n      pop\n        /* \"#utility.yul\":7117:7485   */\n      jump(tag_296)\n    tag_298:\n        /* \"#utility.yul\":7121:7135   */\n      pop\n        /* \"#utility.yul\":7501:7504   */\n      dup6\n        /* \"#utility.yul\":7494:7504   */\n      swap4\n      pop\n        /* \"#utility.yul\":6734:7510   */\n      pop\n      pop\n      pop\n        /* \"#utility.yul\":6554:7510   */\n      swap3\n      swap2\n      pop\n      pop\n      jump\t// out\n        /* \"#utility.yul\":7516:8001   */\n    tag_21:\n        /* \"#utility.yul\":7715:7719   */\n      0x00\n        /* \"#utility.yul\":7753:7755   */\n      0x20\n        /* \"#utility.yul\":7742:7751   */\n      dup3\n        /* \"#utility.yul\":7738:7756   */\n      add\n        /* \"#utility.yul\":7730:7756   */\n      swap1\n      pop\n        /* \"#utility.yul\":7802:7811   */\n      dup2\n        /* \"#utility.yul\":7796:7800   */\n      dup2\n        /* \"#utility.yul\":7792:7812   */\n      sub\n        /* \"#utility.yul\":7788:7789   */\n      0x00\n        /* \"#utility.yul\":7777:7786   */\n      dup4\n        /* \"#utility.yul\":7773:7790   */\n      add\n        /* \"#utility.yul\":7766:7813   */\n      mstore\n        /* \"#utility.yul\":7830:7994   */\n      tag_302\n        /* \"#utility.yul\":7989:7993   */\n      dup2\n        /* \"#utility.yul\":7980:7986   */\n      dup5\n        /* \"#utility.yul\":7830:7994   */\n      tag_178\n      jump\t// in\n    tag_302:\n        /* \"#utility.yul\":7822:7994   */\n      swap1\n      pop\n        /* \"#utility.yul\":7516:8001   */\n      swap3\n      swap2\n      pop\n      pop\n      jump\t// out\n        /* \"#utility.yul\":8007:8129   */\n    tag_179:\n        /* \"#utility.yul\":8080:8104   */\n      tag_304\n        /* \"#utility.yul\":8098:8103   */\n      dup2\n        /* \"#utility.yul\":8080:8104   */\n      tag_171\n      jump\t// in\n    tag_304:\n        /* \"#utility.yul\":8073:8078   */\n      dup2\n        /* \"#utility.yul\":8070:8105   */\n      eq\n        /* \"#utility.yul\":8060:8123   */\n      tag_305\n      jumpi\n        /* \"#utility.yul\":8119:8120   */\n      0x00\n        /* \"#utility.yul\":8116:8117   */\n      0x00\n        /* \"#utility.yul\":8109:8121   */\n      revert\n        /* \"#utility.yul\":8060:8123   */\n    tag_305:\n        /* \"#utility.yul\":8007:8129   */\n      pop\n      jump\t// out\n        /* \"#utility.yul\":8135:8274   */\n    tag_180:\n        /* \"#utility.yul\":8181:8186   */\n      0x00\n        /* \"#utility.yul\":8219:8225   */\n      dup2\n        /* \"#utility.yul\":8206:8226   */\n      calldataload\n        /* \"#utility.yul\":8197:8226   */\n      swap1\n      pop\n        /* \"#utility.yul\":8235:8268   */\n      tag_307\n        /* \"#utility.yul\":8262:8267   */\n      dup2\n        /* \"#utility.yul\":8235:8268   */\n      tag_179\n      jump\t// in\n    tag_307:\n        /* \"#utility.yul\":8135:8274   */\n      swap3\n      swap2\n      pop\n      pop\n      jump\t// out\n        /* \"#utility.yul\":8280:8609   */\n    tag_24:\n        /* \"#utility.yul\":8339:8345   */\n      0x00\n        /* \"#utility.yul\":8388:8390   */\n      0x20\n        /* \"#utility.yul\":8376:8385   */\n      dup3\n        /* \"#utility.yul\":8367:8374   */\n      dup5\n        /* \"#utility.yul\":8363:8386   */\n      sub\n        /* \"#utility.yul\":8359:8391   */\n      slt\n        /* \"#utility.yul\":8356:8475   */\n      iszero\n      tag_309\n      jumpi\n        /* \"#utility.yul\":8394:8473   */\n      tag_310\n      tag_151\n      jump\t// in\n    tag_310:\n        /* \"#utility.yul\":8356:8475   */\n    tag_309:\n        /* \"#utility.yul\":8514:8515   */\n      0x00\n        /* \"#utility.yul\":8539:8592   */\n      tag_311\n        /* \"#utility.yul\":8584:8591   */\n      dup5\n        /* \"#utility.yul\":8575:8581   */\n      dup3\n        /* \"#utility.yul\":8564:8573   */\n      dup6\n        /* \"#utility.yul\":8560:8582   */\n      add\n        /* \"#utility.yul\":8539:8592   */\n      tag_180\n      jump\t// in\n    tag_311:\n        /* \"#utility.yul\":8529:8592   */\n      swap2\n      pop\n        /* \"#utility.yul\":8485:8602   */\n      pop\n        /* \"#utility.yul\":8280:8609   */\n      swap3\n      swap2\n      pop\n      pop\n      jump\t// out\n        /* \"#utility.yul\":8615:8714   */\n    tag_181:\n        /* \"#utility.yul\":8667:8673   */\n      0x00\n        /* \"#utility.yul\":8701:8706   */\n      dup2\n        /* \"#utility.yul\":8695:8707   */\n      mload\n        /* \"#utility.yul\":8685:8707   */\n      swap1\n      pop\n        /* \"#utility.yul\":8615:8714   */\n      swap2\n      swap1\n      pop\n      jump\t// out\n        /* \"#utility.yul\":8720:8889   */\n    tag_182:\n        /* \"#utility.yul\":8804:8815   */\n      0x00\n        /* \"#utility.yul\":8838:8844   */\n      dup3\n        /* \"#utility.yul\":8833:8836   */\n      dup3\n        /* \"#utility.yul\":8826:8845   */\n      mstore\n        /* \"#utility.yul\":8878:8882   */\n      0x20\n        /* \"#utility.yul\":8873:8876   */\n      dup3\n        /* \"#utility.yul\":8869:8883   */\n      add\n        /* \"#utility.yul\":8854:8883   */\n      swap1\n      pop\n        /* \"#utility.yul\":8720:8889   */\n      swap3\n      swap2\n      pop\n      pop\n      jump\t// out\n        /* \"#utility.yul\":8895:9034   */\n    tag_183:\n        /* \"#utility.yul\":8984:8990   */\n      dup3\n        /* \"#utility.yul\":8979:8982   */\n      dup2\n        /* \"#utility.yul\":8974:8977   */\n      dup4\n        /* \"#utility.yul\":8968:8991   */\n      mcopy\n        /* \"#utility.yul\":9025:9026   */\n      0x00\n        /* \"#utility.yul\":9016:9022   */\n      dup4\n        /* \"#utility.yul\":9011:9014   */\n      dup4\n        /* \"#utility.yul\":9007:9023   */\n      add\n        /* \"#utility.yul\":9000:9027   */\n      mstore\n        /* \"#utility.yul\":8895:9034   */\n      pop\n      pop\n      pop\n      jump\t// out\n        /* \"#utility.yul\":9040:9417   */\n    tag_184:\n        /* \"#utility.yul\":9128:9131   */\n      0x00\n        /* \"#utility.yul\":9156:9195   */\n      tag_316\n        /* \"#utility.yul\":9189:9194   */\n      dup3\n        /* \"#utility.yul\":9156:9195   */\n      tag_181\n      jump\t// in\n    tag_316:\n        /* \"#utility.yul\":9211:9282   */\n      tag_317\n        /* \"#utility.yul\":9275:9281   */\n      dup2\n        /* \"#utility.yul\":9270:9273   */\n      dup6\n        /* \"#utility.yul\":9211:9282   */\n      tag_182\n      jump\t// in\n    tag_317:\n        /* \"#utility.yul\":9204:9282   */\n      swap4\n      pop\n        /* \"#utility.yul\":9291:9356   */\n      tag_318\n        /* \"#utility.yul\":9349:9355   */\n      dup2\n        /* \"#utility.yul\":9344:9347   */\n      dup6\n        /* \"#utility.yul\":9337:9341   */\n      0x20\n        /* \"#utility.yul\":9330:9335   */\n      dup7\n        /* \"#utility.yul\":9326:9342   */\n      add\n        /* \"#utility.yul\":9291:9356   */\n      tag_183\n      jump\t// in\n    tag_318:\n        /* \"#utility.yul\":9381:9410   */\n      tag_319\n        /* \"#utility.yul\":9403:9409   */\n      dup2\n        /* \"#utility.yul\":9381:9410   */\n      tag_155\n      jump\t// in\n    tag_319:\n        /* \"#utility.yul\":9376:9379   */\n      dup5\n        /* \"#utility.yul\":9372:9411   */\n      add\n        /* \"#utility.yul\":9365:9411   */\n      swap2\n      pop\n        /* \"#utility.yul\":9132:9417   */\n      pop\n        /* \"#utility.yul\":9040:9417   */\n      swap3\n      swap2\n      pop\n      pop\n      jump\t// out\n        /* \"#utility.yul\":9423:9736   */\n    tag_27:\n        /* \"#utility.yul\":9536:9540   */\n      0x00\n        /* \"#utility.yul\":9574:9576   */\n      0x20\n        /* \"#utility.yul\":9563:9572   */\n      dup3\n        /* \"#utility.yul\":9559:9577   */\n      add\n        /* \"#utility.yul\":9551:9577   */\n      swap1\n      pop\n        /* \"#utility.yul\":9623:9632   */\n      dup2\n        /* \"#utility.yul\":9617:9621   */\n      dup2\n        /* \"#utility.yul\":9613:9633   */\n      sub\n        /* \"#utility.yul\":9609:9610   */\n      0x00\n        /* \"#utility.yul\":9598:9607   */\n      dup4\n        /* \"#utility.yul\":9594:9611   */\n      add\n        /* \"#utility.yul\":9587:9634   */\n      mstore\n        /* \"#utility.yul\":9651:9729   */\n      tag_321\n        /* \"#utility.yul\":9724:9728   */\n      dup2\n        /* \"#utility.yul\":9715:9721   */\n      dup5\n        /* \"#utility.yul\":9651:9729   */\n      tag_184\n      jump\t// in\n    tag_321:\n        /* \"#utility.yul\":9643:9729   */\n      swap1\n      pop\n        /* \"#utility.yul\":9423:9736   */\n      swap3\n      swap2\n      pop\n      pop\n      jump\t// out\n        /* \"#utility.yul\":9742:9883   */\n    tag_185:\n        /* \"#utility.yul\":9836:9842   */\n      0x00\n        /* \"#utility.yul\":9870:9875   */\n      dup2\n        /* \"#utility.yul\":9864:9876   */\n      mload\n        /* \"#utility.yul\":9854:9876   */\n      swap1\n      pop\n        /* \"#utility.yul\":9742:9883   */\n      swap2\n      swap1\n      pop\n      jump\t// out\n        /* \"#utility.yul\":9889:10100   */\n    tag_186:\n        /* \"#utility.yul\":10015:10026   */\n      0x00\n        /* \"#utility.yul\":10049:10055   */\n      dup3\n        /* \"#utility.yul\":10044:10047   */\n      dup3\n        /* \"#utility.yul\":10037:10056   */\n      mstore\n        /* \"#utility.yul\":10089:10093   */\n      0x20\n        /* \"#utility.yul\":10084:10087   */\n      dup3\n        /* \"#utility.yul\":10080:10094   */\n      add\n        /* \"#utility.yul\":10065:10094   */\n      swap1\n      pop\n        /* \"#utility.yul\":9889:10100   */\n      swap3\n      swap2\n      pop\n      pop\n      jump\t// out\n        /* \"#utility.yul\":10106:10265   */\n    tag_187:\n        /* \"#utility.yul\":10200:10204   */\n      0x00\n        /* \"#utility.yul\":10223:10226   */\n      dup2\n        /* \"#utility.yul\":10215:10226   */\n      swap1\n      pop\n        /* \"#utility.yul\":10253:10257   */\n      0x20\n        /* \"#utility.yul\":10248:10251   */\n      dup3\n        /* \"#utility.yul\":10244:10258   */\n      add\n        /* \"#utility.yul\":10236:10258   */\n      swap1\n      pop\n        /* \"#utility.yul\":10106:10265   */\n      swap2\n      swap1\n      pop\n      jump\t// out\n        /* \"#utility.yul\":10337:11186   */\n    tag_188:\n        /* \"#utility.yul\":10478:10482   */\n      0x80\n        /* \"#utility.yul\":10473:10476   */\n      dup3\n        /* \"#utility.yul\":10469:10483   */\n      add\n        /* \"#utility.yul\":10565:10569   */\n      0x00\n        /* \"#utility.yul\":10558:10563   */\n      dup3\n        /* \"#utility.yul\":10554:10570   */\n      add\n        /* \"#utility.yul\":10548:10571   */\n      mload\n        /* \"#utility.yul\":10584:10647   */\n      tag_326\n        /* \"#utility.yul\":10641:10645   */\n      0x00\n        /* \"#utility.yul\":10636:10639   */\n      dup6\n        /* \"#utility.yul\":10632:10646   */\n      add\n        /* \"#utility.yul\":10618:10630   */\n      dup3\n        /* \"#utility.yul\":10584:10647   */\n      tag_170\n      jump\t// in\n    tag_326:\n        /* \"#utility.yul\":10493:10657   */\n      pop\n        /* \"#utility.yul\":10737:10741   */\n      0x20\n        /* \"#utility.yul\":10730:10735   */\n      dup3\n        /* \"#utility.yul\":10726:10742   */\n      add\n        /* \"#utility.yul\":10720:10743   */\n      mload\n        /* \"#utility.yul\":10756:10819   */\n      tag_327\n        /* \"#utility.yul\":10813:10817   */\n      0x20\n        /* \"#utility.yul\":10808:10811   */\n      dup6\n        /* \"#utility.yul\":10804:10818   */\n      add\n        /* \"#utility.yul\":10790:10802   */\n      dup3\n        /* \"#utility.yul\":10756:10819   */\n      tag_170\n      jump\t// in\n    tag_327:\n        /* \"#utility.yul\":10667:10829   */\n      pop\n        /* \"#utility.yul\":10912:10916   */\n      0x40\n        /* \"#utility.yul\":10905:10910   */\n      dup3\n        /* \"#utility.yul\":10901:10917   */\n      add\n        /* \"#utility.yul\":10895:10918   */\n      mload\n        /* \"#utility.yul\":10931:10994   */\n      tag_328\n        /* \"#utility.yul\":10988:10992   */\n      0x40\n        /* \"#utility.yul\":10983:10986   */\n      dup6\n        /* \"#utility.yul\":10979:10993   */\n      add\n        /* \"#utility.yul\":10965:10977   */\n      dup3\n        /* \"#utility.yul\":10931:10994   */\n      tag_172\n      jump\t// in\n    tag_328:\n        /* \"#utility.yul\":10839:11004   */\n      pop\n        /* \"#utility.yul\":11087:11091   */\n      0x60\n        /* \"#utility.yul\":11080:11085   */\n      dup3\n        /* \"#utility.yul\":11076:11092   */\n      add\n        /* \"#utility.yul\":11070:11093   */\n      mload\n        /* \"#utility.yul\":11106:11169   */\n      tag_329\n        /* \"#utility.yul\":11163:11167   */\n      0x60\n        /* \"#utility.yul\":11158:11161   */\n      dup6\n        /* \"#utility.yul\":11154:11168   */\n      add\n        /* \"#utility.yul\":11140:11152   */\n      dup3\n        /* \"#utility.yul\":11106:11169   */\n      tag_172\n      jump\t// in\n    tag_329:\n        /* \"#utility.yul\":11014:11179   */\n      pop\n        /* \"#utility.yul\":10447:11186   */\n      pop\n        /* \"#utility.yul\":10337:11186   */\n      pop\n      pop\n      jump\t// out\n        /* \"#utility.yul\":11192:11479   */\n    tag_189:\n        /* \"#utility.yul\":11315:11325   */\n      0x00\n        /* \"#utility.yul\":11336:11436   */\n      tag_331\n        /* \"#utility.yul\":11432:11435   */\n      dup4\n        /* \"#utility.yul\":11424:11430   */\n      dup4\n        /* \"#utility.yul\":11336:11436   */\n      tag_188\n      jump\t// in\n    tag_331:\n        /* \"#utility.yul\":11468:11472   */\n      0x80\n        /* \"#utility.yul\":11463:11466   */\n      dup4\n        /* \"#utility.yul\":11459:11473   */\n      add\n        /* \"#utility.yul\":11445:11473   */\n      swap1\n      pop\n        /* \"#utility.yul\":11192:11479   */\n      swap3\n      swap2\n      pop\n      pop\n      jump\t// out\n        /* \"#utility.yul\":11485:11625   */\n    tag_190:\n        /* \"#utility.yul\":11582:11586   */\n      0x00\n        /* \"#utility.yul\":11614:11618   */\n      0x20\n        /* \"#utility.yul\":11609:11612   */\n      dup3\n        /* \"#utility.yul\":11605:11619   */\n      add\n        /* \"#utility.yul\":11597:11619   */\n      swap1\n      pop\n        /* \"#utility.yul\":11485:11625   */\n      swap2\n      swap1\n      pop\n      jump\t// out\n        /* \"#utility.yul\":11701:12649   */\n    tag_191:\n        /* \"#utility.yul\":11874:11877   */\n      0x00\n        /* \"#utility.yul\":11903:11984   */\n      tag_334\n        /* \"#utility.yul\":11978:11983   */\n      dup3\n        /* \"#utility.yul\":11903:11984   */\n      tag_185\n      jump\t// in\n    tag_334:\n        /* \"#utility.yul\":12000:12113   */\n      tag_335\n        /* \"#utility.yul\":12106:12112   */\n      dup2\n        /* \"#utility.yul\":12101:12104   */\n      dup6\n        /* \"#utility.yul\":12000:12113   */\n      tag_186\n      jump\t// in\n    tag_335:\n        /* \"#utility.yul\":11993:12113   */\n      swap4\n      pop\n        /* \"#utility.yul\":12137:12220   */\n      tag_336\n        /* \"#utility.yul\":12214:12219   */\n      dup4\n        /* \"#utility.yul\":12137:12220   */\n      tag_187\n      jump\t// in\n    tag_336:\n        /* \"#utility.yul\":12243:12250   */\n      dup1\n        /* \"#utility.yul\":12274:12275   */\n      0x00\n        /* \"#utility.yul\":12259:12624   */\n    tag_337:\n        /* \"#utility.yul\":12284:12290   */\n      dup4\n        /* \"#utility.yul\":12281:12282   */\n      dup2\n        /* \"#utility.yul\":12278:12291   */\n      lt\n        /* \"#utility.yul\":12259:12624   */\n      iszero\n      tag_339\n      jumpi\n        /* \"#utility.yul\":12360:12366   */\n      dup2\n        /* \"#utility.yul\":12354:12367   */\n      mload\n        /* \"#utility.yul\":12387:12504   */\n      tag_340\n        /* \"#utility.yul\":12500:12503   */\n      dup9\n        /* \"#utility.yul\":12485:12498   */\n      dup3\n        /* \"#utility.yul\":12387:12504   */\n      tag_189\n      jump\t// in\n    tag_340:\n        /* \"#utility.yul\":12380:12504   */\n      swap8\n      pop\n        /* \"#utility.yul\":12527:12614   */\n      tag_341\n        /* \"#utility.yul\":12607:12613   */\n      dup4\n        /* \"#utility.yul\":12527:12614   */\n      tag_190\n      jump\t// in\n    tag_341:\n        /* \"#utility.yul\":12517:12614   */\n      swap3\n      pop\n        /* \"#utility.yul\":12319:12624   */\n      pop\n        /* \"#utility.yul\":12306:12307   */\n      0x01\n        /* \"#utility.yul\":12303:12304   */\n      dup2\n        /* \"#utility.yul\":12299:12308   */\n      add\n        /* \"#utility.yul\":12294:12308   */\n      swap1\n      pop\n        /* \"#utility.yul\":12259:12624   */\n      jump(tag_337)\n    tag_339:\n        /* \"#utility.yul\":12263:12277   */\n      pop\n        /* \"#utility.yul\":12640:12643   */\n      dup6\n        /* \"#utility.yul\":12633:12643   */\n      swap4\n      pop\n        /* \"#utility.yul\":11879:12649   */\n      pop\n      pop\n      pop\n        /* \"#utility.yul\":11701:12649   */\n      swap3\n      swap2\n      pop\n      pop\n      jump\t// out\n        /* \"#utility.yul\":12655:13136   */\n    tag_32:\n        /* \"#utility.yul\":12852:12856   */\n      0x00\n        /* \"#utility.yul\":12890:12892   */\n      0x20\n        /* \"#utility.yul\":12879:12888   */\n      dup3\n        /* \"#utility.yul\":12875:12893   */\n      add\n        /* \"#utility.yul\":12867:12893   */\n      swap1\n      pop\n        /* \"#utility.yul\":12939:12948   */\n      dup2\n        /* \"#utility.yul\":12933:12937   */\n      dup2\n        /* \"#utility.yul\":12929:12949   */\n      sub\n        /* \"#utility.yul\":12925:12926   */\n      0x00\n        /* \"#utility.yul\":12914:12923   */\n      dup4\n        /* \"#utility.yul\":12910:12927   */\n      add\n        /* \"#utility.yul\":12903:12950   */\n      mstore\n        /* \"#utility.yul\":12967:13129   */\n      tag_343\n        /* \"#utility.yul\":13124:13128   */\n      dup2\n        /* \"#utility.yul\":13115:13121   */\n      dup5\n        /* \"#utility.yul\":12967:13129   */\n      tag_191\n      jump\t// in\n    tag_343:\n        /* \"#utility.yul\":12959:13129   */\n      swap1\n      pop\n        /* \"#utility.yul\":12655:13136   */\n      swap3\n      swap2\n      pop\n      pop\n      jump\t// out\n        /* \"#utility.yul\":13142:14379   */\n    tag_35:\n        /* \"#utility.yul\":13256:13262   */\n      0x00\n        /* \"#utility.yul\":13264:13270   */\n      0x00\n        /* \"#utility.yul\":13272:13278   */\n      0x00\n        /* \"#utility.yul\":13280:13286   */\n      0x00\n        /* \"#utility.yul\":13288:13294   */\n      0x00\n        /* \"#utility.yul\":13296:13302   */\n      0x00\n        /* \"#utility.yul\":13345:13348   */\n      0xc0\n        /* \"#utility.yul\":13333:13342   */\n      dup8\n        /* \"#utility.yul\":13324:13331   */\n      dup10\n        /* \"#utility.yul\":13320:13343   */\n      sub\n        /* \"#utility.yul\":13316:13349   */\n      slt\n        /* \"#utility.yul\":13313:13433   */\n      iszero\n      tag_345\n      jumpi\n        /* \"#utility.yul\":13352:13431   */\n      tag_346\n      tag_151\n      jump\t// in\n    tag_346:\n        /* \"#utility.yul\":13313:13433   */\n    tag_345:\n        /* \"#utility.yul\":13500:13501   */\n      0x00\n        /* \"#utility.yul\":13489:13498   */\n      dup8\n        /* \"#utility.yul\":13485:13502   */\n      add\n        /* \"#utility.yul\":13472:13503   */\n      calldataload\n        /* \"#utility.yul\":13530:13548   */\n      0xffffffffffffffff\n        /* \"#utility.yul\":13522:13528   */\n      dup2\n        /* \"#utility.yul\":13519:13549   */\n      gt\n        /* \"#utility.yul\":13516:13633   */\n      iszero\n      tag_347\n      jumpi\n        /* \"#utility.yul\":13552:13631   */\n      tag_348\n      tag_152\n      jump\t// in\n    tag_348:\n        /* \"#utility.yul\":13516:13633   */\n    tag_347:\n        /* \"#utility.yul\":13657:13720   */\n      tag_349\n        /* \"#utility.yul\":13712:13719   */\n      dup10\n        /* \"#utility.yul\":13703:13709   */\n      dup3\n        /* \"#utility.yul\":13692:13701   */\n      dup11\n        /* \"#utility.yul\":13688:13710   */\n      add\n        /* \"#utility.yul\":13657:13720   */\n      tag_162\n      jump\t// in\n    tag_349:\n        /* \"#utility.yul\":13647:13720   */\n      swap7\n      pop\n        /* \"#utility.yul\":13443:13730   */\n      pop\n        /* \"#utility.yul\":13769:13771   */\n      0x20\n        /* \"#utility.yul\":13795:13848   */\n      tag_350\n        /* \"#utility.yul\":13840:13847   */\n      dup10\n        /* \"#utility.yul\":13831:13837   */\n      dup3\n        /* \"#utility.yul\":13820:13829   */\n      dup11\n        /* \"#utility.yul\":13816:13838   */\n      add\n        /* \"#utility.yul\":13795:13848   */\n      tag_180\n      jump\t// in\n    tag_350:\n        /* \"#utility.yul\":13785:13848   */\n      swap6\n      pop\n        /* \"#utility.yul\":13740:13858   */\n      pop\n        /* \"#utility.yul\":13897:13899   */\n      0x40\n        /* \"#utility.yul\":13923:13976   */\n      tag_351\n        /* \"#utility.yul\":13968:13975   */\n      dup10\n        /* \"#utility.yul\":13959:13965   */\n      dup3\n        /* \"#utility.yul\":13948:13957   */\n      dup11\n        /* \"#utility.yul\":13944:13966   */\n      add\n        /* \"#utility.yul\":13923:13976   */\n      tag_180\n      jump\t// in\n    tag_351:\n        /* \"#utility.yul\":13913:13976   */\n      swap5\n      pop\n        /* \"#utility.yul\":13868:13986   */\n      pop\n        /* \"#utility.yul\":14025:14027   */\n      0x60\n        /* \"#utility.yul\":14051:14104   */\n      tag_352\n        /* \"#utility.yul\":14096:14103   */\n      dup10\n        /* \"#utility.yul\":14087:14093   */\n      dup3\n        /* \"#utility.yul\":14076:14085   */\n      dup11\n        /* \"#utility.yul\":14072:14094   */\n      add\n        /* \"#utility.yul\":14051:14104   */\n      tag_180\n      jump\t// in\n    tag_352:\n        /* \"#utility.yul\":14041:14104   */\n      swap4\n      pop\n        /* \"#utility.yul\":13996:14114   */\n      pop\n        /* \"#utility.yul\":14153:14156   */\n      0x80\n        /* \"#utility.yul\":14180:14233   */\n      tag_353\n        /* \"#utility.yul\":14225:14232   */\n      dup10\n        /* \"#utility.yul\":14216:14222   */\n      dup3\n        /* \"#utility.yul\":14205:14214   */\n      dup11\n        /* \"#utility.yul\":14201:14223   */\n      add\n        /* \"#utility.yul\":14180:14233   */\n      tag_180\n      jump\t// in\n    tag_353:\n        /* \"#utility.yul\":14170:14233   */\n      swap3\n      pop\n        /* \"#utility.yul\":14124:14243   */\n      pop\n        /* \"#utility.yul\":14282:14285   */\n      0xa0\n        /* \"#utility.yul\":14309:14362   */\n      tag_354\n        /* \"#utility.yul\":14354:14361   */\n      dup10\n        /* \"#utility.yul\":14345:14351   */\n      dup3\n        /* \"#utility.yul\":14334:14343   */\n      dup11\n        /* \"#utility.yul\":14330:14352   */\n      add\n        /* \"#utility.yul\":14309:14362   */\n      tag_180\n      jump\t// in\n    tag_354:\n        /* \"#utility.yul\":14299:14362   */\n      swap2\n      pop\n        /* \"#utility.yul\":14253:14372   */\n      pop\n        /* \"#utility.yul\":13142:14379   */\n      swap3\n      swap6\n      pop\n      swap3\n      swap6\n      pop\n      swap3\n      swap6\n      jump\t// out\n        /* \"#utility.yul\":14385:15184   */\n    tag_39:\n        /* \"#utility.yul\":14472:14478   */\n      0x00\n        /* \"#utility.yul\":14480:14486   */\n      0x00\n        /* \"#utility.yul\":14488:14494   */\n      0x00\n        /* \"#utility.yul\":14537:14539   */\n      0x60\n        /* \"#utility.yul\":14525:14534   */\n      dup5\n        /* \"#utility.yul\":14516:14523   */\n      dup7\n        /* \"#utility.yul\":14512:14535   */\n      sub\n        /* \"#utility.yul\":14508:14540   */\n      slt\n        /* \"#utility.yul\":14505:14624   */\n      iszero\n      tag_356\n      jumpi\n        /* \"#utility.yul\":14543:14622   */\n      tag_357\n      tag_151\n      jump\t// in\n    tag_357:\n        /* \"#utility.yul\":14505:14624   */\n    tag_356:\n        /* \"#utility.yul\":14691:14692   */\n      0x00\n        /* \"#utility.yul\":14680:14689   */\n      dup5\n        /* \"#utility.yul\":14676:14693   */\n      add\n        /* \"#utility.yul\":14663:14694   */\n      calldataload\n        /* \"#utility.yul\":14721:14739   */\n      0xffffffffffffffff\n        /* \"#utility.yul\":14713:14719   */\n      dup2\n        /* \"#utility.yul\":14710:14740   */\n      gt\n        /* \"#utility.yul\":14707:14824   */\n      iszero\n      tag_358\n      jumpi\n        /* \"#utility.yul\":14743:14822   */\n      tag_359\n      tag_152\n      jump\t// in\n    tag_359:\n        /* \"#utility.yul\":14707:14824   */\n    tag_358:\n        /* \"#utility.yul\":14848:14911   */\n      tag_360\n        /* \"#utility.yul\":14903:14910   */\n      dup7\n        /* \"#utility.yul\":14894:14900   */\n      dup3\n        /* \"#utility.yul\":14883:14892   */\n      dup8\n        /* \"#utility.yul\":14879:14901   */\n      add\n        /* \"#utility.yul\":14848:14911   */\n      tag_162\n      jump\t// in\n    tag_360:\n        /* \"#utility.yul\":14838:14911   */\n      swap4\n      pop\n        /* \"#utility.yul\":14634:14921   */\n      pop\n        /* \"#utility.yul\":14960:14962   */\n      0x20\n        /* \"#utility.yul\":14986:15039   */\n      tag_361\n        /* \"#utility.yul\":15031:15038   */\n      dup7\n        /* \"#utility.yul\":15022:15028   */\n      dup3\n        /* \"#utility.yul\":15011:15020   */\n      dup8\n        /* \"#utility.yul\":15007:15029   */\n      add\n        /* \"#utility.yul\":14986:15039   */\n      tag_166\n      jump\t// in\n    tag_361:\n        /* \"#utility.yul\":14976:15039   */\n      swap3\n      pop\n        /* \"#utility.yul\":14931:15049   */\n      pop\n        /* \"#utility.yul\":15088:15090   */\n      0x40\n        /* \"#utility.yul\":15114:15167   */\n      tag_362\n        /* \"#utility.yul\":15159:15166   */\n      dup7\n        /* \"#utility.yul\":15150:15156   */\n      dup3\n        /* \"#utility.yul\":15139:15148   */\n      dup8\n        /* \"#utility.yul\":15135:15157   */\n      add\n        /* \"#utility.yul\":15114:15167   */\n      tag_180\n      jump\t// in\n    tag_362:\n        /* \"#utility.yul\":15104:15167   */\n      swap2\n      pop\n        /* \"#utility.yul\":15059:15177   */\n      pop\n        /* \"#utility.yul\":14385:15184   */\n      swap3\n      pop\n      swap3\n      pop\n      swap3\n      jump\t// out\n        /* \"#utility.yul\":15190:16135   */\n    tag_43:\n        /* \"#utility.yul\":15286:15292   */\n      0x00\n        /* \"#utility.yul\":15294:15300   */\n      0x00\n        /* \"#utility.yul\":15302:15308   */\n      0x00\n        /* \"#utility.yul\":15310:15316   */\n      0x00\n        /* \"#utility.yul\":15359:15362   */\n      0x80\n        /* \"#utility.yul\":15347:15356   */\n      dup6\n        /* \"#utility.yul\":15338:15345   */\n      dup8\n        /* \"#utility.yul\":15334:15357   */\n      sub\n        /* \"#utility.yul\":15330:15363   */\n      slt\n        /* \"#utility.yul\":15327:15447   */\n      iszero\n      tag_364\n      jumpi\n        /* \"#utility.yul\":15366:15445   */\n      tag_365\n      tag_151\n      jump\t// in\n    tag_365:\n        /* \"#utility.yul\":15327:15447   */\n    tag_364:\n        /* \"#utility.yul\":15514:15515   */\n      0x00\n        /* \"#utility.yul\":15503:15512   */\n      dup6\n        /* \"#utility.yul\":15499:15516   */\n      add\n        /* \"#utility.yul\":15486:15517   */\n      calldataload\n        /* \"#utility.yul\":15544:15562   */\n      0xffffffffffffffff\n        /* \"#utility.yul\":15536:15542   */\n      dup2\n        /* \"#utility.yul\":15533:15563   */\n      gt\n        /* \"#utility.yul\":15530:15647   */\n      iszero\n      tag_366\n      jumpi\n        /* \"#utility.yul\":15566:15645   */\n      tag_367\n      tag_152\n      jump\t// in\n    tag_367:\n        /* \"#utility.yul\":15530:15647   */\n    tag_366:\n        /* \"#utility.yul\":15671:15734   */\n      tag_368\n        /* \"#utility.yul\":15726:15733   */\n      dup8\n        /* \"#utility.yul\":15717:15723   */\n      dup3\n        /* \"#utility.yul\":15706:15715   */\n      dup9\n        /* \"#utility.yul\":15702:15724   */\n      add\n        /* \"#utility.yul\":15671:15734   */\n      tag_162\n      jump\t// in\n    tag_368:\n        /* \"#utility.yul\":15661:15734   */\n      swap5\n      pop\n        /* \"#utility.yul\":15457:15744   */\n      pop\n        /* \"#utility.yul\":15783:15785   */\n      0x20\n        /* \"#utility.yul\":15809:15862   */\n      tag_369\n        /* \"#utility.yul\":15854:15861   */\n      dup8\n        /* \"#utility.yul\":15845:15851   */\n      dup3\n        /* \"#utility.yul\":15834:15843   */\n      dup9\n        /* \"#utility.yul\":15830:15852   */\n      add\n        /* \"#utility.yul\":15809:15862   */\n      tag_166\n      jump\t// in\n    tag_369:\n        /* \"#utility.yul\":15799:15862   */\n      swap4\n      pop\n        /* \"#utility.yul\":15754:15872   */\n      pop\n        /* \"#utility.yul\":15911:15913   */\n      0x40\n        /* \"#utility.yul\":15937:15990   */\n      tag_370\n        /* \"#utility.yul\":15982:15989   */\n      dup8\n        /* \"#utility.yul\":15973:15979   */\n      dup3\n        /* \"#utility.yul\":15962:15971   */\n      dup9\n        /* \"#utility.yul\":15958:15980   */\n      add\n        /* \"#utility.yul\":15937:15990   */\n      tag_166\n      jump\t// in\n    tag_370:\n        /* \"#utility.yul\":15927:15990   */\n      swap3\n      pop\n        /* \"#utility.yul\":15882:16000   */\n      pop\n        /* \"#utility.yul\":16039:16041   */\n      0x60\n        /* \"#utility.yul\":16065:16118   */\n      tag_371\n        /* \"#utility.yul\":16110:16117   */\n      dup8\n        /* \"#utility.yul\":16101:16107   */\n      dup3\n        /* \"#utility.yul\":16090:16099   */\n      dup9\n        /* \"#utility.yul\":16086:16108   */\n      add\n        /* \"#utility.yul\":16065:16118   */\n      tag_180\n      jump\t// in\n    tag_371:\n        /* \"#utility.yul\":16055:16118   */\n      swap2\n      pop\n        /* \"#utility.yul\":16010:16128   */\n      pop\n        /* \"#utility.yul\":15190:16135   */\n      swap3\n      swap6\n      swap2\n      swap5\n      pop\n      swap3\n      pop\n      jump\t// out\n        /* \"#utility.yul\":16141:16259   */\n    tag_192:\n        /* \"#utility.yul\":16228:16252   */\n      tag_373\n        /* \"#utility.yul\":16246:16251   */\n      dup2\n        /* \"#utility.yul\":16228:16252   */\n      tag_164\n      jump\t// in\n    tag_373:\n        /* \"#utility.yul\":16223:16226   */\n      dup3\n        /* \"#utility.yul\":16216:16253   */\n      mstore\n        /* \"#utility.yul\":16141:16259   */\n      pop\n      pop\n      jump\t// out\n        /* \"#utility.yul\":16265:16383   */\n    tag_193:\n        /* \"#utility.yul\":16352:16376   */\n      tag_375\n        /* \"#utility.yul\":16370:16375   */\n      dup2\n        /* \"#utility.yul\":16352:16376   */\n      tag_171\n      jump\t// in\n    tag_375:\n        /* \"#utility.yul\":16347:16350   */\n      dup3\n        /* \"#utility.yul\":16340:16377   */\n      mstore\n        /* \"#utility.yul\":16265:16383   */\n      pop\n      pop\n      jump\t// out\n        /* \"#utility.yul\":16389:17386   */\n    tag_49:\n        /* \"#utility.yul\":16678:16682   */\n      0x00\n        /* \"#utility.yul\":16716:16719   */\n      0x0100\n        /* \"#utility.yul\":16705:16714   */\n      dup3\n        /* \"#utility.yul\":16701:16720   */\n      add\n        /* \"#utility.yul\":16693:16720   */\n      swap1\n      pop\n        /* \"#utility.yul\":16730:16801   */\n      tag_377\n        /* \"#utility.yul\":16798:16799   */\n      0x00\n        /* \"#utility.yul\":16787:16796   */\n      dup4\n        /* \"#utility.yul\":16783:16800   */\n      add\n        /* \"#utility.yul\":16774:16780   */\n      dup12\n        /* \"#utility.yul\":16730:16801   */\n      tag_192\n      jump\t// in\n    tag_377:\n        /* \"#utility.yul\":16811:16883   */\n      tag_378\n        /* \"#utility.yul\":16879:16881   */\n      0x20\n        /* \"#utility.yul\":16868:16877   */\n      dup4\n        /* \"#utility.yul\":16864:16882   */\n      add\n        /* \"#utility.yul\":16855:16861   */\n      dup11\n        /* \"#utility.yul\":16811:16883   */\n      tag_193\n      jump\t// in\n    tag_378:\n        /* \"#utility.yul\":16893:16965   */\n      tag_379\n        /* \"#utility.yul\":16961:16963   */\n      0x40\n        /* \"#utility.yul\":16950:16959   */\n      dup4\n        /* \"#utility.yul\":16946:16964   */\n      add\n        /* \"#utility.yul\":16937:16943   */\n      dup10\n        /* \"#utility.yul\":16893:16965   */\n      tag_193\n      jump\t// in\n    tag_379:\n        /* \"#utility.yul\":16975:17047   */\n      tag_380\n        /* \"#utility.yul\":17043:17045   */\n      0x60\n        /* \"#utility.yul\":17032:17041   */\n      dup4\n        /* \"#utility.yul\":17028:17046   */\n      add\n        /* \"#utility.yul\":17019:17025   */\n      dup9\n        /* \"#utility.yul\":16975:17047   */\n      tag_193\n      jump\t// in\n    tag_380:\n        /* \"#utility.yul\":17057:17130   */\n      tag_381\n        /* \"#utility.yul\":17125:17128   */\n      0x80\n        /* \"#utility.yul\":17114:17123   */\n      dup4\n        /* \"#utility.yul\":17110:17129   */\n      add\n        /* \"#utility.yul\":17101:17107   */\n      dup8\n        /* \"#utility.yul\":17057:17130   */\n      tag_193\n      jump\t// in\n    tag_381:\n        /* \"#utility.yul\":17140:17213   */\n      tag_382\n        /* \"#utility.yul\":17208:17211   */\n      0xa0\n        /* \"#utility.yul\":17197:17206   */\n      dup4\n        /* \"#utility.yul\":17193:17212   */\n      add\n        /* \"#utility.yul\":17184:17190   */\n      dup7\n        /* \"#utility.yul\":17140:17213   */\n      tag_193\n      jump\t// in\n    tag_382:\n        /* \"#utility.yul\":17223:17296   */\n      tag_383\n        /* \"#utility.yul\":17291:17294   */\n      0xc0\n        /* \"#utility.yul\":17280:17289   */\n      dup4\n        /* \"#utility.yul\":17276:17295   */\n      add\n        /* \"#utility.yul\":17267:17273   */\n      dup6\n        /* \"#utility.yul\":17223:17296   */\n      tag_193\n      jump\t// in\n    tag_383:\n        /* \"#utility.yul\":17306:17379   */\n      tag_384\n        /* \"#utility.yul\":17374:17377   */\n      0xe0\n        /* \"#utility.yul\":17363:17372   */\n      dup4\n        /* \"#utility.yul\":17359:17378   */\n      add\n        /* \"#utility.yul\":17350:17356   */\n      dup5\n        /* \"#utility.yul\":17306:17379   */\n      tag_193\n      jump\t// in\n    tag_384:\n        /* \"#utility.yul\":16389:17386   */\n      swap10\n      swap9\n      pop\n      pop\n      pop\n      pop\n      pop\n      pop\n      pop\n      pop\n      pop\n      jump\t// out\n        /* \"#utility.yul\":17392:17540   */\n    tag_194:\n        /* \"#utility.yul\":17494:17505   */\n      0x00\n        /* \"#utility.yul\":17531:17534   */\n      dup2\n        /* \"#utility.yul\":17516:17534   */\n      swap1\n      pop\n        /* \"#utility.yul\":17392:17540   */\n      swap3\n      swap2\n      pop\n      pop\n      jump\t// out\n        /* \"#utility.yul\":17546:17936   */\n    tag_195:\n        /* \"#utility.yul\":17652:17655   */\n      0x00\n        /* \"#utility.yul\":17680:17719   */\n      tag_387\n        /* \"#utility.yul\":17713:17718   */\n      dup3\n        /* \"#utility.yul\":17680:17719   */\n      tag_181\n      jump\t// in\n    tag_387:\n        /* \"#utility.yul\":17735:17824   */\n      tag_388\n        /* \"#utility.yul\":17817:17823   */\n      dup2\n        /* \"#utility.yul\":17812:17815   */\n      dup6\n        /* \"#utility.yul\":17735:17824   */\n      tag_194\n      jump\t// in\n    tag_388:\n        /* \"#utility.yul\":17728:17824   */\n      swap4\n      pop\n        /* \"#utility.yul\":17833:17898   */\n      tag_389\n        /* \"#utility.yul\":17891:17897   */\n      dup2\n        /* \"#utility.yul\":17886:17889   */\n      dup6\n        /* \"#utility.yul\":17879:17883   */\n      0x20\n        /* \"#utility.yul\":17872:17877   */\n      dup7\n        /* \"#utility.yul\":17868:17884   */\n      add\n        /* \"#utility.yul\":17833:17898   */\n      tag_183\n      jump\t// in\n    tag_389:\n        /* \"#utility.yul\":17923:17929   */\n      dup1\n        /* \"#utility.yul\":17918:17921   */\n      dup5\n        /* \"#utility.yul\":17914:17930   */\n      add\n        /* \"#utility.yul\":17907:17930   */\n      swap2\n      pop\n        /* \"#utility.yul\":17656:17936   */\n      pop\n        /* \"#utility.yul\":17546:17936   */\n      swap3\n      swap2\n      pop\n      pop\n      jump\t// out\n        /* \"#utility.yul\":17942:18217   */\n    tag_52:\n        /* \"#utility.yul\":18074:18077   */\n      0x00\n        /* \"#utility.yul\":18096:18191   */\n      tag_391\n        /* \"#utility.yul\":18187:18190   */\n      dup3\n        /* \"#utility.yul\":18178:18184   */\n      dup5\n        /* \"#utility.yul\":18096:18191   */\n      tag_195\n      jump\t// in\n    tag_391:\n        /* \"#utility.yul\":18089:18191   */\n      swap2\n      pop\n        /* \"#utility.yul\":18208:18211   */\n      dup2\n        /* \"#utility.yul\":18201:18211   */\n      swap1\n      pop\n        /* \"#utility.yul\":17942:18217   */\n      swap3\n      swap2\n      pop\n      pop\n      jump\t// out\n        /* \"#utility.yul\":18223:18390   */\n    tag_196:\n        /* \"#utility.yul\":18363:18382   */\n      0x4c612073616c61206e6f20657869737465000000000000000000000000000000\n        /* \"#utility.yul\":18359:18360   */\n      0x00\n        /* \"#utility.yul\":18351:18357   */\n      dup3\n        /* \"#utility.yul\":18347:18361   */\n      add\n        /* \"#utility.yul\":18340:18383   */\n      mstore\n        /* \"#utility.yul\":18223:18390   */\n      pop\n      jump\t// out\n        /* \"#utility.yul\":18396:18762   */\n    tag_197:\n        /* \"#utility.yul\":18538:18541   */\n      0x00\n        /* \"#utility.yul\":18559:18626   */\n      tag_394\n        /* \"#utility.yul\":18623:18625   */\n      0x11\n        /* \"#utility.yul\":18618:18621   */\n      dup4\n        /* \"#utility.yul\":18559:18626   */\n      tag_182\n      jump\t// in\n    tag_394:\n        /* \"#utility.yul\":18552:18626   */\n      swap2\n      pop\n        /* \"#utility.yul\":18635:18728   */\n      tag_395\n        /* \"#utility.yul\":18724:18727   */\n      dup3\n        /* \"#utility.yul\":18635:18728   */\n      tag_196\n      jump\t// in\n    tag_395:\n        /* \"#utility.yul\":18753:18755   */\n      0x20\n        /* \"#utility.yul\":18748:18751   */\n      dup3\n        /* \"#utility.yul\":18744:18756   */\n      add\n        /* \"#utility.yul\":18737:18756   */\n      swap1\n      pop\n        /* \"#utility.yul\":18396:18762   */\n      swap2\n      swap1\n      pop\n      jump\t// out\n        /* \"#utility.yul\":18768:19187   */\n    tag_55:\n        /* \"#utility.yul\":18934:18938   */\n      0x00\n        /* \"#utility.yul\":18972:18974   */\n      0x20\n        /* \"#utility.yul\":18961:18970   */\n      dup3\n        /* \"#utility.yul\":18957:18975   */\n      add\n        /* \"#utility.yul\":18949:18975   */\n      swap1\n      pop\n        /* \"#utility.yul\":19021:19030   */\n      dup2\n        /* \"#utility.yul\":19015:19019   */\n      dup2\n        /* \"#utility.yul\":19011:19031   */\n      sub\n        /* \"#utility.yul\":19007:19008   */\n      0x00\n        /* \"#utility.yul\":18996:19005   */\n      dup4\n        /* \"#utility.yul\":18992:19009   */\n      add\n        /* \"#utility.yul\":18985:19032   */\n      mstore\n        /* \"#utility.yul\":19049:19180   */\n      tag_397\n        /* \"#utility.yul\":19175:19179   */\n      dup2\n        /* \"#utility.yul\":19049:19180   */\n      tag_197\n      jump\t// in\n    tag_397:\n        /* \"#utility.yul\":19041:19180   */\n      swap1\n      pop\n        /* \"#utility.yul\":18768:19187   */\n      swap2\n      swap1\n      pop\n      jump\t// out\n        /* \"#utility.yul\":19193:19373   */\n    tag_198:\n        /* \"#utility.yul\":19241:19318   */\n      0x4e487b7100000000000000000000000000000000000000000000000000000000\n        /* \"#utility.yul\":19238:19239   */\n      0x00\n        /* \"#utility.yul\":19231:19319   */\n      mstore\n        /* \"#utility.yul\":19338:19342   */\n      0x11\n        /* \"#utility.yul\":19335:19336   */\n      0x04\n        /* \"#utility.yul\":19328:19343   */\n      mstore\n        /* \"#utility.yul\":19362:19366   */\n      0x24\n        /* \"#utility.yul\":19359:19360   */\n      0x00\n        /* \"#utility.yul\":19352:19367   */\n      revert\n        /* \"#utility.yul\":19379:19789   */\n    tag_58:\n        /* \"#utility.yul\":19419:19426   */\n      0x00\n        /* \"#utility.yul\":19442:19462   */\n      tag_400\n        /* \"#utility.yul\":19460:19461   */\n      dup3\n        /* \"#utility.yul\":19442:19462   */\n      tag_171\n      jump\t// in\n    tag_400:\n        /* \"#utility.yul\":19437:19462   */\n      swap2\n      pop\n        /* \"#utility.yul\":19476:19496   */\n      tag_401\n        /* \"#utility.yul\":19494:19495   */\n      dup4\n        /* \"#utility.yul\":19476:19496   */\n      tag_171\n      jump\t// in\n    tag_401:\n        /* \"#utility.yul\":19471:19496   */\n      swap3\n      pop\n        /* \"#utility.yul\":19531:19532   */\n      dup3\n        /* \"#utility.yul\":19528:19529   */\n      dup3\n        /* \"#utility.yul\":19524:19533   */\n      mul\n        /* \"#utility.yul\":19553:19583   */\n      tag_402\n        /* \"#utility.yul\":19571:19582   */\n      dup2\n        /* \"#utility.yul\":19553:19583   */\n      tag_171\n      jump\t// in\n    tag_402:\n        /* \"#utility.yul\":19542:19583   */\n      swap2\n      pop\n        /* \"#utility.yul\":19732:19733   */\n      dup3\n        /* \"#utility.yul\":19723:19730   */\n      dup3\n        /* \"#utility.yul\":19719:19734   */\n      div\n        /* \"#utility.yul\":19716:19717   */\n      dup5\n        /* \"#utility.yul\":19713:19735   */\n      eq\n        /* \"#utility.yul\":19693:19694   */\n      dup4\n        /* \"#utility.yul\":19686:19695   */\n      iszero\n        /* \"#utility.yul\":19666:19749   */\n      or\n        /* \"#utility.yul\":19643:19782   */\n      tag_403\n      jumpi\n        /* \"#utility.yul\":19762:19780   */\n      tag_404\n      tag_198\n      jump\t// in\n    tag_404:\n        /* \"#utility.yul\":19643:19782   */\n    tag_403:\n        /* \"#utility.yul\":19427:19789   */\n      pop\n        /* \"#utility.yul\":19379:19789   */\n      swap3\n      swap2\n      pop\n      pop\n      jump\t// out\n        /* \"#utility.yul\":19795:20016   */\n    tag_199:\n        /* \"#utility.yul\":19935:19969   */\n      0x4e6f20736520686120636f6d706c657461646f20656c206d6f6e746f20746f74\n        /* \"#utility.yul\":19931:19932   */\n      0x00\n        /* \"#utility.yul\":19923:19929   */\n      dup3\n        /* \"#utility.yul\":19919:19933   */\n      add\n        /* \"#utility.yul\":19912:19970   */\n      mstore\n        /* \"#utility.yul\":20004:20008   */\n      0x616c000000000000000000000000000000000000000000000000000000000000\n        /* \"#utility.yul\":19999:20001   */\n      0x20\n        /* \"#utility.yul\":19991:19997   */\n      dup3\n        /* \"#utility.yul\":19987:20002   */\n      add\n        /* \"#utility.yul\":19980:20009   */\n      mstore\n        /* \"#utility.yul\":19795:20016   */\n      pop\n      jump\t// out\n        /* \"#utility.yul\":20022:20388   */\n    tag_200:\n        /* \"#utility.yul\":20164:20167   */\n      0x00\n        /* \"#utility.yul\":20185:20252   */\n      tag_407\n        /* \"#utility.yul\":20249:20251   */\n      0x22\n        /* \"#utility.yul\":20244:20247   */\n      dup4\n        /* \"#utility.yul\":20185:20252   */\n      tag_182\n      jump\t// in\n    tag_407:\n        /* \"#utility.yul\":20178:20252   */\n      swap2\n      pop\n        /* \"#utility.yul\":20261:20354   */\n      tag_408\n        /* \"#utility.yul\":20350:20353   */\n      dup3\n        /* \"#utility.yul\":20261:20354   */\n      tag_199\n      jump\t// in\n    tag_408:\n        /* \"#utility.yul\":20379:20381   */\n      0x40\n        /* \"#utility.yul\":20374:20377   */\n      dup3\n        /* \"#utility.yul\":20370:20382   */\n      add\n        /* \"#utility.yul\":20363:20382   */\n      swap1\n      pop\n        /* \"#utility.yul\":20022:20388   */\n      swap2\n      swap1\n      pop\n      jump\t// out\n        /* \"#utility.yul\":20394:20813   */\n    tag_61:\n        /* \"#utility.yul\":20560:20564   */\n      0x00\n        /* \"#utility.yul\":20598:20600   */\n      0x20\n        /* \"#utility.yul\":20587:20596   */\n      dup3\n        /* \"#utility.yul\":20583:20601   */\n      add\n        /* \"#utility.yul\":20575:20601   */\n      swap1\n      pop\n        /* \"#utility.yul\":20647:20656   */\n      dup2\n        /* \"#utility.yul\":20641:20645   */\n      dup2\n        /* \"#utility.yul\":20637:20657   */\n      sub\n        /* \"#utility.yul\":20633:20634   */\n      0x00\n        /* \"#utility.yul\":20622:20631   */\n      dup4\n        /* \"#utility.yul\":20618:20635   */\n      add\n        /* \"#utility.yul\":20611:20658   */\n      mstore\n        /* \"#utility.yul\":20675:20806   */\n      tag_410\n        /* \"#utility.yul\":20801:20805   */\n      dup2\n        /* \"#utility.yul\":20675:20806   */\n      tag_200\n      jump\t// in\n    tag_410:\n        /* \"#utility.yul\":20667:20806   */\n      swap1\n      pop\n        /* \"#utility.yul\":20394:20813   */\n      swap2\n      swap1\n      pop\n      jump\t// out\n        /* \"#utility.yul\":20819:20999   */\n    tag_67:\n        /* \"#utility.yul\":20867:20944   */\n      0x4e487b7100000000000000000000000000000000000000000000000000000000\n        /* \"#utility.yul\":20864:20865   */\n      0x00\n        /* \"#utility.yul\":20857:20945   */\n      mstore\n        /* \"#utility.yul\":20964:20968   */\n      0x32\n        /* \"#utility.yul\":20961:20962   */\n      0x04\n        /* \"#utility.yul\":20954:20969   */\n      mstore\n        /* \"#utility.yul\":20988:20992   */\n      0x24\n        /* \"#utility.yul\":20985:20986   */\n      0x00\n        /* \"#utility.yul\":20978:20993   */\n      revert\n        /* \"#utility.yul\":21005:21239   */\n    tag_201:\n        /* \"#utility.yul\":21145:21179   */\n      0x57616c6c6574206e6f20636f696e6369646520636f6e20656c20706172746963\n        /* \"#utility.yul\":21141:21142   */\n      0x00\n        /* \"#utility.yul\":21133:21139   */\n      dup3\n        /* \"#utility.yul\":21129:21143   */\n      add\n        /* \"#utility.yul\":21122:21180   */\n      mstore\n        /* \"#utility.yul\":21214:21231   */\n      0x6970616e746520656e207475726e6f0000000000000000000000000000000000\n        /* \"#utility.yul\":21209:21211   */\n      0x20\n        /* \"#utility.yul\":21201:21207   */\n      dup3\n        /* \"#utility.yul\":21197:21212   */\n      add\n        /* \"#utility.yul\":21190:21232   */\n      mstore\n        /* \"#utility.yul\":21005:21239   */\n      pop\n      jump\t// out\n        /* \"#utility.yul\":21245:21611   */\n    tag_202:\n        /* \"#utility.yul\":21387:21390   */\n      0x00\n        /* \"#utility.yul\":21408:21475   */\n      tag_414\n        /* \"#utility.yul\":21472:21474   */\n      0x2f\n        /* \"#utility.yul\":21467:21470   */\n      dup4\n        /* \"#utility.yul\":21408:21475   */\n      tag_182\n      jump\t// in\n    tag_414:\n        /* \"#utility.yul\":21401:21475   */\n      swap2\n      pop\n        /* \"#utility.yul\":21484:21577   */\n      tag_415\n        /* \"#utility.yul\":21573:21576   */\n      dup3\n        /* \"#utility.yul\":21484:21577   */\n      tag_201\n      jump\t// in\n    tag_415:\n        /* \"#utility.yul\":21602:21604   */\n      0x40\n        /* \"#utility.yul\":21597:21600   */\n      dup3\n        /* \"#utility.yul\":21593:21605   */\n      add\n        /* \"#utility.yul\":21586:21605   */\n      swap1\n      pop\n        /* \"#utility.yul\":21245:21611   */\n      swap2\n      swap1\n      pop\n      jump\t// out\n        /* \"#utility.yul\":21617:22036   */\n    tag_79:\n        /* \"#utility.yul\":21783:21787   */\n      0x00\n        /* \"#utility.yul\":21821:21823   */\n      0x20\n        /* \"#utility.yul\":21810:21819   */\n      dup3\n        /* \"#utility.yul\":21806:21824   */\n      add\n        /* \"#utility.yul\":21798:21824   */\n      swap1\n      pop\n        /* \"#utility.yul\":21870:21879   */\n      dup2\n        /* \"#utility.yul\":21864:21868   */\n      dup2\n        /* \"#utility.yul\":21860:21880   */\n      sub\n        /* \"#utility.yul\":21856:21857   */\n      0x00\n        /* \"#utility.yul\":21845:21854   */\n      dup4\n        /* \"#utility.yul\":21841:21858   */\n      add\n        /* \"#utility.yul\":21834:21881   */\n      mstore\n        /* \"#utility.yul\":21898:22029   */\n      tag_417\n        /* \"#utility.yul\":22024:22028   */\n      dup2\n        /* \"#utility.yul\":21898:22029   */\n      tag_202\n      jump\t// in\n    tag_417:\n        /* \"#utility.yul\":21890:22029   */\n      swap1\n      pop\n        /* \"#utility.yul\":21617:22036   */\n      swap2\n      swap1\n      pop\n      jump\t// out\n        /* \"#utility.yul\":22042:22275   */\n    tag_93:\n        /* \"#utility.yul\":22081:22084   */\n      0x00\n        /* \"#utility.yul\":22104:22128   */\n      tag_419\n        /* \"#utility.yul\":22122:22127   */\n      dup3\n        /* \"#utility.yul\":22104:22128   */\n      tag_171\n      jump\t// in\n    tag_419:\n        /* \"#utility.yul\":22095:22128   */\n      swap2\n      pop\n        /* \"#utility.yul\":22150:22216   */\n      0xffffffffffffffffffffffffffffffffffffffffffffffffffffffffffffffff\n        /* \"#utility.yul\":22143:22148   */\n      dup3\n        /* \"#utility.yul\":22140:22217   */\n      sub\n        /* \"#utility.yul\":22137:22240   */\n      tag_420\n      jumpi\n        /* \"#utility.yul\":22220:22238   */\n      tag_421\n      tag_198\n      jump\t// in\n    tag_421:\n        /* \"#utility.yul\":22137:22240   */\n    tag_420:\n        /* \"#utility.yul\":22267:22268   */\n      0x01\n        /* \"#utility.yul\":22260:22265   */\n      dup3\n        /* \"#utility.yul\":22256:22269   */\n      add\n        /* \"#utility.yul\":22249:22269   */\n      swap1\n      pop\n        /* \"#utility.yul\":22042:22275   */\n      swap2\n      swap1\n      pop\n      jump\t// out\n        /* \"#utility.yul\":22281:22461   */\n    tag_203:\n        /* \"#utility.yul\":22329:22406   */\n      0x4e487b7100000000000000000000000000000000000000000000000000000000\n        /* \"#utility.yul\":22326:22327   */\n      0x00\n        /* \"#utility.yul\":22319:22407   */\n      mstore\n        /* \"#utility.yul\":22426:22430   */\n      0x22\n        /* \"#utility.yul\":22423:22424   */\n      0x04\n        /* \"#utility.yul\":22416:22431   */\n      mstore\n        /* \"#utility.yul\":22450:22454   */\n      0x24\n        /* \"#utility.yul\":22447:22448   */\n      0x00\n        /* \"#utility.yul\":22440:22455   */\n      revert\n        /* \"#utility.yul\":22467:22787   */\n    tag_105:\n        /* \"#utility.yul\":22511:22517   */\n      0x00\n        /* \"#utility.yul\":22548:22549   */\n      0x02\n        /* \"#utility.yul\":22542:22546   */\n      dup3\n        /* \"#utility.yul\":22538:22550   */\n      div\n        /* \"#utility.yul\":22528:22550   */\n      swap1\n      pop\n        /* \"#utility.yul\":22595:22596   */\n      0x01\n        /* \"#utility.yul\":22589:22593   */\n      dup3\n        /* \"#utility.yul\":22585:22597   */\n      and\n        /* \"#utility.yul\":22616:22634   */\n      dup1\n        /* \"#utility.yul\":22606:22687   */\n      tag_424\n      jumpi\n        /* \"#utility.yul\":22672:22676   */\n      0x7f\n        /* \"#utility.yul\":22664:22670   */\n      dup3\n        /* \"#utility.yul\":22660:22677   */\n      and\n        /* \"#utility.yul\":22650:22677   */\n      swap2\n      pop\n        /* \"#utility.yul\":22606:22687   */\n    tag_424:\n        /* \"#utility.yul\":22734:22736   */\n      0x20\n        /* \"#utility.yul\":22726:22732   */\n      dup3\n        /* \"#utility.yul\":22723:22737   */\n      lt\n        /* \"#utility.yul\":22703:22721   */\n      dup2\n        /* \"#utility.yul\":22700:22738   */\n      sub\n        /* \"#utility.yul\":22697:22781   */\n      tag_425\n      jumpi\n        /* \"#utility.yul\":22753:22771   */\n      tag_426\n      tag_203\n      jump\t// in\n    tag_426:\n        /* \"#utility.yul\":22697:22781   */\n    tag_425:\n        /* \"#utility.yul\":22518:22787   */\n      pop\n        /* \"#utility.yul\":22467:22787   */\n      swap2\n      swap1\n      pop\n      jump\t// out\n        /* \"#utility.yul\":22793:22960   */\n    tag_204:\n        /* \"#utility.yul\":22933:22952   */\n      0x4c612073616c6120796120657869737465000000000000000000000000000000\n        /* \"#utility.yul\":22929:22930   */\n      0x00\n        /* \"#utility.yul\":22921:22927   */\n      dup3\n        /* \"#utility.yul\":22917:22931   */\n      add\n        /* \"#utility.yul\":22910:22953   */\n      mstore\n        /* \"#utility.yul\":22793:22960   */\n      pop\n      jump\t// out\n        /* \"#utility.yul\":22966:23332   */\n    tag_205:\n        /* \"#utility.yul\":23108:23111   */\n      0x00\n        /* \"#utility.yul\":23129:23196   */\n      tag_429\n        /* \"#utility.yul\":23193:23195   */\n      0x11\n        /* \"#utility.yul\":23188:23191   */\n      dup4\n        /* \"#utility.yul\":23129:23196   */\n      tag_182\n      jump\t// in\n    tag_429:\n        /* \"#utility.yul\":23122:23196   */\n      swap2\n      pop\n        /* \"#utility.yul\":23205:23298   */\n      tag_430\n        /* \"#utility.yul\":23294:23297   */\n      dup3\n        /* \"#utility.yul\":23205:23298   */\n      tag_204\n      jump\t// in\n    tag_430:\n        /* \"#utility.yul\":23323:23325   */\n      0x20\n        /* \"#utility.yul\":23318:23321   */\n      dup3\n        /* \"#utility.yul\":23314:23326   */\n      add\n        /* \"#utility.yul\":23307:23326   */\n      swap1\n      pop\n        /* \"#utility.yul\":22966:23332   */\n      swap2\n      swap1\n      pop\n      jump\t// out\n        /* \"#utility.yul\":23338:23757   */\n    tag_122:\n        /* \"#utility.yul\":23504:23508   */\n      0x00\n        /* \"#utility.yul\":23542:23544   */\n      0x20\n        /* \"#utility.yul\":23531:23540   */\n      dup3\n        /* \"#utility.yul\":23527:23545   */\n      add\n        /* \"#utility.yul\":23519:23545   */\n      swap1\n      pop\n        /* \"#utility.yul\":23591:23600   */\n      dup2\n        /* \"#utility.yul\":23585:23589   */\n      dup2\n        /* \"#utility.yul\":23581:23601   */\n      sub\n        /* \"#utility.yul\":23577:23578   */\n      0x00\n        /* \"#utility.yul\":23566:23575   */\n      dup4\n        /* \"#utility.yul\":23562:23579   */\n      add\n        /* \"#utility.yul\":23555:23602   */\n      mstore\n        /* \"#utility.yul\":23619:23750   */\n      tag_432\n        /* \"#utility.yul\":23745:23749   */\n      dup2\n        /* \"#utility.yul\":23619:23750   */\n      tag_205\n      jump\t// in\n    tag_432:\n        /* \"#utility.yul\":23611:23750   */\n      swap1\n      pop\n        /* \"#utility.yul\":23338:23757   */\n      swap2\n      swap1\n      pop\n      jump\t// out\n        /* \"#utility.yul\":23763:23904   */\n    tag_206:\n        /* \"#utility.yul\":23812:23816   */\n      0x00\n        /* \"#utility.yul\":23835:23838   */\n      dup2\n        /* \"#utility.yul\":23827:23838   */\n      swap1\n      pop\n        /* \"#utility.yul\":23858:23861   */\n      dup2\n        /* \"#utility.yul\":23855:23856   */\n      0x00\n        /* \"#utility.yul\":23848:23862   */\n      mstore\n        /* \"#utility.yul\":23892:23896   */\n      0x20\n        /* \"#utility.yul\":23889:23890   */\n      0x00\n        /* \"#utility.yul\":23879:23897   */\n      keccak256\n        /* \"#utility.yul\":23871:23897   */\n      swap1\n      pop\n        /* \"#utility.yul\":23763:23904   */\n      swap2\n      swap1\n      pop\n      jump\t// out\n        /* \"#utility.yul\":23910:24003   */\n    tag_207:\n        /* \"#utility.yul\":23947:23953   */\n      0x00\n        /* \"#utility.yul\":23994:23996   */\n      0x20\n        /* \"#utility.yul\":23989:23991   */\n      0x1f\n        /* \"#utility.yul\":23982:23987   */\n      dup4\n        /* \"#utility.yul\":23978:23992   */\n      add\n        /* \"#utility.yul\":23974:23997   */\n      div\n        /* \"#utility.yul\":23964:23997   */\n      swap1\n      pop\n        /* \"#utility.yul\":23910:24003   */\n      swap2\n      swap1\n      pop\n      jump\t// out\n        /* \"#utility.yul\":24009:24116   */\n    tag_208:\n        /* \"#utility.yul\":24053:24061   */\n      0x00\n        /* \"#utility.yul\":24103:24108   */\n      dup3\n        /* \"#utility.yul\":24097:24101   */\n      dup3\n        /* \"#utility.yul\":24093:24109   */\n      shl\n        /* \"#utility.yul\":24072:24109   */\n      swap1\n      pop\n        /* \"#utility.yul\":24009:24116   */\n      swap3\n      swap2\n      pop\n      pop\n      jump\t// out\n        /* \"#utility.yul\":24122:24515   */\n    tag_209:\n        /* \"#utility.yul\":24191:24197   */\n      0x00\n        /* \"#utility.yul\":24241:24242   */\n      0x08\n        /* \"#utility.yul\":24229:24239   */\n      dup4\n        /* \"#utility.yul\":24225:24243   */\n      mul\n        /* \"#utility.yul\":24264:24361   */\n      tag_437\n        /* \"#utility.yul\":24294:24360   */\n      0xffffffffffffffffffffffffffffffffffffffffffffffffffffffffffffffff\n        /* \"#utility.yul\":24283:24292   */\n      dup3\n        /* \"#utility.yul\":24264:24361   */\n      tag_208\n      jump\t// in\n    tag_437:\n        /* \"#utility.yul\":24382:24421   */\n      tag_438\n        /* \"#utility.yul\":24412:24420   */\n      dup7\n        /* \"#utility.yul\":24401:24410   */\n      dup4\n        /* \"#utility.yul\":24382:24421   */\n      tag_208\n      jump\t// in\n    tag_438:\n        /* \"#utility.yul\":24370:24421   */\n      swap6\n      pop\n        /* \"#utility.yul\":24454:24458   */\n      dup1\n        /* \"#utility.yul\":24450:24459   */\n      not\n        /* \"#utility.yul\":24443:24448   */\n      dup5\n        /* \"#utility.yul\":24439:24460   */\n      and\n        /* \"#utility.yul\":24430:24460   */\n      swap4\n      pop\n        /* \"#utility.yul\":24503:24507   */\n      dup1\n        /* \"#utility.yul\":24493:24501   */\n      dup7\n        /* \"#utility.yul\":24489:24508   */\n      and\n        /* \"#utility.yul\":24482:24487   */\n      dup5\n        /* \"#utility.yul\":24479:24509   */\n      or\n        /* \"#utility.yul\":24469:24509   */\n      swap3\n      pop\n        /* \"#utility.yul\":24198:24515   */\n      pop\n      pop\n        /* \"#utility.yul\":24122:24515   */\n      swap4\n      swap3\n      pop\n      pop\n      pop\n      jump\t// out\n        /* \"#utility.yul\":24521:24581   */\n    tag_210:\n        /* \"#utility.yul\":24549:24552   */\n      0x00\n        /* \"#utility.yul\":24570:24575   */\n      dup2\n        /* \"#utility.yul\":24563:24575   */\n      swap1\n      pop\n        /* \"#utility.yul\":24521:24581   */\n      swap2\n      swap1\n      pop\n      jump\t// out\n        /* \"#utility.yul\":24587:24729   */\n    tag_211:\n        /* \"#utility.yul\":24637:24646   */\n      0x00\n        /* \"#utility.yul\":24670:24723   */\n      tag_441\n        /* \"#utility.yul\":24688:24722   */\n      tag_442\n        /* \"#utility.yul\":24697:24721   */\n      tag_443\n        /* \"#utility.yul\":24715:24720   */\n      dup5\n        /* \"#utility.yul\":24697:24721   */\n      tag_171\n      jump\t// in\n    tag_443:\n        /* \"#utility.yul\":24688:24722   */\n      tag_210\n      jump\t// in\n    tag_442:\n        /* \"#utility.yul\":24670:24723   */\n      tag_171\n      jump\t// in\n    tag_441:\n        /* \"#utility.yul\":24657:24723   */\n      swap1\n      pop\n        /* \"#utility.yul\":24587:24729   */\n      swap2\n      swap1\n      pop\n      jump\t// out\n        /* \"#utility.yul\":24735:24810   */\n    tag_212:\n        /* \"#utility.yul\":24778:24781   */\n      0x00\n        /* \"#utility.yul\":24799:24804   */\n      dup2\n        /* \"#utility.yul\":24792:24804   */\n      swap1\n      pop\n        /* \"#utility.yul\":24735:24810   */\n      swap2\n      swap1\n      pop\n      jump\t// out\n        /* \"#utility.yul\":24816:25085   */\n    tag_213:\n        /* \"#utility.yul\":24926:24965   */\n      tag_446\n        /* \"#utility.yul\":24957:24964   */\n      dup4\n        /* \"#utility.yul\":24926:24965   */\n      tag_211\n      jump\t// in\n    tag_446:\n        /* \"#utility.yul\":24987:25078   */\n      tag_447\n        /* \"#utility.yul\":25036:25077   */\n      tag_448\n        /* \"#utility.yul\":25060:25076   */\n      dup3\n        /* \"#utility.yul\":25036:25077   */\n      tag_212\n      jump\t// in\n    tag_448:\n        /* \"#utility.yul\":25028:25034   */\n      dup5\n        /* \"#utility.yul\":25021:25025   */\n      dup5\n        /* \"#utility.yul\":25015:25026   */\n      sload\n        /* \"#utility.yul\":24987:25078   */\n      tag_209\n      jump\t// in\n    tag_447:\n        /* \"#utility.yul\":24981:24985   */\n      dup3\n        /* \"#utility.yul\":24974:25079   */\n      sstore\n        /* \"#utility.yul\":24892:25085   */\n      pop\n        /* \"#utility.yul\":24816:25085   */\n      pop\n      pop\n      pop\n      jump\t// out\n        /* \"#utility.yul\":25091:25164   */\n    tag_214:\n        /* \"#utility.yul\":25136:25139   */\n      0x00\n        /* \"#utility.yul\":25157:25158   */\n      0x00\n        /* \"#utility.yul\":25150:25158   */\n      swap1\n      pop\n        /* \"#utility.yul\":25091:25164   */\n      swap1\n      jump\t// out\n        /* \"#utility.yul\":25170:25359   */\n    tag_215:\n        /* \"#utility.yul\":25247:25279   */\n      tag_451\n      tag_214\n      jump\t// in\n    tag_451:\n        /* \"#utility.yul\":25288:25353   */\n      tag_452\n        /* \"#utility.yul\":25346:25352   */\n      dup2\n        /* \"#utility.yul\":25338:25344   */\n      dup5\n        /* \"#utility.yul\":25332:25336   */\n      dup5\n        /* \"#utility.yul\":25288:25353   */\n      tag_213\n      jump\t// in\n    tag_452:\n        /* \"#utility.yul\":25223:25359   */\n      pop\n        /* \"#utility.yul\":25170:25359   */\n      pop\n      pop\n      jump\t// out\n        /* \"#utility.yul\":25365:25551   */\n    tag_216:\n        /* \"#utility.yul\":25425:25545   */\n    tag_454:\n        /* \"#utility.yul\":25442:25445   */\n      dup2\n        /* \"#utility.yul\":25435:25440   */\n      dup2\n        /* \"#utility.yul\":25432:25446   */\n      lt\n        /* \"#utility.yul\":25425:25545   */\n      iszero\n      tag_456\n      jumpi\n        /* \"#utility.yul\":25496:25535   */\n      tag_457\n        /* \"#utility.yul\":25533:25534   */\n      0x00\n        /* \"#utility.yul\":25526:25531   */\n      dup3\n        /* \"#utility.yul\":25496:25535   */\n      tag_215\n      jump\t// in\n    tag_457:\n        /* \"#utility.yul\":25469:25470   */\n      0x01\n        /* \"#utility.yul\":25462:25467   */\n      dup2\n        /* \"#utility.yul\":25458:25471   */\n      add\n        /* \"#utility.yul\":25449:25471   */\n      swap1\n      pop\n        /* \"#utility.yul\":25425:25545   */\n      jump(tag_454)\n    tag_456:\n        /* \"#utility.yul\":25365:25551   */\n      pop\n      pop\n      jump\t// out\n        /* \"#utility.yul\":25557:26100   */\n    tag_217:\n        /* \"#utility.yul\":25658:25660   */\n      0x1f\n        /* \"#utility.yul\":25653:25656   */\n      dup3\n        /* \"#utility.yul\":25650:25661   */\n      gt\n        /* \"#utility.yul\":25647:26093   */\n      iszero\n      tag_459\n      jumpi\n        /* \"#utility.yul\":25692:25730   */\n      tag_460\n        /* \"#utility.yul\":25724:25729   */\n      dup2\n        /* \"#utility.yul\":25692:25730   */\n      tag_206\n      jump\t// in\n    tag_460:\n        /* \"#utility.yul\":25776:25805   */\n      tag_461\n        /* \"#utility.yul\":25794:25804   */\n      dup5\n        /* \"#utility.yul\":25776:25805   */\n      tag_207\n      jump\t// in\n    tag_461:\n        /* \"#utility.yul\":25766:25774   */\n      dup2\n        /* \"#utility.yul\":25762:25806   */\n      add\n        /* \"#utility.yul\":25959:25961   */\n      0x20\n        /* \"#utility.yul\":25947:25957   */\n      dup6\n        /* \"#utility.yul\":25944:25962   */\n      lt\n        /* \"#utility.yul\":25941:25990   */\n      iszero\n      tag_462\n      jumpi\n        /* \"#utility.yul\":25980:25988   */\n      dup2\n        /* \"#utility.yul\":25965:25988   */\n      swap1\n      pop\n        /* \"#utility.yul\":25941:25990   */\n    tag_462:\n        /* \"#utility.yul\":26003:26083   */\n      tag_463\n        /* \"#utility.yul\":26059:26081   */\n      tag_464\n        /* \"#utility.yul\":26077:26080   */\n      dup6\n        /* \"#utility.yul\":26059:26081   */\n      tag_207\n      jump\t// in\n    tag_464:\n        /* \"#utility.yul\":26049:26057   */\n      dup4\n        /* \"#utility.yul\":26045:26082   */\n      add\n        /* \"#utility.yul\":26032:26043   */\n      dup3\n        /* \"#utility.yul\":26003:26083   */\n      tag_216\n      jump\t// in\n    tag_463:\n        /* \"#utility.yul\":25662:26093   */\n      pop\n      pop\n        /* \"#utility.yul\":25647:26093   */\n    tag_459:\n        /* \"#utility.yul\":25557:26100   */\n      pop\n      pop\n      pop\n      jump\t// out\n        /* \"#utility.yul\":26106:26223   */\n    tag_218:\n        /* \"#utility.yul\":26160:26168   */\n      0x00\n        /* \"#utility.yul\":26210:26215   */\n      dup3\n        /* \"#utility.yul\":26204:26208   */\n      dup3\n        /* \"#utility.yul\":26200:26216   */\n      shr\n        /* \"#utility.yul\":26179:26216   */\n      swap1\n      pop\n        /* \"#utility.yul\":26106:26223   */\n      swap3\n      swap2\n      pop\n      pop\n      jump\t// out\n        /* \"#utility.yul\":26229:26398   */\n    tag_219:\n        /* \"#utility.yul\":26273:26279   */\n      0x00\n        /* \"#utility.yul\":26306:26357   */\n      tag_467\n        /* \"#utility.yul\":26354:26355   */\n      0x00\n        /* \"#utility.yul\":26350:26356   */\n      not\n        /* \"#utility.yul\":26342:26347   */\n      dup5\n        /* \"#utility.yul\":26339:26340   */\n      0x08\n        /* \"#utility.yul\":26335:26348   */\n      mul\n        /* \"#utility.yul\":26306:26357   */\n      tag_218\n      jump\t// in\n    tag_467:\n        /* \"#utility.yul\":26302:26358   */\n      not\n        /* \"#utility.yul\":26387:26391   */\n      dup1\n        /* \"#utility.yul\":26381:26385   */\n      dup4\n        /* \"#utility.yul\":26377:26392   */\n      and\n        /* \"#utility.yul\":26367:26392   */\n      swap2\n      pop\n        /* \"#utility.yul\":26280:26398   */\n      pop\n        /* \"#utility.yul\":26229:26398   */\n      swap3\n      swap2\n      pop\n      pop\n      jump\t// out\n        /* \"#utility.yul\":26403:26698   */\n    tag_220:\n        /* \"#utility.yul\":26479:26483   */\n      0x00\n        /* \"#utility.yul\":26625:26654   */\n      tag_469\n        /* \"#utility.yul\":26650:26653   */\n      dup4\n        /* \"#utility.yul\":26644:26648   */\n      dup4\n        /* \"#utility.yul\":26625:26654   */\n      tag_219\n      jump\t// in\n    tag_469:\n        /* \"#utility.yul\":26617:26654   */\n      swap2\n      pop\n        /* \"#utility.yul\":26687:26690   */\n      dup3\n        /* \"#utility.yul\":26684:26685   */\n      0x02\n        /* \"#utility.yul\":26680:26691   */\n      mul\n        /* \"#utility.yul\":26674:26678   */\n      dup3\n        /* \"#utility.yul\":26671:26692   */\n      or\n        /* \"#utility.yul\":26663:26692   */\n      swap1\n      pop\n        /* \"#utility.yul\":26403:26698   */\n      swap3\n      swap2\n      pop\n      pop\n      jump\t// out\n        /* \"#utility.yul\":26703:28098   */\n    tag_125:\n        /* \"#utility.yul\":26820:26857   */\n      tag_471\n        /* \"#utility.yul\":26853:26856   */\n      dup3\n        /* \"#utility.yul\":26820:26857   */\n      tag_181\n      jump\t// in\n    tag_471:\n        /* \"#utility.yul\":26922:26940   */\n      0xffffffffffffffff\n        /* \"#utility.yul\":26914:26920   */\n      dup2\n        /* \"#utility.yul\":26911:26941   */\n      gt\n        /* \"#utility.yul\":26908:26964   */\n      iszero\n      tag_472\n      jumpi\n        /* \"#utility.yul\":26944:26962   */\n      tag_473\n      tag_156\n      jump\t// in\n    tag_473:\n        /* \"#utility.yul\":26908:26964   */\n    tag_472:\n        /* \"#utility.yul\":26988:27026   */\n      tag_474\n        /* \"#utility.yul\":27020:27024   */\n      dup3\n        /* \"#utility.yul\":27014:27025   */\n      sload\n        /* \"#utility.yul\":26988:27026   */\n      tag_105\n      jump\t// in\n    tag_474:\n        /* \"#utility.yul\":27073:27140   */\n      tag_475\n        /* \"#utility.yul\":27133:27139   */\n      dup3\n        /* \"#utility.yul\":27125:27131   */\n      dup3\n        /* \"#utility.yul\":27119:27123   */\n      dup6\n        /* \"#utility.yul\":27073:27140   */\n      tag_217\n      jump\t// in\n    tag_475:\n        /* \"#utility.yul\":27167:27168   */\n      0x00\n        /* \"#utility.yul\":27191:27195   */\n      0x20\n        /* \"#utility.yul\":27178:27195   */\n      swap1\n      pop\n        /* \"#utility.yul\":27223:27225   */\n      0x1f\n        /* \"#utility.yul\":27215:27221   */\n      dup4\n        /* \"#utility.yul\":27212:27226   */\n      gt\n        /* \"#utility.yul\":27240:27241   */\n      0x01\n        /* \"#utility.yul\":27235:27853   */\n      dup2\n      eq\n      tag_477\n      jumpi\n        /* \"#utility.yul\":27897:27898   */\n      0x00\n        /* \"#utility.yul\":27914:27920   */\n      dup5\n        /* \"#utility.yul\":27911:27988   */\n      iszero\n      tag_478\n      jumpi\n        /* \"#utility.yul\":27963:27972   */\n      dup3\n        /* \"#utility.yul\":27958:27961   */\n      dup8\n        /* \"#utility.yul\":27954:27973   */\n      add\n        /* \"#utility.yul\":27948:27974   */\n      mload\n        /* \"#utility.yul\":27939:27974   */\n      swap1\n      pop\n        /* \"#utility.yul\":27911:27988   */\n    tag_478:\n        /* \"#utility.yul\":28014:28081   */\n      tag_479\n        /* \"#utility.yul\":28074:28080   */\n      dup6\n        /* \"#utility.yul\":28067:28072   */\n      dup3\n        /* \"#utility.yul\":28014:28081   */\n      tag_220\n      jump\t// in\n    tag_479:\n        /* \"#utility.yul\":28008:28012   */\n      dup7\n        /* \"#utility.yul\":28001:28082   */\n      sstore\n        /* \"#utility.yul\":27870:28092   */\n      pop\n        /* \"#utility.yul\":27205:28092   */\n      jump(tag_476)\n        /* \"#utility.yul\":27235:27853   */\n    tag_477:\n        /* \"#utility.yul\":27287:27291   */\n      0x1f\n        /* \"#utility.yul\":27283:27292   */\n      not\n        /* \"#utility.yul\":27275:27281   */\n      dup5\n        /* \"#utility.yul\":27271:27293   */\n      and\n        /* \"#utility.yul\":27321:27358   */\n      tag_480\n        /* \"#utility.yul\":27353:27357   */\n      dup7\n        /* \"#utility.yul\":27321:27358   */\n      tag_206\n      jump\t// in\n    tag_480:\n        /* \"#utility.yul\":27380:27381   */\n      0x00\n        /* \"#utility.yul\":27394:27602   */\n    tag_481:\n        /* \"#utility.yul\":27408:27415   */\n      dup3\n        /* \"#utility.yul\":27405:27406   */\n      dup2\n        /* \"#utility.yul\":27402:27416   */\n      lt\n        /* \"#utility.yul\":27394:27602   */\n      iszero\n      tag_483\n      jumpi\n        /* \"#utility.yul\":27487:27496   */\n      dup5\n        /* \"#utility.yul\":27482:27485   */\n      dup10\n        /* \"#utility.yul\":27478:27497   */\n      add\n        /* \"#utility.yul\":27472:27498   */\n      mload\n        /* \"#utility.yul\":27464:27470   */\n      dup3\n        /* \"#utility.yul\":27457:27499   */\n      sstore\n        /* \"#utility.yul\":27538:27539   */\n      0x01\n        /* \"#utility.yul\":27530:27536   */\n      dup3\n        /* \"#utility.yul\":27526:27540   */\n      add\n        /* \"#utility.yul\":27516:27540   */\n      swap2\n      pop\n        /* \"#utility.yul\":27585:27587   */\n      0x20\n        /* \"#utility.yul\":27574:27583   */\n      dup6\n        /* \"#utility.yul\":27570:27588   */\n      add\n        /* \"#utility.yul\":27557:27588   */\n      swap5\n      pop\n        /* \"#utility.yul\":27431:27435   */\n      0x20\n        /* \"#utility.yul\":27428:27429   */\n      dup2\n        /* \"#utility.yul\":27424:27436   */\n      add\n        /* \"#utility.yul\":27419:27436   */\n      swap1\n      pop\n        /* \"#utility.yul\":27394:27602   */\n      jump(tag_481)\n    tag_483:\n        /* \"#utility.yul\":27630:27636   */\n      dup7\n        /* \"#utility.yul\":27621:27628   */\n      dup4\n        /* \"#utility.yul\":27618:27637   */\n      lt\n        /* \"#utility.yul\":27615:27794   */\n      iszero\n      tag_484\n      jumpi\n        /* \"#utility.yul\":27688:27697   */\n      dup5\n        /* \"#utility.yul\":27683:27686   */\n      dup10\n        /* \"#utility.yul\":27679:27698   */\n      add\n        /* \"#utility.yul\":27673:27699   */\n      mload\n        /* \"#utility.yul\":27731:27779   */\n      tag_485\n        /* \"#utility.yul\":27773:27777   */\n      0x1f\n        /* \"#utility.yul\":27765:27771   */\n      dup10\n        /* \"#utility.yul\":27761:27778   */\n      and\n        /* \"#utility.yul\":27750:27759   */\n      dup3\n        /* \"#utility.yul\":27731:27779   */\n      tag_219\n      jump\t// in\n    tag_485:\n        /* \"#utility.yul\":27723:27729   */\n      dup4\n        /* \"#utility.yul\":27716:27780   */\n      sstore\n        /* \"#utility.yul\":27638:27794   */\n      pop\n        /* \"#utility.yul\":27615:27794   */\n    tag_484:\n        /* \"#utility.yul\":27840:27841   */\n      0x01\n        /* \"#utility.yul\":27836:27837   */\n      0x02\n        /* \"#utility.yul\":27828:27834   */\n      dup9\n        /* \"#utility.yul\":27824:27838   */\n      mul\n        /* \"#utility.yul\":27820:27842   */\n      add\n        /* \"#utility.yul\":27814:27818   */\n      dup9\n        /* \"#utility.yul\":27807:27843   */\n      sstore\n        /* \"#utility.yul\":27242:27853   */\n      pop\n      pop\n      pop\n        /* \"#utility.yul\":27205:28092   */\n    tag_476:\n      pop\n        /* \"#utility.yul\":26795:28098   */\n      pop\n      pop\n      pop\n        /* \"#utility.yul\":26703:28098   */\n      pop\n      pop\n      jump\t// out\n        /* \"#utility.yul\":28104:28284   */\n    tag_221:\n        /* \"#utility.yul\":28244:28276   */\n      0x456c206d6f6e746f206465626520736572206d61796f722061206365726f0000\n        /* \"#utility.yul\":28240:28241   */\n      0x00\n        /* \"#utility.yul\":28232:28238   */\n      dup3\n        /* \"#utility.yul\":28228:28242   */\n      add\n        /* \"#utility.yul\":28221:28277   */\n      mstore\n        /* \"#utility.yul\":28104:28284   */\n      pop\n      jump\t// out\n        /* \"#utility.yul\":28290:28656   */\n    tag_222:\n        /* \"#utility.yul\":28432:28435   */\n      0x00\n        /* \"#utility.yul\":28453:28520   */\n      tag_488\n        /* \"#utility.yul\":28517:28519   */\n      0x1e\n        /* \"#utility.yul\":28512:28515   */\n      dup4\n        /* \"#utility.yul\":28453:28520   */\n      tag_182\n      jump\t// in\n    tag_488:\n        /* \"#utility.yul\":28446:28520   */\n      swap2\n      pop\n        /* \"#utility.yul\":28529:28622   */\n      tag_489\n        /* \"#utility.yul\":28618:28621   */\n      dup3\n        /* \"#utility.yul\":28529:28622   */\n      tag_221\n      jump\t// in\n    tag_489:\n        /* \"#utility.yul\":28647:28649   */\n      0x20\n        /* \"#utility.yul\":28642:28645   */\n      dup3\n        /* \"#utility.yul\":28638:28650   */\n      add\n        /* \"#utility.yul\":28631:28650   */\n      swap1\n      pop\n        /* \"#utility.yul\":28290:28656   */\n      swap2\n      swap1\n      pop\n      jump\t// out\n        /* \"#utility.yul\":28662:29081   */\n    tag_140:\n        /* \"#utility.yul\":28828:28832   */\n      0x00\n        /* \"#utility.yul\":28866:28868   */\n      0x20\n        /* \"#utility.yul\":28855:28864   */\n      dup3\n        /* \"#utility.yul\":28851:28869   */\n      add\n        /* \"#utility.yul\":28843:28869   */\n      swap1\n      pop\n        /* \"#utility.yul\":28915:28924   */\n      dup2\n        /* \"#utility.yul\":28909:28913   */\n      dup2\n        /* \"#utility.yul\":28905:28925   */\n      sub\n        /* \"#utility.yul\":28901:28902   */\n      0x00\n        /* \"#utility.yul\":28890:28899   */\n      dup4\n        /* \"#utility.yul\":28886:28903   */\n      add\n        /* \"#utility.yul\":28879:28926   */\n      mstore\n        /* \"#utility.yul\":28943:29074   */\n      tag_491\n        /* \"#utility.yul\":29069:29073   */\n      dup2\n        /* \"#utility.yul\":28943:29074   */\n      tag_222\n      jump\t// in\n    tag_491:\n        /* \"#utility.yul\":28935:29074   */\n      swap1\n      pop\n        /* \"#utility.yul\":28662:29081   */\n      swap2\n      swap1\n      pop\n      jump\t// out\n        /* \"#utility.yul\":29087:29278   */\n    tag_144:\n        /* \"#utility.yul\":29127:29130   */\n      0x00\n        /* \"#utility.yul\":29146:29166   */\n      tag_493\n        /* \"#utility.yul\":29164:29165   */\n      dup3\n        /* \"#utility.yul\":29146:29166   */\n      tag_171\n      jump\t// in\n    tag_493:\n        /* \"#utility.yul\":29141:29166   */\n      swap2\n      pop\n        /* \"#utility.yul\":29180:29200   */\n      tag_494\n        /* \"#utility.yul\":29198:29199   */\n      dup4\n        /* \"#utility.yul\":29180:29200   */\n      tag_171\n      jump\t// in\n    tag_494:\n        /* \"#utility.yul\":29175:29200   */\n      swap3\n      pop\n        /* \"#utility.yul\":29223:29224   */\n      dup3\n        /* \"#utility.yul\":29220:29221   */\n      dup3\n        /* \"#utility.yul\":29216:29225   */\n      add\n        /* \"#utility.yul\":29209:29225   */\n      swap1\n      pop\n        /* \"#utility.yul\":29244:29247   */\n      dup1\n        /* \"#utility.yul\":29241:29242   */\n      dup3\n        /* \"#utility.yul\":29238:29248   */\n      gt\n        /* \"#utility.yul\":29235:29271   */\n      iszero\n      tag_495\n      jumpi\n        /* \"#utility.yul\":29251:29269   */\n      tag_496\n      tag_198\n      jump\t// in\n    tag_496:\n        /* \"#utility.yul\":29235:29271   */\n    tag_495:\n        /* \"#utility.yul\":29087:29278   */\n      swap3\n      swap2\n      pop\n      pop\n      jump\t// out\n\n    auxdata: 0xa2646970667358221220baaa2300caee42b46c80dabc21d7753c641a6a3e77ceab1222322cade810d6c664736f6c634300081c0033\n}\n",
				"bytecode": {
					"linkReferences": {},
					"object": "6080604052348015600e575f5ffd5b50611dc78061001c5f395ff3fe608060405234801561000f575f5ffd5b5060043610610086575f3560e01c80636afe5b71116100595780636afe5b7114610136578063869cc9ab146101525780639916495a1461016e578063cdb2000d1461018a57610086565b80631295ac461461008a5780632d74801d146100a657806334b79858146100d65780635e096a8914610106575b5f5ffd5b6100a4600480360381019061009f9190611107565b6101c1565b005b6100c060048036038101906100bb9190611161565b61063c565b6040516100cd91906112d1565b60405180910390f35b6100f060048036038101906100eb919061131b565b610792565b6040516100fd91906113a6565b60405180910390f35b610120600480360381019061011b9190611161565b610838565b60405161012d91906114c1565b60405180910390f35b610150600480360381019061014b91906114e1565b6109d3565b005b61016c60048036038101906101679190611586565b610b23565b005b610188600480360381019061018391906115f2565b610c77565b005b6101a4600480360381019061019f9190611161565b610e73565b6040516101b8989796959493929190611690565b60405180910390f35b5f5f836040516101d19190611746565b90815260200160405180910390206002015411610223576040517f08c379a000000000000000000000000000000000000000000000000000000000815260040161021a906117a6565b60405180910390fd5b5f5f836040516102339190611746565b908152602001604051809103902090508060090180549050816002015461025a91906117f1565b816003015410156102a0576040517f08c379a0000000000000000000000000000000000000000000000000000000008152600401610297906118a2565b60405180910390fd5b5f5f90505b81600901805490508110156106365781600501548260090182815481106102cf576102ce6118c0565b5b905f5260205f2090600302016001015414801561031b57508160090181815481106102fd576102fc6118c0565b5b905f5260205f2090600302016002015f9054906101000a900460ff16155b15610629578273ffffffffffffffffffffffffffffffffffffffff1682600901828154811061034d5761034c6118c0565b5b905f5260205f2090600302015f015f9054906101000a900473ffffffffffffffffffffffffffffffffffffffff1673ffffffffffffffffffffffffffffffffffffffff16146103d1576040517f08c379a00000000000000000000000000000000000000000000000000000000081526004016103c89061195d565b60405180910390fd5b8160090181815481106103e7576103e66118c0565b5b905f5260205f2090600302015f015f9054906101000a900473ffffffffffffffffffffffffffffffffffffffff1673ffffffffffffffffffffffffffffffffffffffff166108fc836002015490811502906040515f60405180830381858888f1935050505015801561045b573d5f5f3e3d5ffd5b506001826009018281548110610474576104736118c0565b5b905f5260205f2090600302016002015f6101000a81548160ff02191690831515021790555081600a016040518060800160405280731234567890abcdef1234567890abcdef1234567873ffffffffffffffffffffffffffffffffffffffff1681526020018460090184815481106104ee576104ed6118c0565b5b905f5260205f2090600302015f015f9054906101000a900473ffffffffffffffffffffffffffffffffffffffff1673ffffffffffffffffffffffffffffffffffffffff1681526020018460020154815260200142815250908060018154018082558091505060019003905f5260205f2090600402015f909190919091505f820151815f015f6101000a81548173ffffffffffffffffffffffffffffffffffffffff021916908373ffffffffffffffffffffffffffffffffffffffff1602179055506020820151816001015f6101000a81548173ffffffffffffffffffffffffffffffffffffffff021916908373ffffffffffffffffffffffffffffffffffffffff16021790555060408201518160020155606082015181600301555050816005015f81548092919061061f9061197b565b9190505550610636565b80806001019150506102a5565b50505050565b60605f5f8360405161064e9190611746565b908152602001604051809103902060020154116106a0576040517f08c379a0000000000000000000000000000000000000000000000000000000008152600401610697906117a6565b60405180910390fd5b5f826040516106af9190611746565b9081526020016040518091039020600901805480602002602001604051908101604052809291908181526020015f905b82821015610787578382905f5260205f2090600302016040518060600160405290815f82015f9054906101000a900473ffffffffffffffffffffffffffffffffffffffff1673ffffffffffffffffffffffffffffffffffffffff1673ffffffffffffffffffffffffffffffffffffffff16815260200160018201548152602001600282015f9054906101000a900460ff161515151581525050815260200190600101906106df565b505050509050919050565b600181815481106107a1575f80fd5b905f5260205f20015f9150905080546107b9906119ef565b80601f01602080910402602001604051908101604052809291908181526020018280546107e5906119ef565b80156108305780601f1061080757610100808354040283529160200191610830565b820191905f5260205f20905b81548152906001019060200180831161081357829003601f168201915b505050505081565b60605f5f8360405161084a9190611746565b9081526020016040518091039020600201541161089c576040517f08c379a0000000000000000000000000000000000000000000000000000000008152600401610893906117a6565b60405180910390fd5b5f826040516108ab9190611746565b9081526020016040518091039020600a01805480602002602001604051908101604052809291908181526020015f905b828210156109c8578382905f5260205f2090600402016040518060800160405290815f82015f9054906101000a900473ffffffffffffffffffffffffffffffffffffffff1673ffffffffffffffffffffffffffffffffffffffff1673ffffffffffffffffffffffffffffffffffffffff168152602001600182015f9054906101000a900473ffffffffffffffffffffffffffffffffffffffff1673ffffffffffffffffffffffffffffffffffffffff1673ffffffffffffffffffffffffffffffffffffffff16815260200160028201548152602001600382015481525050815260200190600101906108db565b505050509050919050565b5f5f876040516109e39190611746565b90815260200160405180910390206002015414610a35576040517f08c379a0000000000000000000000000000000000000000000000000000000008152600401610a2c90611a69565b60405180910390fd5b5f5f87604051610a459190611746565b9081526020016040518091039020905086815f019081610a659190611c27565b5033816001015f6101000a81548173ffffffffffffffffffffffffffffffffffffffff021916908373ffffffffffffffffffffffffffffffffffffffff1602179055508581600201819055505f816003018190555084816004018190555060018160050181905550838160060181905550828160070181905550818160080181905550600187908060018154018082558091505060019003905f5260205f20015f909190919091509081610b199190611c27565b5050505050505050565b5f5f84604051610b339190611746565b90815260200160405180910390206002015411610b85576040517f08c379a0000000000000000000000000000000000000000000000000000000008152600401610b7c906117a6565b60405180910390fd5b5f5f84604051610b959190611746565b908152602001604051809103902090508060090160405180606001604052808573ffffffffffffffffffffffffffffffffffffffff1681526020018481526020015f1515815250908060018154018082558091505060019003905f5260205f2090600302015f909190919091505f820151815f015f6101000a81548173ffffffffffffffffffffffffffffffffffffffff021916908373ffffffffffffffffffffffffffffffffffffffff160217905550602082015181600101556040820151816002015f6101000a81548160ff021916908315150217905550505050505050565b5f5f85604051610c879190611746565b90815260200160405180910390206002015411610cd9576040517f08c379a0000000000000000000000000000000000000000000000000000000008152600401610cd0906117a6565b60405180910390fd5b5f8111610d1b576040517f08c379a0000000000000000000000000000000000000000000000000000000008152600401610d1290611d40565b60405180910390fd5b5f5f85604051610d2b9190611746565b9081526020016040518091039020905080600a0160405180608001604052808673ffffffffffffffffffffffffffffffffffffffff1681526020018573ffffffffffffffffffffffffffffffffffffffff16815260200184815260200142815250908060018154018082558091505060019003905f5260205f2090600402015f909190919091505f820151815f015f6101000a81548173ffffffffffffffffffffffffffffffffffffffff021916908373ffffffffffffffffffffffffffffffffffffffff1602179055506020820151816001015f6101000a81548173ffffffffffffffffffffffffffffffffffffffff021916908373ffffffffffffffffffffffffffffffffffffffff1602179055506040820151816002015560608201518160030155505081816003015f828254610e659190611d5e565b925050819055505050505050565b5f5f5f5f5f5f5f5f5f5f8a604051610e8b9190611746565b90815260200160405180910390206002015411610edd576040517f08c379a0000000000000000000000000000000000000000000000000000000008152600401610ed4906117a6565b60405180910390fd5b5f5f8a604051610eed9190611746565b90815260200160405180910390209050806001015f9054906101000a900473ffffffffffffffffffffffffffffffffffffffff1681600201548260030154836004015484600501548560060154866007015487600801549850985098509850985098509850985050919395975091939597565b5f604051905090565b5f5ffd5b5f5ffd5b5f5ffd5b5f5ffd5b5f601f19601f8301169050919050565b7f4e487b71000000000000000000000000000000000000000000000000000000005f52604160045260245ffd5b610fbf82610f79565b810181811067ffffffffffffffff82111715610fde57610fdd610f89565b5b80604052505050565b5f610ff0610f60565b9050610ffc8282610fb6565b919050565b5f67ffffffffffffffff82111561101b5761101a610f89565b5b61102482610f79565b9050602081019050919050565b828183375f83830152505050565b5f61105161104c84611001565b610fe7565b90508281526020810184848401111561106d5761106c610f75565b5b611078848285611031565b509392505050565b5f82601f83011261109457611093610f71565b5b81356110a484826020860161103f565b91505092915050565b5f73ffffffffffffffffffffffffffffffffffffffff82169050919050565b5f6110d6826110ad565b9050919050565b6110e6816110cc565b81146110f0575f5ffd5b50565b5f81359050611101816110dd565b92915050565b5f5f6040838503121561111d5761111c610f69565b5b5f83013567ffffffffffffffff81111561113a57611139610f6d565b5b61114685828601611080565b9250506020611157858286016110f3565b9150509250929050565b5f6020828403121561117657611175610f69565b5b5f82013567ffffffffffffffff81111561119357611192610f6d565b5b61119f84828501611080565b91505092915050565b5f81519050919050565b5f82825260208201905092915050565b5f819050602082019050919050565b6111da816110cc565b82525050565b5f819050919050565b6111f2816111e0565b82525050565b5f8115159050919050565b61120c816111f8565b82525050565b606082015f8201516112265f8501826111d1565b50602082015161123960208501826111e9565b50604082015161124c6040850182611203565b50505050565b5f61125d8383611212565b60608301905092915050565b5f602082019050919050565b5f61127f826111a8565b61128981856111b2565b9350611294836111c2565b805f5b838110156112c45781516112ab8882611252565b97506112b683611269565b925050600181019050611297565b5085935050505092915050565b5f6020820190508181035f8301526112e98184611275565b905092915050565b6112fa816111e0565b8114611304575f5ffd5b50565b5f81359050611315816112f1565b92915050565b5f602082840312156113305761132f610f69565b5b5f61133d84828501611307565b91505092915050565b5f81519050919050565b5f82825260208201905092915050565b8281835e5f83830152505050565b5f61137882611346565b6113828185611350565b9350611392818560208601611360565b61139b81610f79565b840191505092915050565b5f6020820190508181035f8301526113be818461136e565b905092915050565b5f81519050919050565b5f82825260208201905092915050565b5f819050602082019050919050565b608082015f8201516114035f8501826111d1565b50602082015161141660208501826111d1565b50604082015161142960408501826111e9565b50606082015161143c60608501826111e9565b50505050565b5f61144d83836113ef565b60808301905092915050565b5f602082019050919050565b5f61146f826113c6565b61147981856113d0565b9350611484836113e0565b805f5b838110156114b457815161149b8882611442565b97506114a683611459565b925050600181019050611487565b5085935050505092915050565b5f6020820190508181035f8301526114d98184611465565b905092915050565b5f5f5f5f5f5f60c087890312156114fb576114fa610f69565b5b5f87013567ffffffffffffffff81111561151857611517610f6d565b5b61152489828a01611080565b965050602061153589828a01611307565b955050604061154689828a01611307565b945050606061155789828a01611307565b935050608061156889828a01611307565b92505060a061157989828a01611307565b9150509295509295509295565b5f5f5f6060848603121561159d5761159c610f69565b5b5f84013567ffffffffffffffff8111156115ba576115b9610f6d565b5b6115c686828701611080565b93505060206115d7868287016110f3565b92505060406115e886828701611307565b9150509250925092565b5f5f5f5f6080858703121561160a57611609610f69565b5b5f85013567ffffffffffffffff81111561162757611626610f6d565b5b61163387828801611080565b9450506020611644878288016110f3565b9350506040611655878288016110f3565b925050606061166687828801611307565b91505092959194509250565b61167b816110cc565b82525050565b61168a816111e0565b82525050565b5f610100820190506116a45f83018b611672565b6116b1602083018a611681565b6116be6040830189611681565b6116cb6060830188611681565b6116d86080830187611681565b6116e560a0830186611681565b6116f260c0830185611681565b6116ff60e0830184611681565b9998505050505050505050565b5f81905092915050565b5f61172082611346565b61172a818561170c565b935061173a818560208601611360565b80840191505092915050565b5f6117518284611716565b915081905092915050565b7f4c612073616c61206e6f206578697374650000000000000000000000000000005f82015250565b5f611790601183611350565b915061179b8261175c565b602082019050919050565b5f6020820190508181035f8301526117bd81611784565b9050919050565b7f4e487b71000000000000000000000000000000000000000000000000000000005f52601160045260245ffd5b5f6117fb826111e0565b9150611806836111e0565b9250828202611814816111e0565b9150828204841483151761182b5761182a6117c4565b5b5092915050565b7f4e6f20736520686120636f6d706c657461646f20656c206d6f6e746f20746f745f8201527f616c000000000000000000000000000000000000000000000000000000000000602082015250565b5f61188c602283611350565b915061189782611832565b604082019050919050565b5f6020820190508181035f8301526118b981611880565b9050919050565b7f4e487b71000000000000000000000000000000000000000000000000000000005f52603260045260245ffd5b7f57616c6c6574206e6f20636f696e6369646520636f6e20656c207061727469635f8201527f6970616e746520656e207475726e6f0000000000000000000000000000000000602082015250565b5f611947602f83611350565b9150611952826118ed565b604082019050919050565b5f6020820190508181035f8301526119748161193b565b9050919050565b5f611985826111e0565b91507fffffffffffffffffffffffffffffffffffffffffffffffffffffffffffffffff82036119b7576119b66117c4565b5b600182019050919050565b7f4e487b71000000000000000000000000000000000000000000000000000000005f52602260045260245ffd5b5f6002820490506001821680611a0657607f821691505b602082108103611a1957611a186119c2565b5b50919050565b7f4c612073616c61207961206578697374650000000000000000000000000000005f82015250565b5f611a53601183611350565b9150611a5e82611a1f565b602082019050919050565b5f6020820190508181035f830152611a8081611a47565b9050919050565b5f819050815f5260205f209050919050565b5f6020601f8301049050919050565b5f82821b905092915050565b5f60088302611ae37fffffffffffffffffffffffffffffffffffffffffffffffffffffffffffffffff82611aa8565b611aed8683611aa8565b95508019841693508086168417925050509392505050565b5f819050919050565b5f611b28611b23611b1e846111e0565b611b05565b6111e0565b9050919050565b5f819050919050565b611b4183611b0e565b611b55611b4d82611b2f565b848454611ab4565b825550505050565b5f5f905090565b611b6c611b5d565b611b77818484611b38565b505050565b5b81811015611b9a57611b8f5f82611b64565b600181019050611b7d565b5050565b601f821115611bdf57611bb081611a87565b611bb984611a99565b81016020851015611bc8578190505b611bdc611bd485611a99565b830182611b7c565b50505b505050565b5f82821c905092915050565b5f611bff5f1984600802611be4565b1980831691505092915050565b5f611c178383611bf0565b9150826002028217905092915050565b611c3082611346565b67ffffffffffffffff811115611c4957611c48610f89565b5b611c5382546119ef565b611c5e828285611b9e565b5f60209050601f831160018114611c8f575f8415611c7d578287015190505b611c878582611c0c565b865550611cee565b601f198416611c9d86611a87565b5f5b82811015611cc457848901518255600182019150602085019450602081019050611c9f565b86831015611ce15784890151611cdd601f891682611bf0565b8355505b6001600288020188555050505b505050505050565b7f456c206d6f6e746f206465626520736572206d61796f722061206365726f00005f82015250565b5f611d2a601e83611350565b9150611d3582611cf6565b602082019050919050565b5f6020820190508181035f830152611d5781611d1e565b9050919050565b5f611d68826111e0565b9150611d73836111e0565b9250828201905080821115611d8b57611d8a6117c4565b5b9291505056fea2646970667358221220baaa2300caee42b46c80dabc21d7753c641a6a3e77ceab1222322cade810d6c664736f6c634300081c0033",
					"opcodes": "PUSH1 0x80 PUSH1 0x40 MSTORE CALLVALUE DUP1 ISZERO PUSH1 0xE JUMPI PUSH0 PUSH0 REVERT JUMPDEST POP PUSH2 0x1DC7 DUP1 PUSH2 0x1C PUSH0 CODECOPY PUSH0 RETURN INVALID PUSH1 0x80 PUSH1 0x40 MSTORE CALLVALUE DUP1 ISZERO PUSH2 0xF JUMPI PUSH0 PUSH0 REVERT JUMPDEST POP PUSH1 0x4 CALLDATASIZE LT PUSH2 0x86 JUMPI PUSH0 CALLDATALOAD PUSH1 0xE0 SHR DUP1 PUSH4 0x6AFE5B71 GT PUSH2 0x59 JUMPI DUP1 PUSH4 0x6AFE5B71 EQ PUSH2 0x136 JUMPI DUP1 PUSH4 0x869CC9AB EQ PUSH2 0x152 JUMPI DUP1 PUSH4 0x9916495A EQ PUSH2 0x16E JUMPI DUP1 PUSH4 0xCDB2000D EQ PUSH2 0x18A JUMPI PUSH2 0x86 JUMP JUMPDEST DUP1 PUSH4 0x1295AC46 EQ PUSH2 0x8A JUMPI DUP1 PUSH4 0x2D74801D EQ PUSH2 0xA6 JUMPI DUP1 PUSH4 0x34B79858 EQ PUSH2 0xD6 JUMPI DUP1 PUSH4 0x5E096A89 EQ PUSH2 0x106 JUMPI JUMPDEST PUSH0 PUSH0 REVERT JUMPDEST PUSH2 0xA4 PUSH1 0x4 DUP1 CALLDATASIZE SUB DUP2 ADD SWAP1 PUSH2 0x9F SWAP2 SWAP1 PUSH2 0x1107 JUMP JUMPDEST PUSH2 0x1C1 JUMP JUMPDEST STOP JUMPDEST PUSH2 0xC0 PUSH1 0x4 DUP1 CALLDATASIZE SUB DUP2 ADD SWAP1 PUSH2 0xBB SWAP2 SWAP1 PUSH2 0x1161 JUMP JUMPDEST PUSH2 0x63C JUMP JUMPDEST PUSH1 0x40 MLOAD PUSH2 0xCD SWAP2 SWAP1 PUSH2 0x12D1 JUMP JUMPDEST PUSH1 0x40 MLOAD DUP1 SWAP2 SUB SWAP1 RETURN JUMPDEST PUSH2 0xF0 PUSH1 0x4 DUP1 CALLDATASIZE SUB DUP2 ADD SWAP1 PUSH2 0xEB SWAP2 SWAP1 PUSH2 0x131B JUMP JUMPDEST PUSH2 0x792 JUMP JUMPDEST PUSH1 0x40 MLOAD PUSH2 0xFD SWAP2 SWAP1 PUSH2 0x13A6 JUMP JUMPDEST PUSH1 0x40 MLOAD DUP1 SWAP2 SUB SWAP1 RETURN JUMPDEST PUSH2 0x120 PUSH1 0x4 DUP1 CALLDATASIZE SUB DUP2 ADD SWAP1 PUSH2 0x11B SWAP2 SWAP1 PUSH2 0x1161 JUMP JUMPDEST PUSH2 0x838 JUMP JUMPDEST PUSH1 0x40 MLOAD PUSH2 0x12D SWAP2 SWAP1 PUSH2 0x14C1 JUMP JUMPDEST PUSH1 0x40 MLOAD DUP1 SWAP2 SUB SWAP1 RETURN JUMPDEST PUSH2 0x150 PUSH1 0x4 DUP1 CALLDATASIZE SUB DUP2 ADD SWAP1 PUSH2 0x14B SWAP2 SWAP1 PUSH2 0x14E1 JUMP JUMPDEST PUSH2 0x9D3 JUMP JUMPDEST STOP JUMPDEST PUSH2 0x16C PUSH1 0x4 DUP1 CALLDATASIZE SUB DUP2 ADD SWAP1 PUSH2 0x167 SWAP2 SWAP1 PUSH2 0x1586 JUMP JUMPDEST PUSH2 0xB23 JUMP JUMPDEST STOP JUMPDEST PUSH2 0x188 PUSH1 0x4 DUP1 CALLDATASIZE SUB DUP2 ADD SWAP1 PUSH2 0x183 SWAP2 SWAP1 PUSH2 0x15F2 JUMP JUMPDEST PUSH2 0xC77 JUMP JUMPDEST STOP JUMPDEST PUSH2 0x1A4 PUSH1 0x4 DUP1 CALLDATASIZE SUB DUP2 ADD SWAP1 PUSH2 0x19F SWAP2 SWAP1 PUSH2 0x1161 JUMP JUMPDEST PUSH2 0xE73 JUMP JUMPDEST PUSH1 0x40 MLOAD PUSH2 0x1B8 SWAP9 SWAP8 SWAP7 SWAP6 SWAP5 SWAP4 SWAP3 SWAP2 SWAP1 PUSH2 0x1690 JUMP JUMPDEST PUSH1 0x40 MLOAD DUP1 SWAP2 SUB SWAP1 RETURN JUMPDEST PUSH0 PUSH0 DUP4 PUSH1 0x40 MLOAD PUSH2 0x1D1 SWAP2 SWAP1 PUSH2 0x1746 JUMP JUMPDEST SWAP1 DUP2 MSTORE PUSH1 0x20 ADD PUSH1 0x40 MLOAD DUP1 SWAP2 SUB SWAP1 KECCAK256 PUSH1 0x2 ADD SLOAD GT PUSH2 0x223 JUMPI PUSH1 0x40 MLOAD PUSH32 0x8C379A000000000000000000000000000000000000000000000000000000000 DUP2 MSTORE PUSH1 0x4 ADD PUSH2 0x21A SWAP1 PUSH2 0x17A6 JUMP JUMPDEST PUSH1 0x40 MLOAD DUP1 SWAP2 SUB SWAP1 REVERT JUMPDEST PUSH0 PUSH0 DUP4 PUSH1 0x40 MLOAD PUSH2 0x233 SWAP2 SWAP1 PUSH2 0x1746 JUMP JUMPDEST SWAP1 DUP2 MSTORE PUSH1 0x20 ADD PUSH1 0x40 MLOAD DUP1 SWAP2 SUB SWAP1 KECCAK256 SWAP1 POP DUP1 PUSH1 0x9 ADD DUP1 SLOAD SWAP1 POP DUP2 PUSH1 0x2 ADD SLOAD PUSH2 0x25A SWAP2 SWAP1 PUSH2 0x17F1 JUMP JUMPDEST DUP2 PUSH1 0x3 ADD SLOAD LT ISZERO PUSH2 0x2A0 JUMPI PUSH1 0x40 MLOAD PUSH32 0x8C379A000000000000000000000000000000000000000000000000000000000 DUP2 MSTORE PUSH1 0x4 ADD PUSH2 0x297 SWAP1 PUSH2 0x18A2 JUMP JUMPDEST PUSH1 0x40 MLOAD DUP1 SWAP2 SUB SWAP1 REVERT JUMPDEST PUSH0 PUSH0 SWAP1 POP JUMPDEST DUP2 PUSH1 0x9 ADD DUP1 SLOAD SWAP1 POP DUP2 LT ISZERO PUSH2 0x636 JUMPI DUP2 PUSH1 0x5 ADD SLOAD DUP3 PUSH1 0x9 ADD DUP3 DUP2 SLOAD DUP2 LT PUSH2 0x2CF JUMPI PUSH2 0x2CE PUSH2 0x18C0 JUMP JUMPDEST JUMPDEST SWAP1 PUSH0 MSTORE PUSH1 0x20 PUSH0 KECCAK256 SWAP1 PUSH1 0x3 MUL ADD PUSH1 0x1 ADD SLOAD EQ DUP1 ISZERO PUSH2 0x31B JUMPI POP DUP2 PUSH1 0x9 ADD DUP2 DUP2 SLOAD DUP2 LT PUSH2 0x2FD JUMPI PUSH2 0x2FC PUSH2 0x18C0 JUMP JUMPDEST JUMPDEST SWAP1 PUSH0 MSTORE PUSH1 0x20 PUSH0 KECCAK256 SWAP1 PUSH1 0x3 MUL ADD PUSH1 0x2 ADD PUSH0 SWAP1 SLOAD SWAP1 PUSH2 0x100 EXP SWAP1 DIV PUSH1 0xFF AND ISZERO JUMPDEST ISZERO PUSH2 0x629 JUMPI DUP3 PUSH20 0xFFFFFFFFFFFFFFFFFFFFFFFFFFFFFFFFFFFFFFFF AND DUP3 PUSH1 0x9 ADD DUP3 DUP2 SLOAD DUP2 LT PUSH2 0x34D JUMPI PUSH2 0x34C PUSH2 0x18C0 JUMP JUMPDEST JUMPDEST SWAP1 PUSH0 MSTORE PUSH1 0x20 PUSH0 KECCAK256 SWAP1 PUSH1 0x3 MUL ADD PUSH0 ADD PUSH0 SWAP1 SLOAD SWAP1 PUSH2 0x100 EXP SWAP1 DIV PUSH20 0xFFFFFFFFFFFFFFFFFFFFFFFFFFFFFFFFFFFFFFFF AND PUSH20 0xFFFFFFFFFFFFFFFFFFFFFFFFFFFFFFFFFFFFFFFF AND EQ PUSH2 0x3D1 JUMPI PUSH1 0x40 MLOAD PUSH32 0x8C379A000000000000000000000000000000000000000000000000000000000 DUP2 MSTORE PUSH1 0x4 ADD PUSH2 0x3C8 SWAP1 PUSH2 0x195D JUMP JUMPDEST PUSH1 0x40 MLOAD DUP1 SWAP2 SUB SWAP1 REVERT JUMPDEST DUP2 PUSH1 0x9 ADD DUP2 DUP2 SLOAD DUP2 LT PUSH2 0x3E7 JUMPI PUSH2 0x3E6 PUSH2 0x18C0 JUMP JUMPDEST JUMPDEST SWAP1 PUSH0 MSTORE PUSH1 0x20 PUSH0 KECCAK256 SWAP1 PUSH1 0x3 MUL ADD PUSH0 ADD PUSH0 SWAP1 SLOAD SWAP1 PUSH2 0x100 EXP SWAP1 DIV PUSH20 0xFFFFFFFFFFFFFFFFFFFFFFFFFFFFFFFFFFFFFFFF AND PUSH20 0xFFFFFFFFFFFFFFFFFFFFFFFFFFFFFFFFFFFFFFFF AND PUSH2 0x8FC DUP4 PUSH1 0x2 ADD SLOAD SWAP1 DUP2 ISZERO MUL SWAP1 PUSH1 0x40 MLOAD PUSH0 PUSH1 0x40 MLOAD DUP1 DUP4 SUB DUP2 DUP6 DUP9 DUP9 CALL SWAP4 POP POP POP POP ISZERO DUP1 ISZERO PUSH2 0x45B JUMPI RETURNDATASIZE PUSH0 PUSH0 RETURNDATACOPY RETURNDATASIZE PUSH0 REVERT JUMPDEST POP PUSH1 0x1 DUP3 PUSH1 0x9 ADD DUP3 DUP2 SLOAD DUP2 LT PUSH2 0x474 JUMPI PUSH2 0x473 PUSH2 0x18C0 JUMP JUMPDEST JUMPDEST SWAP1 PUSH0 MSTORE PUSH1 0x20 PUSH0 KECCAK256 SWAP1 PUSH1 0x3 MUL ADD PUSH1 0x2 ADD PUSH0 PUSH2 0x100 EXP DUP2 SLOAD DUP2 PUSH1 0xFF MUL NOT AND SWAP1 DUP4 ISZERO ISZERO MUL OR SWAP1 SSTORE POP DUP2 PUSH1 0xA ADD PUSH1 0x40 MLOAD DUP1 PUSH1 0x80 ADD PUSH1 0x40 MSTORE DUP1 PUSH20 0x1234567890ABCDEF1234567890ABCDEF12345678 PUSH20 0xFFFFFFFFFFFFFFFFFFFFFFFFFFFFFFFFFFFFFFFF AND DUP2 MSTORE PUSH1 0x20 ADD DUP5 PUSH1 0x9 ADD DUP5 DUP2 SLOAD DUP2 LT PUSH2 0x4EE JUMPI PUSH2 0x4ED PUSH2 0x18C0 JUMP JUMPDEST JUMPDEST SWAP1 PUSH0 MSTORE PUSH1 0x20 PUSH0 KECCAK256 SWAP1 PUSH1 0x3 MUL ADD PUSH0 ADD PUSH0 SWAP1 SLOAD SWAP1 PUSH2 0x100 EXP SWAP1 DIV PUSH20 0xFFFFFFFFFFFFFFFFFFFFFFFFFFFFFFFFFFFFFFFF AND PUSH20 0xFFFFFFFFFFFFFFFFFFFFFFFFFFFFFFFFFFFFFFFF AND DUP2 MSTORE PUSH1 0x20 ADD DUP5 PUSH1 0x2 ADD SLOAD DUP2 MSTORE PUSH1 0x20 ADD TIMESTAMP DUP2 MSTORE POP SWAP1 DUP1 PUSH1 0x1 DUP2 SLOAD ADD DUP1 DUP3 SSTORE DUP1 SWAP2 POP POP PUSH1 0x1 SWAP1 SUB SWAP1 PUSH0 MSTORE PUSH1 0x20 PUSH0 KECCAK256 SWAP1 PUSH1 0x4 MUL ADD PUSH0 SWAP1 SWAP2 SWAP1 SWAP2 SWAP1 SWAP2 POP PUSH0 DUP3 ADD MLOAD DUP2 PUSH0 ADD PUSH0 PUSH2 0x100 EXP DUP2 SLOAD DUP2 PUSH20 0xFFFFFFFFFFFFFFFFFFFFFFFFFFFFFFFFFFFFFFFF MUL NOT AND SWAP1 DUP4 PUSH20 0xFFFFFFFFFFFFFFFFFFFFFFFFFFFFFFFFFFFFFFFF AND MUL OR SWAP1 SSTORE POP PUSH1 0x20 DUP3 ADD MLOAD DUP2 PUSH1 0x1 ADD PUSH0 PUSH2 0x100 EXP DUP2 SLOAD DUP2 PUSH20 0xFFFFFFFFFFFFFFFFFFFFFFFFFFFFFFFFFFFFFFFF MUL NOT AND SWAP1 DUP4 PUSH20 0xFFFFFFFFFFFFFFFFFFFFFFFFFFFFFFFFFFFFFFFF AND MUL OR SWAP1 SSTORE POP PUSH1 0x40 DUP3 ADD MLOAD DUP2 PUSH1 0x2 ADD SSTORE PUSH1 0x60 DUP3 ADD MLOAD DUP2 PUSH1 0x3 ADD SSTORE POP POP DUP2 PUSH1 0x5 ADD PUSH0 DUP2 SLOAD DUP1 SWAP3 SWAP2 SWAP1 PUSH2 0x61F SWAP1 PUSH2 0x197B JUMP JUMPDEST SWAP2 SWAP1 POP SSTORE POP PUSH2 0x636 JUMP JUMPDEST DUP1 DUP1 PUSH1 0x1 ADD SWAP2 POP POP PUSH2 0x2A5 JUMP JUMPDEST POP POP POP POP JUMP JUMPDEST PUSH1 0x60 PUSH0 PUSH0 DUP4 PUSH1 0x40 MLOAD PUSH2 0x64E SWAP2 SWAP1 PUSH2 0x1746 JUMP JUMPDEST SWAP1 DUP2 MSTORE PUSH1 0x20 ADD PUSH1 0x40 MLOAD DUP1 SWAP2 SUB SWAP1 KECCAK256 PUSH1 0x2 ADD SLOAD GT PUSH2 0x6A0 JUMPI PUSH1 0x40 MLOAD PUSH32 0x8C379A000000000000000000000000000000000000000000000000000000000 DUP2 MSTORE PUSH1 0x4 ADD PUSH2 0x697 SWAP1 PUSH2 0x17A6 JUMP JUMPDEST PUSH1 0x40 MLOAD DUP1 SWAP2 SUB SWAP1 REVERT JUMPDEST PUSH0 DUP3 PUSH1 0x40 MLOAD PUSH2 0x6AF SWAP2 SWAP1 PUSH2 0x1746 JUMP JUMPDEST SWAP1 DUP2 MSTORE PUSH1 0x20 ADD PUSH1 0x40 MLOAD DUP1 SWAP2 SUB SWAP1 KECCAK256 PUSH1 0x9 ADD DUP1 SLOAD DUP1 PUSH1 0x20 MUL PUSH1 0x20 ADD PUSH1 0x40 MLOAD SWAP1 DUP2 ADD PUSH1 0x40 MSTORE DUP1 SWAP3 SWAP2 SWAP1 DUP2 DUP2 MSTORE PUSH1 0x20 ADD PUSH0 SWAP1 JUMPDEST DUP3 DUP3 LT ISZERO PUSH2 0x787 JUMPI DUP4 DUP3 SWAP1 PUSH0 MSTORE PUSH1 0x20 PUSH0 KECCAK256 SWAP1 PUSH1 0x3 MUL ADD PUSH1 0x40 MLOAD DUP1 PUSH1 0x60 ADD PUSH1 0x40 MSTORE SWAP1 DUP2 PUSH0 DUP3 ADD PUSH0 SWAP1 SLOAD SWAP1 PUSH2 0x100 EXP SWAP1 DIV PUSH20 0xFFFFFFFFFFFFFFFFFFFFFFFFFFFFFFFFFFFFFFFF AND PUSH20 0xFFFFFFFFFFFFFFFFFFFFFFFFFFFFFFFFFFFFFFFF AND PUSH20 0xFFFFFFFFFFFFFFFFFFFFFFFFFFFFFFFFFFFFFFFF AND DUP2 MSTORE PUSH1 0x20 ADD PUSH1 0x1 DUP3 ADD SLOAD DUP2 MSTORE PUSH1 0x20 ADD PUSH1 0x2 DUP3 ADD PUSH0 SWAP1 SLOAD SWAP1 PUSH2 0x100 EXP SWAP1 DIV PUSH1 0xFF AND ISZERO ISZERO ISZERO ISZERO DUP2 MSTORE POP POP DUP2 MSTORE PUSH1 0x20 ADD SWAP1 PUSH1 0x1 ADD SWAP1 PUSH2 0x6DF JUMP JUMPDEST POP POP POP POP SWAP1 POP SWAP2 SWAP1 POP JUMP JUMPDEST PUSH1 0x1 DUP2 DUP2 SLOAD DUP2 LT PUSH2 0x7A1 JUMPI PUSH0 DUP1 REVERT JUMPDEST SWAP1 PUSH0 MSTORE PUSH1 0x20 PUSH0 KECCAK256 ADD PUSH0 SWAP2 POP SWAP1 POP DUP1 SLOAD PUSH2 0x7B9 SWAP1 PUSH2 0x19EF JUMP JUMPDEST DUP1 PUSH1 0x1F ADD PUSH1 0x20 DUP1 SWAP2 DIV MUL PUSH1 0x20 ADD PUSH1 0x40 MLOAD SWAP1 DUP2 ADD PUSH1 0x40 MSTORE DUP1 SWAP3 SWAP2 SWAP1 DUP2 DUP2 MSTORE PUSH1 0x20 ADD DUP3 DUP1 SLOAD PUSH2 0x7E5 SWAP1 PUSH2 0x19EF JUMP JUMPDEST DUP1 ISZERO PUSH2 0x830 JUMPI DUP1 PUSH1 0x1F LT PUSH2 0x807 JUMPI PUSH2 0x100 DUP1 DUP4 SLOAD DIV MUL DUP4 MSTORE SWAP2 PUSH1 0x20 ADD SWAP2 PUSH2 0x830 JUMP JUMPDEST DUP3 ADD SWAP2 SWAP1 PUSH0 MSTORE PUSH1 0x20 PUSH0 KECCAK256 SWAP1 JUMPDEST DUP2 SLOAD DUP2 MSTORE SWAP1 PUSH1 0x1 ADD SWAP1 PUSH1 0x20 ADD DUP1 DUP4 GT PUSH2 0x813 JUMPI DUP3 SWAP1 SUB PUSH1 0x1F AND DUP3 ADD SWAP2 JUMPDEST POP POP POP POP POP DUP2 JUMP JUMPDEST PUSH1 0x60 PUSH0 PUSH0 DUP4 PUSH1 0x40 MLOAD PUSH2 0x84A SWAP2 SWAP1 PUSH2 0x1746 JUMP JUMPDEST SWAP1 DUP2 MSTORE PUSH1 0x20 ADD PUSH1 0x40 MLOAD DUP1 SWAP2 SUB SWAP1 KECCAK256 PUSH1 0x2 ADD SLOAD GT PUSH2 0x89C JUMPI PUSH1 0x40 MLOAD PUSH32 0x8C379A000000000000000000000000000000000000000000000000000000000 DUP2 MSTORE PUSH1 0x4 ADD PUSH2 0x893 SWAP1 PUSH2 0x17A6 JUMP JUMPDEST PUSH1 0x40 MLOAD DUP1 SWAP2 SUB SWAP1 REVERT JUMPDEST PUSH0 DUP3 PUSH1 0x40 MLOAD PUSH2 0x8AB SWAP2 SWAP1 PUSH2 0x1746 JUMP JUMPDEST SWAP1 DUP2 MSTORE PUSH1 0x20 ADD PUSH1 0x40 MLOAD DUP1 SWAP2 SUB SWAP1 KECCAK256 PUSH1 0xA ADD DUP1 SLOAD DUP1 PUSH1 0x20 MUL PUSH1 0x20 ADD PUSH1 0x40 MLOAD SWAP1 DUP2 ADD PUSH1 0x40 MSTORE DUP1 SWAP3 SWAP2 SWAP1 DUP2 DUP2 MSTORE PUSH1 0x20 ADD PUSH0 SWAP1 JUMPDEST DUP3 DUP3 LT ISZERO PUSH2 0x9C8 JUMPI DUP4 DUP3 SWAP1 PUSH0 MSTORE PUSH1 0x20 PUSH0 KECCAK256 SWAP1 PUSH1 0x4 MUL ADD PUSH1 0x40 MLOAD DUP1 PUSH1 0x80 ADD PUSH1 0x40 MSTORE SWAP1 DUP2 PUSH0 DUP3 ADD PUSH0 SWAP1 SLOAD SWAP1 PUSH2 0x100 EXP SWAP1 DIV PUSH20 0xFFFFFFFFFFFFFFFFFFFFFFFFFFFFFFFFFFFFFFFF AND PUSH20 0xFFFFFFFFFFFFFFFFFFFFFFFFFFFFFFFFFFFFFFFF AND PUSH20 0xFFFFFFFFFFFFFFFFFFFFFFFFFFFFFFFFFFFFFFFF AND DUP2 MSTORE PUSH1 0x20 ADD PUSH1 0x1 DUP3 ADD PUSH0 SWAP1 SLOAD SWAP1 PUSH2 0x100 EXP SWAP1 DIV PUSH20 0xFFFFFFFFFFFFFFFFFFFFFFFFFFFFFFFFFFFFFFFF AND PUSH20 0xFFFFFFFFFFFFFFFFFFFFFFFFFFFFFFFFFFFFFFFF AND PUSH20 0xFFFFFFFFFFFFFFFFFFFFFFFFFFFFFFFFFFFFFFFF AND DUP2 MSTORE PUSH1 0x20 ADD PUSH1 0x2 DUP3 ADD SLOAD DUP2 MSTORE PUSH1 0x20 ADD PUSH1 0x3 DUP3 ADD SLOAD DUP2 MSTORE POP POP DUP2 MSTORE PUSH1 0x20 ADD SWAP1 PUSH1 0x1 ADD SWAP1 PUSH2 0x8DB JUMP JUMPDEST POP POP POP POP SWAP1 POP SWAP2 SWAP1 POP JUMP JUMPDEST PUSH0 PUSH0 DUP8 PUSH1 0x40 MLOAD PUSH2 0x9E3 SWAP2 SWAP1 PUSH2 0x1746 JUMP JUMPDEST SWAP1 DUP2 MSTORE PUSH1 0x20 ADD PUSH1 0x40 MLOAD DUP1 SWAP2 SUB SWAP1 KECCAK256 PUSH1 0x2 ADD SLOAD EQ PUSH2 0xA35 JUMPI PUSH1 0x40 MLOAD PUSH32 0x8C379A000000000000000000000000000000000000000000000000000000000 DUP2 MSTORE PUSH1 0x4 ADD PUSH2 0xA2C SWAP1 PUSH2 0x1A69 JUMP JUMPDEST PUSH1 0x40 MLOAD DUP1 SWAP2 SUB SWAP1 REVERT JUMPDEST PUSH0 PUSH0 DUP8 PUSH1 0x40 MLOAD PUSH2 0xA45 SWAP2 SWAP1 PUSH2 0x1746 JUMP JUMPDEST SWAP1 DUP2 MSTORE PUSH1 0x20 ADD PUSH1 0x40 MLOAD DUP1 SWAP2 SUB SWAP1 KECCAK256 SWAP1 POP DUP7 DUP2 PUSH0 ADD SWAP1 DUP2 PUSH2 0xA65 SWAP2 SWAP1 PUSH2 0x1C27 JUMP JUMPDEST POP CALLER DUP2 PUSH1 0x1 ADD PUSH0 PUSH2 0x100 EXP DUP2 SLOAD DUP2 PUSH20 0xFFFFFFFFFFFFFFFFFFFFFFFFFFFFFFFFFFFFFFFF MUL NOT AND SWAP1 DUP4 PUSH20 0xFFFFFFFFFFFFFFFFFFFFFFFFFFFFFFFFFFFFFFFF AND MUL OR SWAP1 SSTORE POP DUP6 DUP2 PUSH1 0x2 ADD DUP2 SWAP1 SSTORE POP PUSH0 DUP2 PUSH1 0x3 ADD DUP2 SWAP1 SSTORE POP DUP5 DUP2 PUSH1 0x4 ADD DUP2 SWAP1 SSTORE POP PUSH1 0x1 DUP2 PUSH1 0x5 ADD DUP2 SWAP1 SSTORE POP DUP4 DUP2 PUSH1 0x6 ADD DUP2 SWAP1 SSTORE POP DUP3 DUP2 PUSH1 0x7 ADD DUP2 SWAP1 SSTORE POP DUP2 DUP2 PUSH1 0x8 ADD DUP2 SWAP1 SSTORE POP PUSH1 0x1 DUP8 SWAP1 DUP1 PUSH1 0x1 DUP2 SLOAD ADD DUP1 DUP3 SSTORE DUP1 SWAP2 POP POP PUSH1 0x1 SWAP1 SUB SWAP1 PUSH0 MSTORE PUSH1 0x20 PUSH0 KECCAK256 ADD PUSH0 SWAP1 SWAP2 SWAP1 SWAP2 SWAP1 SWAP2 POP SWAP1 DUP2 PUSH2 0xB19 SWAP2 SWAP1 PUSH2 0x1C27 JUMP JUMPDEST POP POP POP POP POP POP POP POP JUMP JUMPDEST PUSH0 PUSH0 DUP5 PUSH1 0x40 MLOAD PUSH2 0xB33 SWAP2 SWAP1 PUSH2 0x1746 JUMP JUMPDEST SWAP1 DUP2 MSTORE PUSH1 0x20 ADD PUSH1 0x40 MLOAD DUP1 SWAP2 SUB SWAP1 KECCAK256 PUSH1 0x2 ADD SLOAD GT PUSH2 0xB85 JUMPI PUSH1 0x40 MLOAD PUSH32 0x8C379A000000000000000000000000000000000000000000000000000000000 DUP2 MSTORE PUSH1 0x4 ADD PUSH2 0xB7C SWAP1 PUSH2 0x17A6 JUMP JUMPDEST PUSH1 0x40 MLOAD DUP1 SWAP2 SUB SWAP1 REVERT JUMPDEST PUSH0 PUSH0 DUP5 PUSH1 0x40 MLOAD PUSH2 0xB95 SWAP2 SWAP1 PUSH2 0x1746 JUMP JUMPDEST SWAP1 DUP2 MSTORE PUSH1 0x20 ADD PUSH1 0x40 MLOAD DUP1 SWAP2 SUB SWAP1 KECCAK256 SWAP1 POP DUP1 PUSH1 0x9 ADD PUSH1 0x40 MLOAD DUP1 PUSH1 0x60 ADD PUSH1 0x40 MSTORE DUP1 DUP6 PUSH20 0xFFFFFFFFFFFFFFFFFFFFFFFFFFFFFFFFFFFFFFFF AND DUP2 MSTORE PUSH1 0x20 ADD DUP5 DUP2 MSTORE PUSH1 0x20 ADD PUSH0 ISZERO ISZERO DUP2 MSTORE POP SWAP1 DUP1 PUSH1 0x1 DUP2 SLOAD ADD DUP1 DUP3 SSTORE DUP1 SWAP2 POP POP PUSH1 0x1 SWAP1 SUB SWAP1 PUSH0 MSTORE PUSH1 0x20 PUSH0 KECCAK256 SWAP1 PUSH1 0x3 MUL ADD PUSH0 SWAP1 SWAP2 SWAP1 SWAP2 SWAP1 SWAP2 POP PUSH0 DUP3 ADD MLOAD DUP2 PUSH0 ADD PUSH0 PUSH2 0x100 EXP DUP2 SLOAD DUP2 PUSH20 0xFFFFFFFFFFFFFFFFFFFFFFFFFFFFFFFFFFFFFFFF MUL NOT AND SWAP1 DUP4 PUSH20 0xFFFFFFFFFFFFFFFFFFFFFFFFFFFFFFFFFFFFFFFF AND MUL OR SWAP1 SSTORE POP PUSH1 0x20 DUP3 ADD MLOAD DUP2 PUSH1 0x1 ADD SSTORE PUSH1 0x40 DUP3 ADD MLOAD DUP2 PUSH1 0x2 ADD PUSH0 PUSH2 0x100 EXP DUP2 SLOAD DUP2 PUSH1 0xFF MUL NOT AND SWAP1 DUP4 ISZERO ISZERO MUL OR SWAP1 SSTORE POP POP POP POP POP POP POP JUMP JUMPDEST PUSH0 PUSH0 DUP6 PUSH1 0x40 MLOAD PUSH2 0xC87 SWAP2 SWAP1 PUSH2 0x1746 JUMP JUMPDEST SWAP1 DUP2 MSTORE PUSH1 0x20 ADD PUSH1 0x40 MLOAD DUP1 SWAP2 SUB SWAP1 KECCAK256 PUSH1 0x2 ADD SLOAD GT PUSH2 0xCD9 JUMPI PUSH1 0x40 MLOAD PUSH32 0x8C379A000000000000000000000000000000000000000000000000000000000 DUP2 MSTORE PUSH1 0x4 ADD PUSH2 0xCD0 SWAP1 PUSH2 0x17A6 JUMP JUMPDEST PUSH1 0x40 MLOAD DUP1 SWAP2 SUB SWAP1 REVERT JUMPDEST PUSH0 DUP2 GT PUSH2 0xD1B JUMPI PUSH1 0x40 MLOAD PUSH32 0x8C379A000000000000000000000000000000000000000000000000000000000 DUP2 MSTORE PUSH1 0x4 ADD PUSH2 0xD12 SWAP1 PUSH2 0x1D40 JUMP JUMPDEST PUSH1 0x40 MLOAD DUP1 SWAP2 SUB SWAP1 REVERT JUMPDEST PUSH0 PUSH0 DUP6 PUSH1 0x40 MLOAD PUSH2 0xD2B SWAP2 SWAP1 PUSH2 0x1746 JUMP JUMPDEST SWAP1 DUP2 MSTORE PUSH1 0x20 ADD PUSH1 0x40 MLOAD DUP1 SWAP2 SUB SWAP1 KECCAK256 SWAP1 POP DUP1 PUSH1 0xA ADD PUSH1 0x40 MLOAD DUP1 PUSH1 0x80 ADD PUSH1 0x40 MSTORE DUP1 DUP7 PUSH20 0xFFFFFFFFFFFFFFFFFFFFFFFFFFFFFFFFFFFFFFFF AND DUP2 MSTORE PUSH1 0x20 ADD DUP6 PUSH20 0xFFFFFFFFFFFFFFFFFFFFFFFFFFFFFFFFFFFFFFFF AND DUP2 MSTORE PUSH1 0x20 ADD DUP5 DUP2 MSTORE PUSH1 0x20 ADD TIMESTAMP DUP2 MSTORE POP SWAP1 DUP1 PUSH1 0x1 DUP2 SLOAD ADD DUP1 DUP3 SSTORE DUP1 SWAP2 POP POP PUSH1 0x1 SWAP1 SUB SWAP1 PUSH0 MSTORE PUSH1 0x20 PUSH0 KECCAK256 SWAP1 PUSH1 0x4 MUL ADD PUSH0 SWAP1 SWAP2 SWAP1 SWAP2 SWAP1 SWAP2 POP PUSH0 DUP3 ADD MLOAD DUP2 PUSH0 ADD PUSH0 PUSH2 0x100 EXP DUP2 SLOAD DUP2 PUSH20 0xFFFFFFFFFFFFFFFFFFFFFFFFFFFFFFFFFFFFFFFF MUL NOT AND SWAP1 DUP4 PUSH20 0xFFFFFFFFFFFFFFFFFFFFFFFFFFFFFFFFFFFFFFFF AND MUL OR SWAP1 SSTORE POP PUSH1 0x20 DUP3 ADD MLOAD DUP2 PUSH1 0x1 ADD PUSH0 PUSH2 0x100 EXP DUP2 SLOAD DUP2 PUSH20 0xFFFFFFFFFFFFFFFFFFFFFFFFFFFFFFFFFFFFFFFF MUL NOT AND SWAP1 DUP4 PUSH20 0xFFFFFFFFFFFFFFFFFFFFFFFFFFFFFFFFFFFFFFFF AND MUL OR SWAP1 SSTORE POP PUSH1 0x40 DUP3 ADD MLOAD DUP2 PUSH1 0x2 ADD SSTORE PUSH1 0x60 DUP3 ADD MLOAD DUP2 PUSH1 0x3 ADD SSTORE POP POP DUP2 DUP2 PUSH1 0x3 ADD PUSH0 DUP3 DUP3 SLOAD PUSH2 0xE65 SWAP2 SWAP1 PUSH2 0x1D5E JUMP JUMPDEST SWAP3 POP POP DUP2 SWAP1 SSTORE POP POP POP POP POP POP JUMP JUMPDEST PUSH0 PUSH0 PUSH0 PUSH0 PUSH0 PUSH0 PUSH0 PUSH0 PUSH0 PUSH0 DUP11 PUSH1 0x40 MLOAD PUSH2 0xE8B SWAP2 SWAP1 PUSH2 0x1746 JUMP JUMPDEST SWAP1 DUP2 MSTORE PUSH1 0x20 ADD PUSH1 0x40 MLOAD DUP1 SWAP2 SUB SWAP1 KECCAK256 PUSH1 0x2 ADD SLOAD GT PUSH2 0xEDD JUMPI PUSH1 0x40 MLOAD PUSH32 0x8C379A000000000000000000000000000000000000000000000000000000000 DUP2 MSTORE PUSH1 0x4 ADD PUSH2 0xED4 SWAP1 PUSH2 0x17A6 JUMP JUMPDEST PUSH1 0x40 MLOAD DUP1 SWAP2 SUB SWAP1 REVERT JUMPDEST PUSH0 PUSH0 DUP11 PUSH1 0x40 MLOAD PUSH2 0xEED SWAP2 SWAP1 PUSH2 0x1746 JUMP JUMPDEST SWAP1 DUP2 MSTORE PUSH1 0x20 ADD PUSH1 0x40 MLOAD DUP1 SWAP2 SUB SWAP1 KECCAK256 SWAP1 POP DUP1 PUSH1 0x1 ADD PUSH0 SWAP1 SLOAD SWAP1 PUSH2 0x100 EXP SWAP1 DIV PUSH20 0xFFFFFFFFFFFFFFFFFFFFFFFFFFFFFFFFFFFFFFFF AND DUP2 PUSH1 0x2 ADD SLOAD DUP3 PUSH1 0x3 ADD SLOAD DUP4 PUSH1 0x4 ADD SLOAD DUP5 PUSH1 0x5 ADD SLOAD DUP6 PUSH1 0x6 ADD SLOAD DUP7 PUSH1 0x7 ADD SLOAD DUP8 PUSH1 0x8 ADD SLOAD SWAP9 POP SWAP9 POP SWAP9 POP SWAP9 POP SWAP9 POP SWAP9 POP SWAP9 POP SWAP9 POP POP SWAP2 SWAP4 SWAP6 SWAP8 POP SWAP2 SWAP4 SWAP6 SWAP8 JUMP JUMPDEST PUSH0 PUSH1 0x40 MLOAD SWAP1 POP SWAP1 JUMP JUMPDEST PUSH0 PUSH0 REVERT JUMPDEST PUSH0 PUSH0 REVERT JUMPDEST PUSH0 PUSH0 REVERT JUMPDEST PUSH0 PUSH0 REVERT JUMPDEST PUSH0 PUSH1 0x1F NOT PUSH1 0x1F DUP4 ADD AND SWAP1 POP SWAP2 SWAP1 POP JUMP JUMPDEST PUSH32 0x4E487B7100000000000000000000000000000000000000000000000000000000 PUSH0 MSTORE PUSH1 0x41 PUSH1 0x4 MSTORE PUSH1 0x24 PUSH0 REVERT JUMPDEST PUSH2 0xFBF DUP3 PUSH2 0xF79 JUMP JUMPDEST DUP2 ADD DUP2 DUP2 LT PUSH8 0xFFFFFFFFFFFFFFFF DUP3 GT OR ISZERO PUSH2 0xFDE JUMPI PUSH2 0xFDD PUSH2 0xF89 JUMP JUMPDEST JUMPDEST DUP1 PUSH1 0x40 MSTORE POP POP POP JUMP JUMPDEST PUSH0 PUSH2 0xFF0 PUSH2 0xF60 JUMP JUMPDEST SWAP1 POP PUSH2 0xFFC DUP3 DUP3 PUSH2 0xFB6 JUMP JUMPDEST SWAP2 SWAP1 POP JUMP JUMPDEST PUSH0 PUSH8 0xFFFFFFFFFFFFFFFF DUP3 GT ISZERO PUSH2 0x101B JUMPI PUSH2 0x101A PUSH2 0xF89 JUMP JUMPDEST JUMPDEST PUSH2 0x1024 DUP3 PUSH2 0xF79 JUMP JUMPDEST SWAP1 POP PUSH1 0x20 DUP2 ADD SWAP1 POP SWAP2 SWAP1 POP JUMP JUMPDEST DUP3 DUP2 DUP4 CALLDATACOPY PUSH0 DUP4 DUP4 ADD MSTORE POP POP POP JUMP JUMPDEST PUSH0 PUSH2 0x1051 PUSH2 0x104C DUP5 PUSH2 0x1001 JUMP JUMPDEST PUSH2 0xFE7 JUMP JUMPDEST SWAP1 POP DUP3 DUP2 MSTORE PUSH1 0x20 DUP2 ADD DUP5 DUP5 DUP5 ADD GT ISZERO PUSH2 0x106D JUMPI PUSH2 0x106C PUSH2 0xF75 JUMP JUMPDEST JUMPDEST PUSH2 0x1078 DUP5 DUP3 DUP6 PUSH2 0x1031 JUMP JUMPDEST POP SWAP4 SWAP3 POP POP POP JUMP JUMPDEST PUSH0 DUP3 PUSH1 0x1F DUP4 ADD SLT PUSH2 0x1094 JUMPI PUSH2 0x1093 PUSH2 0xF71 JUMP JUMPDEST JUMPDEST DUP2 CALLDATALOAD PUSH2 0x10A4 DUP5 DUP3 PUSH1 0x20 DUP7 ADD PUSH2 0x103F JUMP JUMPDEST SWAP2 POP POP SWAP3 SWAP2 POP POP JUMP JUMPDEST PUSH0 PUSH20 0xFFFFFFFFFFFFFFFFFFFFFFFFFFFFFFFFFFFFFFFF DUP3 AND SWAP1 POP SWAP2 SWAP1 POP JUMP JUMPDEST PUSH0 PUSH2 0x10D6 DUP3 PUSH2 0x10AD JUMP JUMPDEST SWAP1 POP SWAP2 SWAP1 POP JUMP JUMPDEST PUSH2 0x10E6 DUP2 PUSH2 0x10CC JUMP JUMPDEST DUP2 EQ PUSH2 0x10F0 JUMPI PUSH0 PUSH0 REVERT JUMPDEST POP JUMP JUMPDEST PUSH0 DUP2 CALLDATALOAD SWAP1 POP PUSH2 0x1101 DUP2 PUSH2 0x10DD JUMP JUMPDEST SWAP3 SWAP2 POP POP JUMP JUMPDEST PUSH0 PUSH0 PUSH1 0x40 DUP4 DUP6 SUB SLT ISZERO PUSH2 0x111D JUMPI PUSH2 0x111C PUSH2 0xF69 JUMP JUMPDEST JUMPDEST PUSH0 DUP4 ADD CALLDATALOAD PUSH8 0xFFFFFFFFFFFFFFFF DUP2 GT ISZERO PUSH2 0x113A JUMPI PUSH2 0x1139 PUSH2 0xF6D JUMP JUMPDEST JUMPDEST PUSH2 0x1146 DUP6 DUP3 DUP7 ADD PUSH2 0x1080 JUMP JUMPDEST SWAP3 POP POP PUSH1 0x20 PUSH2 0x1157 DUP6 DUP3 DUP7 ADD PUSH2 0x10F3 JUMP JUMPDEST SWAP2 POP POP SWAP3 POP SWAP3 SWAP1 POP JUMP JUMPDEST PUSH0 PUSH1 0x20 DUP3 DUP5 SUB SLT ISZERO PUSH2 0x1176 JUMPI PUSH2 0x1175 PUSH2 0xF69 JUMP JUMPDEST JUMPDEST PUSH0 DUP3 ADD CALLDATALOAD PUSH8 0xFFFFFFFFFFFFFFFF DUP2 GT ISZERO PUSH2 0x1193 JUMPI PUSH2 0x1192 PUSH2 0xF6D JUMP JUMPDEST JUMPDEST PUSH2 0x119F DUP5 DUP3 DUP6 ADD PUSH2 0x1080 JUMP JUMPDEST SWAP2 POP POP SWAP3 SWAP2 POP POP JUMP JUMPDEST PUSH0 DUP2 MLOAD SWAP1 POP SWAP2 SWAP1 POP JUMP JUMPDEST PUSH0 DUP3 DUP3 MSTORE PUSH1 0x20 DUP3 ADD SWAP1 POP SWAP3 SWAP2 POP POP JUMP JUMPDEST PUSH0 DUP2 SWAP1 POP PUSH1 0x20 DUP3 ADD SWAP1 POP SWAP2 SWAP1 POP JUMP JUMPDEST PUSH2 0x11DA DUP2 PUSH2 0x10CC JUMP JUMPDEST DUP3 MSTORE POP POP JUMP JUMPDEST PUSH0 DUP2 SWAP1 POP SWAP2 SWAP1 POP JUMP JUMPDEST PUSH2 0x11F2 DUP2 PUSH2 0x11E0 JUMP JUMPDEST DUP3 MSTORE POP POP JUMP JUMPDEST PUSH0 DUP2 ISZERO ISZERO SWAP1 POP SWAP2 SWAP1 POP JUMP JUMPDEST PUSH2 0x120C DUP2 PUSH2 0x11F8 JUMP JUMPDEST DUP3 MSTORE POP POP JUMP JUMPDEST PUSH1 0x60 DUP3 ADD PUSH0 DUP3 ADD MLOAD PUSH2 0x1226 PUSH0 DUP6 ADD DUP3 PUSH2 0x11D1 JUMP JUMPDEST POP PUSH1 0x20 DUP3 ADD MLOAD PUSH2 0x1239 PUSH1 0x20 DUP6 ADD DUP3 PUSH2 0x11E9 JUMP JUMPDEST POP PUSH1 0x40 DUP3 ADD MLOAD PUSH2 0x124C PUSH1 0x40 DUP6 ADD DUP3 PUSH2 0x1203 JUMP JUMPDEST POP POP POP POP JUMP JUMPDEST PUSH0 PUSH2 0x125D DUP4 DUP4 PUSH2 0x1212 JUMP JUMPDEST PUSH1 0x60 DUP4 ADD SWAP1 POP SWAP3 SWAP2 POP POP JUMP JUMPDEST PUSH0 PUSH1 0x20 DUP3 ADD SWAP1 POP SWAP2 SWAP1 POP JUMP JUMPDEST PUSH0 PUSH2 0x127F DUP3 PUSH2 0x11A8 JUMP JUMPDEST PUSH2 0x1289 DUP2 DUP6 PUSH2 0x11B2 JUMP JUMPDEST SWAP4 POP PUSH2 0x1294 DUP4 PUSH2 0x11C2 JUMP JUMPDEST DUP1 PUSH0 JUMPDEST DUP4 DUP2 LT ISZERO PUSH2 0x12C4 JUMPI DUP2 MLOAD PUSH2 0x12AB DUP9 DUP3 PUSH2 0x1252 JUMP JUMPDEST SWAP8 POP PUSH2 0x12B6 DUP4 PUSH2 0x1269 JUMP JUMPDEST SWAP3 POP POP PUSH1 0x1 DUP2 ADD SWAP1 POP PUSH2 0x1297 JUMP JUMPDEST POP DUP6 SWAP4 POP POP POP POP SWAP3 SWAP2 POP POP JUMP JUMPDEST PUSH0 PUSH1 0x20 DUP3 ADD SWAP1 POP DUP2 DUP2 SUB PUSH0 DUP4 ADD MSTORE PUSH2 0x12E9 DUP2 DUP5 PUSH2 0x1275 JUMP JUMPDEST SWAP1 POP SWAP3 SWAP2 POP POP JUMP JUMPDEST PUSH2 0x12FA DUP2 PUSH2 0x11E0 JUMP JUMPDEST DUP2 EQ PUSH2 0x1304 JUMPI PUSH0 PUSH0 REVERT JUMPDEST POP JUMP JUMPDEST PUSH0 DUP2 CALLDATALOAD SWAP1 POP PUSH2 0x1315 DUP2 PUSH2 0x12F1 JUMP JUMPDEST SWAP3 SWAP2 POP POP JUMP JUMPDEST PUSH0 PUSH1 0x20 DUP3 DUP5 SUB SLT ISZERO PUSH2 0x1330 JUMPI PUSH2 0x132F PUSH2 0xF69 JUMP JUMPDEST JUMPDEST PUSH0 PUSH2 0x133D DUP5 DUP3 DUP6 ADD PUSH2 0x1307 JUMP JUMPDEST SWAP2 POP POP SWAP3 SWAP2 POP POP JUMP JUMPDEST PUSH0 DUP2 MLOAD SWAP1 POP SWAP2 SWAP1 POP JUMP JUMPDEST PUSH0 DUP3 DUP3 MSTORE PUSH1 0x20 DUP3 ADD SWAP1 POP SWAP3 SWAP2 POP POP JUMP JUMPDEST DUP3 DUP2 DUP4 MCOPY PUSH0 DUP4 DUP4 ADD MSTORE POP POP POP JUMP JUMPDEST PUSH0 PUSH2 0x1378 DUP3 PUSH2 0x1346 JUMP JUMPDEST PUSH2 0x1382 DUP2 DUP6 PUSH2 0x1350 JUMP JUMPDEST SWAP4 POP PUSH2 0x1392 DUP2 DUP6 PUSH1 0x20 DUP7 ADD PUSH2 0x1360 JUMP JUMPDEST PUSH2 0x139B DUP2 PUSH2 0xF79 JUMP JUMPDEST DUP5 ADD SWAP2 POP POP SWAP3 SWAP2 POP POP JUMP JUMPDEST PUSH0 PUSH1 0x20 DUP3 ADD SWAP1 POP DUP2 DUP2 SUB PUSH0 DUP4 ADD MSTORE PUSH2 0x13BE DUP2 DUP5 PUSH2 0x136E JUMP JUMPDEST SWAP1 POP SWAP3 SWAP2 POP POP JUMP JUMPDEST PUSH0 DUP2 MLOAD SWAP1 POP SWAP2 SWAP1 POP JUMP JUMPDEST PUSH0 DUP3 DUP3 MSTORE PUSH1 0x20 DUP3 ADD SWAP1 POP SWAP3 SWAP2 POP POP JUMP JUMPDEST PUSH0 DUP2 SWAP1 POP PUSH1 0x20 DUP3 ADD SWAP1 POP SWAP2 SWAP1 POP JUMP JUMPDEST PUSH1 0x80 DUP3 ADD PUSH0 DUP3 ADD MLOAD PUSH2 0x1403 PUSH0 DUP6 ADD DUP3 PUSH2 0x11D1 JUMP JUMPDEST POP PUSH1 0x20 DUP3 ADD MLOAD PUSH2 0x1416 PUSH1 0x20 DUP6 ADD DUP3 PUSH2 0x11D1 JUMP JUMPDEST POP PUSH1 0x40 DUP3 ADD MLOAD PUSH2 0x1429 PUSH1 0x40 DUP6 ADD DUP3 PUSH2 0x11E9 JUMP JUMPDEST POP PUSH1 0x60 DUP3 ADD MLOAD PUSH2 0x143C PUSH1 0x60 DUP6 ADD DUP3 PUSH2 0x11E9 JUMP JUMPDEST POP POP POP POP JUMP JUMPDEST PUSH0 PUSH2 0x144D DUP4 DUP4 PUSH2 0x13EF JUMP JUMPDEST PUSH1 0x80 DUP4 ADD SWAP1 POP SWAP3 SWAP2 POP POP JUMP JUMPDEST PUSH0 PUSH1 0x20 DUP3 ADD SWAP1 POP SWAP2 SWAP1 POP JUMP JUMPDEST PUSH0 PUSH2 0x146F DUP3 PUSH2 0x13C6 JUMP JUMPDEST PUSH2 0x1479 DUP2 DUP6 PUSH2 0x13D0 JUMP JUMPDEST SWAP4 POP PUSH2 0x1484 DUP4 PUSH2 0x13E0 JUMP JUMPDEST DUP1 PUSH0 JUMPDEST DUP4 DUP2 LT ISZERO PUSH2 0x14B4 JUMPI DUP2 MLOAD PUSH2 0x149B DUP9 DUP3 PUSH2 0x1442 JUMP JUMPDEST SWAP8 POP PUSH2 0x14A6 DUP4 PUSH2 0x1459 JUMP JUMPDEST SWAP3 POP POP PUSH1 0x1 DUP2 ADD SWAP1 POP PUSH2 0x1487 JUMP JUMPDEST POP DUP6 SWAP4 POP POP POP POP SWAP3 SWAP2 POP POP JUMP JUMPDEST PUSH0 PUSH1 0x20 DUP3 ADD SWAP1 POP DUP2 DUP2 SUB PUSH0 DUP4 ADD MSTORE PUSH2 0x14D9 DUP2 DUP5 PUSH2 0x1465 JUMP JUMPDEST SWAP1 POP SWAP3 SWAP2 POP POP JUMP JUMPDEST PUSH0 PUSH0 PUSH0 PUSH0 PUSH0 PUSH0 PUSH1 0xC0 DUP8 DUP10 SUB SLT ISZERO PUSH2 0x14FB JUMPI PUSH2 0x14FA PUSH2 0xF69 JUMP JUMPDEST JUMPDEST PUSH0 DUP8 ADD CALLDATALOAD PUSH8 0xFFFFFFFFFFFFFFFF DUP2 GT ISZERO PUSH2 0x1518 JUMPI PUSH2 0x1517 PUSH2 0xF6D JUMP JUMPDEST JUMPDEST PUSH2 0x1524 DUP10 DUP3 DUP11 ADD PUSH2 0x1080 JUMP JUMPDEST SWAP7 POP POP PUSH1 0x20 PUSH2 0x1535 DUP10 DUP3 DUP11 ADD PUSH2 0x1307 JUMP JUMPDEST SWAP6 POP POP PUSH1 0x40 PUSH2 0x1546 DUP10 DUP3 DUP11 ADD PUSH2 0x1307 JUMP JUMPDEST SWAP5 POP POP PUSH1 0x60 PUSH2 0x1557 DUP10 DUP3 DUP11 ADD PUSH2 0x1307 JUMP JUMPDEST SWAP4 POP POP PUSH1 0x80 PUSH2 0x1568 DUP10 DUP3 DUP11 ADD PUSH2 0x1307 JUMP JUMPDEST SWAP3 POP POP PUSH1 0xA0 PUSH2 0x1579 DUP10 DUP3 DUP11 ADD PUSH2 0x1307 JUMP JUMPDEST SWAP2 POP POP SWAP3 SWAP6 POP SWAP3 SWAP6 POP SWAP3 SWAP6 JUMP JUMPDEST PUSH0 PUSH0 PUSH0 PUSH1 0x60 DUP5 DUP7 SUB SLT ISZERO PUSH2 0x159D JUMPI PUSH2 0x159C PUSH2 0xF69 JUMP JUMPDEST JUMPDEST PUSH0 DUP5 ADD CALLDATALOAD PUSH8 0xFFFFFFFFFFFFFFFF DUP2 GT ISZERO PUSH2 0x15BA JUMPI PUSH2 0x15B9 PUSH2 0xF6D JUMP JUMPDEST JUMPDEST PUSH2 0x15C6 DUP7 DUP3 DUP8 ADD PUSH2 0x1080 JUMP JUMPDEST SWAP4 POP POP PUSH1 0x20 PUSH2 0x15D7 DUP7 DUP3 DUP8 ADD PUSH2 0x10F3 JUMP JUMPDEST SWAP3 POP POP PUSH1 0x40 PUSH2 0x15E8 DUP7 DUP3 DUP8 ADD PUSH2 0x1307 JUMP JUMPDEST SWAP2 POP POP SWAP3 POP SWAP3 POP SWAP3 JUMP JUMPDEST PUSH0 PUSH0 PUSH0 PUSH0 PUSH1 0x80 DUP6 DUP8 SUB SLT ISZERO PUSH2 0x160A JUMPI PUSH2 0x1609 PUSH2 0xF69 JUMP JUMPDEST JUMPDEST PUSH0 DUP6 ADD CALLDATALOAD PUSH8 0xFFFFFFFFFFFFFFFF DUP2 GT ISZERO PUSH2 0x1627 JUMPI PUSH2 0x1626 PUSH2 0xF6D JUMP JUMPDEST JUMPDEST PUSH2 0x1633 DUP8 DUP3 DUP9 ADD PUSH2 0x1080 JUMP JUMPDEST SWAP5 POP POP PUSH1 0x20 PUSH2 0x1644 DUP8 DUP3 DUP9 ADD PUSH2 0x10F3 JUMP JUMPDEST SWAP4 POP POP PUSH1 0x40 PUSH2 0x1655 DUP8 DUP3 DUP9 ADD PUSH2 0x10F3 JUMP JUMPDEST SWAP3 POP POP PUSH1 0x60 PUSH2 0x1666 DUP8 DUP3 DUP9 ADD PUSH2 0x1307 JUMP JUMPDEST SWAP2 POP POP SWAP3 SWAP6 SWAP2 SWAP5 POP SWAP3 POP JUMP JUMPDEST PUSH2 0x167B DUP2 PUSH2 0x10CC JUMP JUMPDEST DUP3 MSTORE POP POP JUMP JUMPDEST PUSH2 0x168A DUP2 PUSH2 0x11E0 JUMP JUMPDEST DUP3 MSTORE POP POP JUMP JUMPDEST PUSH0 PUSH2 0x100 DUP3 ADD SWAP1 POP PUSH2 0x16A4 PUSH0 DUP4 ADD DUP12 PUSH2 0x1672 JUMP JUMPDEST PUSH2 0x16B1 PUSH1 0x20 DUP4 ADD DUP11 PUSH2 0x1681 JUMP JUMPDEST PUSH2 0x16BE PUSH1 0x40 DUP4 ADD DUP10 PUSH2 0x1681 JUMP JUMPDEST PUSH2 0x16CB PUSH1 0x60 DUP4 ADD DUP9 PUSH2 0x1681 JUMP JUMPDEST PUSH2 0x16D8 PUSH1 0x80 DUP4 ADD DUP8 PUSH2 0x1681 JUMP JUMPDEST PUSH2 0x16E5 PUSH1 0xA0 DUP4 ADD DUP7 PUSH2 0x1681 JUMP JUMPDEST PUSH2 0x16F2 PUSH1 0xC0 DUP4 ADD DUP6 PUSH2 0x1681 JUMP JUMPDEST PUSH2 0x16FF PUSH1 0xE0 DUP4 ADD DUP5 PUSH2 0x1681 JUMP JUMPDEST SWAP10 SWAP9 POP POP POP POP POP POP POP POP POP JUMP JUMPDEST PUSH0 DUP2 SWAP1 POP SWAP3 SWAP2 POP POP JUMP JUMPDEST PUSH0 PUSH2 0x1720 DUP3 PUSH2 0x1346 JUMP JUMPDEST PUSH2 0x172A DUP2 DUP6 PUSH2 0x170C JUMP JUMPDEST SWAP4 POP PUSH2 0x173A DUP2 DUP6 PUSH1 0x20 DUP7 ADD PUSH2 0x1360 JUMP JUMPDEST DUP1 DUP5 ADD SWAP2 POP POP SWAP3 SWAP2 POP POP JUMP JUMPDEST PUSH0 PUSH2 0x1751 DUP3 DUP5 PUSH2 0x1716 JUMP JUMPDEST SWAP2 POP DUP2 SWAP1 POP SWAP3 SWAP2 POP POP JUMP JUMPDEST PUSH32 0x4C612073616C61206E6F20657869737465000000000000000000000000000000 PUSH0 DUP3 ADD MSTORE POP JUMP JUMPDEST PUSH0 PUSH2 0x1790 PUSH1 0x11 DUP4 PUSH2 0x1350 JUMP JUMPDEST SWAP2 POP PUSH2 0x179B DUP3 PUSH2 0x175C JUMP JUMPDEST PUSH1 0x20 DUP3 ADD SWAP1 POP SWAP2 SWAP1 POP JUMP JUMPDEST PUSH0 PUSH1 0x20 DUP3 ADD SWAP1 POP DUP2 DUP2 SUB PUSH0 DUP4 ADD MSTORE PUSH2 0x17BD DUP2 PUSH2 0x1784 JUMP JUMPDEST SWAP1 POP SWAP2 SWAP1 POP JUMP JUMPDEST PUSH32 0x4E487B7100000000000000000000000000000000000000000000000000000000 PUSH0 MSTORE PUSH1 0x11 PUSH1 0x4 MSTORE PUSH1 0x24 PUSH0 REVERT JUMPDEST PUSH0 PUSH2 0x17FB DUP3 PUSH2 0x11E0 JUMP JUMPDEST SWAP2 POP PUSH2 0x1806 DUP4 PUSH2 0x11E0 JUMP JUMPDEST SWAP3 POP DUP3 DUP3 MUL PUSH2 0x1814 DUP2 PUSH2 0x11E0 JUMP JUMPDEST SWAP2 POP DUP3 DUP3 DIV DUP5 EQ DUP4 ISZERO OR PUSH2 0x182B JUMPI PUSH2 0x182A PUSH2 0x17C4 JUMP JUMPDEST JUMPDEST POP SWAP3 SWAP2 POP POP JUMP JUMPDEST PUSH32 0x4E6F20736520686120636F6D706C657461646F20656C206D6F6E746F20746F74 PUSH0 DUP3 ADD MSTORE PUSH32 0x616C000000000000000000000000000000000000000000000000000000000000 PUSH1 0x20 DUP3 ADD MSTORE POP JUMP JUMPDEST PUSH0 PUSH2 0x188C PUSH1 0x22 DUP4 PUSH2 0x1350 JUMP JUMPDEST SWAP2 POP PUSH2 0x1897 DUP3 PUSH2 0x1832 JUMP JUMPDEST PUSH1 0x40 DUP3 ADD SWAP1 POP SWAP2 SWAP1 POP JUMP JUMPDEST PUSH0 PUSH1 0x20 DUP3 ADD SWAP1 POP DUP2 DUP2 SUB PUSH0 DUP4 ADD MSTORE PUSH2 0x18B9 DUP2 PUSH2 0x1880 JUMP JUMPDEST SWAP1 POP SWAP2 SWAP1 POP JUMP JUMPDEST PUSH32 0x4E487B7100000000000000000000000000000000000000000000000000000000 PUSH0 MSTORE PUSH1 0x32 PUSH1 0x4 MSTORE PUSH1 0x24 PUSH0 REVERT JUMPDEST PUSH32 0x57616C6C6574206E6F20636F696E6369646520636F6E20656C20706172746963 PUSH0 DUP3 ADD MSTORE PUSH32 0x6970616E746520656E207475726E6F0000000000000000000000000000000000 PUSH1 0x20 DUP3 ADD MSTORE POP JUMP JUMPDEST PUSH0 PUSH2 0x1947 PUSH1 0x2F DUP4 PUSH2 0x1350 JUMP JUMPDEST SWAP2 POP PUSH2 0x1952 DUP3 PUSH2 0x18ED JUMP JUMPDEST PUSH1 0x40 DUP3 ADD SWAP1 POP SWAP2 SWAP1 POP JUMP JUMPDEST PUSH0 PUSH1 0x20 DUP3 ADD SWAP1 POP DUP2 DUP2 SUB PUSH0 DUP4 ADD MSTORE PUSH2 0x1974 DUP2 PUSH2 0x193B JUMP JUMPDEST SWAP1 POP SWAP2 SWAP1 POP JUMP JUMPDEST PUSH0 PUSH2 0x1985 DUP3 PUSH2 0x11E0 JUMP JUMPDEST SWAP2 POP PUSH32 0xFFFFFFFFFFFFFFFFFFFFFFFFFFFFFFFFFFFFFFFFFFFFFFFFFFFFFFFFFFFFFFFF DUP3 SUB PUSH2 0x19B7 JUMPI PUSH2 0x19B6 PUSH2 0x17C4 JUMP JUMPDEST JUMPDEST PUSH1 0x1 DUP3 ADD SWAP1 POP SWAP2 SWAP1 POP JUMP JUMPDEST PUSH32 0x4E487B7100000000000000000000000000000000000000000000000000000000 PUSH0 MSTORE PUSH1 0x22 PUSH1 0x4 MSTORE PUSH1 0x24 PUSH0 REVERT JUMPDEST PUSH0 PUSH1 0x2 DUP3 DIV SWAP1 POP PUSH1 0x1 DUP3 AND DUP1 PUSH2 0x1A06 JUMPI PUSH1 0x7F DUP3 AND SWAP2 POP JUMPDEST PUSH1 0x20 DUP3 LT DUP2 SUB PUSH2 0x1A19 JUMPI PUSH2 0x1A18 PUSH2 0x19C2 JUMP JUMPDEST JUMPDEST POP SWAP2 SWAP1 POP JUMP JUMPDEST PUSH32 0x4C612073616C6120796120657869737465000000000000000000000000000000 PUSH0 DUP3 ADD MSTORE POP JUMP JUMPDEST PUSH0 PUSH2 0x1A53 PUSH1 0x11 DUP4 PUSH2 0x1350 JUMP JUMPDEST SWAP2 POP PUSH2 0x1A5E DUP3 PUSH2 0x1A1F JUMP JUMPDEST PUSH1 0x20 DUP3 ADD SWAP1 POP SWAP2 SWAP1 POP JUMP JUMPDEST PUSH0 PUSH1 0x20 DUP3 ADD SWAP1 POP DUP2 DUP2 SUB PUSH0 DUP4 ADD MSTORE PUSH2 0x1A80 DUP2 PUSH2 0x1A47 JUMP JUMPDEST SWAP1 POP SWAP2 SWAP1 POP JUMP JUMPDEST PUSH0 DUP2 SWAP1 POP DUP2 PUSH0 MSTORE PUSH1 0x20 PUSH0 KECCAK256 SWAP1 POP SWAP2 SWAP1 POP JUMP JUMPDEST PUSH0 PUSH1 0x20 PUSH1 0x1F DUP4 ADD DIV SWAP1 POP SWAP2 SWAP1 POP JUMP JUMPDEST PUSH0 DUP3 DUP3 SHL SWAP1 POP SWAP3 SWAP2 POP POP JUMP JUMPDEST PUSH0 PUSH1 0x8 DUP4 MUL PUSH2 0x1AE3 PUSH32 0xFFFFFFFFFFFFFFFFFFFFFFFFFFFFFFFFFFFFFFFFFFFFFFFFFFFFFFFFFFFFFFFF DUP3 PUSH2 0x1AA8 JUMP JUMPDEST PUSH2 0x1AED DUP7 DUP4 PUSH2 0x1AA8 JUMP JUMPDEST SWAP6 POP DUP1 NOT DUP5 AND SWAP4 POP DUP1 DUP7 AND DUP5 OR SWAP3 POP POP POP SWAP4 SWAP3 POP POP POP JUMP JUMPDEST PUSH0 DUP2 SWAP1 POP SWAP2 SWAP1 POP JUMP JUMPDEST PUSH0 PUSH2 0x1B28 PUSH2 0x1B23 PUSH2 0x1B1E DUP5 PUSH2 0x11E0 JUMP JUMPDEST PUSH2 0x1B05 JUMP JUMPDEST PUSH2 0x11E0 JUMP JUMPDEST SWAP1 POP SWAP2 SWAP1 POP JUMP JUMPDEST PUSH0 DUP2 SWAP1 POP SWAP2 SWAP1 POP JUMP JUMPDEST PUSH2 0x1B41 DUP4 PUSH2 0x1B0E JUMP JUMPDEST PUSH2 0x1B55 PUSH2 0x1B4D DUP3 PUSH2 0x1B2F JUMP JUMPDEST DUP5 DUP5 SLOAD PUSH2 0x1AB4 JUMP JUMPDEST DUP3 SSTORE POP POP POP POP JUMP JUMPDEST PUSH0 PUSH0 SWAP1 POP SWAP1 JUMP JUMPDEST PUSH2 0x1B6C PUSH2 0x1B5D JUMP JUMPDEST PUSH2 0x1B77 DUP2 DUP5 DUP5 PUSH2 0x1B38 JUMP JUMPDEST POP POP POP JUMP JUMPDEST JUMPDEST DUP2 DUP2 LT ISZERO PUSH2 0x1B9A JUMPI PUSH2 0x1B8F PUSH0 DUP3 PUSH2 0x1B64 JUMP JUMPDEST PUSH1 0x1 DUP2 ADD SWAP1 POP PUSH2 0x1B7D JUMP JUMPDEST POP POP JUMP JUMPDEST PUSH1 0x1F DUP3 GT ISZERO PUSH2 0x1BDF JUMPI PUSH2 0x1BB0 DUP2 PUSH2 0x1A87 JUMP JUMPDEST PUSH2 0x1BB9 DUP5 PUSH2 0x1A99 JUMP JUMPDEST DUP2 ADD PUSH1 0x20 DUP6 LT ISZERO PUSH2 0x1BC8 JUMPI DUP2 SWAP1 POP JUMPDEST PUSH2 0x1BDC PUSH2 0x1BD4 DUP6 PUSH2 0x1A99 JUMP JUMPDEST DUP4 ADD DUP3 PUSH2 0x1B7C JUMP JUMPDEST POP POP JUMPDEST POP POP POP JUMP JUMPDEST PUSH0 DUP3 DUP3 SHR SWAP1 POP SWAP3 SWAP2 POP POP JUMP JUMPDEST PUSH0 PUSH2 0x1BFF PUSH0 NOT DUP5 PUSH1 0x8 MUL PUSH2 0x1BE4 JUMP JUMPDEST NOT DUP1 DUP4 AND SWAP2 POP POP SWAP3 SWAP2 POP POP JUMP JUMPDEST PUSH0 PUSH2 0x1C17 DUP4 DUP4 PUSH2 0x1BF0 JUMP JUMPDEST SWAP2 POP DUP3 PUSH1 0x2 MUL DUP3 OR SWAP1 POP SWAP3 SWAP2 POP POP JUMP JUMPDEST PUSH2 0x1C30 DUP3 PUSH2 0x1346 JUMP JUMPDEST PUSH8 0xFFFFFFFFFFFFFFFF DUP2 GT ISZERO PUSH2 0x1C49 JUMPI PUSH2 0x1C48 PUSH2 0xF89 JUMP JUMPDEST JUMPDEST PUSH2 0x1C53 DUP3 SLOAD PUSH2 0x19EF JUMP JUMPDEST PUSH2 0x1C5E DUP3 DUP3 DUP6 PUSH2 0x1B9E JUMP JUMPDEST PUSH0 PUSH1 0x20 SWAP1 POP PUSH1 0x1F DUP4 GT PUSH1 0x1 DUP2 EQ PUSH2 0x1C8F JUMPI PUSH0 DUP5 ISZERO PUSH2 0x1C7D JUMPI DUP3 DUP8 ADD MLOAD SWAP1 POP JUMPDEST PUSH2 0x1C87 DUP6 DUP3 PUSH2 0x1C0C JUMP JUMPDEST DUP7 SSTORE POP PUSH2 0x1CEE JUMP JUMPDEST PUSH1 0x1F NOT DUP5 AND PUSH2 0x1C9D DUP7 PUSH2 0x1A87 JUMP JUMPDEST PUSH0 JUMPDEST DUP3 DUP2 LT ISZERO PUSH2 0x1CC4 JUMPI DUP5 DUP10 ADD MLOAD DUP3 SSTORE PUSH1 0x1 DUP3 ADD SWAP2 POP PUSH1 0x20 DUP6 ADD SWAP5 POP PUSH1 0x20 DUP2 ADD SWAP1 POP PUSH2 0x1C9F JUMP JUMPDEST DUP7 DUP4 LT ISZERO PUSH2 0x1CE1 JUMPI DUP5 DUP10 ADD MLOAD PUSH2 0x1CDD PUSH1 0x1F DUP10 AND DUP3 PUSH2 0x1BF0 JUMP JUMPDEST DUP4 SSTORE POP JUMPDEST PUSH1 0x1 PUSH1 0x2 DUP9 MUL ADD DUP9 SSTORE POP POP POP JUMPDEST POP POP POP POP POP POP JUMP JUMPDEST PUSH32 0x456C206D6F6E746F206465626520736572206D61796F722061206365726F0000 PUSH0 DUP3 ADD MSTORE POP JUMP JUMPDEST PUSH0 PUSH2 0x1D2A PUSH1 0x1E DUP4 PUSH2 0x1350 JUMP JUMPDEST SWAP2 POP PUSH2 0x1D35 DUP3 PUSH2 0x1CF6 JUMP JUMPDEST PUSH1 0x20 DUP3 ADD SWAP1 POP SWAP2 SWAP1 POP JUMP JUMPDEST PUSH0 PUSH1 0x20 DUP3 ADD SWAP1 POP DUP2 DUP2 SUB PUSH0 DUP4 ADD MSTORE PUSH2 0x1D57 DUP2 PUSH2 0x1D1E JUMP JUMPDEST SWAP1 POP SWAP2 SWAP1 POP JUMP JUMPDEST PUSH0 PUSH2 0x1D68 DUP3 PUSH2 0x11E0 JUMP JUMPDEST SWAP2 POP PUSH2 0x1D73 DUP4 PUSH2 0x11E0 JUMP JUMPDEST SWAP3 POP DUP3 DUP3 ADD SWAP1 POP DUP1 DUP3 GT ISZERO PUSH2 0x1D8B JUMPI PUSH2 0x1D8A PUSH2 0x17C4 JUMP JUMPDEST JUMPDEST SWAP3 SWAP2 POP POP JUMP INVALID LOG2 PUSH5 0x6970667358 0x22 SLT KECCAK256 0xBA 0xAA 0x23 STOP 0xCA 0xEE TIMESTAMP 0xB4 PUSH13 0x80DABC21D7753C641A6A3E77CE 0xAB SLT 0x22 ORIGIN 0x2C 0xAD 0xE8 LT 0xD6 0xC6 PUSH5 0x736F6C6343 STOP ADDMOD SHR STOP CALLER "
				},
				"gasEstimates": {
					"creation": {
						"codeDepositCost": "1524600",
						"executionCost": "1594",
						"totalCost": "1526194"
					},
					"external": {
						"agregarParticipante(string,address,uint256)": "infinite",
						"crearSala(string,uint256,uint256,uint256,uint256,uint256)": "infinite",
						"listaSalas(uint256)": "infinite",
						"obtenerHistorialTransacciones(string)": "infinite",
						"obtenerParticipantes(string)": "infinite",
						"obtenerSala(string)": "infinite",
						"realizarEnvio(string,address)": "infinite",
						"registrarTransaccion(string,address,address,uint256)": "infinite"
					}
				},
				"methodIdentifiers": {
					"agregarParticipante(string,address,uint256)": "869cc9ab",
					"crearSala(string,uint256,uint256,uint256,uint256,uint256)": "6afe5b71",
					"listaSalas(uint256)": "34b79858",
					"obtenerHistorialTransacciones(string)": "5e096a89",
					"obtenerParticipantes(string)": "2d74801d",
					"obtenerSala(string)": "cdb2000d",
					"realizarEnvio(string,address)": "1295ac46",
					"registrarTransaccion(string,address,address,uint256)": "9916495a"
				}
			},
			"storageLayout": {
				"storage": [
					{
						"astId": 52,
						"contract": "contracts/naku.sol:Pasanaku",
						"label": "salas",
						"offset": 0,
						"slot": "0",
						"type": "t_mapping(t_string_memory_ptr,t_struct(Sala)47_storage)"
					},
					{
						"astId": 55,
						"contract": "contracts/naku.sol:Pasanaku",
						"label": "listaSalas",
						"offset": 0,
						"slot": "1",
						"type": "t_array(t_string_storage)dyn_storage"
					}
				],
				"types": {
					"t_address": {
						"encoding": "inplace",
						"label": "address",
						"numberOfBytes": "20"
					},
					"t_array(t_string_storage)dyn_storage": {
						"base": "t_string_storage",
						"encoding": "dynamic_array",
						"label": "string[]",
						"numberOfBytes": "32"
					},
					"t_array(t_struct(Participante)11_storage)dyn_storage": {
						"base": "t_struct(Participante)11_storage",
						"encoding": "dynamic_array",
						"label": "struct Pasanaku.Participante[]",
						"numberOfBytes": "32"
					},
					"t_array(t_struct(Transaccion)20_storage)dyn_storage": {
						"base": "t_struct(Transaccion)20_storage",
						"encoding": "dynamic_array",
						"label": "struct Pasanaku.Transaccion[]",
						"numberOfBytes": "32"
					},
					"t_bool": {
						"encoding": "inplace",
						"label": "bool",
						"numberOfBytes": "1"
					},
					"t_mapping(t_string_memory_ptr,t_struct(Sala)47_storage)": {
						"encoding": "mapping",
						"key": "t_string_memory_ptr",
						"label": "mapping(string => struct Pasanaku.Sala)",
						"numberOfBytes": "32",
						"value": "t_struct(Sala)47_storage"
					},
					"t_string_memory_ptr": {
						"encoding": "bytes",
						"label": "string",
						"numberOfBytes": "32"
					},
					"t_string_storage": {
						"encoding": "bytes",
						"label": "string",
						"numberOfBytes": "32"
					},
					"t_struct(Participante)11_storage": {
						"encoding": "inplace",
						"label": "struct Pasanaku.Participante",
						"members": [
							{
								"astId": 6,
								"contract": "contracts/naku.sol:Pasanaku",
								"label": "wallet",
								"offset": 0,
								"slot": "0",
								"type": "t_address"
							},
							{
								"astId": 8,
								"contract": "contracts/naku.sol:Pasanaku",
								"label": "numTurno",
								"offset": 0,
								"slot": "1",
								"type": "t_uint256"
							},
							{
								"astId": 10,
								"contract": "contracts/naku.sol:Pasanaku",
								"label": "haRecibido",
								"offset": 0,
								"slot": "2",
								"type": "t_bool"
							}
						],
						"numberOfBytes": "96"
					},
					"t_struct(Sala)47_storage": {
						"encoding": "inplace",
						"label": "struct Pasanaku.Sala",
						"members": [
							{
								"astId": 22,
								"contract": "contracts/naku.sol:Pasanaku",
								"label": "hashId",
								"offset": 0,
								"slot": "0",
								"type": "t_string_storage"
							},
							{
								"astId": 24,
								"contract": "contracts/naku.sol:Pasanaku",
								"label": "anfitrion",
								"offset": 0,
								"slot": "1",
								"type": "t_address"
							},
							{
								"astId": 26,
								"contract": "contracts/naku.sol:Pasanaku",
								"label": "montoAportar",
								"offset": 0,
								"slot": "2",
								"type": "t_uint256"
							},
							{
								"astId": 28,
								"contract": "contracts/naku.sol:Pasanaku",
								"label": "montoTotalAportar",
								"offset": 0,
								"slot": "3",
								"type": "t_uint256"
							},
							{
								"astId": 30,
								"contract": "contracts/naku.sol:Pasanaku",
								"label": "numeroRondas",
								"offset": 0,
								"slot": "4",
								"type": "t_uint256"
							},
							{
								"astId": 32,
								"contract": "contracts/naku.sol:Pasanaku",
								"label": "rondaActual",
								"offset": 0,
								"slot": "5",
								"type": "t_uint256"
							},
							{
								"astId": 34,
								"contract": "contracts/naku.sol:Pasanaku",
								"label": "fechaInicio",
								"offset": 0,
								"slot": "6",
								"type": "t_uint256"
							},
							{
								"astId": 36,
								"contract": "contracts/naku.sol:Pasanaku",
								"label": "fechaFin",
								"offset": 0,
								"slot": "7",
								"type": "t_uint256"
							},
							{
								"astId": 38,
								"contract": "contracts/naku.sol:Pasanaku",
								"label": "periodo",
								"offset": 0,
								"slot": "8",
								"type": "t_uint256"
							},
							{
								"astId": 42,
								"contract": "contracts/naku.sol:Pasanaku",
								"label": "participantes",
								"offset": 0,
								"slot": "9",
								"type": "t_array(t_struct(Participante)11_storage)dyn_storage"
							},
							{
								"astId": 46,
								"contract": "contracts/naku.sol:Pasanaku",
								"label": "historialTransacciones",
								"offset": 0,
								"slot": "10",
								"type": "t_array(t_struct(Transaccion)20_storage)dyn_storage"
							}
						],
						"numberOfBytes": "352"
					},
					"t_struct(Transaccion)20_storage": {
						"encoding": "inplace",
						"label": "struct Pasanaku.Transaccion",
						"members": [
							{
								"astId": 13,
								"contract": "contracts/naku.sol:Pasanaku",
								"label": "from",
								"offset": 0,
								"slot": "0",
								"type": "t_address"
							},
							{
								"astId": 15,
								"contract": "contracts/naku.sol:Pasanaku",
								"label": "to",
								"offset": 0,
								"slot": "1",
								"type": "t_address"
							},
							{
								"astId": 17,
								"contract": "contracts/naku.sol:Pasanaku",
								"label": "monto",
								"offset": 0,
								"slot": "2",
								"type": "t_uint256"
							},
							{
								"astId": 19,
								"contract": "contracts/naku.sol:Pasanaku",
								"label": "fecha",
								"offset": 0,
								"slot": "3",
								"type": "t_uint256"
							}
						],
						"numberOfBytes": "128"
					},
					"t_uint256": {
						"encoding": "inplace",
						"label": "uint256",
						"numberOfBytes": "32"
					}
				}
			},
			"userdoc": {
				"kind": "user",
				"methods": {},
				"version": 1
			}
		}
	}
}